:020000040800F2
:1000000008050020D500000819200008251F000859
:1000100000000000000000000000000000000000E0
:100020000000000000000000000000001D2000088B
:1000300000000000000000001B2000081F20000836
:10004000E700000800000000E7000008E7000008E3
:10005000E7000008E7000008E7000008E7000008E4
:1000600000000000E7000008E7000008E7000008C3
:10007000E7000008E7000008E700000800000000B3
:10008000E70000080000000000000000E700000892
:1000900000000000E7000008E7000008E700000893
:1000A000E7000008E7000008E7000008E700000894
:1000B000E700000800000000000000000000000051
:1000C0000348854600F020FB00480047352400081F
:1000D000080500200448804704480047FEE7FEE783
:1000E000FEE7FEE7FEE7FEE7C9200008C1000008C2
:1000F000D2B201E00270401C491EFBD270470022C0
:10010000F6E710B513460A4604461946FFF7F0FF16
:10011000204610BDF0B51FB488B00B990998002493
:1001200048400999C00F490049080991C0070B9937
:100130000090490049080B9109990898A646084380
:100140001CD00B990A98084318D009980124400044
:10015000420D4800410D099824050003000B20437F
:1001600009900B980003000B20430B9050181C497A
:100170004018002201901446104605E00020014678
:100180000DB0F0BD032801DA034600E003239C46CE
:10019000C11A0AAE0AE05F0008ADED5B4F00F75BE5
:1001A0007D430027AA187C41491C5B1E6145F2DD96
:1001B000410004AB5A522104120C0A43240C401C87
:1001C0000828DFDB019802900099704601910090A9
:1001D000059B049A0799069800F0E5F8D0E700001F
:1001E0000DFCFFFF0EB5C217C10F5040CA074018E3
:1001F0000021054B0293019200910A460B4600F044
:10020000D2F803B000BD000033040000C20FD207D3
:10021000400040080BD0C10D0723DB01C918400284
:100220000905400A1143C2084007114370470020E6
:1002300001467047CB0FDB07490010B5490802465D
:100240000A4307D00A0D07240903E401090B121B16
:10025000002A01DC002010BDC900440F0C43C1007E
:10026000E018D205801800F050F810BD70B50446B3
:10027000002903D000202022012310E0002801D013
:100280000020C043C046C0460DE02546D5408D4203
:1002900005D30D469540641B1D46954040191546F3
:1002A000521E002DF1DC214670BDF0B51FB406468C
:1002B000002082B005464024019100901BE0019986
:1002C00022460F46304600F041FA049A059B801AF8
:1002D000994110D310461946224600F027FA361AE3
:1002E0008F410197224601200021009F00F01EFA55
:1002F00038184D4100902046641E0028DFDC019B29
:1003000000982946324607B0F0BD002904DA401CA7
:10031000490001D140084000704770B40024050C2A
:1003200005D11024000402D1002921D01124050E8A
:1003300001D100020834050F01D10001241D850FF1
:1003400001D18000A41C002801DB4000641C0029AE
:1003500008D020252E1B0D46F540A14000D00121DC
:100360002943084301061B1B000ADB1D02D50020A0
:1003700070BC7047DB05181880180029F8DA401C9B
:100380004900F5D170BC40084000704710B5002B03
:1003900008DA0024401C614192185B411A4301D1E4
:1003A0004008400010BDF0B51FB482B005460C00F7
:1003B00003D0084602F098F802E002F095F82030E9
:1003C000024600902146284600F0B0F9049B059AA9
:1003D00004460F4618431143084314D018461043EF
:1003E0001BD0009840210A1A1846059900F0AEF972
:1003F00005460E46009A0599049800F097F90843BF
:1004000005D0012004E02046394607B0F0BD0020A9
:10041000C11705430E432C43374300990E986305DB
:10042000401A7905E40A00220C43FD0A0A3002D57D
:1004300000200146E9E70105101969410C9C0D9D5A
:1004400000196941FFF7A2FFDFE70000F0B507469A
:100450000846584087B0C00F049048000E46590027
:1004600040084908BC1A884105D2384631461E4624
:1004700017460B4602465800400810434CD0300D3A
:10048000039040055900400D490D0590401A029017
:10049000402872DA18030121000B09050843019076
:1004A00004980092002805D001995242002088410A
:1004B00000920190029840210A1A0199009800F0D8
:1004C00035F905460C466B4607CB00F050F9C019CC
:1004D0007141039A0E0D0023D71756401A467A40F1
:1004E000164344D0049A002A2DD0029A012A039A76
:1004F00015DC1205C01A914101263605001C714118
:10050000D20F059ED2070093019202962A462346F7
:10051000FFF749FF07B0F0BD38463146FAE7160548
:10052000224A0F46B218C01AB74101210905001C22
:100530004F4100187F41114618187941E20F1043CE
:100540006D19644113E0E2076D0815436408C207A2
:100550001443039A01261205C01A91413605001C66
:100560007141CE07400830434908C01851412A461E
:100570002346FFF70BFFCDE7FFE704980122400079
:10058000C117121A00238B4104983146C417381A38
:10059000A141EEE730B40124E407634030BC55E7E5
:1005A00030B40124E407614030BC4FE70000E0FFB5
:1005B000F0B50C465C4085B0E40FE40703944C00B2
:1005C00000266408590094464908024602962243D0
:1005D00021D062460A431ED06200570D4A000E0326
:1005E0002303550D012402462C492405781B1B0BBF
:1005F000360B401823432643614600901C46501A90
:10060000B44103D30098401C009002E09218009877
:100610005B41002803DA0020014605B0F0BD002050
:10062000012109050746864611E064461D46141B54
:10063000B54106D36546521BB341744607430C438C
:10064000A646CD0740084908284392185B41054655
:100650000D43EAD11046184313D060461946504066
:100660007140084306D06046101AB34106D20122F9
:10067000002306E000220123DB0702E00122D2432F
:100680005310009874460105381C6141029C039D7B
:1006900000196941FFF77AFEBFE70000FD03000083
:1006A0004A0009030123090B1B0519430A4B10B526
:1006B000520D9A4202DA0020014610BD064B343337
:1006C0009A4203DC9A1A00F041F810BD034BD2188D
:1006D00000F02CF810BD0000FF030000CDFBFFFF71
:1006E00010B5002904DB0124E40740428C41214677
:1006F000002B04DB1C460123DB075242A341994235
:1007000000D1904210BD0000064C0125064E05E0C8
:10071000E36807CC2B430C3C98471034B442F7D322
:10072000FFF7D2FC682E0008882E000810B5202A9A
:1007300004DB0146203A9140002010BD9140202367
:100740009C1A0346E3401943904010BD10B5202A7F
:1007500004DB0846203AD040002110BD0B46D340B0
:10076000D0402024A21A91400843194610BD10B56C
:10077000202A06DBCB170846203A1041C1170B434D
:1007800006E00B461341D0402024A21A91400843B2
:10079000194610BD70B5054600688168826800245E
:1007A000D20726D00222114023D1816805220A40B7
:1007B000012A16D18168374A0A40911C81600321C1
:1007C000016000F01BFD064628688068C00710D055
:1007D00000F014FD801B0328F6D328688068C0074A
:1007E000F2D0A86D10210143A965E86D01242043D2
:1007F000E865204670BDC046F0B581B005460024CE
:10080000009400688168C9071AD18168214A2F3293
:10081000114208D0A86D10210143A965E86D01249B
:100820002043E8650CE081681A4A114001273943EA
:100830008160DC480068000205D4687E01280FD181
:10084000204601B0F0BDDB480068DB49FFF70EFD34
:10085000401C009000980028EFD00098401EF8E758
:1008600000F0CCFC064628680168C907E8D1816819
:10087000C90704D18168074A11403943816000F0FB
:10088000BDFC801B0328EED328680068C007EAD1AE
:10089000C0E7C046E8FFFF7FEFF3108072B6FEE7C7
:1008A000F0B583B00446002102915420205C012859
:1008B00001D102253DE001912746543701253D70C5
:1008C0002046FFF767FF064621688B68A26DDB07AD
:1008D0001FD1009681235B009A43921CA265CA68CF
:1008E000CB680326B343CB60EB0788681843886066
:1008F0003240114B886800280FD50298401C0290A6
:1009000002989842F6D3A06D10220243022082433F
:100910000CE010200243354608E0C8681043C86068
:10092000A06D0122024302208243009D019838708D
:10093000A265284603B0F0BD00F20200F0B587B012
:10094000002506955422825C012A01D10224ECE0A4
:100950000646543601243470026893685B0725D438
:1009600004694B68022B26D1042004438B4884423F
:1009700007D18948C0430B68DB430343906A1840A2
:1009800090620A680024002A00D4CDE085480168FE
:10099000864B9A4200D1ADE0854B9A4200D1ACE043
:1009A000814B9A4200D0BFE00522A4E0816D202255
:1009B0000A438265B8E0059304273C43774B9C4289
:1009C0003DD10868744B1840936A034393625069A1
:1009D0000B681C02A04389682140714C0C40044301
:1009E00054610024002B00D49EE001276D4802686A
:1009F000072080051146049001406B48834205970B
:100A000065D1F805174603900740059F5FD1654BF8
:100A10001A68049FBA431143039801431960FC48C4
:100A20000068FC49FFF722FC0C2141430C31069180
:100A30000698002878D00698401E0690F8E71F24F4
:100A4000059B1C400F2300930494A340046E019364
:100A50009C4303940B68504C2342029347D0DB071E
:100A60002C466AD1029CA30762D4630762D4230791
:100A700062D4E3063C4660D4029CA30673D46306AA
:100A800073D4230673D4E30573D4029B9B0572D4FD
:100A9000029B5B0571D4029B1B0570D4029BDB0497
:100AA0006FD4029B9B046ED4029B5B046DD4029BAB
:100AB0001B04009C41D4029BDB0368D4029B9B0374
:100AC00067D4029B5B03DB1712241C4035E03748D8
:100AD00083421CD13806174603900740059F16D164
:100AE000CE4B1A68049FBA43114303981AE05B0087
:100AF000DC0E22E00322920501E00322D205114020
:100B00000722920503689343591801600CE02848B6
:100B1000834209D1B805024006D1C04B1A68049F30
:100B2000BA431143014319603570204607B0F0BD48
:100B3000012402E0022400E00324049FBC40039B44
:100B40001C430466059B9B08C069984200D83EE799
:100B50000198C043936A034002988000000FB84098
:100B60001843906233E70524E7E70624E5E7072406
:100B7000E3E70824E1E70924DFE70A24DDE70B24A3
:100B8000DBE70C24D9E70D24D7E70E24D5E71024A2
:100B9000D3E71124D1E7C046FFFF0700040000801F
:100BA00000FFFF0708270140001000B0004000B818
:100BB000002000B404000020400D03000068006C19
:100BC00070470000F0B589B0044600200890002C62
:100BD0007CD00790A06D002807D1254654352046CB
:100BE00000F024F900202870E06501273D07266801
:100BF000B068C00012D4B068844901402943B16094
:100C0000834800688349FFF731FB4000801C08904F
:100C10000898002802D00898401EF8E7B0682842DB
:100C200008D1A06D10210143A165E06D012107915C
:100C30000843E065B06804210140A06D1022104017
:100C40004018A16D45D10292204620300F27FA436B
:100C50000392F33A1140891CA165B168C907059751
:100C60003CD1F16818229143A2680A43F260032143
:100C70008A076368194606921140E26C057F012DD0
:100C80000BD11143226C656C0195A56C04950A4348
:100C900001990A4304990A430121114332695E4DC7
:100CA000154004910D4335610122D507AB4217D0A1
:100CB00006998B4214D09207934211D0BA04134084
:100CC000564F3D689543E918396009E0012009B0A5
:100CD000F0BD1143A165384609B0F0BD0021049173
:100CE000216B4A1E91410903227E9203637EDB033E
:100CF0001343A57E6F031F43E26823693A430A4307
:100D00000121002B069103DACF071946B94300E011
:100D100049050A43017B4900114300780128059FDA
:100D20000DD1002D08D0A06D20220243A265E06DF8
:100D300001220243E26502E0012000040143049D18
:100D4000606A002805D00722920110400843A16A7A
:100D50000143F068324A02400A43F2603069314A86
:100D600002402A433261706907229043626B02435A
:100D70007261706970229043A26B1201024372612A
:100D8000002B17D006984005834221D1226E002304
:100D900018461546DD403D400F2D04D01B1D401C5C
:100DA0000828F6D10820B26A012807D10398024327
:100DB000B2620DE0B06A039A104308E0E069800077
:100DC0001C301C220240039B9340206E1843B062EB
:100DD000F068154A02408A420AD10020E065A06D01
:100DE0000121014302208143A165079809B0F0BDAC
:100DF000A06D0299084302218843A065E06D069921
:100E00000843E065084609B0F0BDC046E8FFFF6F43
:100E100004000020400D030002FCFF1F08270140D2
:100E20001902FEFF02FCFFDFE7FF3F8310B586B02B
:100E30000021059104910391029101910068104AEB
:100E4000904201D006B010BD0E48C3680122019245
:100E500014052343C360C36823400093009B0368C9
:100E60001343036000681040009003910320029038
:100E700005200007009901A900F0F4F806B010BDA4
:100E80000024014034100240F0B581B00D46044604
:100E90004069082801D1082704E02068C068C0071D
:100EA00033D1042700F0AAF9064603E02068006861
:100EB000384231D021680868384209D1681CF9D01D
:100EC00000F09CF9002DF1D0801BA842F2D9EDE78B
:100ED00001204202A36D1343A365CA681205920F55
:100EE0002DD1A27E002A2AD10A68120727D58A6846
:100EF00052071BD4224658324B680C25AB434B603B
:100F0000FF2502351368AB4317E0A06D2021014394
:100F1000A165012001B0F0BD542000212154A06D35
:100F200004210143A165032001B0F0BDA26D20237F
:100F30001343A36522465C32E36D03431360227EB4
:100F40000020002A01D001B0F0BD0C220A6001B0DF
:100F5000F0BD000070B504460068816802204907B2
:100F60000ED45421615C01290AD02546543501264E
:100F70002E702046FFF740FC002802D00021297087
:100F800070BDA16D084A0A4031025118A1650021C7
:100F9000E16522681C23136029709168284B0B407F
:100FA000191D916070BDC046FEF0FFFFF0B581B025
:100FB00004465420205C012801D102253CE027464C
:100FC000543701223A70206881680025490723D5EB
:100FD00000928168890704D48168194A0A40103256
:100FE000826000F00BF9064620688068400712D541
:100FF00000F004F9801B0328F6D3206880684007BE
:10100000F2D5A06D10210143A165E06D01252843B3
:10101000E065002200E0009A002A0BD02046FFF78E
:10102000B9FB0546002805D1FF200230A16D8143A0
:10103000481CA06500203870284601B0F0BDC046AD
:10104000E8FFFF7FB0B5044600F0D8F80546601C05
:1010500002D08C480078041900F0D0F8401BA04260
:10106000FAD3B0BDF0B58AB05F4A0890904201D083
:10107000052000E00320009009910E68002E00D1A9
:10108000B0E0012000210C460A46029005460FE020
:101090003043049D554A5060059A099806683046C9
:1010A000E840091DA41C08326D1C002800D199E0FD
:1010B00023466F1E02980797B8400640EDD004956E
:1010C0000592039109994A680323174606931F4026
:1010D0007D1E012D019612D8069DA540089B9E6895
:1010E000AE430999CD68A540354309999D60D20664
:1010F000D20F079DAA405D68854315435D60032FAD
:10110000089B069D19D02846A040DA68824388686B
:10111000A0401043D860022F0FD11C20039A10402A
:101120000F268640079AD20892009A18156AB5438E
:101130000E6986402E43069D16622846A0402F4623
:101140001D688543486882033840A04028431860E2
:10115000900F0399059A049D9FD0182313400F20E8
:101160009840079DBD43214A55192E6E8643603530
:1011700005200007089A82420AD01E48089A824237
:1011800008D01D48089A8242009804D1022002E04B
:10119000002000E001209840304328601448006897
:1011A000099A5568EA0302D5019E304301E0019E89
:1011B000B0430F4A10605068AA0301D5304300E0E5
:1011C000B0430B4A506009480068EA0201D5304339
:1011D00000E0B043054A10605068AA0200D557E706
:1011E000B04356E70AB0F0BD000C005000180240B2
:1011F00080180240000400500008005005480068B4
:101200007047C0461F48007802490A6810180860F5
:101210007047C0460401002010B50124200208498F
:101220000A6802430A60032000F00CF8002801D08D
:10123000204610BD00F02AF80024204610BDC0460C
:1012400000200240B0B505460E480178012400296F
:1012500016D07D20C000FFF709F801463848006825
:10126000FFF704F800F09CFC032D09D8002807D1F3
:101270000024E0432946224600F01EF8024805609B
:101280002046B0BD080000200C00002082B00948B4
:101290004168012211434160416811400191019967
:1012A000110702680A430260006808400090009835
:1012B00002B070473C100240002805D403220346C8
:1012C00093430C4A9A1806E00F220240083A03237F
:1012D0009A43074BD2188007C00E8901C9B28140DA
:1012E000FF23834010689843084310607047C0464E
:1012F0001CED00E000E400E0F0B581B003256902D8
:101300006F4E32688A430243326001214A02002450
:10131000904212D1EE480268706940050DD58F02E7
:10132000062050430749FEF7A1FF801C401E03D052
:1013300071693942FAD100E02C46204601B0F0BD77
:101340000400002040420F00F0B587B006468078C8
:1013500080075A4F01D400253EE00596012211076F
:10136000203F38680840049006D138680843386048
:101370003868084006900698029703910192160279
:101380004F4C206830432060FFF738FF0546276840
:10139000374006D1FFF732FF401B0328F7D3032560
:1013A00000E00025059E002F01D1444F0CE00324EE
:1013B0002102424F3868084055D07269904256D198
:1013C000C00761D1002D70D00498002804D1029A82
:1013D00010680399884310603068C10707D0394608
:1013E00008390A6803239A43736813430B60810624
:1013F00008D5032109033A46083A13688B43B168BC
:10140000194311600121420417D53A46083A13687E
:101410002D4C23400C46294635463669334313602C
:10142000294A521C96422E460D46214605D10A04F1
:101430003B46503B1C6814431C60000510D58803D4
:10144000032292033B46083B1C689443F268144312
:101450001C60824204D10804503F3968014339605E
:10146000284607B0F0BD0020C007ABD00CE03868BC
:10147000019A12043B6813433B603B6893433B6013
:1014800088433860C0079DD00194FFF7B7FE064639
:101490000C4C3868800705D4FFF7B0FE801BA042D3
:1014A000F7D3019D059E002D8ED1032000023968DF
:1014B0008143706908433860002585E75C1002406D
:1014C0000070004089130000FFFFFF3FF0B583B0BC
:1014D0000D460121002800D1D1E001910290714810
:1014E000006807242040A84214D26E490868A0432F
:1014F000284308606C4EFFF781FE07466948006884
:101500002040A84206D0FFF779FEC01BB042F5D9B3
:101510000321B4E0029E306881078E4B0CD5410751
:1015200003D521031A680A431A600F2109021A68B9
:101530008A43B16811431960C00719D1594800683E
:101540002040A84229D957490868A0432843086089
:10155000554FFFF753FE0646524800682040A84208
:101560001BD0FFF74BFE801BB842F5D9032186E064
:101570000298406803285AD8810001A251588F462A
:1015800091150008331600083D160008471600089C
:10159000194608390968490557E0029A107840074A
:1015A0006C4B05D5200319688143D0680843186047
:1015B00018688006400F22D01A6838210A40664811
:1015C000082A23D01A680A40102A5BD159680322DE
:1015D0000A40032A00D0614859684906490F491C4E
:1015E000FEF744FE5B4949684904490E484359499E
:1015F0004968490F491CFEF739FE564B06E018466C
:10160000083800688004410F5448C84019688909A7
:101610003C220A40254989581F220A40D0402C49C3
:10162000086023480068FFF70DFE014627E0596D6A
:101630000AE0194608390968890306E0194608399D
:101640000968890101E0996D8907019917D5196821
:10165000A14301431960144FFFF7D0FD06463D48F2
:1016600000683821014002984068C000814200D1E2
:1016700064E7FFF7C3FD801BB842F0D90321084699
:1016800003B0F0BD18680840202802D10120C00333
:10169000BCE718680840182801D00020B6E77D2074
:1016A0000002B3E70020024088130000E02D00088C
:1016B0000C0000200648006826490968890A1C2297
:1016C0000A40044989581F220A40D0407047C0464A
:1016D00004000020202E000810B51E4C2068800653
:1016E000400F06D0226838210A401B48082A07D13B
:1016F00010BD083C20688004410F1848C84010BD48
:1017000022680A40102A15D1616803220A40032A80
:1017100000D0124861684906490F491CFEF7A6FD32
:1017200061684904490E48436168490F491CFEF746
:101730009DFD10BD20680840202802D10120C00373
:1017400010BD20680840182801D0002010BD7D2061
:10175000000210BD0810024000127A000024F400BC
:10176000F0B587B00127002800D1C5E104970590A6
:101770000078C007FE4E2CD10598007880074CD425
:101780000598007800070DD5B06838210140182968
:1017900000D0A6E0306E800704D505988069002847
:1017A00000D1E9E105980078400700D45FE1B06816
:1017B00038210140202900D0AAE0F06D800700D434
:1017C00052E105988068002800D04DE100200127F3
:1017D0004BE1B068F16803273A468A43382101405B
:1017E00010204840821850425041082945D0002816
:1017F00043D105984268052000048242039200D13B
:10180000B8E0012001048A4200D1B9E032688A437D
:101810003260810430688843B4E0B1683820084001
:1018200010214140F26803273A4002235340CA186E
:101830005142514100282BD0002929D13068012183
:101840008C02059BDA68002A00D1B8E00722D20298
:1018500090431A69024332600802316801433160E3
:10186000FFF7CCFC05463068204200D0B7E0FFF718
:10187000C5FC401B0228F6D93EE13068800300D445
:101880007AE705984068002800D075E7049F33E1A7
:1018900031684905059B03D5D968002900D1B9E015
:1018A0007F21090272688A435969090211437160F4
:1018B00000280DD10720C002316881431869084310
:1018C000306030688004400FAE49C140AE480160CE
:1018D000AE480068FFF7B6FC002800D150E7049F2F
:1018E0000AE1306E05998969002900D181E0012162
:1018F00008433066FFF782FC0546306E800700D54E
:1019000050E7FFF77BFC401B03270228F5D9F3E0E3
:10191000012003900107F06B0840029006D1F06BA4
:101920000843F063F06B0840069006980191984FC9
:101930003868C00510D40398040238682043386022
:10194000FFF75CFC05463868204205D1FFF756FCDE
:10195000401B0228F7D975E005988768052F5BD0F2
:10196000012F5DD0F06D03998843F065F06D04217F
:10197000884358E00120810432680A433260010440
:1019800030680843306001204404FFF737FC054607
:10199000039800280FD03068204200D0ECE6FFF713
:1019A0002DFC401B6428F6D9A6E0FFF727FC401B5E
:1019B000642800D9A0E030682042F6D1DCE60902B4
:1019C00088433060FFF71AFC05463068204200D19A
:1019D000D6E6FFF713FC401B0228F6D98CE07F20E7
:1019E00000027168814305984069000208437060F5
:1019F000C6E6012188433066FFF700FC0546306EDD
:101A0000800700D4CEE6FFF7F9FB401B032702282E
:101A1000F5D971E0049F6FE0F06D04210143F16599
:101A2000F06D03990843F0655A4CFFF7E7FB054654
:101A3000002F0FD0F06D80070FD4FFF7DFFB401BA6
:101A4000A042F7D9002003270FE0FFF7D7FB401B88
:101A5000A042F7D8F06D8007F7D40298002803D190
:101A6000F06B01998843F0630120002844D0059869
:101A7000C06900283FD0B16838220A40102A03D13B
:101A8000012818D1049F37E00122130631689943D9
:101A90003160022833D1039304925406FFF7AEFB62
:101AA0000546306820423FD0FFF7A8FB401B0327C4
:101AB0000228F6D920E0F06803210140059B1A6A4C
:101AC000914257D1702101405A6A914256D17F21EB
:101AD000090201409A6A1202914251D11F21490420
:101AE0000140DA6A9142049F06D107214907084064
:101AF000196B884200D10027F8B207B0F0BDF0683A
:101B00000327B843F060F06823490140F1605506AF
:101B1000FFF774FB044630682842ECD0FFF76EFBF9
:101B2000001B0228F7D9E7E7F0681C490140059F30
:101B30002037ADCF084310431902014329433943ED
:101B4000F160306803990843306004980007F16839
:101B50000143F160FFF752FB054630682042CAD1CD
:101B6000FFF74CFB401B03270228F6D9C4E7C04609
:101B700000100240049FBFE7049FBDE7049FBBE73E
:101B8000049FB9E70024F400040000200C000020AA
:101B90000070004088130000FFFFFEEF8C80C11F23
:101BA000401E010E01D0012070470749074A5060CE
:101BB000074803680B40032189075918016000207A
:101BC0009060072111607047FFFFFF0010E000E008
:101BD00020ED00E0B0B58021415C012901D1022057
:101BE000B0BD024680322421516001680B680C6848
:101BF0000125AC430C606C07A3430B6000214166D8
:101C00001170202050600846B0BD0000F0B581B0D2
:101C100002468020105C012802D1022001B0F0BDF4
:101C2000144668342420E06115682E682B68012072
:101C300083432B60207607235B06AF689F430F43E7
:101C4000AF60516E002914D0AF68A868400F2B49CF
:101C5000095C2B4A105CC000FEF708FB608038016D
:101C6000400F2649095C264A105CC000FEF7FEFAC8
:101C700000E060802E602080002020762021E1613D
:101C800001B0F0BDF0B581B002468020105C0128A3
:101C900002D1022001B0F0BD144668342420E06176
:101CA00015682E682B68012083432B60207607235C
:101CB0005B07AF689F430F43AF60516E002914D09C
:101CC000AF68A868400F0D49095C0D4A105CC00060
:101CD000FEF7CCFA60803801400F0849095C084AD9
:101CE000105CC000FEF7C2FA00E060802E60208029
:101CF000002020762021E16101B0F0BD602E0008B7
:101D0000582E0008F0B583B0002842D0044607469C
:101D100080377868002804D100203870204600F011
:101D200053F824207860206801680125A9430160E8
:101D3000204600F033FA012841D0A06A002802D0E2
:101D4000204600F0C2F90920C00221684A68824397
:101D50004A6088682A2290438860086801263043D8
:101D600008600025FD60FFF749FA03462068006817
:101D7000000710D5134800907105002220460296F6
:101D80001E4600F0CDFA3346029E002803D00325FC
:101D900015E0012513E02068006840070AD50948CE
:101DA0000090B1050022204600F0BAFA002801D0C8
:101DB000032504E020207860B8603D70E566284681
:101DC00003B0F0BDFFFFFF0110B586B00021059103
:101DD000049103910291019100688E4A904201D0D2
:101DE00006B010BD7148C3680122059294032343D5
:101DF000C360C36823400093009B036813430360E0
:101E0000006810400090049103910220029003208A
:101E10004002019005200007009901A9FFF722F96F
:101E200006B010BDF0B587B00E4604468420215898
:101E30000220202911D10125002E0FD00492002A62
:101E40000CD001210D03A268AA420AD1F20708D0E2
:101E50002269002A05D10D4600E00546284607B054
:101E6000F0BD0395274680373A78012A0546F5D01C
:101E700005933A46274654370025D5601170212036
:101E800002925060FFF7BAF9069004987880388083
:101E9000A068039988420AD120690028049601D0DD
:101EA000002104910028059903D1064601E004951C
:101EB0000599029805700CE0049A108818490840AA
:101EC00021688862921C04922E4605997888401EEB
:101ED00078807888002810D0009180210025204645
:101EE0002A46069B00F01CFA002812D1002EE3D0EF
:101EF000307821688862761CE7E700914021002550
:101F000020462A46069B00F00BFA002803D0032542
:101F1000A4E70325A2E72020029948609EE7C04677
:101F2000FF010000FEE70000B0B584B02C21174887
:101F30000024445420214454C46444628462012532
:101F4000C561847604830421114AAB071CC0046078
:101F5000446081600394029401943C210C38445401
:101F6000046344638463FEF72DFE002801D0FEF76E
:101F700093FC039402940195044801A9FEF7DEFC4A
:101F8000002801D0FEF788FC04B0B0BD100000208E
:101F90000024014081B0054801680122114301601D
:101FA000006810400090009801B070473410024063
:101FB00010B5174800210C22CF4B016241628162AB
:101FC000E124640218C0016041608160C260016167
:101FD00041610838FFF796FE002801D0FEF75CFC4F
:101FE0000B480021FFF74EFE002801D0FEF754FCFD
:101FF00007480021FFF70AFE002801D0FEF74CFC3D
:102000000348FFF7E7FD002801D0FEF745FC10BDAF
:102010007400002000380140FEE77047704780B52B
:10202000FFF7F0F880BD0000F0B597B00AAC34219E
:102030002046FEF764F8002609960896079606964D
:10204000059604960396029601960096012778025B
:10205000FFF752F97807169078041590082014902D
:10206000139602251295119540200F900E96380276
:102070000D900A952046FFF773FB002803D0EFF37D
:10208000108072B6FEE7099608960720069007951D
:1020900006A82946FFF71AFA002803D0EFF31080AC
:1020A00072B6FEE704960196064800906846FFF770
:1020B0004BF9002803D0EFF3108072B6FEE717B09B
:1020C000F0BDC046014000007047B0B5816ACA0744
:1020D0000CD18A0714D44A071CD40A0724D4CA0690
:1020E0002CD48A0634D44A063CD44CE00122520453
:1020F00003685C689443C26A22435A608A07EAD53F
:102100000122120403685C689443026B22435A6004
:102110004A07E2D50122920403685C689443426B4B
:1021200022435A600A07DAD50122D20303685C68A9
:102130009443826B22435A60CA06D2D5012212030D
:1021400003689C689443C26B22439A608A06CAD58E
:102150000122520303689C689443026C22439A60F4
:102160004A0610D501221305026854689C43456C49
:102170002C4354609D4206D103235B0554689C4365
:10218000836C23435360090607D50121C904026803
:1021900053688B43C06C18435060B0BDF0B581B03C
:1021A000044600680168514A0A40A16823690B434C
:1021B00065691D43E1690D43154305600322120360
:1021C00043689343E2681A434260A269236A134357
:1021D0008268474D15401D438560C26A0F239A43AC
:1021E000636A1343C362434A904209D0424A904211
:1021F00008D1424800688007000F41A2135802E04E
:10220000002300E01023264668360125EA034048F3
:10221000914211D1082B21D80027C0467B441B795D
:102220005B009F44041B221B201B1B1B3700FFF776
:1022300041FA00281BD130E0082B30D80027C046D7
:102240007B441B795B009F44042A312A2F2A2A2AC7
:102250004500FFF72FFA00282AD13EE00020012791
:10226000002804D119E0FFF737FA002815D0616A79
:102270004900284A515AFDF7F9FF400061684A08B1
:102280001018FDF7F3FF2449014027D00007400F45
:1022900008431BE010460028E9D13D461EE000201F
:1022A0000127002804D118E0FFF716FA002814D0FF
:1022B000616A4900174A515AFDF7D8FF61684A0818
:1022C0001018FDF7D3FF80B2102807D32168C8602B
:1022D0003D4603E010460028EAD13D460F483060F5
:1022E000002020676067284601B0F0BDF369FFCF8A
:1022F000FFF4FF1100440040003801405410024038
:1023000000000000040000000200000008000000BF
:102310000024F400402E0008F0FF0000010001003E
:10232000F0B585B004930F4604460068C0690840C4
:10233000401A414241410020914245D11646029047
:102340002046803001900A9D01200090C002039039
:1023500007E02068C0693840C01B41424141B1429A
:1023600031D1681CF5D0FEF749FF002D2ED004991D
:10237000401AA8422AD8206801684907E9D5C169EE
:10238000039A1142E5D003990162EFF31080009D9A
:1023900085F310880D214901226813688B4313606F
:1023A00080F31088EFF3108085F3108821688A6825
:1023B000AA438A6080F310882020019A50609060C0
:1023C00010460C301EE0029805B0F0BDEFF310800F
:1023D000009D85F310880D214901226813688B4305
:1023E000136080F31088EFF3108085F31088216864
:1023F0008A68AA438A6080F310882020019A50607E
:10240000104608300021117020210160032005B022
:10241000F0BD000080B582B001907D20C30004486B
:1024200001A90122FFF7FEFC019802B080BDC04661
:1024300074000020FEF7F0FEFFF7F6FDFFF7AAFD9F
:10244000FFF772FDFFF7B4FD164C2046FEF728FAA1
:10245000174F18A57D20C000FEF7F4FD2046FEF7BB
:1024600079FD64212046FEF70FFD2046FEF7A6FB0E
:1024700006462046FEF79AFDB0B2FDF7B3FE0A4AC3
:102480000A4BFDF747FE00223B46FDF743FEFDF7F2
:10249000D1FEFDF7BBFE024628460B4600F014F8BD
:1024A000D8E7C046100000206666666666660A4089
:1024B0000000303F50413020766F6C7461676520BA
:1024C000252E32660D0A00000FB410B503A9044B87
:1024D000044A029800F0E8F810BC08BC04B01847A1
:1024E00015240008000000202021020C01D010213A
:1024F0001046020A01D010460839020901D01046E0
:10250000091F820801D01046891E420801D0881E8A
:102510007047081A704702E008C8121F08C1002A55
:10252000FAD170477047002001E001C1121F002A54
:10253000FBD17047F0B51FB486B00998089A030D17
:102540000021024314D05148514A18185043051431
:102550001198012810981AD0281A401C00264D4FB7
:102560004D49009601910490002812DA444211E08E
:102570001198012449A3012801D11098C14306985C
:10258000119A84600360C26041600BB0F0BD4042AC
:10259000E4E70446210500203F4A001C5141039115
:1025A000029012E0E00707D032463B4601990098BE
:1025B000FDF7B0FD0191009032463B4610461946AA
:1025C000FDF7A8FD06460F466410002CEAD10498DA
:1025D000039B0028029A0999089806DAFDF79AFDEC
:1025E000019B009AFDF796FD05E0FDF7E1FF019BD9
:1025F000009AFDF7DDFF04460E460022284BFEF749
:102600006FF803D80020C043014607E00022254BA5
:1026100020463146FDF71AFFFEF742F8102409E084
:10262000002C0ADB0A220023FDF73FFE079B303215
:102630001A55641E02460A43F2D11122641C079BFC
:10264000121B1C19119B012B03D0012308430ED12F
:102650000AE0084304D0112010900020119077E781
:102660001098151A6D1E0BE01098824202DD0023AF
:102670006D1C03E0824201DA00236D1E002BEED0B8
:10268000069811998260C16030C07EE701FCFFFFAF
:10269000104D0000000014400000F03F300000002A
:1026A0000000F0430000E03FFFB597B0064600256C
:1026B00018E2252877D100242746FD49049400E03C
:1026C0000443761C32780120203A90400842F7D12A
:1026D00030782A280ED00222307801463039092974
:1026E00016D804990A235943303940181443761CEC
:1026F0000490F1E7189802C804911890002904DAB0
:102700000120400304434842049002200443761C05
:1027100030782E2814D1042004437078761C2A289F
:1027200009D11898761C80C8189009E00A214F43F7
:10273000303FC719761C3078014630390929F5D960
:1027400030786C2810D006DC4C281AD068280ED0BF
:102750006A2817D104E0742813D07A2812D110E027
:102760000120400504430CE00121090501E003219B
:1027700009050C437178814203D10120000524181A
:10278000761C761C3078119066280BD013DC582804
:102790007DD009DC00287BD04528F6D04628F4D02F
:1027A00047281AD1A5E118E0632835D0642870D0F5
:1027B000652812D19DE170286CD008DC6728F1D023
:1027C00069287BD06E280DD06F2806D1BAE0732817
:1027D0002ED0752871D0782859D01A9A1999904717
:1027E0006D1C7EE16002400F022809D003280DD045
:1027F0000428189801680DD00D60001D189070E134
:102800001898EA1701680D604A60F6E718980168A1
:102810000D80F2E70D70F0E718986A4601781172A2
:10282000001D18900020507202A80090012005E0C1
:10283000189802C8189000200091C04361070DD578
:10284000002101E00199491C0191B94212DA81424B
:10285000F8DB009A515C0029F4D10BE0002101E083
:102860000199491C01918142FADB019A0099895C26
:102870000029F5D1019904981A9B471A2146384638
:10288000199A00F097FA0199401945180BE04FE0AA
:102890002CE113E04EE0009800990078491C00916B
:1028A0001A9A199990470198401E0190401CF2D144
:1028B000214638461A9B199A10E137E00A20002178
:1028C000009001916002410F022907D0189A01CAB5
:1028D0001892C2179446032908D00AE01898C01D20
:1028E000C108C90005C91891944607E000B2C21793
:1028F0009446042902D140B2C1178C460022614699
:10290000944506DA0A460021404291418C462D2129
:1029100002E0210504D52B216A461173012103E051
:10292000E10701D02021F7E7029155E00A200AE0F3
:10293000102008E0102000900021042004430191A1
:10294000082703E008200021019100906002410F58
:10295000022907D0189A01CA189200229446032926
:1029600008D008E01898C01DC108C90005C9189111
:10297000944603E080B2042900D1C0B20021029144
:10298000210729D51199702906D0009A1021019BA1
:102990004A401A4305D00EE040216A4611730121D6
:1029A00008E06146014306D030216A46117311994F
:1029B000517302210291009A0821019B4A401A4357
:1029C0000AD16146014301D1610705D530216A462C
:1029D000117301217F1E02911199582904D035A14C
:1029E0000E910DA90D910DE037A1F9E76146019B0C
:1029F000009AFDF75AFC0E9B8C469B5C0D9A521E6A
:102A00000D92137061460143F0D10D9805A9081A83
:102A100020300190600703D501200004844300E0CA
:102A200001270198874201DD381A00E00020019952
:102A300000904118029809180498401A0490E00385
:102A400006D421461A9B199A049800F0B3F9451947
:102A5000002706E003A81A9AC05D199990476D1CDB
:102A60007F1C02988742F5DBE0030CD521461A9BB8
:102A7000199A049800F09EF9451904E01A9A30203A
:102A8000199990476D1C0099481E00900029F5DCAB
:102A900008E00D980D990078491C0D911A9A199922
:102AA00090476D1C0199481E01900029F1DC63E1FB
:102AB0000928010030313233343536373839616214
:102AC00063646566000000003031323334353637D8
:102AD00038394142434445460000000000F05AF9AD
:102AE0004519761C3078002800D0E2E528461BB056
:102AF000F0BD600700D406271898C01DC108C900A2
:102B000048680A680831C30FDB071891190001D023
:102B10009CA108E0210501D59BA104E0E10701D0BB
:102B20009AA100E09AA1430011985B0810916528D2
:102B30000CD006DC452809D046281DD0472841D1B5
:102B400041E0662818D067283CD13CE00021112FD5
:102B500001DB112000E0781C0191009008A911A868
:102B6000FFF7E8FC139905910021119A15927F1C3B
:102B700012980197009150E00120C00703900120B6
:102B8000019008A9009711A8FFF7D4FC139A149993
:102B900005920022119B009212981593059A0192BA
:102BA000002901D0104602E0791C40180190381A23
:102BB00001D5019804E04042401E0090781C01902D
:102BC000C01B029043E0012F00DA01270021112FE2
:102BD00001DD112000E038460191009008A911A8FC
:102BE000FFF7A8FC13990591119A002112981592EC
:102BF0000091019721070CD40599B94201DB019995
:102C000000E00191012904DD159A491E515C30292B
:102C100006D0B84201DA011D05DA0121029115E062
:102C20000199491EEDE7002805DC00994118009143
:102C30000199091A03E0019A411C914200DD0191BA
:102C40000099401A401C02900120C0070390200701
:102C500006D402990198814202DB0020C043029011
:102C600000206946C87707AF012103980337C907D9
:102C7000884224D0022011902B2012900398002823
:102C80000CDA404203902D20129007E00A210398AD
:102C9000FDF7ECFA30317F1E039039701199481E10
:102CA00011900029F2DC03980028EFD1791E1298C8
:102CB00008703078202108404530BF1E387006A8C3
:102CC000C01BC01D039010980078002800D0012080
:102CD000019941180298C017091803980918049817
:102CE000401A401E0490E00306D421461A9B199A0C
:102CF000049800F05FF8451910980078002803D078
:102D00001A9A199990476D1CE00324D521461A9B05
:102D1000199A049800F04EF845191CE00098002814
:102D200007DB00990598884203DD1598405C1999E6
:102D300001E0199930201A9A904700986D1C401CA8
:102D400000900298401E0290002804D11A9A2E206A
:102D5000199990476D1C0199481E01900029DDDCEE
:102D600005E038781A9A7F1C199990476D1C0399D1
:102D7000481E03900029F4DC21461A9B199A0498F6
:102D8000ACE600002D0000002B0000002000000039
:102D900000000000F8B5044600251E4617468804CA
:102DA00004D405E039462020B0476D1C641EF9D5D7
:102DB0002846F8BDFFB50446002581B01E46C8036D
:102DC00001D5302700E02027880404D505E03846E7
:102DD0000399B0476D1C641EF9D5284605B0F0BDB7
:102DE00000000000000000000000000000000000E3
:102DF00000000000000000000000000000000000D3
:102E000001000000020000000300000004000000B8
:102E10000600000007000000080000000900000094
:102E200000000000000000000000000000000000A2
:102E30000100000002000000030000000400000088
:102E4000010002000400060008000A000C00100047
:102E50002000400080000001010101030701000083
:102E60000804020408010101882E00080000002067
:102E70001000000016250008982E00081000002001
:102E8000F804000026250008000000000024F400DB
:082E9000010000000400000035
:04000005080000C12E
:00000001FF
