:020000040800F2
:1000000018040020D5000008ED0B0008610B000863
:1000100000000000000000000000000000000000E0
:10002000000000000000000000000000F10B0008CC
:100030000000000000000000EF0B0008F30B0008B8
:10004000E700000800000000E7000008E7000008E3
:10005000E7000008E7000008E70000087901000851
:1000600000000000E7000008E7000008E7000008C3
:10007000E7000008E7000008E700000800000000B3
:10008000E70000080000000000000000E700000892
:1000900000000000E7000008E7000008E700000893
:1000A000E7000008E7000008E7000008E700000894
:1000B000E700000800000000000000000000000051
:1000C0000348854600F046F800480047FD0B00084D
:1000D000180400200448804704480047FEE7FEE774
:1000E000FEE7FEE7FEE7FEE7FB0B0008C1000008A5
:1000F000D2B201E00270401C491EFBD270470022C0
:10010000F6E710B513460A4604461946FFF7F0FF16
:10011000204610BD70B50446002903D000202022DF
:10012000012310E0002801D00020C043C046C04693
:100130000DE02546D5408D4205D30D469540641B04
:100140001D46954040191546521E002DF1DC2146F2
:1001500070BD0000064C0125064E05E0E36807CCA3
:100160002B430C3C98471034B442F7D3FFF7ACFF55
:10017000D40C0008F40C000880B50120000200F047
:1001800019F880BDB0B5044600F006F9084D29689D
:10019000401A80084B280AD300F0FEF8286001209E
:1001A00001028C4203D14103724800F0E5F8B0BD72
:1001B00010000020B0B50446074D2868204203D047
:1001C0002C60204600F00AF86868204203D06C607A
:1001D0002046FFF7D7FFB0BD0C1802407047000063
:1001E000F0B58AB05F4A0890904201D0052000E047
:1001F0000320009009910E68002E00D1B0E001208C
:1002000000210C460A46029005460FE03043049D4B
:10021000554A5060059A099806683046E840091D1D
:10022000A41C08326D1C002800D199E023466F1EE3
:1002300002980797B8400640EDD0049505920391C7
:1002400009994A680323174606931F407D1E012D16
:10025000019612D8069DA540089B9E68AE43099959
:10026000CD68A540354309999D60D206D20F079D00
:10027000AA405D68854315435D60032F089B069D7A
:1002800019D02846A040DA6882438868A04010430D
:10029000D860022F0FD11C20039A10400F268640F1
:1002A000079AD20892009A18156AB5430E698640DB
:1002B0002E43069D16622846A0402F461D688543A2
:1002C000486882033840A04028431860900F039983
:1002D000059A049D9FD0182313400F209840079D36
:1002E000BD43214A55192E6E86436035052000070F
:1002F000089A82420AD01E48089A824208D01D48B5
:10030000089A8242009804D1022002E0002000E016
:10031000012098403043286014480068099A5568C5
:10032000EA0302D5019E304301E0019EB0430F4A2B
:1003300010605068AA0301D5304300E0B0430B4A77
:10034000506009480068EA0201D5304300E0B0433C
:10035000054A10605068AA0200D557E7B04356E737
:100360000AB0F0BD000C0050001802408018024096
:10037000000400500008005042690B4693430A40B5
:100380001104C91881617047002A02D018228150D7
:100390007047282281507047054800687047C04662
:1003A0001E48007802490A68101808607047C04665
:1003B0001400002010B501242002C4490A68024339
:1003C0000A60032000F00AF8002801D0204610BD82
:1003D00000F026F80024204610BDC046B0B5054602
:1003E0000E4801780124002916D07D20C000FFF7B7
:1003F00091FE0146BB480068FFF78CFE00F096FBBB
:10040000032D09D8002807D10024E04329462246BD
:1004100000F028F8B44805602046B0BD0400002074
:1004200082B009484168012211434160416811408E
:1004300001910199110702680A43026000680840AF
:100440000090009802B070473C100240002805D48C
:100450001F21084001218140014801607047C046CA
:1004600000E100E0002805D40322034693430C4A30
:100470009A1806E00F220240083A03239A43074BDA
:10048000D2188007C00E8901C9B28140FF23834082
:1004900010689843084310607047C0461CED00E0A8
:1004A00000E400E0F0B581B0032569020F4E326828
:1004B0008A430243326001214A020024904212D151
:1004C00088480268706940050DD58F0206205043A8
:1004D0000749FFF71FFE801C401E03D07169394297
:1004E000FAD100E02C46204601B0F0BD007000407B
:1004F00040420F00F0B583B00D460121002800D125
:10050000D1E0019102907148006807242040A84280
:1005100014D26E490868A043284308606C4EFFF768
:100520003BFF0746694800682040A84206D0FFF715
:1005300033FFC01BB042F5D90321B4E0029E3068FE
:100540008107644B0CD5410703D521031A680A4380
:100550001A600F2109021A688A43B16811431960B1
:10056000C00719D1594800682040A84229D95749E5
:100570000868A04328430860554FFFF70DFF064663
:10058000524800682040A8421BD0FFF705FF801B9F
:10059000B842F5D9032186E00298406803285AD86A
:1005A000810001A251588F46B90500085B0600087A
:1005B000650600086F0600081946083909684905EC
:1005C00057E0029A10784007424B05D5200319687E
:1005D0008143D0680843186018688006400F22D015
:1005E0001A6838210A403C48082A23D01A680A4071
:1005F000102A5BD1596803220A40032A00D03748E9
:1006000059684906490F491CFFF784FD314949687B
:100610004904490E48432F494968490F491CFFF7CF
:1006200079FD2C4B06E01846083800688004410F1D
:100630002A48C840196889093C220A402849895833
:100640001F220A40D0402749086027480068FFF76A
:10065000C5FE014627E0596D0AE0194608390968C8
:10066000890306E0194608390968890101E0996D96
:100670008907019917D51968A14301431960144FDF
:10068000FFF78AFE064613480068382101400298A9
:100690004068C000814200D164E7FFF77DFE801B07
:1006A000B842F0D90321084603B0F0BD18680840ED
:1006B000202802D10120C003BCE718680840182890
:1006C00001D00020B6E77D200002B3E70020024001
:1006D000881300000810024000127A000024F40081
:1006E000940C00080000002008000020F0B587B03E
:1006F0000127002800D1C5E1049705900078C007C4
:10070000FE4E2CD10598007880074CD405980078CF
:1007100000070DD5B06838210140182900D0A6E0A7
:10072000306E800704D505988069002800D1E9E182
:1007300005980078400700D45FE1B0683821014097
:10074000202900D0AAE0F06D800700D452E105987E
:100750008068002800D04DE1002001274BE1B068FF
:10076000F16803273A468A43382101401020484067
:10077000821850425041082945D0002843D105989D
:100780004268052000048242039200D1B8E00120B3
:1007900001048A4200D1B9E032688A4332608104A0
:1007A00030688843B4E0B1683820084010214140E7
:1007B000F26803273A4002235340CA18514251417C
:1007C00000282BD0002929D1306801218C02059BFB
:1007D000DA68002A00D1B8E00722D20290431A69F1
:1007E000024332600802316801433160FFF7D4FDF3
:1007F00005463068204200D0B7E0FFF7CDFD401B32
:100800000228F6D93EE13068800300D47AE70598E3
:100810004068002800D075E7049F33E1316849053E
:10082000059B03D5D968002900D1B9E07F210902D1
:1008300072688A43596909021143716000280DD119
:100840000720C0023168814318690843306030686E
:100850008004400FAE49C140AE480160AE48006818
:10086000FFF7BCFD002800D150E7049F0AE1306E7D
:1008700005998969002900D181E00121084330668A
:10088000FFF78AFD0546306E800700D550E7FFF779
:1008900083FD401B03270228F5D9F3E001200390D4
:1008A0000107F06B0840029006D1F06B0843F0633B
:1008B000F06B0840069006980191984F3868C00583
:1008C00010D403980402386820433860FFF764FDB1
:1008D00005463868204205D1FFF75EFD401B02281F
:1008E000F7D975E005988768052F5BD0012F5DD09B
:1008F000F06D03998843F065F06D0421884358E05A
:100900000120810432680A433260010430680843E0
:10091000306001204404FFF73FFD0546039800289E
:100920000FD03068204200D0ECE6FFF735FD401BC9
:100930006428F6D9A6E0FFF72FFD401B642800D9F4
:10094000A0E030682042F6D1DCE60902884330603E
:10095000FFF722FD05463068204200D1D6E6FFF7BA
:100960001BFD401B0228F6D98CE07F200002716835
:10097000814305984069000208437060C6E6012182
:1009800088433066FFF708FD0546306E800700D4C7
:10099000CEE6FFF701FD401B03270228F5D971E0E1
:1009A000049F6FE0F06D04210143F165F06D039940
:1009B0000843F0655A4CFFF7EFFC0546002F0FD0B7
:1009C000F06D80070FD4FFF7E7FC401BA042F7D97A
:1009D000002003270FE0FFF7DFFC401BA042F7D801
:1009E000F06D8007F7D40298002803D1F06B0199CD
:1009F0008843F0630120002844D00598C06900288E
:100A00003FD0B16838220A40102A03D1012818D1FA
:100A1000049F37E0012213063168994331600228B0
:100A200033D1039304925406FFF7B6FC05463068B1
:100A300020423FD0FFF7B0FC401B03270228F6D925
:100A400020E0F06803210140059B1A6A914257D1CA
:100A5000702101405A6A914256D17F21090201401A
:100A60009A6A1202914251D11F2149040140DA6A67
:100A70009142049F06D1072149070840196B88421B
:100A800000D10027F8B207B0F0BDF0680327B843E3
:100A9000F060F06823490140F1605506FFF77CFCE7
:100AA000044630682842ECD0FFF776FC001B022891
:100AB000F7D9E7E7F0681C490140059F2037ADCF23
:100AC000084310431902014329433943F160306858
:100AD00003990843306004980007F1680143F1600E
:100AE000FFF75AFC054630682042CAD1FFF754FC94
:100AF000401B03270228F6D9C4E7C0460010024075
:100B0000049FBFE7049FBDE7049FBBE7049FB9E7CD
:100B10000024F400000000200800002000700040C5
:100B200088130000FFFFFEEF8C80C11F401E010EE6
:100B300001D0012070470749074A50600748036801
:100B40000B4003218907591801600020906007219C
:100B500011607047FFFFFF0010E000E020ED00E0B3
:100B6000FEE70000F0B587B00024069405940494D5
:100B7000039402941B480168042211430160016838
:100B80001140019101990168012739430160006812
:100B90003840019001987D03134E30462946224685
:100BA000FFF7F2FB059404940397029502AD3046DB
:100BB0002946FFF715FB0497212000040390380213
:100BC0000290052000072946FFF70AFB0725284663
:100BD00021462246FFF746FC2846FFF737FC07B0C0
:100BE000F0BDC0463410024000080050FEE77047D8
:100BF000704780B5FFF7D4FB80BD704792B0FFF718
:100C0000D9FB05AC34212046FFF779FA002604967B
:100C100003960296019601277802FFF743FC7807B6
:100C200011907804109008200F900E9602250D95D3
:100C30000C9540200A9009963802089005952046A8
:100C4000FFF754FD002803D0EFF3108072B6FEE7E3
:100C50000496039607200190029501A82946FFF704
:100C600049FC002803D0EFF3108072B6FEE7FFF7CF
:100C700079FFFEE702E008C8121F08C1002AFAD176
:100C800070477047002001E001C1121F002AFBD10C
:100C9000704700000000000000000000000000009D
:100CA0000000000000000000000000000000000044
:100CB000000000000100000002000000030000002E
:100CC000040000000600000007000000080000000B
:100CD00009000000F80C00080000002010000000CF
:100CE000740C0008080D0008100000200804000023
:100CF000840C0008000000000024F4000100000043
:080D00000400000000000000E7
:04000005080000C12E
:00000001FF
