:020000040800F2
:10000000F806002081010008111600087D14000880
:1000100000000000000000000000000000000000E0
:10002000000000000000000000000000F9160008B9
:100030000000000000000000131600080D17000863
:1000400093010008000000009301000893010008DC
:100050009301000893010008930100089301000830
:1000600000000000930100089301000893010008BC
:1000700093010008930100089301000800000000AC
:100080009301000800000000000000009301000838
:10009000000000009301000893010008930100088C
:1000A00093010008930100089301000893010008E0
:1000B00093010008000000000000000000000000A4
:1000C00000F002F800F04CF812A030C808382418EC
:1000D0002D18AC4201D100F043F80FCCA246AB463C
:1000E0000CA730CF2D1B083F3F197C427F1E544484
:1000F0002D090426F441641EAC4201D300F030F80F
:100100000126334200D0FB1A3343984754465D46DC
:10011000DFE70000C0180000E0180000103A02D32A
:1001200078C878C1FAD8520701D330C830C101D598
:1001300004680C6070470000704700000023002432
:1001400000250026103A01D378C1FBD8520700D30E
:1001500030C100D50B6070471FB51FBD10B510BD75
:1001600000F04DF81146FFF7F7FF01F0D4FA00F068
:1001700065F803B4FFF7F2FF03BC00F06BF8000072
:100180000748804707480047FEE7FEE7FEE7FEE72F
:10019000FEE7FEE704480549054A064B70470000A4
:1001A00015170008C1000008F8000020F80600201C
:1001B000F8020020F802002001E004C0091F042911
:1001C000FBD28B0701D50280801CC90700D00270CA
:1001D000704700290BD0C30702D00270401C491E93
:1001E000022904D3830702D50280801C891EE3E71D
:1001F0000022EEE70022DFE7704770477047754640
:1002000000F024F8AE46050069465346C008C00019
:10021000854618B020B5FFF7BDFF60BCB646002686
:100220000027C0C5C0C5C0C5C0C5C0C5C0C5C0C504
:10023000C0C5403D490849008D46704710B5044689
:10024000C046C0462046FFF794FF10BD00487047E7
:100250001000002001491820ABBEFEE72600020076
:100260007047EFF3108072B6FEE7000070B50446E9
:1002700000F080FC0619104D2868C00305D500F079
:1002800079FCB042F8D3032070BD28680B494A1CA2
:100290002A60084003D00A494860012070BD00F080
:1002A00069FC04192868400304D500F063FCA042EF
:1002B000F8D3E8E7002070BD10200240FA83000068
:1002C000D800002080B588B001A800F0A7FA0798F0
:1002D000C10110D5012109068843079000F068FB91
:1002E00000F052FB01A800F0BFFA00F037FB00F06D
:1002F0003DFB00F029FB08B080BD0000F0B587B0E1
:10030000002506955422825C012A01D10224E1E0F5
:100310000646543601243470026893685B0725D47E
:1003200004694B68022B26D104200443854884428B
:1003300007D18348C0430B68DB430343906A1840EE
:1003400090620A680024002A00D4C2E07F48016855
:10035000804B9A4200D1B0E07F4B9A4200D1AFE08F
:100360007B4B9A4200D0B4E00522A7E0816D2022A9
:100370000A438265ADE0059304273C43714B9C42E0
:100380003BD108686E4B1840936A034393625069EF
:100390000B681C02A043896821406B4C0C4004434D
:1003A00054610024002B00D493E001200590F24F0B
:1003B0003A68072080051146049001406448834252
:1003C00063D10598C00517460740EB4F5DD13A68E9
:1003D000049B9A43114301433960E3480068E349B1
:1003E00001F0DDF90C2141430C31069106980028FB
:1003F0006FD00698401E0690F8E71F24059B1C400E
:100400000F2300930494A340046E01939C43039430
:100410000B684B4C234202934CD0DB072C4661D136
:10042000029CA30759D4630759D4230759D4E30680
:100430003C4657D4029CA3066AD463066AD42306BA
:100440006AD4E3056AD4029B9B0569D4029B5B05D1
:1004500068D4029B1B0567D4029BDB0466D4029B15
:100460009B0465D4029B5B0464D4029B1B04009C28
:1004700038D4029BDB035FD4029B9B035ED4029BB8
:100480005B03DB1712241C402CE03248834203D16B
:1004900005980006814206D32F48834219D105985A
:1004A0008005024015D13A68049B9A4311430143E9
:1004B00039600EE05B00DC0E14E00322920501E0DF
:1004C0000322D2051140072292050368934359186D
:1004D00001603570204607B0F0BD012402E002241F
:1004E00000E00324049FBC40039B1C430466059B5F
:1004F0009B08C069984200D849E70198C043936AB5
:10050000034002988000000FB840184390623EE715
:100510000524E7E70624E5E70724E3E70824E1E705
:100520000924DFE70A24DDE70B24DBE70C24D9E705
:100530000D24D7E70E24D5E71024D3E71124D1E703
:10054000FFFF07000400008000FFFF0708270140AD
:10055000001000B0004000B8002000B4F0B589B031
:10056000044600200890002C61D00790A06D002860
:1005700007D125465435204600F000F900202870A8
:10058000E06501273D072668B068C00012D4B06856
:10059000744901402943B16073480068734901F010
:1005A000FEF84000801C08900898002802D00898A7
:1005B000401EF8E7B068284208D1A06D1021014321
:1005C000A165E06D012107910843E065B068042151
:1005D0000140A26D102002405118A16D2AD1059052
:1005E0000F20C2430692F33A1140891CA165B168FD
:1005F000C90779D1039027462037216B4A1E9141C4
:100600000A03A168237E9B030B43617EC903194340
:10061000A57E68030843E368034313430120C20730
:10062000216900290490029209DA914308E001202F
:1006300009B0F0BD0143A165384609B0F0BD4105E0
:100640000B43387B42001A43387801280DD1002D26
:1006500008D0A06D20210143A165E06D04990843F5
:10066000E06502E0049800040243636A002B06D0B0
:10067000072080010340A16A1943114300E011469D
:10068000F0683B4A02400A43F26003208507636832
:100690001A462A40E16C387F01280ED1206C009068
:1006A000676CA06C019000980743019807431743BB
:1006B0000F43049807433A4600E00A43039F30691A
:1006C0002C49014011433161029883420CD0AB4266
:1006D0000AD004988007834206D0B8040340264914
:1006E0000A688243D0180860706907229043676BDC
:1006F00038437061706970218843A16B090101431F
:100700007161216901235805814205D000290ED16C
:10071000B06A0699084309E0B06AE06980001C30BD
:100720001C210140069D8D40206E2843B0627069F7
:100730001040B8420AD10020E065A06D01210143BC
:1007400002208143A165079809B0F0BDA06D05990D
:10075000084302218843A065E06D1843E065184610
:1007600009B0F0BDE8FFFF6F00000020400D03005E
:100770000102FEFF02FCFF1F08270140B0B58CB04C
:1007800000240B940A940994089407940694059401
:10079000049403940294019400681649884201D09D
:1007A0000CB0B0BD05940125A803019001A800F08C
:1007B00085FA002801D0FFF754FD28050E49CA68C4
:1007C0000243CA60CA680240009200980868022288
:1007D00010430860086810400090099403200890B6
:1007E000042007900098DD4807A900F0F5F80CB048
:1007F000B0BDC0460024014034100240B0B50446EC
:1008000000F0B8F90546601C02D0E04800780419F1
:1008100000F0B0F9401BA042FAD3B0BD10B50721DB
:1008200001604168012901D0102100E00C21444AF7
:100830008B581F241C4084608958C902C90EC160AE
:1008400040494161136812680A408261D9B2AA29FD
:1008500003D10A46CC2903D003E0BB22CC2900D126
:100860000A46026110BDC046F0B583B0334D297809
:10087000012902D1022003B0F0BD00266E600121E3
:10088000029129700168CA072D4F09D04368846816
:10089000C26812042243012B01D1FA6000E03A61E0
:1008A00006220A40062A0BD1034610330ECB0B4317
:1008B000FF208243C143514038680840184323E079
:1008C0008A070DD4490720D54169FF229143D243BD
:1008D0004A403B683968DBB2AA2B0DD11C460CE0BC
:1008E0003968184A0A40FF21C94351403B680B4010
:1008F00000691843104307E0BB241140CC2B00D102
:100900001C4680692043084338607D20C40020468F
:10091000FFF7ACFC00280DD10196029846040C3F6D
:100920003868304338602046FFF7A0FC3968B1438F
:10093000019E39602E7003B0F0BDC046D800002083
:100940002020024000604F070120C0070D490A68BF
:1009500002430A600868C043C00F70470120C10607
:10096000084A13680B4313607047C0460120800794
:1009700004490A6802430A60096801404842484144
:100980007047C0461420024006488168490001D4DF
:1009900001207047044901600449016080684000FB
:1009A000C00F70470C2002403B2A19087F6E5D4C37
:1009B0000648C168002901D400207047044901603D
:1009C00004490160C068C00F7047C046082002405B
:1009D00023016745AB89EFCDF0B589B006900B6870
:1009E000002B00D1B1E05A48069A824201D005207E
:1009F00000E0032000900026089634463746039115
:100A00000EE01843544A10607F1C0B681846F840EB
:100A10000836089A121D0892A41C002800D194E000
:100A200001250195BD402B400493EDD04968032278
:100A30000B461340581E01280796059211D8104600
:100A4000A040069EB26882430398C068A04010434D
:100A5000B060C806C00FB8407268AA430243726013
:100A6000059A032B0399069D1CD01046A040EA6806
:100A700082438868A0401043059AE860022B11D198
:100A80001C20089908400F218140FA089200AA18FA
:100A9000136A8B4303990D6985401D4303991562C1
:100AA000059A069D1046A0402B688343486886033C
:100AB00002961040A040184328600298800F079EBD
:100AC000A2D038469043234A13181E6E0520000713
:100AD000069A82420AD02148824205D020488242AA
:100AE000009D04D1022502E0019D00E000251820B0
:100AF000079A10400F228240964360338540354369
:100B00001D60144800684D68EA0202D5049B184332
:100B100001E0049B9843079E0E4A10605068AA02A9
:100B200001D5184300E098430A4A50600A484068DB
:100B3000AA0301D5184300E09843074A50601068A3
:100B4000EA0300D55DE798435CE709B0F0BDC04615
:100B5000000C0050001802408018024000040050B1
:100B600000080050002A02D0182281507047282225
:100B700081507047064800687047C046204800789A
:100B800003490A68101808607047C0460600002034
:100B9000F4000020B0B50124200208490A6802438D
:100BA0000A600025284600F00BF8002801D02046F6
:100BB000B0BD00F029F82C462046B0BD0020024010
:100BC000B0B505460E4801780124002916D07D20D5
:100BD000C00000F0E4FD01463648006800F0DFFD8B
:100BE00000F032FC032D09D8002807D10024E0438F
:100BF0002946224600F01EF8024805602046B0BD96
:100C0000060000200800002082B009484168012247
:100C10001143416041681140019101991107026837
:100C20000A430260006808400090009802B07047D4
:100C30003C100240002805D40322034693430A4A8D
:100C40009A1803E00C220240064BD2188007C00E0F
:100C50008901C9B28140FF2383401068984308434B
:100C60001060704714ED00E000E400E0F0B581B0E2
:100C7000032569026D4E32688A43024332600121C6
:100C80004A020024904212D1E64802687069400589
:100C90000DD58F0206205043074900F080FD801CCF
:100CA000401E03D071693942FAD100E02C4620463B
:100CB00001B0F0BD0000002040420F00F0B587B049
:100CC000054680788007584E01D4002065E00595E0
:100CD00001221107203E30680840049006D1306898
:100CE00008433060306808400690069802960391E9
:100CF000019216024D4C206830432060FFF73AFF06
:100D000005462768374006D1FFF734FF401B03280C
:100D1000F7D3032000E00020434E002F01D1059DB2
:100D200033E003273C0231682140059D23D06A69E6
:100D3000914220D03168019A120433681343336022
:100D40003368934333600A46A2433260C90712D026
:100D500000972F460190FFF70DFF0546344C306891
:100D6000800706D4FFF706FF401BA042F7D3009888
:100D700000E001983D46002807D1032000023168B9
:100D8000814368690843306000200499002904D138
:100D9000029B1968039A914319602F68F90707D0DD
:100DA000314608390A6803239A436B6813430B6082
:100DB000B90608D5032109033246083A13688B4364
:100DC000A96819431160012105917A0413D53246AF
:100DD000083A1368174C234029462D692B431360AA
:100DE000621C95420D4606D105990A043346503BD4
:100DF0001C6814431C603A0513D52946059A9503CF
:100E0000032292033346083B1C689443CA68144388
:100E10001C60AA4205D105990A04503E316811436D
:100E2000316007B0F0BDC0465C1002400070004069
:100E300089130000FFFFFF3FF0B583B00D4601218D
:100E4000002800D1CFE0019102907048006807248B
:100E50002040A84213D26D490868A0432843086087
:100E60006B4EFFF787FE0746684800682040A8429F
:100E700005D0FFF77FFEC01BB042F5D9B2E0029E5D
:100E800030688107634B0CD5410703D521031A68ED
:100E90000A431A600F2109021A688A43B168114394
:100EA0001960C00718D1594800682040A84228D9C5
:100EB00056490868A04328430860554FFFF75AFE7B
:100EC0000646524800682040A8421AD0FFF752FE5A
:100ED000801BB842F5D985E00298406803285AD8AB
:100EE000810001A251588F46F90E00089B0F00089F
:100EF000A50F0008AF0F0008194608390968490511
:100F000057E0029A10784007424B05D52003196834
:100F10008143D0680843186018688006400F22D0CB
:100F20001A6838210A403C48082A23D01A680A4027
:100F3000102A5BD1596803220A40032A00D037489F
:100F400059684906490F491C00F029FC3149496894
:100F50004904490E48432F494968490F491C00F08C
:100F60001EFC2C4B06E01846083800688004410F30
:100F70002A48C840196889093C220A4028498958EA
:100F80001F220A40D0402749086027480068FFF721
:100F900017FE014627E0596D0AE01946083909682D
:100FA000890306E0194608390968890101E0996D4D
:100FB0008907019917D51968A14301431960144F96
:100FC000FFF7D8FD06461348006838210140029813
:100FD0004068C000814200D165E7FFF7CBFD801B70
:100FE000B842F0D90321084603B0F0BD18680840A4
:100FF000202802D10120C003BCE718680840182847
:1010000001D00020B6E77D200002B3E700200240B7
:10101000881300000810024000127A000024F40037
:10102000941900080000002008000020F0B587B0E7
:101030000127002800D1F4E1049705900078C0074B
:10104000F94E2CD10598007880074CD4059800788B
:1010500000070DD5B06838210140182900D0A4E060
:10106000306E800704D505988069002800D18CE196
:1010700005980078400700D45BE1B0683821014052
:10108000202900D0A8E0F06D800700D44EE105983B
:101090008068002800D049E10020012747E1B068BE
:1010A000F16803273A468A4338210140102048401E
:1010B000821850425041082945D0002843D1059854
:1010C0004268052000048242039200D1B6E001206C
:1010D00001048A4200D1B7E032688A433260810459
:1010E00030688843B2E0B1683820084010214140A0
:1010F000F26803273A4002235340CA185142514133
:1011000000282AD0002928D1306801218C02059BB3
:10111000DA68002A00D1B6E00722D20290431A69A9
:10112000024332600802316801433160FFF722FD5B
:1011300005463068204200D0B5E0FFF71BFD401B9C
:101140000228F6D96DE13068800300D47AE705986B
:101150004068002800D075E717E131684905059B14
:1011600003D5D968002900D10FE17F2109027268F7
:101170008A43596909021143716000280DD1072083
:10118000C0023168814318690843306030688004C8
:10119000400FA649C140A6480160A6480068FFF775
:1011A0000FFD002800D0F0E050E7306E0599896906
:1011B000002900D181E0012108433066FFF7DAFC05
:1011C0000546306E800700D552E7FFF7D3FC401B81
:1011D00003270228F5D924E1012003900107F06BD1
:1011E0000840029006D1F06B0843F063F06B0840B2
:1011F000069006980191904C2068C00510D4039881
:101200000702206838432060FFF7B4FC05462068D9
:10121000384205D1FFF7AEFC401B0228F7D973E036
:1012200005988468052C59D0012C5BD0F06D03998A
:101230008843F065F06D0421884356E00120810465
:1012400032680A433260010430680843306001208C
:101250004404FFF78FFC0546039800280FD0306840
:10126000204200D0EEE6FFF785FC401B6428F6D94B
:10127000D7E0FFF77FFC401B642800D9D1E030683D
:101280002042F6D1DEE6090288433060FFF772FCA7
:1012900005463068204200D1D8E6FFF76BFC401BC2
:1012A0000228F6D9BDE07F200002716881430598CD
:1012B0004069000208437060C8E601218843306637
:1012C000FFF758FC0546306E800700D4D0E6FFF7E4
:1012D00051FC401B03270228F5D9A2E0F06D042140
:1012E0000143F165F06D03990843F065534FFFF733
:1012F00041FC0546002C0FD0F06D80070FD4FFF79E
:1013000039FC401BB842F7D9002003270FE0FFF754
:1013100031FC401BB842F7D8F06D8007F7D4029833
:10132000002803D1F06B01998843F0630120002865
:1013300077D00598C469002C72D0B068382101407C
:10134000102924D1012C20D0F06803210140059BF5
:101350001A6A914219D1702101405A6A914214D1FE
:101360007F21090201409A6A120291420DD11F2188
:1013700049040140DA6A9142049F52D1072149078A
:101380000840196B88424BD04BE0049F49E001278D
:1013900039063068049188433060FFF7EBFB05465F
:1013A000022C0BD103977C063068204211D0FFF746
:1013B000E1FB401B03270228F6D932E07C063068A7
:1013C000204229D0FFF7D6FB401B03270228F6D97D
:1013D00027E0F0681B490140059F2037ADCF084347
:1013E00010431902014329433943F16030680499DD
:1013F0000843306003980007F1680143F160FFF78C
:10140000B9FB0546306820420AD1FFF7B3FB401B09
:1014100003270228F6D904E0F06809490140F16089
:101420000027F8B207B0F0BD001002400024F4001D
:101430000000002008000020007000408813000019
:10144000FCFFFEEF8C80C11F401E010E01D0012069
:1014500070470749074A5060074803680B4003215B
:1014600089075918016000209060072111607047BA
:10147000FFFFFF0010E000E020ED00E0FEE70000CD
:10148000F0B581B00C4D00242C600C4E0C4F308810
:101490004100481C30803846884300F0BBF87D206E
:1014A0008000FFF7ABF92868411C29600F28EEDBAC
:1014B000348001B0F0BDC046D400002004000020FC
:1014C000FEFF0000B0B584B02C211948002444541C
:1014D000C464446284620121C1618476048304226D
:1014E000144B051D2C778907036041608460C4603C
:1014F00004614261039402940194014630310C73FB
:10150000046344638463FFF729F8002801D0FEF7E1
:10151000A8FE0394029408480190054801A9FEF72B
:10152000EDFE002801D0FEF79CFE04B0B0BDC04621
:10153000700000200024014000040028F0B589B0AC
:101540000024089407940694059404942D48016897
:10155000042211430160016811400391039901685D
:101560002022114301600168114003910399016831
:10157000012529430160016829400391039901680D
:1015800002221143016000681040039003985948FB
:101590001D492246FFF7E6FA052000070290FF21C9
:1015A00001912246FFF7DEFA0720460350483146F4
:1015B0002246FFF7D7FA0794069405953046C030C7
:1015C000049004AF4B483946FFF706FA0794069497
:1015D00005950198049002983946FFF7FDF90694A5
:1015E00005940A48049042483946FFF7F5F90794F4
:1015F0000694059504963E483946FFF7EDF909B083
:10160000F0BDC04634100240C0E0000003040000FA
:10161000FEE77047F0B583B00446012502462A4034
:101620000520060730462946FFF79CFAA007C20F9F
:1016300002213046FFF796FA6007C20F04213046B8
:10164000FFF790FA2007C20F08213046FFF78AFA09
:10165000E006C20F10213046FFF784FAA006C20F41
:1016600020213046FFF77EFA6006C20F402102912A
:101670003046FFF777FAE0B2C20980210191304687
:10168000FFF770FA69030091E005C20F184F384662
:10169000FFF768FAAE03A005C20F38463146FFF7E0
:1016A00061FAED036005C20F38462946FFF75AFA82
:1016B0002005C20F0F4F38460299FFF753FAE00496
:1016C000C20F38460199FFF74DFAA004C20F384601
:1016D0000099FFF747FA6004C20F38463146FFF71A
:1016E00041FAE20B38462946FFF73CFA03B0F0BD59
:1016F00000040050000800507047000080B5024808
:10170000FFF788FF80BDC046FFFF000080B5FFF7F0
:1017100035FA80BD704792B0FFF73CFA05AC342132
:101720002046FEF767FD0026049603960296019672
:1017300001277802FFF79AFA780711907804109041
:1017400008200F900E9602250D950C9540200A90CA
:1017500009963802089005952046FFF767FC002897
:1017600003D0EFF3108072B6FEE7049603960720CD
:101770000190029501A82946FFF75EFB002803D0DF
:10178000EFF3108072B6FEE7FEF79CFDFFF7D6FE82
:10179000FFF798FEFFF7B2FFFFF772FEFCE7430882
:1017A0008B421AD3002203098B4279D3030A8B425E
:1017B0005ED3030B8B4242D3030C8B4227D3090227
:1017C000FF2212BA030C8B4202D31212090203D079
:1017D000030B8B4233D31AE0D3E0411A8041401C03
:1017E000704703460B4371D443088B42F5D3002264
:1017F00003098B4254D3030A8B4239D3030B8B4228
:101800001DD3030C8B4202D394466EE0090AC30B2E
:101810008B4201D3CB03C01A5241830B8B4201D3BD
:101820008B03C01A5241430B8B4201D34B03C01AA6
:101830005241030B8B4201D30B03C01A5241C30A1E
:101840008B4201D3CB02C01A5241830A8B4201D38F
:101850008B02C01A5241430A8B4201D34B02C01A79
:101860005241030A8B4201D30B02C01A5241CDD21E
:10187000C3098B4201D3CB01C01A524183098B4269
:1018800001D38B01C01A524143098B4201D34B0152
:10189000C01A524103098B4201D30B01C01A5241B5
:1018A000C3088B4201D3CB00C01A524183088B423C
:1018B00001D38B00C01A524143088B4201D34B0025
:1018C000C01A5241411A524110007047CA0F00D04D
:1018D0004942031000D34042534000229C46030972
:1018E0008B422DD3030A8B4212D38901FC2212BAF8
:1018F000030A8B420CD3890192118B4208D38901D0
:1019000092118B4204D3890137D0921100E08909EA
:10191000C3098B4201D3CB01C01A524183098B42C8
:1019200001D38B01C01A524143098B4201D34B01B1
:10193000C01A524103098B4201D30B01C01A524114
:10194000C3088B4201D3CB00C01A524183088B429B
:1019500001D38B00C01A5241D9D243088B4201D324
:101960004B00C01A5241411A00D201465241104662
:1019700063465B1000D34042704763465B1000D360
:10198000404201B50021004201D0C9430846C0468B
:10199000C04602BD00000000000000000000000082
:1019A0000000000000000000000000000000000037
:1019B0000000000001000000020000000300000021
:1019C00004000000060000000700000008000000FE
:1019D00009000000F81900080000002010000000B5
:1019E0001C010008081A000810000020E80600008A
:1019F0003C010008000000000024F4000100010088
:081A00000400000000000000DA
:04000005080000C12E
:00000001FF
