:020000040800F2
:10000000B8110020D5000008290F0008830E000851
:1000100000000000000000000000000000000000E0
:10002000000000000000000000000000750F000844
:100030000000000000000000310F0008790F0008E8
:10004000E700000800000000E7000008E7000008E3
:10005000E7000008E7000008E7000008E7000008E4
:1000600000000000E7000008E7000008E7000008C3
:10007000E70000089D0F0008E700000800000000EE
:10008000E70000080000000000000000E700000892
:1000900000000000E7000008E7000008E700000893
:1000A000E7000008E7000008E7000008E700000894
:1000B000E700000800000000000000000000000051
:1000C0000348854600F058F800480047DD0F000857
:1000D000B81100200448804704480047FEE7FEE7C7
:1000E000FEE7FEE7FEE7FEE7990F0008C100000803
:1000F00003460B439B0703D009E008C9121F08C041
:10010000042AFAD203E00B780370401C491C521EEB
:10011000F9D27047D2B201E00270401C491EFBD2F6
:1001200070470022F6E710B513460A460446194602
:10013000FFF7F0FF204610BD70B50446002903D03C
:1001400000202022012310E0002801D00020C0431D
:10015000C046C0460DE02546D5408D4205D30D462C
:100160009540641B1D46954040191546521E002DB2
:10017000F1DC214670BD0000064C0125064E05E06D
:10018000E36807CC2B430C3C98471034B442F7D3B8
:10019000FFF79AFF6023000880230008F0B58CB0B9
:1001A0000B916A4A904201D0052200E0032200929E
:1001B0000B990F68002F00D1C6E0012300263546B9
:1001C0000293099608960A9013E03A436048426009
:1001D0000A980B9A17683A46DA40361D08355B1CB8
:1001E0000999891C09910899491C0891002A00D194
:1001F000AAE0591E029C07918C402740E9D0069541
:1002000005960B9A516803260D4635406A1E012A51
:1002100004911BD8032209998A400A988068904368
:100220000B9EF6688E4006430A9886600498C006C6
:10023000C00F079988400A9E7668A64306430A982D
:100240004660D4430A98089949000BE03246099960
:100250008A40D443032D05D1099903913546059E63
:10026000049923E0C268019422400B9CA4688C404E
:100270001443C460022D039115D11C20059E30400B
:100280000F2282400799CC08A4000A9D2C19256AE8
:1002900095430B990A6982402A4322620A98496869
:1002A00003250D4001E0059E0499019C039A9540A9
:1002B000026822402A4302608A03920F069D88D07A
:1002C000182028400F2585400322079991430A9A58
:1002D0001F4C6618346EAC43603605252D07AA42C4
:1002E00008D01D4DAA4207D01C4DAA42009D04D142
:1002F000022502E0002500E0012585402543356008
:10030000144802680B984068C40301D53A4300E0E2
:10031000BA43059E069D0F4C22606268840301D596
:100320003A4300E0BA430B4C6260094A1268C402C7
:1003300001D53A4300E0BA43054C2260626880026E
:1003400000D542E7BA4341E70CB0F0BD000C0050C5
:1003500000180240801802400004005000080050BD
:1003600042690B4693430A401104C91881617047E2
:10037000002A02D0182281507047282281507047ED
:10038000064800687047C0460348007803490A6879
:10039000101808607047C04600000020B40D00200F
:1003A00010B501242002F5490A6802430A600320BF
:1003B00000F00AF8002801D0204610BD00F044F8F3
:1003C0000024204610BDC04670B586B001460D24FD
:1003D000002520462A4600F05FF8204600F050F83D
:1003E0000124E00214490A6802430A6009680140D6
:1003F0000291029802A801A900F0AAF900F0C0F940
:100400000E4E0F490F4A3260B560F16035615049B8
:10041000FFF792FE401E7060304600F0DDFB0028C2
:1004200002D0204606B070BD044800F03DFC0446F2
:10043000204606B070BDC04640100240DC000020DF
:10044000E7030000002C014080B582B00B494A68E8
:10045000012002434A604A6802400192019A020761
:100460000B6813430B600968114000910099C04369
:100470000321002200F010F802B080BD3C100240C1
:10048000002805D41F210840012181400148016056
:100490007047C04600E100E0002805D4032203466F
:1004A00093430C4A9A1806E00F220240083A0323AD
:1004B0009A43074BD2188007C00E8901C9B2814008
:1004C000FF23834010689843084310607047C0467C
:1004D0001CED00E000E400E0F0B581B00325690206
:1004E0001A4E3246143A13688B43034313600124B7
:1004F00061020022884226D1A84801683068400580
:1005000021D50092A702062048431149FFF714FEA7
:10051000201A022816D0316839420FD0012811D094
:10052000316839420AD000280CD03168394205D0F0
:10053000001D032806D031683942EAD1009A1046DE
:1005400001B0F0BD2A46104601B0F0BD1470004065
:1005500040420F00F0B583B00D46012100281BD0AA
:10056000019102908548006807242040A84216D2D5
:1005700082490868A04328430860704EFFF700FFD7
:1005800007467E4800682040A84208D0FFF7F8FEE2
:10059000C01BB042F5D90321084603B0F0BD029E4E
:1005A000306881077E4B0CD5410703D521031A68BB
:1005B0000A431A600F2109021A688A43B16811437D
:1005C0001960C0071BD16D4800682040A8422CD993
:1005D0006A490868A04328430860584FFFF7D0FED7
:1005E0000646664800682040A8421ED0FFF7C8FEB5
:1005F000801BB842F5D90321084603B0F0BD02982C
:10060000406803285DD8810001A251588F46C0463A
:1006100021060008C7060008D1060008DB0600080E
:10062000194608390968490559E0029A10784007C7
:100630005B4B05D5200319688143D06808431860D7
:1006400018688006400F22D01A6838210A403C48BA
:10065000082A23D01A680A40102A5ED1596803225A
:100660000A40032A00D0374859684906490F491CF7
:10067000FFF762FD4A4949684904490E4843484921
:100680004968490F491CFFF757FD454B06E01846DE
:10069000083800688004410F2A48C8401968890951
:1006A0003C220A40284989581F220A40D0403B4931
:1006B000086026480068FFF787FE0146084603B039
:1006C000F0BD596D0AE0194608390968890306E04A
:1006D000194608390968890101E0996D890701996E
:1006E00000D459E71968A14301431960134FFFF77C
:1006F00047FE06462A4800683821014002984068B3
:10070000C000814200D15EE7FFF73AFE801BB8428D
:10071000F0D90321084603B0F0BD1868084020282E
:1007200002D10120C003B9E718680840182801D099
:100730000020B3E77D200002B0E7C0468813000028
:1007400000127A000024F400F022000804000020C7
:10075000B0B507220260124B1C68144044600F249D
:1007600024021D682540856014031B682340C36074
:100770000248006810400860B0BDC046002002403A
:100780000648006806490968890A1C220A4005498A
:1007900089581F220A40D0407047C04608000020F8
:1007A0000810024030230008F0B587B0012500286A
:1007B00000D1F9E1049505900078C007FC4F2AD0DC
:1007C000B868F96803252A468A4338210140102079
:1007D0004840821850425041082914D0002812D1B4
:1007E00005984268012001048A4208D005231B04B1
:1007F0009A4200D0DAE082043B6813433B603A68D7
:100800000A433A60DBE03868800304D50598406805
:10081000002800D176E105980078800723D4059858
:10082000007800070CD5B86838210140182971D12B
:10083000386E800704D505988069002800D161E1F1
:10084000059A1078400700D42EE1B868382101409D
:10085000202974D1F86D800700D425E19068002824
:1008600000D021E14EE1B968382008401021414014
:10087000FA6803252A4002235340CA1851425141C5
:10088000002820D000291ED13868059AD168002997
:1008900000D1A2E00721C9028843116901433960F0
:1008A000012001023A680A433A608402FFF768FDBA
:1008B00006463868204200D0A1E0FFF761FD801BAA
:1008C0000228F6D970E139684905059B03D5D96836
:1008D000002900D116E17F2109027A688A4359690B
:1008E00009021143796000280DD10720C002396840
:1008F000814318690843386038688004400FAD4967
:10090000C140AD480160AD480068FFF75DFD0028BB
:1009100085D0F7E0386E05998969002979D00121E1
:1009200008433866FFF72CFD0646386E800787D4EB
:10093000FFF726FD801B03250228F6D934E10120AC
:1009400003900107F86B0840029006D1F86B08434A
:10095000F863F86B08400690069801919848006883
:10096000C00513D403980402954908682043086021
:10097000FFF706FD064692480068204206D1FFF7C1
:10098000FFFC801B03250228F5D90DE1059880683E
:100990008C4C012805D005285AD1F86D042101435B
:1009A000F965F86D03990843F8655BE03B688B4394
:1009B0003B6081043B688B433B60002A3AD044048F
:1009C000FFF7DEFC06463868204200D023E7FFF739
:1009D000D7FC801B6428F6D9E6E001210A02904387
:1009E00038608C02FFF7CCFC06463868204200D104
:1009F00015E7FFF7C5FC801B0228F6D9D4E07F205D
:100A000000027968814305984069000208437860D4
:100A100005E7012188433866FFF7B2FC0646386EC9
:100A2000800700D40CE7FFF7ABFC801B03250228EE
:100A3000F5D9B9E04404FFF7A3FC06463868204224
:100A400000D1E8E6FFF79CFC801B6428F6D9ABE0F8
:100A5000F96D039A9143F965F96D04229143F965A3
:100A600000280CD0FFF78CFC0646F86D800713D4E5
:100A7000FFF786FC801B0325A042F6D994E0FFF720
:100A80007FFC0646F86D800706D5FFF779FC801BD2
:100A90000325A042F6D987E002980028059A03D1E1
:100AA000F86B01998843F863D069002826D0B968AB
:100AB00038220A40102A29D1012823D0F8680321BE
:100AC0000140059B1A6A91421CD1702101405A6A6B
:100AD000914217D17F21090201409A6A1202914284
:100AE00010D11F2149040140DA6A9142049D5BD173
:100AF000072149070840196B884255D1002528462F
:100B000007B0F0BD049D284607B0F0BD01221306D2
:100B100039689943396002280FD10393049254062F
:100B2000FFF72EFC0646386820421BD0FFF728FC52
:100B3000801B03250228F6D936E0F8680325A84370
:100B4000F860F86820490140F9605606FFF718FC84
:100B5000044638683042D1D0FFF712FC001B02284F
:100B6000F7D921E0F86819490140059E20366DCE7D
:100B7000084310431902014329433143F96038689F
:100B800003990843386004980007F9680143F96045
:100B9000FFF7F6FB064638682042AFD1FFF7F0FBBF
:100BA000801B03250228F6D9284607B0F0BDC046B1
:100BB000001002400024F40008000020040000207F
:100BC0000070004088130000FFFFFEEF8C80C11F03
:100BD0007047704770470000B0B5002824D0044625
:100BE00005463C356878002804D10020287020464E
:100BF00000F058F802206870206803689F49884216
:100C000002D03C4A904211D170229343A2681A4309
:100C1000204B98420EDD884212D01F4B98420FD0D5
:100C20001E4B98420CD033E00120B0BD1A46194B40
:100C30009842F0DC2F4B984202D0194B984227D1B2
:100C400003231B029A432369134380229343A2691F
:100C50001A430260E268C26262688262884205D01A
:100C60000D49884202D00D49884201D16169016372
:100C7000012141612973A970E97029716971A97114
:100C8000E97129726972A972E97269700020B0BDB8
:100C90001346DAE7FF2B01400048014000440140C1
:100CA000002000407047000010B53D21415C012943
:100CB00018D101463D3102220A700168C86801223C
:100CC0001043C8606D48814202D00A4881420BD16E
:100CD0008868094B03400020062B02D01404A3426D
:100CE00002D110BD012010BD08681043086000202B
:100CF00010BDC0460004004007000100704700001E
:100D0000B0B50446006801698907554D17D5C1681B
:100D1000890714D52946FE310161012121778069B7
:100D2000800703D02046FFF7E9FF05E0204600F0EA
:100D300099F8204600F097F8002020772068016994
:100D4000490718D5C168490715D52946FC31016105
:100D50000221217780698005800F03D02046FFF7AC
:100D6000CDFF05E0204600F07DF8204600F07BF83E
:100D70000020207720680169090717D5C168090795
:100D800014D52946F831016104212177C069800713
:100D900003D02046FFF7B2FF05E0204600F062F8DE
:100DA000204600F060F80020207720680169C9061D
:100DB00018D5C168C90615D52946F0310161082149
:100DC0002177C0698005800F03D02046FFF796FF8A
:100DD00005E0204600F046F8204600F044F80020E8
:100DE000207720680169C90709D0C168C90706D002
:100DF0002946FF310161204600F036F8206801697C
:100E0000090609D5C168090606D529468031016160
:100E10002046FFF7DEFE20680169C90507D5C168D5
:100E2000090604D505612046FFF7D2FE2068016956
:100E3000490609D5C168490606D52946C031016170
:100E4000204600F01DF820680169890607D5C168B1
:100E5000890604D5E03505612046FFF7BBFEB0BD2D
:100E6000FFFEFFFF7047704780B500680349884266
:100E700000D080BDFFF788FA80BDC046002C01403D
:100E80007047FEE7F0B58DB002200B9001200A906C
:100E90000AA80024214600F0E2F8BE4D28600C4963
:100EA00005A8024648C948C2C8C9C8C2214600F0C0
:100EB0003FF9686007496846024648C948C2C8C940
:100EC000C8C2214600F034F9A8600DB0F0BDC0469C
:100ED000C8220008DC220008F0B587B00024069480
:100EE000104801680422114301600168114001911A
:100EF0000199016801273943016000683840019079
:100F000001987D03344E304629462246FFF730FAD9
:100F1000059404940397029502A93046FFF73EF921
:100F200007B0F0BD34100240FEE7000000000000F2
:100F3000EFF309800E4B1A6820381060F0C0444669
:100F40004D4656465F46F0C008B572B600F000FC4C
:100F500062B60CBC116808681030F0C8A046A946FB
:100F6000B246BB4680F309882038F0C81847C0460F
:100F70001C0000207047000010B500F05FFA044626
:100F800001F052F8002803D00120000767490860EB
:100F9000204600F068FA10BD7047000080B5024896
:100FA000FFF7AEFE80BDC046DC00002084B0002507
:100FB000784E094C316801A8642200F059F8019874
:100FC0001028F7D10298A842F4D10120410320460D
:100FD000FFF7C6F96D1CEDE70008005092B0FFF76F
:100FE000DFF905AD281D3021FFF79BF801267002BF
:100FF000FFF772FA00240C9440200A900994300202
:101000000890022005902846FFF7CEFB002803D069
:10101000EFF3108072B6FEE7049403940294072065
:10102000019001A82146FFF795FA002803D0EFF3BD
:10103000108072B6FEE7FFF74FFFFFF723FF00F0C7
:1010400009F8FEE780B5002800D1012000F0E6FA9B
:10105000002080BD80B500F04FFB002080BD80B532
:10106000036841680022184600F0ECFB80BD0000D8
:10107000B0B582B0044600206060A160002918D09D
:10108000231D0190EFF30580002816D001AA084621
:10109000194600F00FFE401E414241410801206008
:1010A0000198002818D0012000072049086002B0EC
:1010B000B0BD8020206002B0B0BD1546084619467C
:1010C00000F058FD012803D11020206002B0B0BD0F
:1010D000681E8541A801206002B0B0BD10B582B085
:1010E000019100240094EFF3058100290ED001A99D
:1010F0006A46002300F0B2FC012813D100980028B2
:101100000DD0012000070949086008E0002A00D13D
:10111000012201A9002300F0D1FB012802D12046C1
:1011200002B010BDFF24204602B010BD04ED00E067
:1011300070B584B00B460446028A01684068258970
:1011400003AC01940024842D264607D1009600F0BC
:1011500045FE012809D0204604B070BD2DB2EE1C1A
:10116000009600F03BFE0128F5D1039C204604B018
:1011700070BD00000024074D4B208000FFF762FF88
:10118000286864222146FFF7A9FF0028F4D1641CD7
:10119000F2E7C04610000020104D114E14E000F0A0
:1011A0009DF9A86CC468201D00F04CF9E868401E49
:1011B000E860A868401EA86000F09AF9206B00F073
:1011C000A5F9204600F0A2F9A8680028E7D1306808
:1011D0000228F9D300F016FAF6E7C0461C000020FA
:1011E0002801002081B000200090C748006872B636
:1011F000401C09D0FEE70098002808D1009800287C
:1012000005D10098002802D100980028F3D001B041
:101210007047C046F0B581B0044600F05FF9452044
:10122000275626464436012F12DB2546243504E096
:10123000781EF9B2012907460AD92868002807D084
:10124000284600F099FF0028F2D000F023FAEFE7DB
:10125000FF25757000F04CF900F040F9002037567A
:10126000012F11DB103404E0781EF9B20129074682
:101270000AD92068002807D0204600F07DFF00280A
:10128000F2D000F007FAEFE7357000F031F901B065
:10129000F0BD0000F0B583B0054600F053FA012020
:1012A0000290C307BF4A5068002808D01078002871
:1012B000194600D101460024002D2AD194E0019363
:1012C0000023D3610720534F39460140C6431046DF
:1012D000FA1D32400029144600D13C4684610320A7
:1012E0008002002901D0B91A0818AE4A201808381F
:1012F0003040506003604360001B606051682160B3
:10130000D060906001201070019B19460024002DD0
:101310006AD0294068D1680703D01035072085437B
:1013200000E00835694269419068002485420298CE
:1013300000D82046014357D10193164618369169CB
:101340004F68AF4207D20B68002B04D00E461946F7
:101350005F68AF42F7D35068814245D0346808686F
:101360003060781B112829D34E19720701D072B64C
:10137000FEE770604D608B4D18352868B04204D28E
:101380000568B5420746F8D301E02F460546786860
:101390003A187368B24202D11B187B603E468148FE
:1013A00040682A1A50425041F218AA4225D00298A9
:1013B000002826D03560B74200D03E604A68794D9B
:1013C000A868801AA860EB68984200D2E860287884
:1013D0000028019B00D1034608341A43002005C1B0
:1013E00070490869401C086100F0F4FE600701D0F4
:1013F00072B6FEE7204603B0F0BD029002980028C6
:10140000D8D16868C01870602D683560B742D4D1F3
:10141000D4E7C046B40100200346083B1960011F11
:1014200001231B060B6001460C39034B0B60014680
:1014300020390A6040387047E5110008EFF310804A
:1014400072B67047416882688A608268516001693B
:101450004B68834200D14A600A68521E0A6000222B
:1014600002610868704780F31088704700210160AE
:1014700002460832C94342608160C260026170471F
:10148000002101617047B0B50B685A1C0BD00446AF
:101490000834626815689D4208D8546825689D42E2
:1014A0002546F6D904E00269556801E01546224652
:1014B000A96008614D608A6051600168491C016043
:1014C000B0BD426893684A608B60086103685B1C2A
:1014D00003609068416091607047000072B6D84820
:1014E0000168491C0160BFF34F8FBFF36F8F7047D6
:1014F000D3480168002903D0491E016002D070471B
:1015000072B6FEE762B670470C00002070B5002886
:1015100046D00446234D2878411E8841C007261F27
:101520003168084205D0083C2268002A03D072B610
:10153000FEE772B6FEE78143316000F003F93168DF
:10154000A8684018A860284618300368A3420BD248
:101550001868A0421A46F8D35368D618A64209D094
:10156000631883420CD012E0024618465368D6181E
:10157000A642F5D1C918516014466318834206D1BA
:101580006B68984203D04368591861600068206016
:10159000A24200D014606869401C686100F01AFE25
:1015A00070BDC0469400002010B5074C002020609C
:1015B000A0607D20C10005480068FEF7BDFD401E0B
:1015C00060600720206010BD10E000E008000020EF
:1015D0000B4A13681868203080F30988022080F3D2
:1015E0001488BFF36F8F3FBCAE4608BC04BC62B624
:1015F0001847C046C046C046C046C046C046C04662
:101600001C0000200120000703490860BFF34F8F32
:10161000BFF36F8F7047C04604ED00E070B500283F
:101620002ED004466E4D6869002801D072B6FEE7E0
:101630006869401C6861EE6A2868001DFFF702FFB8
:1016400034192868446009D3E8692968091DFFF73F
:101650001AFF00F0BFFD00280CD111E0A86929682D
:10166000091DFFF710FFA86A844204D300F0B2FD01
:10167000002805D070BDAC6200F0ACFD0028F9D1A7
:10168000FFF7C0FF70BDC04655498A6B0260C96A4A
:1016900041607047524801210163704770B50028CE
:1016A00016D00D464E4C21681831FFF7ECFEE66A65
:1016B0002068001DFFF7C6FE681C0BD07519206856
:1016C00045600ED3E0692168091DFFF7DCFE70BD9F
:1016D00072B6FEE720685034011D2046FFF7F1FE88
:1016E00070BDA0692168091DFFF7CDFEA06A854283
:1016F00000D2A56270BDC046B0B582B0002400948F
:101700000C4D2846243001900B480CA18022234622
:1017100000F064FB411C0BD0012807D172B6E043F6
:10172000A86201202861EC6200F05EF802B0B0BD52
:1017300072B6FEE71C0000209911000849444C4590
:101740000000000026484169491C41617047C046BD
:10175000B0B523484169002902D001210163B0BD21
:1017600000210163016A142214464C431D4B1D598C
:10177000002D0CD04A439B185A6852685A601C4688
:101780000834A2421CD0D26802600162B0BDE418E5
:10179000503C00291BD0E56B002D1AD1012916D031
:1017A000A56A002D17D1022911D06569002D14D129
:1017B00003290CD0091F2568503C002DE9D0D9E73A
:1017C0001B1D52681A60D26802600162B0BD72B619
:1017D000FEE7491ECEE7891ECCE7C91ECAE7C04610
:1017E0001C00002028010020B0B582B0FF200104B9
:1017F000124A13680B43136000061168014311601D
:10180000FFF7D2FE0E4C00252560FFF7E1FEFFF743
:101810009FFF0195206872B6401C09D0FEE7019831
:10182000002808D10198002805D10198002802D18C
:1018300001980028F3D0002002B0B0BD20ED00E0F8
:101840000C000020F0B581B0002835D014460E46BB
:10185000074648435030FFF71DFD0546002828D0B5
:1018600000942C464434EF632E64002E284601D0A9
:10187000284650302860FFF731FE0020A863FF2083
:10188000207029686070E86B2A6C431E504308186A
:101890005343CA186960A860EA6028461030FFF711
:1018A000E5FD28462430FFF7E1FDFFF721FE009813
:1018B0002072284601B0F0BD72B6FEE7F0B587B0E1
:1018C00003930692002812D017460446002910D030
:1018D0000398022802D1E06B012865D1019100F044
:1018E00097FB00280AD1002F08D072B6FEE772B627
:1018F000FEE7206C0028EBD072B6FEE7FFF7EEFDA6
:10190000E06BA16B039A022A50D081424ED3274646
:10191000443720461030029001200BE02046FFF7AC
:1019200079FC00F057FCFFF7D9FDA16BE26B0020BA
:1019300091423BD3069900296ED0C00702D004A87B
:10194000FFF7A2FEFFF7D4FDFFF7FCFEFFF7C6FD91
:101950003878FF2820D07878FF2822D0FFF7C8FDFC
:1019600004A806A900F0FEF900285AD1FFF7B6FD39
:10197000E56BA66BFFF7BCFDAE42CFD1069902988E
:10198000FFF78CFE2046FFF745FC00F023FC002803
:10199000C9D1FFF737FEC6E7002038707878FF28F6
:1019A000DCD100207870D9E772B6FEE7226CA76B15
:1019B000002A1BD0039800283BD0E0680199FEF76D
:1019C00097FB206CE168091AE1602268914203D21A
:1019D0004042A1680818E060781E394681410398AA
:1019E000801E424242410A40BF1A02E0206800289D
:1019F0002ED00020791CA163616A002903D0243411
:101A0000204600F0B9FB002801D0FFF7FBFDFFF7EF
:101A10006FFD012007B0F0BDFFF76AFD002007B0A1
:101A2000F0BD2046FFF7F6FB00F0D4FB002007B026
:101A3000F0BD60680199FEF75BFB206C61680918D6
:101A40006160A26800209142D4D321686160D1E72F
:101A5000A06800F061FB0021A160CBE7F0B583B086
:101A6000002815D01F4614460D460646002911D001
:101A7000022F02D1F06B012840D1FFF7DFFC0346B3
:101A8000F06BB16B022F0AD0814208D300256BE0C6
:101A900072B6FEE7306C0028EAD072B6FEE7452049
:101AA000315CB06B326CB06B0290002A28D0002FF2
:101AB000019132D00093F0682946FEF719FB306C93
:101AC000F168091AF1603268914203D24042B1686C
:101AD0000818F060029D681E29468141B81E4242E6
:101AE00042410A40AD1A009B0199681CB063FF296E
:101AF00028D04536481C3070012535E072B6FEE727
:101B00003068002819D1B0681D460F4600F004FB6C
:101B100039462B460020B0600FE01F46706829460A
:101B2000FEF7E6FA306C716808187060B168884298
:101B300001D3306870603B460199029D681CB06318
:101B4000FF29D6D1706A012500280DD01F46243602
:101B5000304600F011FB002C05D000283B4603D096
:101B60000125256000E03B461846FFF77CFC28462F
:101B700003B0F0BDF0B585B0049200280CD0174634
:101B80000D46044600292FD000F042FA002805D166
:101B9000002F03D072B6FEE772B6FEE7FFF79EFC99
:101BA000A66B002E25D0226C002A0AD0E06881188E
:101BB000E160A068814201D32168E1602846FEF718
:101BC00097FA701EA06320690125002869D010349F
:101BD000204600F0D1FA002863D0FFF713FDFFF78D
:101BE00087FC284605B0F0BD206C0028CCD072B62A
:101BF000FEE700200090002F52D0274644372046B1
:101C00002430019002A8FFF73FFDFFF771FCFFF7BA
:101C100099FDFFF763FC3878FF2817D07878FF2804
:101C200019D0FFF765FC02A804A900F09BF8002872
:101C300014D02046FFF7EEFA00F0CCFAFFF74EFC86
:101C4000A66BFFF755FC002E22D12FE00020387044
:101C50007878FF28E5D100207870E2E7FFF73EFCB6
:101C6000A66BFFF745FC002E05D02046FFF7D2FA01
:101C700000F0B0FA0CE004990198FFF70FFD204640
:101C8000FFF7C8FA00F0A6FA002801D1FFF7BAFC66
:101C9000FFF724FCA66B002E85D104980028B4D150
:101CA000009DFFF725FC284605B0F0BD002528461D
:101CB00005B0F0BDF0B583B0002837D014460F460C
:101CC0000646002934D0FFF7B9FBB56B002D34D0A0
:101CD00002944421745C326C002A0CD00190F068AC
:101CE0008118F160B068814201D33168F1603846F3
:101CF000FEF7FEF90198691EB163FF2C23D131690B
:101D0000012700290DD004461036304600F034FA81
:101D10000299002920D00028204602D001270299EC
:101D20000F60FFF7A0FB384603B0F0BD72B6FEE7C8
:101D3000306C0028C7D072B6FEE70027FFF793FB90
:101D4000384603B0F0BD4436611C31700127FFF7FF
:101D50008AFB384603B0F0BD2046FFF784FB3846C7
:101D600003B0F0BDF0B583B000281BD00D460029AC
:101D70001AD00446FFF7B2FBE648C26A296800267B
:101D80004B1C0AD0019648CC806B01270297083C77
:101D900098420BD0B24209D3029EFFF7A9FB30460E
:101DA00003B0F0BD72B6FEE772B6FEE7921B914239
:101DB0000CD9881A2860EF49886B2060C86A606077
:101DC000019EFFF795FB304603B0F0BD0020286070
:101DD000029EFFF78DFB304603B0F0BDF0B589B031
:101DE0001E460691079095002846FFF753FA0746CE
:101DF0000020C443002F6DD008905C20FFF74AFA02
:101E0000002864D005960E9903910446343404905A
:101E100006460763A52238462946FEF77BF9374672
:101E2000306B2818031F0725069A002A55D0107812
:101E300020701078002847D05078607050780028C3
:101E400042D09078A070907800283DD0D078E07093
:101E5000D078002838D0107920711079002833D03C
:101E600050796071507900282ED09079A0719079C6
:101E7000002829D0D079E071D079002824D0107AB8
:101E80002072107A00281FD0507A6072507A002891
:101E90001AD0907AA072907A002815D0D07AE07289
:101EA000D07A002810D0107B2073107B00280BD034
:101EB000507B6073507B002806D0907BA073907B92
:101EC000002801D0D07BE0730898E07307E0384623
:101ED000FFF71CFB204609B0F0BD08982070049A5B
:101EE0000F9C0194164658360295AB43049338650F
:101EF000039C062C00D30624FC64FC62101D069093
:101F00001546FFF7BDFA18352846FFF7B9FA0898C5
:101F1000786502996140B96130707F623F610498D1
:101F20000799059AFFF778FA38600198002800D0E1
:101F30000760FFF7D3FADA4EF068401CF0603068B3
:101F4000002809D0306900283DD1F86A3168C96A93
:101F5000814238D8376036E03760F068012832D1E6
:101F6000D04C2046FFF782FA20461430FFF77EFA65
:101F700020462830FFF77AFA20463C30FFF776FA01
:101F800020465030FFF772FA20466430FFF76EFAB1
:101F900078342046FFF76AFA1C4C2046FFF766FAB1
:101FA000254614352846FFF761FA30466430FFF7BE
:101FB0005DFA30463C30FFF759FA30465030FFF7B3
:101FC00055FAB461F5617068401C78647060F86A15
:101FD000316A884200D9306214214143B148401827
:101FE0000699FFF76EFAFFF783FA3069012400289B
:101FF00000D16FE7F86A3168C96A814200D369E7A6
:10200000FFF700FB204609B0F0BDC046B400002039
:10201000A3480169002904D0406941424141480078
:10202000704701207047C046F0B583B09C4D686989
:10203000002805D0686B401C6863002003B0F0BD29
:10204000E86A461CEE6218D3A8690068002801D02F
:1020500072B6FEE7A869E969A961E861A86B401C4E
:10206000A863A8690068002804D0A869C068C0688F
:10207000406801E00020C043A862A86A00228642AE
:1020800037D3D143A8690068002831D001910020DE
:10209000029003E0A8690068002824D0A869C068FD
:1020A000C7687868864221D33C1D2046FFF7CAF9ED
:1020B000B86A002803D038461830FFF7C3F9F86A29
:1020C000296A884200D92862142141437548401882
:1020D0002146FFF7F6F9F86A2968C96A8842D9D318
:1020E00001200290D6E7029A019901E00146029A86
:1020F000A9622868C06A142141436A4840580121F6
:102100000128084600D810462A6B002A96D00846B7
:1021100003B0F0BD1C00002070B504460020002C68
:1021200025D05F4E3168A14201D072B6FEE7216D25
:1021300000291DD0491E2165E26CE36A934216D046
:10214000002914D1251D2846FFF77CF9E06CE062D8
:102150000721091AA161316A884200D9306214212D
:102160004143504840182946FFF7ABF9012070BDA4
:1021700072B6FEE71C00002070B5C068C568002D6F
:102180000BD02C4618342046FFF75CF9444E70699A
:10219000002804D0304664300EE072B6FEE72C1DF5
:1021A0002046FFF74FF9E86A316A884200D9306269
:1021B000142141433B4840182146FFF782F9E86A61
:1021C0003168C96A884202D90120306370BD00209D
:1021D00070BDC046F0B581B0314E706900280DD099
:1021E000FFF77CF97069401E706170690025002856
:1021F00006D0FFF77DF9284601B0F0BD72B6FEE7C4
:10220000F0680028F5D0706E00282FD00095254F7B
:1022100002E0706E00281CD0306FC4682046183071
:10222000FFF710F9251D2846FFF70CF9E06A316A1F
:10223000884200D930621421414378182946FFF7BB
:1022400040F9E06A3168C96A8842E2D3012030630C
:10225000DFE7B0690068002804D0B069C068C068D2
:10226000406801E00020C043009DB062746B002C08
:1022700002D10AE0641E06D0FFF7D6FE0028F9D08E
:1022800001203063F6E700207063306B0028B0D087
:10229000FFF7B8F90125FFF72BF9284601B0F0BD8B
:1022A0001C0000202801002002E008C8121F08C1FD
:1022B000002AFAD170477047002001E001C1121FC7
:1022C000002AFBD170470000502300087511000858
:1022D00000000000000000008000000058230008FB
:1022E000AD0F0008FFFF00000000000080000000AC
:1022F00000000000000000000000000000000000DE
:1023000000000000000000000000000000000000CD
:1023100001000000020000000300000004000000B3
:10232000060000000700000008000000090000008F
:10233000000000000000000000000000000000009D
:102340000100000002000000030000000400000083
:10235000746872656164310074687265616432002A
:10236000802300080000002010000000A8220008C0
:102370009023000810000020A8110000B8220008D7
:1023800001000000040000000024F400AAAAAAAA88
:04000005080000C12E
:00000001FF
