:020000040800F2
:10000000D0040020D500000881140008AB130008BC
:1000100000000000000000000000000000000000E0
:10002000000000000000000000000000851400082F
:10003000000000000000000083140008B114000854
:10004000E700000800000000E7000008E7000008E3
:10005000E7000008E7000008E7000008E7000008E4
:1000600000000000E7000008E7000008E7000008C3
:10007000E7000008E7000008E700000800000000B3
:10008000E70000080000000000000000E700000892
:1000900000000000E7000008E7000008E700000893
:1000A000E7000008E7000008E70000086D1F0008EF
:1000B000E700000800000000000000000000000051
:1000C0000348854600F046F800480047D11F000865
:1000D000D00400200448804704480047FEE7FEE7BC
:1000E000FEE7FEE7FEE7FEE73B150008C10000085B
:1000F000D2B201E00270401C491EFBD270470022C0
:10010000F6E710B513460A4604461946FFF7F0FF16
:10011000204610BD70B50446002903D000202022DF
:10012000012310E0002801D00020C043C046C04693
:100130000DE02546D5408D4205D30D469540641B04
:100140001D46954040191546521E002DF1DC2146F2
:1001500070BD0000064C0125064E05E0E36807CCA3
:100160002B430C3C98471034B442F7D3FFF7ACFF55
:10017000C8200008E8200008EFF3108072B6FEE700
:1001800070B500282AD0014624314A78022A27D1A6
:10019000046822680E239A432260426C15682F4B34
:1001A0001D4015602568012295432560046C1C25BF
:1001B00025401446AC402A4D2E6826432E60846CA0
:1001C000C56C6560046D002C05D025681D40256058
:1001D000436D806D58604A70002004E0012070BDBE
:1001E0000422C263012000220A7070BD70B525216F
:1001F000415C02292DD10146243103681A680E247E
:10020000A2431A601C68012294431C60446C256858
:10021000124B1D402560046C1C2525401446AC4043
:100220000F4D2E6826432E60846CC56C6560046D8E
:10023000002C05D025681D402560436D846D5C60F1
:1002400000240C704A70816B002900D0884720463A
:1002500070BD0421C1630124204670BDFFFEFFFF75
:1002600004000240B0B5044600F0E8F80546601C02
:1002700002D093480078041900F0E0F8401BA04237
:10028000FAD3B0BDF0B588B00B460968002900D19B
:10029000B7E002465C48824201D0052000E003201E
:1002A000009001240020054606900746019407921D
:1002B0000FE03843039F5549486019680846E040FD
:1002C000069E361D0696AD1C0837641C002800D11A
:1002D00097E0661E01980596B04001400291ECD06F
:1002E000039719465B6803261F46049637407E1E17
:1002F000012E13D8049EAE40079A9268B243CE688E
:10030000AE401643079A9660DA06D20F059B9A40D4
:10031000079B5B6883431343079A5360032F0B4685
:10032000049E1ED03046A840079AD268824398683F
:10033000A8401043079AD060022F12D11C20069AC1
:1003400010400F268640059AD2089200079B9A1803
:10035000136AB3430E6986401E430B461662049E21
:10036000079A3046A840116881435868820330409C
:10037000A840084307990860900F079A039F9CD0F4
:10038000182139400F208840059FB7431F4EF619AA
:10039000376E874360360520000782420AD01D4829
:1003A000824205D01C488242009804D1022002E01B
:1003B000012000E000208840384330601448006885
:1003C0005E68F10302D5029F384301E0029FB84303
:1003D0000F4908604868B10301D5384300E0B843CD
:1003E0000B49486009480068F10201D5384300E034
:1003F000B843064908604868B10200D559E7B843D8
:1004000058E708B0F0BDC046000C0050001802408C
:1004100080180240000400500008005042690B465A
:1004200093430A401104C91881617047002A02D021
:100430001822815070472822815070470548006873
:100440007047C0461E48007802490A6810180860C4
:100450007047C046CC00002010B501242002F249AC
:100460000A6802430A60032000F00AF8002801D05D
:10047000204610BD00F026F80024204610BDC046DE
:10048000B0B505460E4801780124002916D07D201C
:10049000C000FFF73FFE0146E9480068FFF73AFE5B
:1004A00000F044FC032D09D8002807D10024E043C4
:1004B0002946224600F020F8DE4805602046B0BDFF
:1004C0002D00002082B0094841680122114341609B
:1004D0004168114001910199110702680A430260C5
:1004E000006808400090009802B070473C1002403D
:1004F00080B501F041FD80BD80B501F049FD80BDB2
:10050000F0B581B0032569026C4E32688A4302431C
:10051000326001214A020024904212D1C848026888
:10052000706940050DD58F02062050430649FFF73C
:10053000F1FD801C401E03D071693942FAD100E000
:100540002C46204601B0F0BD40420F00F0B587B008
:10055000064680788007584F01D4002569E005964B
:1005600001221107203F38680840049006D13868FE
:10057000084338603868084006900698029703914F
:10058000019216024D4C206830432060FFF756FF61
:1005900005462768374006D1FFF750FF401B032868
:1005A000F7D3032500E00025059E002F0DD003247E
:1005B0002102414F3868084009D0726990420AD13F
:1005C000C00715D1002D2CD123E03B4F29E000209E
:1005D000C007F7D00CE03868019A12043B68134357
:1005E0003B603B6893433B6088433860C007E9D079
:1005F0000194FFF723FF0646314C3868800705D485
:10060000FFF71CFF801BA042F7D3019D059E002D24
:1006100007D10320000239688143706908433860BC
:1006200000250498002804D1029A10680399884391
:1006300010603068C10707D0394608390A680323BB
:100640009A43736813430B600595810608D503210F
:1006500009033A46083A13688B43B168194311609D
:100660000121420412D53A46083A1368154C23403A
:100670003546366933431360621C96422E4605D1D7
:100680000A043B46503B1C6814431C60000510D50F
:100690008803032292033B46083B1C689443F2689C
:1006A00014431C60824204D10804503F396801435E
:1006B0003960059807B0F0BD5C1002400070004042
:1006C00089130000FFFFFF3FF0B583B00D46012105
:1006D000002800D1A5E0019102905348006807244A
:1006E0002040A84214D250490868A043284308601B
:1006F0004E4EFFF7A3FE07464B4800682040A84235
:1007000006D0FFF79BFEC01BB042F5D9032188E05D
:10071000029B18688107734E0CD5410703D521034E
:1007200032680A4332600F21090232688A439968AD
:1007300011433160C00719D13B4800682040A842EE
:1007400029D939490868A04328430860374FFFF783
:1007500075FE0646344800682040A8421BD0FFF7CB
:100760006DFE801BB842F5D903215AE05868032872
:100770002FD8810001A251585A4A8F468D07000890
:10078000D9070008E3070008ED07000811460839FB
:10079000096849052CE0029A10784007514D05D5AB
:1007A000200329688143D0680843286000F05CF882
:1007B000296889093C220A401D4989581F220A409C
:1007C000D0401F4908601B480068FFF759FE0146EA
:1007D00027E0444A516D0AE0114608390968890347
:1007E00006E0114608390968890101E0916D890721
:1007F000019916D51168A143014311600B4FFFF712
:100800001DFE0646374800683821014002984068BE
:10081000C000814290D0FFF711FE801BB842F1D991
:100820000321084603B0F0BD0020024088130000F9
:100830004020000830000020014800687047C04692
:100840000000002010B5FFF7F7FF044600F0AEFDF2
:10085000000B8000034908581F210140CC4020466E
:1008600010BDC0468020000810B51E4C20688006D0
:10087000400F06D0226838210A401B48082A07D1B9
:1008800010BD083C20688004410F1848C84010BDC6
:1008900022680A40102A15D1616803220A40032AFF
:1008A00000D0124861684906490F491CFFF732FC25
:1008B00061684904490E48436168490F491CFFF7C4
:1008C00029FC10BD20680840202802D10120C00367
:1008D00010BD20680840182801D0002010BD7D20E0
:1008E000000210BD0810024000127A000024F4003B
:1008F000F0B587B00127002800D1C4E10497059026
:100900000078C007FD4E2CD10598007880074CD4A4
:100910000598007800070DD5B068382101401829E6
:1009200000D0A6E0306E800704D5059880690028C5
:1009300000D1E7E105980078400700D45EE1B06897
:1009400038210140202900D0A9E0F06D800700D4B3
:1009500051E105988068002800D04CE10020012773
:100960004AE1B068F16803273A468A4338210140DA
:1009700010204840821850425041082945D0002894
:1009800043D105984268052000048242039200D1B9
:10099000A6E0012001048A4200D1A7E032688A4320
:1009A0003260810430688843A2E0B1683820084092
:1009B00010214140F26803273A4002235340CA18ED
:1009C0005142514100282BD0002929D13068012102
:1009D0008C02059BDA68002A00D1A6E00722D20229
:1009E00090431A6902433260080231680143316062
:1009F000FFF724FD05463068204200D0A5E0FFF750
:100A00001DFD401B0228F6D93DE13068800300D46B
:100A10007AE705984068002800D075E7049F32E126
:100A200031684905059B03D5D968002900D1A7E0A5
:100A30007F21090272688A43596909021143716072
:100A400000280DD10720C00231688143186908438E
:100A5000306030688004400FAD49C140AD4801604E
:100A6000AD480068FFF70CFD002800D150E7049F57
:100A700009E1306E05998969002970D00121084388
:100A80003066FFF7DBFC0546306E800700D551E786
:100A9000FFF7D4FC401B03270228F5D9F3E001201F
:100AA00003900107F06B0840029006D1F06B0843F9
:100AB000F063F06B0840069006980191974F3868F4
:100AC000C0055FD505988768052F6CD0012F6ED0C3
:100AD000F06D03998843F065F06D0421884369E067
:100AE0000120810432680A433260010430680843FF
:100AF000306001204404FFF7A1FC0546039800285C
:100B00000FD03068204200D0FEE6FFF797FC401B74
:100B10006428F6D9B7E0FFF791FC401B642800D9A0
:100B2000B1E030682042F6D1EEE609028843306039
:100B3000FFF784FC05463068204200D1E8E6FFF765
:100B40007DFC401B0228F6D99DE07F2000027168E1
:100B5000814305984069000208437060D8E601218E
:100B600088433066FFF76AFC0546306E800700D484
:100B7000E0E6FFF763FC401B03270228F5D982E07B
:100B8000049F80E003980402386820433860FFF730
:100B900055FC05463868204294D1FFF74FFC401BB6
:100BA0000228F7D915E0F06D04210143F165F06DDD
:100BB00003990843F0655A4CFFF740FC0546002FA7
:100BC0000FD0F06D80070FD4FFF738FC401BA04218
:100BD000F7D9002003270FE0FFF730FC401BA042AD
:100BE000F7D8F06D8007F7D40298002803D1F06B96
:100BF00001998843F0630120002844D00598C0691A
:100C000000283FD0B16838220A40102A03D10128B9
:100C100018D1049F37E001221306316899433160EF
:100C2000022833D1039304925406FFF707FC0546CC
:100C3000306820423FD0FFF701FC401B0327022809
:100C4000F6D920E0F06803210140059B1A6A914221
:100C500056D1702101405A6A914255D17F21090233
:100C600001409A6A1202914250D11F214904014069
:100C7000DA6A9142049F06D1072149070840196B9F
:100C8000884200D10027F8B207B0F0BDF068032712
:100C9000B843F060F06823490140F1605506FFF762
:100CA000CDFB044630682842ECD0FFF7C7FB001BA1
:100CB0000228F7D9E7E7F0681B490140059F203774
:100CC000ADCF084310431902014329433943F16072
:100CD000306803990843306004980007F1680143C5
:100CE000F160FFF7ABFB054630682042CAD1FFF741
:100CF000A5FB401B03270228F6D9C4E700100240D9
:100D0000049FC0E7049FBEE7049FBCE7049FBAE7C7
:100D10000024F4000000002030000020007000409B
:100D200088130000FFFFFEEF8C80C11F80B500F02C
:100D3000ABFB80BDB0B58021415C012901D102200F
:100D4000B0BD024680322421516001680B680C68F6
:100D50000125AC430C606C07A3430B600021416686
:100D60001170202050600846B0BD7047704770B5C4
:100D700004468020205C012801D1022070BD254658
:100D800080352420686020680668026801239A4341
:100D900002602B7007225206836893430B438360E3
:100DA000204600F0CBFB2068066000202870202140
:100DB000696070BD70B504468020205C012801D1B7
:100DC000022070BD254680352420686020680668B2
:100DD000026801239A4302602B700722520783683E
:100DE00093430B438360204600F0A8FB2068066015
:100DF000002028702021696070BD704770477047DF
:100E0000F0B587B006900768FA6920260125E90247
:100E10000B462F3313403C68B868202B12D1234671
:100E20003340049222462C070440E3181446049AE7
:100E300008D00698016F002900D16DE10698884717
:100E400007B0F0BD059404950B460F331340069D83
:100E50005C35002B029000D186E0B04B059C23400E
:100E6000049C24070094641C0440E3187CD0019186
:100E700003962946D307049D08D02B02059E3340D4
:100E800004D03D620E460B6B2B430B6303462B4095
:100E900096070D4607D5002B05D002263E62296B2A
:100EA00004260E432E635607039907D5002B05D061
:100EB00004233B622B6B02261E432E63130708D5C7
:100EC000059B0B401C4304D008233B622C6B1C4346
:100ED0002C6301980242069E059C08D0049B9B0649
:100EE000234004D001983862286B08432863286B9C
:100EF000002800D110E1039802400AD00440029873
:100F000000990840204304D0316F002901D03046B9
:100F10008847286B282101403068806840242040A1
:100F2000401800D1E5E0304600F0DAFB3068806818
:100F3000400600D4CBE0EFF31080049981F31088D1
:100F400031688A68A2438A6080F31088F06F0028B5
:100F500000D1BCE072498163FFF748F9002800D155
:100F6000DAE0F06F816B6AE7059C20461040C3060B
:100F70000699CB6E3DD5012B3BD1039610263E62E0
:100F8000B968490644D469882A886B88002B00D147
:100F9000C2E0511A0A0400D1BEE0EFF31082049FB0
:100FA00087F3108809235B01069804680595256876
:100FB0009D43256082F31088EFF3108287F3108839
:100FC00003689C68584D25409D6082F31088039A01
:100FD000059BDA6200220267C266EFF3108287F394
:100FE000108803681C68B4431C6082F3108889B2BF
:100FF00059E0D3025BD5049B9B0502990B4056D068
:101000000498000538620698FFF7F8FE07B0F0BDB7
:101010000698C16F09684A6893B2002B00D17BE043
:101020002C88A34200D377E06A800968890635D40A
:10103000EFF310812F46049D85F31088394A203242
:10104000069803681C6814401C6081F31088EFF355
:10105000108185F3108802689368AB43936081F335
:101060001088EFF3108185F310880268936840249C
:10107000A343936081F310880399F9620021C1664C
:10108000EFF3108185F310883D4602681368B3437F
:10109000136081F31088C06FFFF772F868882988A1
:1010A000081A81B20698FFF760FE07B0F0BD13067C
:1010B00012D580232340049CE40502992140059C1D
:1010C000CB1809D00698416F002925D0B6E63046E6
:1010D000FFF795FE07B0F0BD400611D4100214D5FD
:1010E00004988007204010D00698FFF786FE07B0CE
:1010F000F0BD3046FFF783FE0020286307B0F0BD47
:10110000069800F01BFB07B0F0BDD00104D5002C01
:1011100002D50698FFF72AFE07B0F0BD20010004B3
:10112000C9160008DFFEFFFFFEFFFFEFB0B5002885
:1011300030D00446054680356868002804D1002078
:101140002870204600F028F8242068602068016894
:101150000125A9430160204600F040FD012817D079
:10116000A06A002802D0204600F00CFA0920C00234
:1011700021684A6882434A6088682A2290438860CE
:101180000868012202430A60204600F065FA05461D
:101190002846B0BD0120B0BDB0B586B0002405948E
:1011A00004940394029401940068B449884201D0E5
:1011B00006B0B0BD9648C268012105918B031A4361
:1011C000C260C2681A400092009A02680A43026034
:1011D00000680840009004940394022002900320C9
:1011E0004002019000980520000701A9FFF74AF886
:1011F0001B25284621462246FFF77EF92846FFF7A1
:1012000077F906B0B0BDC046F0B581B08823C358A9
:101210000225202B29D10124002927D0002A25D0FE
:1012200001231C038668A64204D10469002C01D165
:10123000CC071ED1064680363478012C2C4615D0BA
:101240000024C466337005686D682D020AD5EFF37B
:10125000108583F310889B06066837681F43376044
:1012600085F3108800F080FD00E02C46204601B098
:10127000F0BD1C46FAE7000070B500687F4988425F
:1012800000D070BD7D20C3007B4C064D012620465A
:101290002946324600F008F8204629463246FFF734
:1012A000B3FF70BDC8000020F0B587B00E460746FA
:1012B000842039580220202935D10125002E33D031
:1012C0000492002A30D001210C03BA68A24204D152
:1012D0003A69002A01D1F20761D103943C46803477
:1012E0002278012A05461FD0059322463C465434F5
:1012F0000025D5601170212002925060FFF79EF802
:101300000690049860802080B868039988420ED1C6
:10131000386900280496059901D00022049200281B
:1013200007D1064605E00546284607B0F0BD0495FE
:1013300005990298057007E0307839688862761C54
:1013400005996088401E60806088002815D0009153
:101350008021002538462A46069B00F08FFD002894
:1013600017D1002EE8D1049A10880E490840396838
:101370008862921C04922E46E2E7009140210025EB
:1013800038462A46069B00F079FD002803D0032545
:10139000CAE70325C8E7202002994860C4E70D4644
:1013A000C2E7C046FF0100007047FEE707200103C7
:1013B000014800680840704708100240F0B587B047
:1013C0000024069405940494039402941048016840
:1013D00004221143016001681140019101990168E3
:1013E00001273943016000683840019001987D036E
:1013F000084E304629462246FFF718F80594049413
:101400000397029502A93046FEF73CFF07B0F0BDF6
:10141000341002400008005010B5174800210C227B
:10142000164B016241628162E124640218C00160CE
:1014300041608160C260016141610838FFF776FE5A
:10144000002801D0FEF798FE0B480021FFF7B2FC00
:10145000002801D0FEF790FE07480021FFF787FC27
:10146000002801D0FEF788FE0348FFF763FC002840
:1014700001D0FEF781FE10BD380000200038014089
:10148000FEE7704770470000B0B5401E010E01D066
:101490000120B0BD054D68600024E043032100F049
:1014A00077FDAC60072028602046B0BD10E000E06A
:1014B00080B5FEF7C7FF80BDF0B597B00AAC342108
:1014C0002046FEF71CFE002609960896079606960B
:1014D00005960496039602960196009601277802D7
:1014E000FFF70EF8780716907804159008201490EE
:1014F000139602251295119540200F900E963802F2
:101500000D900A952046FFF7F3F9002813D10996AC
:10151000089607200690079506A82946FFF7D4F8F5
:10152000002808D1019600976846FFF70FF80028B9
:1015300001D117B0F0BDFEF71FFE7047F0B581B0C6
:1015400004466834416E002913D0006885688068BD
:10155000400F0A4E315C0A4F385CC000FEF7DAFDDE
:1015600060802801400F315C385CC000FEF7D2FD7E
:1015700001E001206080208001B0F0BDC0200008A3
:10158000B8200008B0B5816ACA070CD18A0714D404
:101590004A071CD40A0724D4CA062CD48A0634D499
:1015A0004A063CD44CE00122520403685C68944330
:1015B000C26A22435A608A07EAD5012212040368EC
:1015C0005C689443026B22435A604A07E2D50122C9
:1015D000920403685C689443426B22435A600A0792
:1015E000DAD50122D20303685C689443826B2243FC
:1015F0005A60CA06D2D50122120303689C6894433C
:10160000C26B22439A608A06CAD50122520303683C
:101610009C689443026C22439A604A0610D50122CA
:101620001305026854689C43456C2C4354609D42EA
:1016300006D103235B0554689C43836C23435360AA
:10164000090607D50121C904026853688B43C06CA1
:1016500018435060B0BD000070B582B005468C20C4
:1016600000242C50FEF7EAFE0646286800680007B2
:101670000CD514480090012041050022284633462D
:1016800000F0FCFB002801D0032417E02868006864
:1016900040070CD50B480090012081050022284608
:1016A000334600F0EBFB002801D0032406E0284677
:1016B00080302021416081600470EC66204602B0D9
:1016C00070BDC046FFFFFF0180B5806A01465631FC
:1016D00000220A8156214252FFF791FB80BD000093
:1016E000B0B5EFF31082012181F3108809235B016B
:1016F000046825689D43256082F31088EFF310820B
:1017000081F3108803689C68A34D25409D6082F397
:101710001088C26E012A0AD1EFF3108281F310887B
:1017200001680B681024A3430B6082F310888821A2
:101730002022425000210167C166B0BD10B5EFF311
:101740001081012282F31088026813684024A343A9
:10175000136081F3108884212022425000214167C8
:10176000FFF722FE10BD70B56021425A8821415812
:10177000036822290ED101465C315B6A1A40836DF1
:101780001A804A88521E4A809A1C82654A88002A1A
:1017900005D070BD986908210143996170BDEFF3D0
:1017A0001083012282F310880924640105682E68E1
:1017B000A6432E6083F31088EFF3108382F3108822
:1017C0000468A5689543A56083F310882023CB6245
:1017D00000230367C46E012C14D1C366EFF310839A
:1017E00082F310880468256810229543256083F3EE
:1017F00010880368DC69E40600D51A620988FFF7DF
:10180000B4FA70BDFFF738FD70BD0000F0B587B0C9
:1018100006466020335A3168C8690C688D68882292
:10182000B258222A00D0B1E00595029404933446C0
:101830005C3420210691A1890391002900D183E025
:101840000699084000D17FE00125059828400590C1
:10185000290202980191084002903068416A049A76
:101860001140B26D11806188491E6180911CB16583
:10187000C769790728D00299002906D0394629403E
:1018800003D00562216B294321630221059A002AB6
:1018900007D03A460A4004D00162226B0423134366
:1018A0002363059A002A07D004223B46134003D045
:1018B0000262206B08432063206B002804D030466E
:1018C000FFF79DFA002020636088002835D1EFF3F0
:1018D000108085F3108831680A68019B9A430A607A
:1018E00080F31088EFF3108085F3108831688A68E0
:1018F000B94B1A408A6080F310880698E062002095
:101900003067F16E012915D1F066EFF3108185F390
:1019100010883268136810208343136081F31088A5
:101920003168CA69D20600D5086221883046FFF7BF
:101930001CFA02E03046FFF79FFC0398002803D012
:101940000698074000D088E76088002822D0A18947
:1019500088421FD2EFF31080012181F310889E4A44
:10196000521C33689C6814409C6080F310880B48BC
:101970003067EFF3108081F3108831680A68069BA6
:101980001A430A6080F3108807B0F0BD8869082206
:1019900002438A6107B0F0BDFEFFFFEF6717000842
:1019A00070B56021435A88214158026822290FD11D
:1019B00001465C31526A1A40836D1A704A88521E81
:1019C0004A80826D521C82654A88002A05D070BD0B
:1019D000906908210143916170BDEFF310830122EA
:1019E00082F310880924640105682E68A6432E60DE
:1019F00083F31088EFF3108382F310880468A568DE
:101A00009543A56083F310882023CB6200230367EE
:101A1000C46E012C14D1C366EFF3108382F31088D7
:101A20000468256810229543256083F310880368B5
:101A3000DC69E40600D51A620988FFF796F970BDE3
:101A4000FFF71AFC70BD0000F0B587B004466020B7
:101A5000235A2168C8690D688E688822A258222AF4
:101A600000D0B3E005960295049326465C3620210B
:101A70000691B1890391002900D185E006990840BB
:101A800000D181E00125059828400590290202989F
:101A90000191084002902068406A04990840A16DB5
:101AA00008707088401E7080A06D401CA065206882
:101AB000C769790728D00299002906D039462940FC
:101AC00003D00562316B294331630221059A002A54
:101AD00007D03A460A4004D00162326B0423134314
:101AE0003363059A002A07D004223B46134003D0F3
:101AF0000262306B08433063306B002804D020460C
:101B0000FFF77DF9002030637088002835D1EFF3AE
:101B1000108085F3108821680A68019B9A430A6047
:101B200080F31088EFF3108085F3108821688A68AD
:101B3000294B1A408A6080F310880698F0620020D2
:101B40002067E16E012915D1E066EFF3108185F37E
:101B500010882268136810208343136081F3108873
:101B60002168CA69D20600D5086231882046FFF78D
:101B7000FCF802E02046FFF77FFB0398002803D023
:101B80000698074000D086E77088002822D0B189E7
:101B900088421FD2EFF31080012181F310880E4A92
:101BA000521C23689D6815409D6080F31088B248E0
:101BB0002067EFF3108081F3108821680A68069B84
:101BC0001A430A6080F3108807B0F0BD88690822C4
:101BD00002438A6107B0F0BDFEFFFFEFF0B581B0B0
:101BE000044600680168534A0A40A16823690B4310
:101BF00065691D43E1690D43154305600322120326
:101C000043689343E2681A434260A269236A13431C
:101C10008268494D15401D438560C26A0F239A436F
:101C2000636A1343C362454A904209D0444A9042D2
:101C300008D1444800688007000F43A2135802E00F
:101C4000002300E01023264668360125EA034248B7
:101C5000914211D1082B21D80027C0467B441B7923
:101C60005B009F44041B221B201B1B1B3A00FEF73A
:101C7000E9FD00281BD133E0082B33D80027C046EC
:101C80007B441B795B009F44042D342D322D2D2D78
:101C90004800FEF7D7FD00282DD141E000200127A4
:101CA000002804D11CE0FEF7DFFD002818D0616A8F
:101CB00049002A4A515AFEF72DFA400061684A0845
:101CC0001018FEF727FA264901402AD00007400FD6
:101CD00008432168C8603D4623E010460028E6D14D
:101CE0003D461EE000200127002804D118E0FEF741
:101CF000BBFD002814D0616A4900184A515AFEF70A
:101D000009FA61684A081018FEF704FA80B2102830
:101D100007D32168C8603D4603E010460028EAD199
:101D20003D4610483060002020676067284601B0BB
:101D3000F0BDC046F369FFCFFFF4FF11004400403F
:101D40000038014054100240000000000400000070
:101D500002000000080000000024F400A020000899
:101D6000F0FF000001000100F0B582B05C23C25218
:101D700081650021016704465C3462808568034602
:101D80008033002D0BD001263707BD420CD036031F
:101D9000B5420ED10569002D04D1334D0CE0056923
:101DA000002D08D1FF2507E00569002D03D03F2550
:101DB00002E0A18001E07F25A5800191D960222564
:101DC0009D60EFF31086012585F310880768B968D8
:101DD0002943B96086F31088290200912F0369070F
:101DE000466E8E4202D1A189914216D98168B942CC
:101DF00002D10169002933D01F4A0199009C197052
:101E00000267EFF3108185F31088203400680268C0
:101E10002243026081F310881FE08168B94202D139
:101E2000016900291ED0124A0199009C19700267AD
:101E3000EFF3108185F31088026813682343136061
:101E400081F31088EFF3108185F310882A0700686A
:101E500083681343836081F31088002002B0F0BDD3
:101E6000044ACAE7014ADFE7FF0100000D18000835
:101E7000491A000867170008A1190008F0B585B0D5
:101E800004930D4604460068C0690840401A414268
:101E900041410020914246D11746029020468030B1
:101EA00001900A9E01200090C002039007E0206884
:101EB000C0692840401B41424141B94232D1701CA7
:101EC000F5D0FEF7BBFA002E2FD00499401AB0428D
:101ED0002BD8206801684907E9D5C169039A1142E6
:101EE000E5D003990162EFF31080009D85F310881F
:101EF0000D214901226813688B43136080F3108819
:101F0000EFF3108085F3108821688A68AA438A60FD
:101F100080F310882020019A506090600021117099
:101F2000D0601FE0029805B0F0BDEFF31080009D77
:101F300085F310880D214901226813688B431360D3
:101F400080F31088EFF3108085F3108821688A6889
:101F5000AA438A6080F310882020019A50600021F3
:101F600011709060032005B0F0BD000080B52848D6
:101F7000FEF746FF80BDC046002805D41F2108405B
:101F800001218140014801607047C04600E100E046
:101F9000002805D40322034693430C4A9A1806E00E
:101FA0000F220240083A03239A43074BD2188007B6
:101FB000C00E8901C9B28140FF2383401068984355
:101FC000084310607047C0461CED00E000E400E0EC
:101FD000FEF742FAFFF770FAFFF7F0F9FFF71CFA85
:101FE0000B480C4901252A46FFF70EF97D20C60053
:101FF000094F0A4C2922064839463346FFF754F95F
:102000003046FEF72FF969032046FEF707FAF1E79D
:1020100038000020C8000020040000200008005004
:1020200002E008C8121F08C1002AFAD170477047A1
:10203000002001E001C1121F002AFBD170470000FF
:102040000000000000000000000000000000000090
:102050000000000000000000000000000000000080
:102060000100000002000000030000000400000066
:102070000600000007000000080000000900000042
:102080000000000000000000000000000000000050
:102090000100000002000000030000000400000036
:1020A000010002000400060008000A000C001000F5
:1020B0002000400080000001010101030701000031
:1020C0000804020408010101E820000800000020C3
:1020D00038000000202000082021000838000020DF
:1020E00098040000302000080024F400494F2049E3
:1020F0006D70756C73652053544D333247303330F7
:102100004338547820757361727420746573742E2B
:102110002E2E0D0A00010000040000000000000047
:04000005080000C12E
:00000001FF
