:020000040800F2
:100000009006002081010008A90F0008F50D0008E6
:1000100000000000000000000000000000000000E0
:10002000000000000000000000000000AD0F00080C
:100030000000000000000000AB0F0008B70F000830
:1000400093010008000000009301000893010008DC
:100050009301000893010008930100089301000830
:1000600000000000930100089301000893010008BC
:1000700093010008930100089301000800000000AC
:100080009301000800000000000000009301000838
:10009000000000009301000893010008930100088C
:1000A00093010008930100089301000893010008E0
:1000B00093010008000000000000000000000000A4
:1000C00000F002F800F04CF812A030C808382418EC
:1000D0002D18AC4201D100F043F80FCCA246AB463C
:1000E0000CA730CF2D1B083F3F197C427F1E544484
:1000F0002D090426F441641EAC4201D300F030F80F
:100100000126334200D0FB1A3343984754465D46DC
:10011000DFE700006811000088110000103A02D3E8
:1001200078C878C1FAD8520701D330C830C101D598
:1001300004680C6070470000704700000023002432
:1001400000250026103A01D378C1FBD8520700D30E
:1001500030C100D50B6070471FB51FBD10B510BD75
:1001600000F04DF81146FFF7F7FF00F029FF00F00F
:1001700065F803B4FFF7F2FF03BC00F06BF8000072
:100180000748804707480047FEE7FEE7FEE7FEE72F
:10019000FEE7FEE704480549054A064B70470000A4
:1001A000BF0F0008C100000890000020900600204A
:1001B000900200209002002001E004C0091F0429E1
:1001C000FBD28B0701D50280801CC90700D00270CA
:1001D000704700290BD0C30702D00270401C491E93
:1001E000022904D3830702D50280801C891EE3E71D
:1001F0000022EEE70022DFE7704770477047754640
:1002000000F024F8AE46050069465346C008C00019
:10021000854618B020B5FFF7BDFF60BCB646002686
:100220000027C0C5C0C5C0C5C0C5C0C5C0C5C0C504
:10023000C0C5403D490849008D46704710B5044689
:10024000C046C0462046FFF794FF10BD00487047E7
:100250001000002001491820ABBEFEE72600020076
:100260007047000070B5044600F0FEF90619104D05
:100270002868C00305D500F0F7F9B042F8D3032091
:1002800070BD28680B494A1C2A60084003D06849A1
:100290004860012070BD00F0E7F9041928684003A8
:1002A00004D500F0E1F9A042F8D3E8E7002070BDE2
:1002B00010200240FA83000080B588B001A800F049
:1002C00027F80798C10110D5012109068843079036
:1002D00000F0E8F800F0D2F801A800F03FF800F0D4
:1002E000B7F800F0BDF800F0A9F808B080BD000034
:1002F000B0B5044600F0B8F90546601C02D0E048ED
:100300000078041900F0B0F9401BA042FAD3B0BD48
:1003100010B5072101604168012901D0102100E0DA
:100320000C21444A8B581F241C4084608958C90200
:10033000C90EC16040494161136812680A40826178
:10034000D9B2AA2903D10A46CC2903D003E0BB22A3
:10035000CC2900D10A46026110BDC046F0B583B079
:10036000334D2978012902D1022003B0F0BD0026C7
:100370006E600121029129700168CA072D4F09D0D2
:100380008368C26812041A434368012B01D1FA60E2
:1003900000E03A6106220A40062A0BD1816902690F
:1003A0000A434069FF218843C943414038680840F7
:1003B000104323E08A070DD4490720D54169FF2265
:1003C0009143D2434A403B683968DBB2AA2B0DD136
:1003D0001C460CE03968184A0A40FF21C9435140C5
:1003E0003B680B4000691843104307E0BB241140F1
:1003F000CC2B00D11C4680692043084338607D2007
:10040000C4002046FFF72EFF00280DD10196029868
:1004100046040C3F3868304338602046FFF722FF1F
:100420003968B143019E39602E7003B0F0BDC046FB
:10043000700000202020024000604F070120C0070C
:100440000D490A6802430A600868C043C00F70473C
:100450000120C106084A13680B4313607047C04669
:100460000120800704490A6802430A6009680140C4
:10047000484248417047C0461420024006488168FF
:10048000490001D40120704704490160044901601A
:1004900080684000C00F70470C2002403B2A1908BA
:1004A0007F6E5D4C0648C168002901D4002070476A
:1004B0000449016004490160C068C00F7047C0462C
:1004C0000820024023016745AB89EFCDF0B589B024
:1004D00006900B68002B00D1B1E05A48069A824280
:1004E00001D0052000E00320009000260896344645
:1004F000374603910EE01843544A10607F1C0B6886
:100500001846F8400836089A121D0892A41C0028C4
:1005100000D194E001250195BD402B400493EDD01E
:10052000496803220B461340581E0128079605927E
:1005300011D81046A040069EB26882430398C06856
:10054000A0401043B060C806C00FB8407268AA430C
:1005500002437260059A032B0399069D1CD0104636
:10056000A040EA6882438868A0401043059AE8608A
:10057000022B11D11C20089908400F218140FA0854
:100580009200AA18136A8B4303990D6985401D4395
:1005900003991562059A069D1046A0402B68834377
:1005A0004868860302961040A040184328600298CD
:1005B000800F079EA2D038469043234A13181E6E20
:1005C00005200007069A82420AD02148824205D0BF
:1005D00020488242009D04D1022502E0019D00E0F6
:1005E00000251820079A10400F228240964360335E
:1005F000854035431D60144800684D68EA0202D505
:10060000049B184301E0049B9843079E0E4A106028
:100610005068AA0201D5184300E098430A4A506086
:100620000A484068AA0301D5184300E09843074AE6
:1006300050601068EA0300D55DE798435CE709B0B5
:10064000F0BDC046000C0050001802408018024067
:100650000004005000080050002A02D018228150E7
:100660007047282281507047064800687047C0468E
:100670001F48007803490A68101808607047C04690
:10068000040000208C000020B0B501242002BB49EA
:100690000A6802430A600025284600F009F800288D
:1006A00001D02046B0BD00F025F82C462046B0BD54
:1006B000B0B505460E4801780124002916D07D20EA
:1006C000C00000F0BFFC0146B248006800F0BAFC70
:1006D00000F076FB032D09D8002807D10024E04361
:1006E0002946224600F01CF8AB4805602046B0BD04
:1006F0000400002082B00948416801221143416092
:100700004168114001910199110702680A43026092
:10071000006808400090009802B070473C1002400A
:10072000002805D40322034693430A4A9A1803E09B
:100730000C220240064BD2188007C00E8901C9B2B4
:100740008140FF238340106898430843106070473E
:1007500014ED00E000E400E0F0B581B0032569028B
:100760000F4E32688A430243326001214A0200245C
:10077000904212D187480268706940050DD58F02FA
:1007800006205043074900F05DFC801C401E03D04A
:1007900071693942FAD100E02C46204601B0F0BD23
:1007A0000070004040420F00F0B583B00D460121BB
:1007B000002800D1CFE00191029070480068072422
:1007C0002040A84213D26D490868A043284308601E
:1007D0006B4EFFF749FF0746684800682040A84273
:1007E00005D0FFF741FFC01BB042F5D9B2E0029E31
:1007F00030688107634B0CD5410703D521031A6884
:100800000A431A600F2109021A688A43B16811432A
:100810001960C00718D1594800682040A84228D95B
:1008200056490868A04328430860554FFFF71CFF4E
:100830000646524800682040A8421AD0FFF714FF2D
:10084000801BB842F5D985E00298406803285AD841
:10085000810001A251588F46690800080B09000861
:10086000150900081F0900081946083909684905D3
:1008700057E0029A10784007424B05D520031968CB
:100880008143D0680843186018688006400F22D062
:100890001A6838210A403C48082A23D01A680A40BE
:1008A000102A5BD1596803220A40032A00D0374836
:1008B00059684906490F491C00F0C4FB3149496891
:1008C0004904490E48432F494968490F491C00F023
:1008D000B9FB2C4B06E01846083800688004410F2D
:1008E0002A48C840196889093C220A402849895881
:1008F0001F220A40D0402749086027480068FFF7B8
:10090000D7FE014627E0596D0AE019460839096803
:10091000890306E0194608390968890101E0996DE3
:100920008907019917D51968A14301431960144F2C
:10093000FFF79AFE064613480068382101400298E6
:100940004068C000814200D165E7FFF78DFE801B43
:10095000B842F0D90321084603B0F0BD186808403A
:10096000202802D10120C003BCE7186808401828DD
:1009700001D00020B6E77D200002B3E7002002404E
:10098000881300000810024000127A000024F400CE
:100990003C1200080000002008000020F0B587B0DD
:1009A0000127002800D1F7E1049705900078C007DF
:1009B000FB4E2CD10598007880074CD40598007820
:1009C00000070DD5B06838210140182900D0A4E0F7
:1009D000306E800704D505988069002800D18CE12D
:1009E00005980078400700D45BE1B06838210140E9
:1009F000202900D0A8E0F06D800700D44EE10598D2
:100A00008068002800D049E10020012747E1B06854
:100A1000F16803273A468A433821014010204840B4
:100A2000821850425041082945D0002843D10598EA
:100A30004268052000048242039200D1B6E0012002
:100A400001048A4200D1B7E032688A4332608104EF
:100A500030688843B2E0B168382008401021414036
:100A6000F26803273A4002235340CA1851425141C9
:100A700000282AD0002928D1306801218C02059B4A
:100A8000DA68002A00D1B6E00722D20290431A6940
:100A9000024332600802316801433160FFF7E4FD30
:100AA00005463068204200D0B5E0FFF7DDFD401B71
:100AB0000228F6D970E13068800300D47AE70598FF
:100AC0004068002800D075E717E131684905059BAB
:100AD00003D5D968002900D10FE17F21090272688E
:100AE0008A43596909021143716000280DD107201A
:100AF000C00231688143186908433060306880045F
:100B0000400FA849C140A8480160A8480068FFF705
:100B1000CFFD002800D0F0E050E7306E05998969DC
:100B2000002900D181E0012108433066FFF79CFDD8
:100B30000546306E800700D552E7FFF795FD401B54
:100B400003270228F5D927E1012003900107F06B64
:100B50000840029006D1F06B0843F063F06B084048
:100B6000069006980191924C2068C00510D4039815
:100B70000702206838432060FFF776FD05462068AD
:100B8000384205D1FFF770FD401B0228F7D973E00A
:100B900005988468052C59D0012C5BD0F06D039921
:100BA0008843F065F06D0421884356E001208104FC
:100BB00032680A4332600104306808433060012023
:100BC0004404FFF751FD0546039800280FD0306814
:100BD000204200D0EEE6FFF747FD401B6428F6D91F
:100BE000DAE0FFF741FD401B642800D9D4E030680B
:100BF0002042F6D1DEE6090288433060FFF734FD7B
:100C000005463068204200D1D8E6FFF72DFD401B95
:100C10000228F6D9C0E07F20000271688143059860
:100C20004069000208437060C8E6012188433066CD
:100C3000FFF71AFD0546306E800700D4D0E6FFF7B7
:100C400013FD401B03270228F5D9A5E0F06D042110
:100C50000143F165F06D03990843F065554FFFF7C7
:100C600003FD0546002C0FD0F06D80070FD4FFF771
:100C7000FBFC401BB842F7D9002003270FE0FFF729
:100C8000F3FC401BB842F7D8F06D8007F7D4029808
:100C9000002803D1F06B01998843F06301200028FC
:100CA0007AD00598C469002C75D0B068382101400D
:100CB000102924D1012C20D0F06803210140059B8C
:100CC0001A6A914219D1702101405A6A914214D195
:100CD0007F21090201409A6A120291420DD11F211F
:100CE00049040140DA6A9142049F55D1072149071E
:100CF0000840196B88424ED04EE0049F4CE001271B
:100D000039063068049188433060FFF7ADFC054632
:100D1000022C0BD103977C063068204211D0FFF7DC
:100D2000A3FC401B03270228F6D935E07C06306877
:100D300020422CD0FFF798FC401B03270228F6D94D
:100D40002AE0F0681D490140059A106A0843516A7B
:100D50000143906A00020843D16A0143106B0843C3
:100D6000F060306804990843306003980007F16828
:100D70000143F160FFF778FC0546306820420AD154
:100D8000FFF772FC401B03270228F6D904E0F06845
:100D900009490140F1600027F8B207B0F0BDC04634
:100DA000001002400024F400000000200800002091
:100DB0000070004088130000FCFFFEEF8C80C11F14
:100DC000401E010E01D0012070470749074A5060BC
:100DD000074803680B400321890759180160002068
:100DE0009060072111607047FFFFFF0010E000E0F6
:100DF00020ED00E0FEE70000F0B583B00520050718
:100E00000124284621462246FFF726FC02212846D7
:100E10002246FFF721FC042128462246FFF71CFC4E
:100E2000082128462246FFF717FC102128462246B3
:100E3000FFF712FC202128462246FFF70DFC402137
:100E4000029128462246FFF707FC8021019128469F
:100E50002246FFF701FC61030091524D28462246CD
:100E6000FFF7FAFBA603284631462246FFF7F4FBBC
:100E7000E703284639462246FFF7EEFB474D284652
:100E800002992246FFF7E8FB284601992246FFF720
:100E9000E3FB284600992246FFF7DEFB2846314651
:100EA0002246FFF7D9FB284639462246FFF7D4FBF6
:100EB00003B0F0BD80B57D200001FFF719FA0520D1
:100EC000000701210022FFF7C7FB80BDF0B589B004
:100ED0000024089407940694059404942E4801680D
:100EE00004221143016001681140039103990168D4
:100EF00020221143016001681140039103990168A8
:100F00000125294301600168294003910399016883
:100F100002221143016000681040039003981F4FA4
:100F20001F4938462246FFF797FB0520000701902E
:100F3000FF212246FFF790FB07204603029619483F
:100F400031462246FFF788FB079406950595C03683
:100F5000049604AE38463146FFF7B8FA0794069473
:100F600005950495019F38463146FFF7AFFA07947F
:100F700006950595FE20049038463146FFF7A6FAFF
:100F80000794069505950298049006483146FFF7A8
:100F90009DFA09B0F0BDC046341002400008005070
:100FA000C0E0000000040050FEE77047704780B5C5
:100FB000FFF722FF80BD80B5FFF75AFB80BD704769
:100FC00092B0FFF761FB05AC34212046FFF712F920
:100FD0000026049603960296019601277802FFF7F1
:100FE000BBFB780711907804109008200F900E96A4
:100FF00002250D950C9540200A900996380208901C
:1010000005952046FFF7CAFC002803D0EFF31080B7
:1010100072B6FEE70496039607200190029501A898
:101020002946FFF7C1FB002803D0EFF3108072B60A
:10103000FEE7FFF741F9FFF749FFFFF7B8FFFFF7BA
:1010400039FFFCE743088B421AD3002203098B4285
:1010500079D3030A8B425ED3030B8B4242D3030C3A
:101060008B4227D30902FF2212BA030C8B4202D310
:101070001212090203D0030B8B4233D31AE0D3E0E0
:10108000411A8041401C704703460B4371D443080A
:101090008B42F5D3002203098B4254D3030A8B42BF
:1010A00039D3030B8B421DD3030C8B4202D39446DE
:1010B0006EE0090AC30B8B4201D3CB03C01A524125
:1010C000830B8B4201D38B03C01A5241430B8B42DB
:1010D00001D34B03C01A5241030B8B4201D30B03C4
:1010E000C01A5241C30A8B4201D3CB02C01A5241EB
:1010F000830A8B4201D38B02C01A5241430A8B42AE
:1011000001D34B02C01A5241030A8B4201D30B0296
:10111000C01A5241CDD2C3098B4201D3CB01C01AB0
:10112000524183098B4201D38B01C01A52414309BA
:101130008B4201D34B01C01A524103098B4201D3A8
:101140000B01C01A5241C3088B4201D3CB00C01A15
:10115000524183088B4201D38B00C01A524143088D
:101160008B4201D34B00C01A5241411A5241100028
:101170007047CA0F00D04942031000D34042534089
:1011800000229C4603098B422DD3030A8B4212D3C3
:101190008901FC2212BA030A8B420CD389019211F5
:1011A0008B4208D3890192118B4204D3890137D035
:1011B000921100E08909C3098B4201D3CB01C01A07
:1011C000524183098B4201D38B01C01A524143091A
:1011D0008B4201D34B01C01A524103098B4201D308
:1011E0000B01C01A5241C3088B4201D3CB00C01A75
:1011F000524183088B4201D38B00C01A5241D9D28D
:1012000043088B4201D34B00C01A5241411A00D20D
:1012100001465241104663465B1000D3404270477E
:1012200063465B1000D3404201B50021004201D06B
:10123000C9430846C046C04602BD00000000000089
:10124000000000000000000000000000000000009E
:10125000000000000000000000000000010000008D
:10126000020000000300000004000000060000006F
:10127000070000000800000009000000A01200089C
:1012800000000020100000001C010008B01200083F
:1012900010000020800600003C0100080000000053
:1012A0000024F40001000000040000000000000021
:04000005080000C12E
:00000001FF
