:020000040800F2
:10000000C81A0020D500000801150008E1130008F7
:1000100000000000000000000000000000000000E0
:10002000000000000000000000000000551500085E
:10003000000000000000000011150008591500081C
:10004000E700000800000000E7000008E7000008E3
:10005000E7000008E7000008E7000008E7000008E4
:1000600000000000E7000008E7000008E7000008C3
:10007000E700000811160008E70000080000000073
:10008000E70000080000000000000000E700000892
:1000900000000000E7000008E7000008E700000893
:1000A000E7000008E7000008E7000008E700000894
:1000B000E700000800000000000000000000000051
:1000C0000348854600F058F800480047B919000871
:1000D000C81A00200448804704480047FEE7FEE7AE
:1000E000FEE7FEE7FEE7FEE70D160008C100000888
:1000F00003460B439B0703D009E008C9121F08C041
:10010000042AFAD203E00B780370401C491C521EEB
:10011000F9D27047D2B201E00270401C491EFBD2F6
:1001200070470022F6E710B513460A460446194602
:10013000FFF7F0FF204610BD70B50446002903D03C
:1001400000202022012310E0002801D00020C0431D
:10015000C046C0460DE02546D5408D4205D30D462C
:100160009540641B1D46954040191546521E002DB2
:10017000F1DC214670BD0000064C0125064E05E06D
:10018000E36807CC2B430C3C98471034B442F7D3B8
:10019000FFF79AFFDC320008FC320008EFF3108012
:1001A00072B6FEE7F0B58CB00B916A4A904201D06E
:1001B000052200E0032200920B990F68002F00D166
:1001C000C6E00123002635460293099608960A9058
:1001D00013E03A43604842600A980B9A17683A461F
:1001E000DA40361D08355B1C0999891C099108996C
:1001F000491C0891002A00D1AAE0591E029C0791CF
:100200008C402740E9D0069505960B9A5168032645
:100210000D4635406A1E012A04911BD80322099914
:100220008A400A98806890430B9EF6688E40064389
:100230000A9886600498C006C00F079988400A9EF5
:100240007668A64306430A984660D4430A980899FC
:1002500049000BE0324609998A40D443032D05D169
:10026000099903913546059E049923E0C2680194DB
:1002700022400B9CA4688C401443C460022D03915F
:1002800015D11C20059E30400F2282400799CC08D2
:10029000A4000A9D2C19256A95430B990A6982408E
:1002A0002A4322620A98496803250D4001E0059E11
:1002B0000499019C039A9540026822402A430260F7
:1002C0008A03920F069D88D0182028400F2585406C
:1002D0000322079991430A9A1F4C6618346EAC4367
:1002E000603605252D07AA4208D01D4DAA4207D029
:1002F0001C4DAA42009D04D1022502E0002500E029
:100300000125854025433560144802680B984068F4
:10031000C40301D53A4300E0BA43059E069D0F4C45
:1003200022606268840301D53A4300E0BA430B4C73
:100330006260094A1268C40201D53A4300E0BA4338
:10034000054C22606268800200D542E7BA4341E76B
:100350000CB0F0BD000C00500018024080180240A4
:10036000000400500008005042690B4693430A40C5
:100370001104C91881617047002A02D018228150E7
:100380007047282281507047064800687047C04671
:100390000348007803490A68101808607047C0468F
:1003A000000000208016002010B50124200208491A
:1003B0000A6802430A60032000F00CF8002801D00C
:1003C000204610BD00F046F80024204610BDC0466F
:1003D0000020024070B586B001460D24002520465D
:1003E0002A4600F05FF8204600F050F80124E002B1
:1003F00014490A6802430A600968014002910298A0
:1004000002A801A900F066FA00F07CFA0E4E0F492E
:100410000F4A3260B560F16035615049FFF78CFEDC
:10042000401E7060304600F0DBFC002802D0204601
:1004300006B070BD044800F03BFD0446204606B0FF
:1004400070BDC0464010024018010020E7030000C4
:10045000002C014080B582B00B494A68012002435C
:100460004A604A6802400192019A02070B681343EE
:100470000B600968114000910099C04303210022DC
:1004800000F010F802B080BD3C100240002805D4F6
:100490001F21084001218140014801607047C0468A
:1004A00000E100E0002805D40322034693430C4AF0
:1004B0009A1806E00F220240083A03239A43074B9A
:1004C000D2188007C00E8901C9B28140FF23834042
:1004D00010689843084310607047C0461CED00E068
:1004E00000E400E0F0B581B0032569021A4E3246FF
:1004F000143A13688B430343136001246102002202
:10050000884226D1F14801683068400521D5009223
:10051000A702062048431149FFF70EFE201A0228C1
:1005200016D0316839420FD0012811D031683942D4
:100530000AD000280CD03168394205D0001D0328AC
:1005400006D031683942EAD1009A104601B0F0BDB8
:100550002A46104601B0F0BD1470004040420F0022
:10056000F0B587B081788907584F01D4002650E054
:100570000590012319073A46203A10680840049074
:1005800006D110680843106010680840069006986D
:100590000292039101931E024D4C2068304320606B
:1005A000FFF7F2FE0546206830420AD1FFF7ECFE65
:1005B000401B0228F7D9032605980499002923D067
:1005C00027E00320054601023868084011D005994C
:1005D000496988420BD03868019909043A680A438E
:1005E0003A603A688A433A603A4908403860C0073E
:1005F0005AD13A6837480240059841691143396039
:1006000000260499002904D1029B1968039A91439A
:1006100019600568E90705D1A9060DD401216A040E
:1006200016D42BE0394608390A6803239A434368F5
:1006300013430B60A906F1D5032109033A46083A92
:1006400013688B4381681943116001216A0415D531
:100650003A46083A1368204C23400C463146066956
:10066000334313601C4A521C96420E46214605D164
:100670000A043B46503B1C6814431C602A0510D5F5
:100680008D03032292033B46083B1C689443C268D7
:1006900014431C60AA4204D10804503F3968014346
:1006A0003960304607B0F0BDFFF76EFE0646854C58
:1006B000386880079DD4FFF767FE801BA042F7D9FA
:1006C00005982E46049900299ED0A2E75C100240AE
:1006D00000700040FFFCFFFFFFFFFF3FF0B583B05D
:1006E0000D46012100281BD001910290844800682A
:1006F00007242040A84216D281490868A043284315
:100700000860704EFFF740FE07467D4800682040B5
:10071000A84208D0FFF738FEC01BB042F5D903212C
:10072000084603B0F0BD029E306881079D4B0CD592
:10073000410703D521031A680A431A600F210902F1
:100740001A688A43B16811431960C0071BD16C480D
:1007500000682040A8422CD969490868A043284372
:100760000860584FFFF710FE0646654800682040B5
:10077000A8421ED0FFF708FE801BB842F5D903211E
:10078000084603B0F0BD0298406803285DD8810098
:1007900001A251588F46C046A90700084F0800081B
:1007A000590800086308000819460839096849050E
:1007B00059E0029A107840077A4B05D52003196852
:1007C0008143D0680843186018688006400F22D023
:1007D0001A6838210A407448082A23D01A680A4047
:1007E000102A5ED1596803220A40032A00D06F48BC
:1007F00059684906490F491CFFF79EFC6949496839
:100800004904490E484367494968490F491CFFF7A5
:1008100093FC644B06E01846083800688004410FDA
:100820006248C840196889093C220A40264989580B
:100830001F220A40D0403A49086025480068FFF767
:10084000C9FD0146084603B0F0BD596D0AE01946DE
:1008500008390968890306E01946083909688901D9
:1008600001E0996D8907019900D459E71968A143FE
:1008700001431960134FFFF787FD0646494800689A
:100880003821014002984068C000814200D15EE7F3
:10089000FFF77AFD801BB842F0D90321084603B068
:1008A000F0BD18680840202802D10120C003B9E734
:1008B00018680840182801D00020B3E77D20000206
:1008C000B0E7C0468813000034320008080000205A
:1008D00004000020B0B507220260324B1C681440AF
:1008E00044600F2424021D682540856014031B68A2
:1008F0002340C3600248006810400860B0BDC04695
:10090000002002400648006826490968890A1C221E
:100910000A40044989581F220A40D0407047C04607
:10092000080000207432000810B51E4C20688006B4
:10093000400F06D0226838210A401B48082A07D1F8
:1009400010BD083C20688004410F1848C84010BD05
:1009500022680A40102A15D1616803220A40032A3E
:1009600000D0124861684906490F491CFFF7E4FBB3
:1009700061684904490E48436168490F491CFFF703
:10098000DBFB10BD20680840202802D10120C003F5
:1009900010BD20680840182801D0002010BD7D201F
:1009A000000210BD0810024000127A000024F4007A
:1009B000F0B587B00125002800D1F9E10495059034
:1009C0000078C007FC4F2AD0B868F96803252A468A
:1009D0008A4338210140102048408218504250413B
:1009E000082914D0002812D105984268012001047A
:1009F0008A4208D005231B049A4200D0DAE0820420
:100A00003B6813433B603A680A433A60DBE038686E
:100A1000800304D505984068002800D176E1059848
:100A20000078800723D40598007800070CD5B868B3
:100A300038210140182971D1386E800704D50598F6
:100A40008069002800D161E1059A1078400700D440
:100A50002EE1B86838210140202974D1F86D800753
:100A600000D425E19068002800D021E14EE1B9686A
:100A70003820084010214140FA6803252A4002230B
:100A80005340CA1851425141002820D000291ED19C
:100A90003868059AD168002900D1A2E00721C9026F
:100AA0008843116901433960012001023A680A4311
:100AB0003A608402FFF768FC06463868204200D09E
:100AC000A1E0FFF761FC801B0228F6D970E13968CC
:100AD0004905059B03D5D968002900D116E17F217E
:100AE00009027A688A43596909021143796000282A
:100AF0000DD10720C0023968814318690843386066
:100B000038688004400FAD49C140AD480160AD4830
:100B10000068FFF75FFC002885D0F7E0386E059984
:100B20008969002979D0012108433866FFF72CFC38
:100B30000646386E800787D4FFF726FC801B032506
:100B40000228F6D934E1012003900107F86B084030
:100B5000029006D1F86B0843F863F86B08400690E2
:100B60000698019198480068C00513D403980402C0
:100B70009549086820430860FFF706FC064692483E
:100B80000068204206D1FFF7FFFB801B03250228E7
:100B9000F5D90DE1059880688C4C012805D0052811
:100BA0005AD1F86D04210143F965F86D03990843A2
:100BB000F8655BE03B688B433B6081043B688B439B
:100BC0003B60002A3AD04404FFF7DEFB0646386853
:100BD000204200D023E7FFF7D7FB801B6428F6D91B
:100BE000E6E001210A02904338608C02FFF7CCFB5B
:100BF00006463868204200D115E7FFF7C5FB801B89
:100C00000228F6D9D4E07F20000279688143059854
:100C1000406900020843786005E70121884338668F
:100C2000FFF7B2FB0646386E800700D40CE7FFF7EB
:100C3000ABFB801B03250228F5D9B9E04404FFF77C
:100C4000A3FB06463868204200D1E8E6FFF79CFB8C
:100C5000801B6428F6D9ABE0F96D039A9143F965DE
:100C6000F96D04229143F96500280CD0FFF78CFB45
:100C70000646F86D800713D4FFF786FB801B03251B
:100C8000A042F6D994E0FFF77FFB0646F86D800797
:100C900006D5FFF779FB801B0325A042F6D987E034
:100CA00002980028059A03D1F86B01998843F863EC
:100CB000D069002826D0B96838220A40102A29D1E4
:100CC000012823D0F86803210140059B1A6A91424C
:100CD0001CD1702101405A6A914217D17F2109022B
:100CE00001409A6A1202914210D11F214904014029
:100CF000DA6A9142049D5BD1072149070840196BCC
:100D0000884255D10025284607B0F0BD049D2846ED
:100D100007B0F0BD012213063968994339600228F3
:100D20000FD1039304925406FFF72EFB0646386852
:100D300020421BD0FFF728FB801B03250228F6D991
:100D400036E0F8680325A843F860F86820490140B8
:100D5000F9605606FFF718FB044638683042D1D0D8
:100D6000FFF712FB001B0228F7D921E0F8681949A8
:100D70000140059E20366DCE084310431902014301
:100D800029433143F960386803990843386004986F
:100D90000007F9680143F960FFF7F6FA064638687C
:100DA0002042AFD1FFF7F0FA801B03250228F6D9C5
:100DB000284607B0F0BDC046001002400024F400F1
:100DC000080000200400002000700040881300008C
:100DD000FFFFFEEF8C80C11F704770477047000017
:100DE000B0B5002824D0044605463C356878002874
:100DF00004D100202870204600F058F802206870C6
:100E0000206803689F49884202D03C4A904211D131
:100E100070229343A2681A43204B98420EDD884209
:100E200012D01F4B98420FD01E4B98420CD033E08B
:100E30000120B0BD1A46194B9842F0DC2F4B984266
:100E400002D0194B984227D103231B029A432369EE
:100E5000134380229343A2691A430260E268C2628C
:100E600062688262884205D00D49884202D00D49ED
:100E7000884201D161690163012141612973A9702F
:100E8000E97029716971A971E97129726972A97290
:100E9000E97269700020B0BD1346DAE7FF2B01400C
:100EA000004801400044014000200040704700001D
:100EB00010B53D21415C012918D101463D31022286
:100EC0000A700168C86801221043C8606D488142F9
:100ED00002D00A4881420BD18868094B03400020A8
:100EE000062B02D01404A34202D110BD012010BD74
:100EF000086810430860002010BDC0460004004090
:100F00000700010070470000B0B5044600680169A1
:100F10008907554D17D5C168890714D52946FE3173
:100F20000161012121778069800703D02046FFF706
:100F3000E9FF05E0204600F099F8204600F097F818
:100F40000020207720680169490718D5C168490742
:100F500015D52946FC310161022121778069800580
:100F6000800F03D02046FFF7CDFF05E0204600F0BC
:100F70007DF8204600F07BF800202077206801698A
:100F8000090717D5C168090714D52946F831016149
:100F900004212177C069800703D02046FFF7B2FF04
:100FA00005E0204600F062F8204600F060F80020DE
:100FB000207720680169C90618D5C168C90615D50A
:100FC0002946F031016108212177C0698005800F31
:100FD00003D02046FFF796FF05E0204600F046F8D4
:100FE000204600F044F80020207720680169C907F6
:100FF00009D0C168C90706D02946FF3101612046E2
:1010000000F036F820680169090609D5C1680906AB
:1010100006D52946803101612046FFF7DEFE2068B3
:101020000169C90507D5C168090604D505612046CF
:10103000FFF7D2FE20680169490609D5C168490653
:1010400006D52946C0310161204600F01DF8206810
:101050000169890607D5C168890604D5E0350561AF
:101060002046FFF7BBFEB0BDFFFEFFFF7047704795
:1010700080B500680349884200D080BDFFF788F939
:1010800080BDC046002C01407047B0B58021415C56
:10109000012901D10220B0BD0246803224215160D5
:1010A00001680B680C680125AC430C606C07A34316
:1010B0000B60002141661170202050600846B0BDD1
:1010C000F0B581B08022825C012A02D1022001B0F9
:1010D000F0BD054668352422EA6106683768326843
:1010E0000124A243326007225206B36893430B43A4
:1010F000B360406E0028204615D00097B768B068EE
:10110000400F2B49095C2B4A105CC000FFF714F814
:1011100004463801009F400F2549095C254A105CB0
:10112000C000FFF709F828806C803760002028761F
:101130002021E96101B0F0BDF0B581B08022825C70
:10114000012A02D1022001B0F0BD054668352422F3
:10115000EA610668376832680124A24332600722D8
:101160005207B36893430B43B360406E0028204698
:1011700015D00097B768B068400F0D49095C0D4A5B
:10118000105CC000FEF7D8FF04463801009F400FF6
:101190000749095C074A105CC000FEF7CDFF2880B4
:1011A0006C803760002028762021E96101B0F0BD15
:1011B000B4320008AC320008F0B583B0002841D04A
:1011C0000446074680377868002804D1002038702C
:1011D000204600F057F82420786020680168012537
:1011E000A9430160204600F085FA012827D0A06AB3
:1011F000002802D0204600F013FA0920C00221681E
:101200004A6882434A6088682A2290438860086856
:101210000126304308600025FD60FFF7B5F803465E
:1012200020680168090713D5154800907105002250
:101230002046029300F010FB002807D00325284623
:1012400003B0F0BD0125284603B0F0BD2068029B25
:10125000006840070CD50A480090B10500222046DE
:1012600000F0FAFA002803D00325284603B0F0BDA9
:1012700020207860B8603D70E566284603B0F0BD78
:10128000FFFFFF0180B586B000689C49884201D00D
:1012900006B080BD7E48C268012105918B031A43C8
:1012A000C260C2681A400092009A02680A43026053
:1012B00000680840009000200490039002200290F3
:1012C00003204002019005200007009901A9FEF7C4
:1012D00069FF06B080BDC046F0B587B00E46044633
:1012E000842021580220202911D10125002E19D057
:1012F0000492002A16D001210D03A268AA420AD145
:10130000F20708D02269002A05D10D460AE00546F9
:10131000284607B0F0BD0395274680373A78012A62
:10132000054602D1284607B0F0BD05933A46274648
:1013300054370025D5601170212002925060FFF7CC
:1013400023F80690049878803880A0680399884232
:101350000AD120690028049601D0002104910028B8
:10136000059903D1064601E0049505990298057098
:101370000CE0049A10881949084021688862921C80
:1013800004922E4605997888401E78807888002837
:1013900010D000918021002520462A46069B00F0AF
:1013A0005BFA002810D1002EE3D0307821688862E3
:1013B000761CE7E700914021002520462A46069B3F
:1013C00000F04AFA002803D00325284607B0F0BDF4
:1013D000202002994860284607B0F0BDFF010000B8
:1013E000FEE70000F0B58FB012490AA8024618C9FE
:1013F00018C238C938C20024214600F043FB0E4D04
:1014000028600E4905A8024648C948C2C8C9C8C2D2
:10141000214600F037FB686009496846024648C922
:1014200048C2C8C9C8C2214600F02CFBA8600FB052
:10143000F0BDC046F8310008100000200C32000852
:1014400020320008F0B587B00024069410480168E7
:101450000422114301600168114001910199016862
:1014600001273943016000683840019001987D03ED
:10147000084E304629462246FEF77EFF0594049426
:101480000397029502A93046FEF78CFE07B0F0BD27
:10149000341002400008005010B5174800210C22FB
:1014A000E34B016241628162E124640218C0016081
:1014B00041608160C260016141610838FFF77CFED4
:1014C000002801D0FEF76AFE0B480021FFF734FE2A
:1014D000002801D0FEF762FE07480021FFF7F0FD6B
:1014E000002801D0FEF75AFE0348FFF7CEFD002882
:1014F00001D0FEF753FE10BD64010020003801400A
:10150000FEE70000000000000000000000000000F6
:10151000EFF309800E4B1A6820381060F0C0444683
:101520004D4656465F46F0C008B572B601F016F853
:1015300062B60CBC116808681030F0C8A046A94615
:10154000B246BB4680F309882038F0C81847C04629
:101550001C0000207047000010B500F0A3FD0446F9
:1015600001F05CFC002803D001200007024908605C
:10157000204600F0E0FD10BD04ED00E070B598B02D
:101580000025119510950F950E950D950C950695C6
:101590000595049503950295019501267002FEF7C5
:1015A000A1FF7007179070041690082015901495ED
:1015B000022413941294402010900F9530020E9044
:1015C0000B940BA8FFF7F4F9002803D0EFF3108079
:1015D00072B6FEE70A95099507200790089407A8B8
:1015E0002146FFF77BF8002803D0EFF3108072B696
:1015F000FEE70295019601A8FEF7B2FF002803D08E
:10160000EFF3108072B6FEE718B070BD70470000AF
:1016100080B50248FFF778FC80BDC0461801002065
:10162000B0B5816ACA070CD18A0714D44A071CD402
:101630000A0724D4CA062CD48A0634D44A063CD4D9
:101640004CE00122520403685C689443C26A22435E
:101650005A608A07EAD50122120403685C68944341
:10166000026B22435A604A07E2D5012292040368C2
:101670005C689443426B22435A600A07DAD5012220
:10168000D20303685C689443826B22435A60CA06A3
:10169000D2D50122120303689C689443C26B224393
:1016A0009A608A06CAD50122520303689C68944353
:1016B000026C22439A604A0610D501221305026883
:1016C00054689C43456C2C4354609D4206D10323CF
:1016D0005B0554689C43836C23435360090607D51C
:1016E0000121C904026853688B43C06C18435060E1
:1016F000B0BD0000F0B581B0044600680168494BF8
:101700000B40A16822690A4361691143E2691143F0
:10171000194301600321090343688B43E1681943BE
:101720004160A169236A0B4381683F4D0D401D4311
:101730008560C36A0F218B43616A0B43C3623B4BD5
:10174000984209D03A4B984208D13A48006880073D
:10175000000F39A31F5802E0002700E0102726469B
:1017600068360125EB0338489A4210D1082F50D82B
:101770007F443F797F00BF44044C234C1C4C4C4CAD
:101780002200FFF7BFF8002817D0616A18E0082F81
:101790003FD8C0467F443F797F00BF44043A2A3A8D
:1017A000233A3A3A2900FFF7ADF800281ED0616AC3
:1017B0001FE0FFF7B9F80028E7D1002529E0184617
:1017C0004900224A515AFEF7B7FC400061684A08B6
:1017D0001018FEF7B1FC1E4901401AD00007400F57
:1017E000084313E0FFF7A0F80028E0D1002510E03F
:1017F00018464900154A515AFEF79EFC61684A088E
:101800001018FEF799FC80B2102802D32168C86036
:10181000002510483060002020676067284601B02E
:10182000F0BDC046F369FFCFFFF4FF110044004054
:101830000038014054100240000000000400000085
:1018400002000000080000000024F40094320008A8
:10185000F0FF000001000100F0B587B015460E460C
:1018600004460768F9693140891B4A424A41002011
:10187000AA4224D106930494224680320C9C002C68
:101880001FD0611C44D1F9693140891B4A424A4149
:10189000AA4214D1F9693140891B4A424A41AA42FD
:1018A0000DD1F9693140891B4A424A41AA4206D109
:1018B000F9693140891B4A424A41AA42E3D007B044
:1018C000F0BD0392FEF760FD049FEFF3108101204D
:1018D00080F310880D2252013B681C6894431C6001
:1018E00081F31088EFF3108180F310883A689368D1
:1018F0008343936081F310882020039A5060104640
:1019000008300021117020210160032007B0F0BDD4
:101910000392029001200190C0020590049F06E00E
:10192000C0693040801B41424141A9422DD1FEF7A0
:101930002BFD0699401AA042C7D8386801684907AC
:10194000EED5C169059A1142EAD005990162EFF31B
:101950001080019C84F310880D2149013A681368B6
:101960008B43136080F31088EFF3108084F31088AA
:1019700039688A68A2438A6080F310882020039A1D
:101980005060906010460C30BBE7029807B0F0BD85
:1019900084B0084C0020C24301A80125294600F06C
:1019A0004DF802980128F5D169032046FEF7DCFCCA
:1019B000F0E7C04600080050FEF7F6FCFFF7DEFD3A
:1019C000FFF740FDFFF768FDFFF70CFD00F009F899
:1019D000FEE780B5002800D1012000F0EFFC0020D8
:1019E00080BD80B500F08AFD002080BDB0B584B018
:1019F0000022039202920122D407EFF30582002A0B
:101A00000FD003AA0092012502AB2A4601F084F907
:101A100001280DD10398002809D02807064908603D
:101A200005E0012202AB01F015F9012800D1029C6A
:101A3000204604B0B0BDC04604ED00E070B50446D9
:101A400000206060EFF30580002802D08220206033
:101A500070BD1546221D002630462B4601F058FA6F
:101A6000012805D16068002807D40820206070BDD7
:101A7000002D05D04020206070BD8620206070BD04
:101A8000266070BD70B584B00B460446028A0168BA
:101A90004068258903AC01940024842D264607D193
:101AA000009600F0BDFF012809D0204604B070BDAB
:101AB0002DB2EE1C009600F0B3FF0128F5D1039C77
:101AC000204604B070BD0000104D114E14E000F02F
:101AD0006DFBA86CC468201D00F01CFBE868401E6C
:101AE000E860A868401EA86000F06AFB206B00F068
:101AF00075FB204600F072FBA8680028E7D130682B
:101B00000228F9D300F0E6FBF6E7C0461C000020EF
:101B1000F401002081B0002000900A48006872B6ED
:101B2000401C09D0FEE70098002808D10098002842
:101B300005D10098002802D100980028F3D001B008
:101B40007047C0460C00002088B0C14CA0680568F2
:101B5000002D02D0C068076800E0002700F0F8FC04
:101B600001F058F90446BA490869844233D28868BA
:101B700008E068602D61B6488068314600F0EBFAF5
:101B8000B3488068016800293FD0C0680768C5680D
:101B90002E1D304600F0BEFA296A284688472820C4
:101BA000285C4007ECD5A869C019B842E1D8A84E16
:101BB0003068002800D142E1079506970025059579
:101BC00001F01CF9306805A92A462B4600F07CFD7F
:101BD0000028D5D133E10C61002D1FD0BC421DD3AC
:101BE00001F050FA9A488068C068C5682E1D3046DA
:101BF00000F090FA2820285C410714D429462831A7
:101C0000FE2210400870924C49E091490C610C464C
:101C1000C968E060A16001F035FA43E0002D0CD006
:101C200000228B4D0EE0A869C11969602D61A142A7
:101C300014D9874C2046083016E0854DE8680068C6
:101C400042424241391B286800F08AFB01F01AFA2F
:101C500000282C4626D100F03DFB23E0E11B814209
:101C600007D27B4C20460C300068314600F073FAF6
:101C700015E077480068002800D1E6E00795069750
:101C80000024059401F0BAF87148006805A92246BD
:101C900023466F4C00F018FD002800D1D5E0296ADA
:101CA00028468847206802A90022019202E02068A5
:101CB00002A9002200F0D8FD002800D146E70298D2
:101CC0000028F4D4049D6869002802D0281D00F083
:101CD00021FA01F09FF803462069834208D2A068E8
:101CE00001680029009335D1E168A160E060009BA4
:101CF000236102980928DAD87844007940008744A3
:101D00000A0A0A0477880A0A04772820295CFE2236
:101D10000A402A54CBE72820295C01220A432A548E
:101D2000A869039942186A602D619A4237D9204602
:101D300008308B4238D28A423BD235E078603F612E
:101D400043488068214600F006FA414CA0680168CB
:101D50000029C9D0C0680668C7683C1D204600F04D
:101D6000D9F9396A384688472820385C4007ECD5CD
:101D7000B8698019B042E1D8354C206800285CD0A1
:101D800007970696019E059601F038F8206805A988
:101D90003246334600F098FC0028D6D14DE0591A5F
:101DA000814206D220460C30291D006800F0D3F98C
:101DB0007DE72C462834296A284688472078244C19
:101DC000400700D473E7206800283AD0A869039937
:101DD000079540180690019D059501F00FF82068C1
:101DE00005A92A462B4600F06FFC002829D05EE7A3
:101DF0002820295C01220A432A540398A86100285C
:101E000021D0C01868602D6198420AD820460C3055
:101E100009E02820285C81070AD4284600F0DEF972
:101E200045E7204608300068291D00F094F93EE798
:101E30002835FE210840287039E772B6FEE772B6F1
:101E4000FEE772B6FEE772B6FEE772B6FEE7C04680
:101E500094000020F0B581B0044600F0A7F94520B9
:101E6000275626464436012F12DB2546243504E04A
:101E7000781EF9B2012907460AD92868002807D038
:101E8000284601F0CDF80028F2D000F0D3FAEFE7B1
:101E9000FF25757000F094F900F088F9002037569E
:101EA000012F11DB103404E0781EF9B20129074636
:101EB0000AD92068002807D0204601F0B1F8002890
:101EC000F2D000F0B7FAEFE7357000F079F901B021
:101ED000F0BD0000F0B583B0054600F039FB0120ED
:101EE0000290C307E34A5068002808D01078002801
:101EF000194600D101460024002D2AD194E0019317
:101F00000023D3610720534F39460140C643104692
:101F1000FA1D32400029144600D13C468461052058
:101F20008002002901D0B91A0818D24A20180838AE
:101F30003040506003604360001B60605168216066
:101F4000D060906001201070019B19460024002D84
:101F50006AD0294068D1680703D01035072085432F
:101F600000E0083569426941906800248542029882
:101F700000D82046014357D101931646183691697F
:101F80004F68AF4207D20B68002B04D00E461946AB
:101F90005F68AF42F7D35068814245D03468086823
:101FA0003060781B112829D34E19720701D072B600
:101FB000FEE770604D60AF4D18352868B04204D21E
:101FC0000568B5420746F8D301E02F460546786814
:101FD0003A187368B24202D11B187B603E46A5488E
:101FE00040682A1A50425041F218AA4225D002985D
:101FF000002826D03560B74200D03E604A689D4D2B
:10200000A868801AA860EB68984200D2E860287837
:102010000028019B00D1034608341A43002005C163
:1020200094490869401C086101F02CF8600701D050
:1020300072B6FEE7204603B0F0BD02900298002879
:10204000D8D16868C01870602D683560B742D4D1A7
:10205000D4E7C046800200200346083B1960011FF8
:1020600001231B060B6001460C39034B0B60014634
:1020700020390A6040387047151B00087D20840015
:10208000074D28680121FFF7B1FC2046FFF7A1FCAE
:1020900068680221FFF7AAFC2046FFF79AFCF0E7E8
:1020A00010000020EFF3108072B670478EB00DA0C4
:1020B00004A91CC81CC11CC81CC13CC83CC1134C91
:1020C000134D0020C24301A80221FFF7B7FC02987C
:1020D0000228F6D104A9272220462B46FFF7FCF858
:1020E000EFE7C0464672656552544F5320757361E1
:1020F00072745F746872656164207369676E616C85
:1021000020746573742E2E2E0D0A000064010020C9
:10211000FFFF0000416882688A608268516001693F
:102120004B68834200D14A600A68521E0A6000224E
:1021300002610868704780F31088704700210160D1
:1021400002460832C94342608160C2600261704742
:10215000002101617047B0B50B685A1C0BD00446D2
:102160000834626815689D4208D8546825689D4205
:102170002546F6D904E00269556801E01546224675
:10218000A96008614D608A6051600168491C016066
:10219000B0BD426893684A608B60086103685B1C4D
:1021A00003609068416091607047000072B60A4811
:1021B0000168491C0160BFF34F8FBFF36F8F7047F9
:1021C00005480168002903D0491E016002D070470C
:1021D00072B6FEE762B670470C00002070B50028AA
:1021E00046D00446234D2878411E8841C007261F4B
:1021F0003168084205D0083C2268002A03D072B634
:10220000FEE772B6FEE78143316000F0A1F9316864
:10221000A8684018A860284618300368A3420BD26B
:102220001868A0421A46F8D35368D618A64209D0B7
:10223000631883420CD012E0024618465368D61841
:10224000A642F5D1C918516014466318834206D1DD
:102250006B68984203D04368591861600068206039
:10226000A24200D014606869401C686100F00AFF57
:1022700070BDC046D000002010B5074C0020206083
:10228000A0607D20C10005480068FDF755FF401E95
:1022900060600720206010BD10E000E00800002012
:1022A0000B4A13681868203080F30988022080F3F5
:1022B0001488BFF36F8F3FBCAE4608BC04BC62B647
:1022C0001847C046C046C046C046C046C046C04685
:1022D0001C0000200120000703490860BFF34F8F56
:1022E000BFF36F8F7047C04604ED00E010B51B4A86
:1022F0001368002B18D0194B9C68002C17D01C6950
:10230000002C17D09C69002C17D01C6A002C17D009
:102310009C6A002C17D01C6B002C17D09C6B002CD7
:102320001AD13833072413E00024134610E0083391
:1023300001240DE0103302240AE01833032407E0DF
:102340002033042404E02833052401E0303306243C
:102350001960E1005118486010BDC0468416002085
:1023600070B515460E460446FFF720FF4420215C59
:1023700020464430FF290BD04178FF290DD0FFF7CC
:102380001FFFA06B00280FD02046FFF763FD70BD34
:10239000002101704178FF29F1D100214170FFF740
:1023A0000FFFA06B0028EFD12046243031462A468B
:1023B00000F072F82046FFF74DFD70BD70B50028A3
:1023C0002ED00446894D6869002801D072B6FEE718
:1023D0006869401C6861AE692868001DFFF79AFEB5
:1023E00034192868446009D3286A2968091DFFF751
:1023F000B2FE00F047FE00280CD111E0E869296820
:10240000091DFFF7A8FEE86A844204D300F03AFEF3
:10241000002805D070BDEC6200F034FE0028F9D130
:10242000FFF758FF70BDC04670498A6B026089692A
:10243000416070476D4801210163704770B5002805
:1024400016D00D46694C21681831FFF784FEA66945
:102450002068001DFFF75EFE681C0BD07519206810
:1024600045600ED3206A2168091DFFF774FE70BD18
:1024700072B6FEE720685034011D2046FFF789FE42
:1024800070BDE0692168091DFFF765FEE06A8542BD
:1024900000D2E56270BDC046F0B581B0002815D00D
:1024A00016460D46514C21681831FFF772FEA76998
:1024B0002068001DFFF72EFE002E09D02068503442
:1024C000011D2046FFF765FE01B0F0BD72B6FEE7C4
:1024D0007D192068456006D3206A2168091DFFF731
:1024E0003AFE01B0F0BDE0692168091DFFF733FE37
:1024F000E06A8542E8D2E56201B0F0BDB0B582B0D5
:10250000002400940E4D2846283001900D480EA15D
:102510008022234600F084FA012801D100F01CFE3D
:10252000411C0BD0012807D172B6E043E8620120BC
:102530002861AC6100F05EF802B0B0BD72B6FEE793
:102540001C000020C91A000849444C450000000046
:1025500026484169491C41617047C046B0B52348CF
:102560004169002902D001210163B0BD002101634E
:10257000416A142214464C431D4B1D59002D0CD0AA
:102580004A439B185A6852685A601C460834A24253
:102590001CD0D26802604162B0BDE418503C0029F2
:1025A0001BD0E56B002D1AD1012916D0A56A002D8C
:1025B00017D1022911D06569002D14D103290CD03F
:1025C000091F2568503C002DE9D0D9E71B1D526832
:1025D0001A60D26802604162B0BD72B6FEE7491E61
:1025E000CEE7891ECCE7C91ECAE7C0461C00002002
:1025F000F4010020B0B582B0FF200104124A136834
:102600000B4313600006116801431160FFF734FEAD
:102610000E4C00252560FFF743FEFFF79FFF019555
:10262000206872B6401C09D0FEE70198002808D146
:102630000198002805D10198002802D101980028AE
:10264000F3D0002002B0B0BD20ED00E00C0000206F
:10265000F0B581B0002835D014460E4607464843F1
:102660005030FFF737FC0546002828D000942C4650
:102670004434EF632E64002E284601D028465030A3
:102680002860FFF793FD0020A863FF2020702968D1
:102690006070E86B2A6C431E504308185343CA18F5
:1026A0006960A860EA6028461030FFF747FD2846B9
:1026B0002430FFF743FDFFF783FD00982072284682
:1026C00001B0F0BD72B6FEE7F0B587B00393069295
:1026D000002812D017460446002910D0039802287B
:1026E00002D1E06B012865D1019100F087FB002841
:1026F0000AD1002F08D072B6FEE772B6FEE7206C52
:102700000028EBD072B6FEE7FFF750FDE06BA16B3F
:10271000039A022A50D081424ED32746443720469E
:102720001030029001200BE02046FFF793FB00F0F1
:10273000A9FCFFF73BFDA16BE26B002091423BD36C
:10274000069900296ED0C00702D004A8FFF76CFEDE
:10275000FFF736FDFFF7FCFEFFF728FD3878FF286E
:1027600020D07878FF2822D0FFF72AFD04A806A9F8
:1027700000F01AF900285AD1FFF718FDE56BA66B97
:10278000FFF71EFDAE42CFD106990298FFF756FE25
:102790002046FFF75FFB00F075FC0028C9D1FFF76A
:1027A00099FDC6E7002038707878FF28DCD100203A
:1027B0007870D9E772B6FEE7226CA76B002A1BD0AF
:1027C000039800283BD0E0680199FDF791FC206C4C
:1027D000E168091AE1602268914203D24042A1688F
:1027E0000818E060781E394681410398801E4242F5
:1027F00042410A40BF1A02E0206800282ED0002083
:10280000791CA163616A002903D02434204600F0BA
:1028100007FC002801D0FFF75DFDFFF7D1FC012088
:1028200007B0F0BDFFF7CCFC002007B0F0BD20469C
:10283000FFF710FB00F026FC002007B0F0BD606839
:102840000199FDF755FC206C616809186160A26868
:1028500000209142D4D321686160D1E7A06800F0E4
:10286000B1FB0021A160CBE7F0B585B00492002850
:102870000CD017460D46044600292FD000F0BEFAB2
:10288000002805D1002F03D072B6FEE772B6FEE72E
:10289000FFF78CFCA66B002E25D0226C002A0AD0F4
:1028A000E0688118E160A068814201D32168E1609D
:1028B0002846FDF71DFC701EA06320690125002835
:1028C00069D01034204600F0ABFB002863D0FFF73E
:1028D00001FDFFF775FC284605B0F0BD206C00280F
:1028E000CCD072B6FEE700200090002F52D02746D1
:1028F000443720462430019002A8FFF795FDFFF7EA
:102900005FFCFFF725FEFFF751FC3878FF2817D052
:102910007878FF2819D0FFF753FC02A804A900F02B
:1029200043F8002814D02046FFF794FA00F0AAFBE1
:10293000FFF73CFCA66BFFF743FC002E22D12FE0F3
:10294000002038707878FF28E5D100207870E2E721
:10295000FFF72CFCA66BFFF733FC002E05D02046BA
:10296000FFF778FA00F08EFB0CE004990198FFF76E
:1029700065FD2046FFF76EFA00F084FB002801D1C8
:10298000FFF7A8FCFFF712FCA66B002E85D1049878
:102990000028B4D1009DFFF713FC284605B0F0BD18
:1029A0000025284605B0F0BDF0B583B000281BD047
:1029B0000D4600291AD00446FFF7F8FBD548826976
:1029C000296800264B1C0AD0019648CC806B012751
:1029D0000297083C98420BD0B24209D3029EFFF7FF
:1029E000EFFB304603B0F0BD72B6FEE772B6FEE70D
:1029F000921B91420CD9881A2860C649886B2060C6
:102A000088696060019EFFF7DBFB304603B0F0BDD4
:102A100000202860029EFFF7D3FB304603B0F0BDD4
:102A2000F0B589B01E460691079095002846FFF73D
:102A300051FA07460020C443002F6DD008905C2057
:102A4000FFF748FA002864D005960E9903910446D2
:102A50003434049006460763A52238462946FDF71C
:102A600059FB3746306B2818031F0725069A002AA2
:102A700055D0107820701078002847D050786070BA
:102A80005078002842D09078A070907800283DD0EF
:102A9000D078E070D078002838D010792071107983
:102AA000002833D050796071507900282ED0907969
:102AB000A0719079002829D0D079E071D0790028D0
:102AC00024D0107A2072107A00281FD0507A6072B9
:102AD000507A00281AD0907AA072907A002815D0E7
:102AE000D07AE072D07A002810D0107B2073107B4F
:102AF00000280BD0507B6073507B002806D0907B61
:102B0000A073907B002801D0D07BE0730898E0731D
:102B100007E03846FFF762FB204609B0F0BD089891
:102B20002070049A0F9C0194164658360295AB43C8
:102B300004933865039C062C00D30624FC64FC62D5
:102B4000101D06901546FFF703FB18352846FFF7C2
:102B5000FFFA0898786502996140B96130707F6228
:102B60003F6104980799059AFFF776FA3860019853
:102B7000002800D00760FFF719FBE34EF068401C07
:102B8000F0603068002809D0306900283DD1F86A2B
:102B90003168C96A814238D8376036E03760F068FA
:102BA000012832D1D94C2046FFF7C8FA204614300C
:102BB000FFF7C4FA20462830FFF7C0FA20463C3021
:102BC000FFF7BCFA20465030FFF7B8FA20466430D1
:102BD000FFF7B4FA78342046FFF7B0FA1C4C2046D1
:102BE000FFF7ACFA254614352846FFF7A7FA30461A
:102BF0006430FFF7A3FA30463C30FFF79FFA3046C7
:102C00005030FFF79BFAF46135627068401C7864BD
:102C10007060F86A716A884200D970621421414379
:102C2000BA4840180699FFF7B4FAFFF7C9FA3069B5
:102C30000124002800D16FE7F86A3168C96A81422F
:102C400000D369E7FFF746FB204609B0F0BDC04658
:102C5000F0000020F0B581B0002819D01F461646BC
:102C60000D460446FFF7A2FA002F01D0606D3860D0
:102C70005821605C02226254042E0BD87E443679BF
:102C80007600B74414020C132D00616D294308E04F
:102C900072B6FEE7616D491C09D072B6FEE7616D40
:102CA000491C6165012501281DD103E065650125E9
:102CB000012818D1261D3046FFF72CFAE06AEF4FA5
:102CC000796A884200D9786214214143EC4840185F
:102CD0003146FFF75EFAA06A002809D072B6FEE717
:102CE000022811D10025FFF76BFA284601B0F0BD8C
:102CF000E06A3968C96A8842F5D9FFF7EBFAFFF74D
:102D00005FFA284601B0F0BD656501250128EAD1CA
:102D1000D0E7C0461C000020F0B581B000281BD0D1
:102D20001C4617460E460546FFF7BCF90346002C25
:102D300001D0686D20605821685C02226A54042F1B
:102D40000CD8C0467F443F797F00BF4414020C1367
:102D50001C00696D314308E072B6FEE7696D491CDD
:102D600009D072B6FEE7696D491C69650126012824
:102D70003DD103E06E650126012838D1A86A0028FC
:102D800005D072B6FEE702280ED100262FE0F04CE7
:102D9000606900280DD029461831204664301F464E
:102DA000FFF7F7F93B4616E06E65012601281ED1B4
:102DB000E4E700932F1D3846FFF7ACF9E86A616A33
:102DC000884200D9606214214143E24840183946E4
:102DD000FFF7DFF9009BE86A2168C96A884206D9D3
:102DE0000698002801D001210160012626631846BB
:102DF000FFF7A1F9304601B0F0BDC046D4480169E3
:102E0000002904D0406941424141480070470120F7
:102E10007047C046CE4880697047C046F0B583B061
:102E2000CB4D6869002805D0686B401C68630020A2
:102E300003B0F0BDA869461CAE6118D3E86900680C
:102E4000002801D072B6FEE7E869296AE9612862C4
:102E5000A86B401CA863E8690068002804D0E869F2
:102E6000C068C068406801E00020C043E862E86ACA
:102E70000022864237D3D143E8690068002831D068
:102E800001910020029003E0E8690068002824D046
:102E9000E869C068C7687868864221D33C1D20462F
:102EA000FFF738F9B86A002803D038461830FFF722
:102EB00031F9F86A696A884200D96862142141438D
:102EC000A44840182146FFF764F9F86A2968C96ADE
:102ED0008842D9D301200290D6E7029A019901E0F5
:102EE0000146029AE9622868C06A14214143994860
:102EF000405801210128084600D810462A6B002AB4
:102F000096D0084603B0F0BD1C000020F40100205C
:102F1000F0B581B01E46154600910746FFF746F909
:102F20008B4A10685824005D02282ED01068416D2D
:102F3000B9434165106801210155002E25D09769DC
:102F40001068001DFFF7E6F8701C0AD0BE19804A11
:102F5000106846600CD3106A1168091DFFF7FBF872
:102F600011E07B4801685030091DFFF712F90AE0B3
:102F7000D0691168091D1746FFF7EDF8F86A864217
:102F800001D27348C662FFF7A5F9FFF719F9FFF7F9
:102F90000DF96F4B002D02D01868406D286018683D
:102FA000015D00200229054605D119684A6D009D82
:102FB000AA434A65012519680855FFF701F9284613
:102FC00001B0F0BD70B504460020002C25D0604E45
:102FD0003168A14201D072B6FEE7216D00291DD0F3
:102FE000491E2165E26CE36A934216D0002914D190
:102FF000251D2846FFF78EF8E06CE0620721091ACC
:10300000A161716A884200D970621421414351481C
:1030100040182946FFF7BDF8012070BD72B6FEE7E3
:1030200070B5C068C568002D0BD02C4618342046FA
:10303000FFF770F8464E7069002804D030466430BF
:103040000EE072B6FEE72C1D2046FFF763F8E86A33
:10305000716A884200D97062142141433D4840188A
:103060002146FFF796F8E86A3168C96A884202D9B2
:103070000120306370BD002070BDC0461C000020E0
:10308000F4010020F0B581B0314E706900280DD0F8
:10309000FFF78CF87069401E706170690025002888
:1030A00006D0FFF78DF8284601B0F0BD72B6FEE7F6
:1030B000F0680028F5D0706E00282FD00095254FBD
:1030C00002E0706E00281CD0306FC46820461830B3
:1030D000FFF720F8251D2846FFF71CF8E06A716A03
:1030E000884200D970621421414378182946FFF7BD
:1030F00050F8E06A3168C96A8842E2D3012030633F
:10310000DFE7F0690068002804D0F069C068C06893
:10311000406801E00020C043009DF062746B002C09
:1031200002D10AE0641E06D0FFF778FE0028F9D02D
:1031300001203063F6E700207063306B0028B0D0C8
:10314000FFF7C8F80125FFF73BF8284601B0F0BDAE
:103150001C000020F401002070B582B0FFF726F8B3
:10316000184E3068002816D1344614342046FEF735
:10317000E5FF354628352846FEF7E0FFB460F560E8
:103180000A200C210022FFF763FA3060002802D0E9
:103190000D49FFF7ABF8FFF713F8306800280ED0A1
:1031A0000220311D0090019101200202074808A170
:1031B0000023FFF735FC002801D002B070BD72B6C5
:1031C000FEE7C04694000020D4320008491B0008E6
:1031D000546D72205376630002E008C8121F08C1C4
:1031E000002AFAD170477047002001E001C1121F88
:1031F000002AFBD170470000BC320008911900087A
:10320000000000000000000080000000C432000840
:10321000AD200008FFFF000000000000800000005B
:10322000CC3200087D200008FFFF000000000000F5
:10323000800000000000000000000000000000000E
:10324000000000000000000000000000000000007E
:103250000000000001000000020000000300000068
:103260000400000006000000070000000800000045
:103270000900000000000000000000000000000045
:103280000000000001000000020000000300000038
:1032900004000000010002000400060008000A000B
:1032A0000C0010002000400080000001010101031B
:1032B0000701000008040204080101017468726536
:1032C00061643100746872656164320074687265AB
:1032D00061643300546D7251000000000033000837
:1032E0000000002010000000D83100081033000852
:1032F00010000020B81A0000E831000800000000AB
:1033000001000000040000000024F400AAAAAAAAF8
:04000005080000C12E
:00000001FF
