:020000040800F2
:10000000701D0020B9010008AD2800085324000825
:1000100000000000000000000000000000000000E0
:10002000000000000000000000000000D9290008C6
:100030000000000000000000B1280008D92D0008D1
:10004000CB01000800000000CB010008CB01000834
:10005000CB010008CB010008CB010008CB01000850
:1000600000000000CB010008CB010008CB01000814
:10007000CB010008CB010008CB0100080000000004
:10008000CB0100080000000000000000CB010008C8
:1000900000000000F52D0008CB010008CB0100088E
:1000A000CB010008CB010008CB0100088132000819
:1000B000CB0100080000000000000000000000006C
:1000C00000F002F800F04CF812A030C808382418EC
:1000D0002D18AC4201D100F043F80FCCA246AB463C
:1000E0000CA730CF2D1B083F3F197C427F1E544484
:1000F0002D090426F441641EAC4201D300F030F80F
:100100000126334200D0FB1A3343984754465D46DC
:10011000DFE700004068000060680000103A02D38A
:1001200078C878C1FAD8520701D330C830C101D598
:1001300004680C6070470000704700000023002432
:1001400000250026103A01D378C1FBD8520700D30E
:1001500030C100D50B6070471FB51FBD10B510BD75
:1001600000F0AFF91146FFF7F7FF03F099F800F040
:10017000C7F903B4FFF7F2FF03BC00F0CDF90000AC
:1001800070B505460C46164602E00FCC0FC5103E72
:10019000102EFAD2082E02D303CC03C5083E042E3B
:1001A00007D301CC01C5361F03E021782970641CF8
:1001B0006D1C761EF9D270BD07488047074800477E
:1001C000FEE7FEE7FEE7FEE7FEE7FEE70448054937
:1001D000054A064B70470000F12D0008C1000008D9
:1001E00070170020701D0020701900207019002069
:1001F000F8B5042A2CD3830712D00B78491C03705E
:10020000401C521E83070BD00B78491C0370401C06
:10021000521E830704D00B78491C0370401C521EE9
:100220008B079B0F05D0C91ADF002023DE1B08C9EE
:100230000AE0FFF7A5FFF8BD1D4608C9FD401C46B2
:10024000B4402C4310C0121F042AF5D2F308C91A77
:10025000521EF0D40B78491C0370401C521EEAD485
:100260000B78491C0370401C012AE4D40978017002
:10027000F8BDD2B210B513029A1813049A1800F000
:1002800001F810BD01E004C0091F0429FBD28B074F
:1002900001D50280801CC90700D002707047002978
:1002A0000BD0C30702D00270401C491E022904D3A0
:1002B000830702D50280801C891EE3E70022EEE757
:1002C0000022DFE7002203098B4273D3030A8B422B
:1002D00058D3030B8B423CD3030C8B4221D312E047
:1002E00003460B437FD4002243088B4274D3030997
:1002F0008B425FD3030A8B4244D3030B8B4228D338
:10030000030C8B420DD30902FF2212BA030C8B425D
:1003100002D31212090265D0030B8B4219D300E0FD
:10032000090AC30B8B4201D3CB03C01A5241830B82
:100330008B4201D38B03C01A5241430B8B4201D332
:100340004B03C01A5241030B8B4201D30B03C01A5B
:100350005241C30A8B4201D3CB02C01A5241830AD5
:100360008B4201D38B02C01A5241430A8B4201D304
:100370004B02C01A5241030A8B4201D30B02C01A2E
:100380005241CDD2C3098B4201D3CB01C01A524195
:1003900083098B4201D38B01C01A524143098B421E
:1003A00001D34B01C01A524103098B4201D30B0107
:1003B000C01A5241C3088B4201D3CB00C01A52412C
:1003C00083088B4201D38B00C01A524143088B42F1
:1003D00001D34B00C01A5241411A00D2014652418A
:1003E000104670475DE0CA0F00D04942031000D3A9
:1003F000404253409C46002203098B422DD3030AFE
:100400008B4212D38901FC2212BA030A8B420CD30D
:10041000890192118B4208D3890192118B4204D336
:1004200089013AD0921100E08909C3098B4201D3B6
:10043000CB01C01A524183098B4201D38B01C01AF0
:10044000524143098B4201D34B01C01A5241030967
:100450008B4201D30B01C01A5241C3088B4201D316
:10046000CB00C01A524183088B4201D38B00C01AC3
:100470005241D9D243088B4201D34B00C01A52419A
:10048000411A00D201465241104663465B1001D327
:100490004042002B00D54942704763465B1000D3B1
:1004A000404201B50449002802DC491C084000E034
:1004B0000846C046C04602BDFFFFFF7F7047704739
:1004C0007047754600F024F8AE460500694653466D
:1004D000C008C000854618B020B5FFF777FE60BCA5
:1004E000B64600260027C0C5C0C5C0C5C0C5C0C52A
:1004F000C0C5C0C5C0C5403D490849008D467047CC
:1005000010B50446C046C0462046FFF732FE10BD77
:10051000004870471800002001491820ABBEFEE7D4
:100520002600020070470000F0B581B0254C2088FD
:10053000401C2080244D298880B288423FD3234824
:100540000178012903D102210170012601E020492F
:100550000E88204909888E420ED2B3001F480768D2
:10056000F95A1F480818143880B21E4A90420DD814
:100570001E480068002117E0154901220A8016492B
:100580000978002919D10321017016E0164800935B
:1005900004F09EFE009B401E81B2144A1068C162A6
:1005A000D160134A1278D140416300214162F818AA
:1005B00040882880701C064908800020208001B0F7
:1005C000F0BDC04686000020820000209D00002073
:1005D00084000020800000208D0000207C0000208E
:1005E000F3B1FFFFF2B1000049828B00CC00002084
:1005F000A000002070B5B34C2021012520462A46DA
:1006000000F069F9AC48082631462A4600F063F943
:10061000402120462A4600F05EF9290220462A465B
:1006200000F059F9690220462A4600F054F91021D9
:1006300020462A4600F04FF9204631462A4600F06F
:100640004AF9802120462A4600F045F970BDC0468F
:10065000EFF3108072B6FEE770B500282AD001468D
:1006600024314A78022A27D1046822680E239A434B
:100670002260426C15682E4B1D40156025680122D2
:1006800095432560046C1C2525401446AC40294D3B
:100690002E6826432E60846CC56C6560046D002C4A
:1006A00005D025681D402560436D806D58604A70F7
:1006B000002004E0012070BD0422C263012000225A
:1006C0000A7070BD70B5014624314A78022A2BD1D8
:1006D00003681A680E24A2431A601C68012294431E
:1006E0001C60446C2568124B1D402560046C1C2561
:1006F00025401446AC400F4D2E6826432E60846C76
:10070000C56C6560046D002C05D025681D40256012
:10071000436D846D5C6000240C704A70816B00290D
:1007200000D08847204670BD0421C163012070BD00
:10073000FFFEFFFF04000240F0B58AB0099109688E
:10074000002900D1B5E006465B48864201D005206D
:1007500000E003200090002707973C46089710E030
:100760000A432A607F1C099801680846F840089AE5
:1007700008320892079A121D0792A41C002800D183
:1007800097E001250295BD402940EBD003970191E8
:10079000324603231846A040C143274609984468BF
:1007A00020461840461E012E06910594049710D845
:1007B00093680B400999CE68BE401E439660E306DD
:1007C000DB0F039FBB405668AE431E435660164680
:1007D00007E003281646039F03D11846059A049C98
:1007E0001DE0F36806990B40099A9568049CA540A2
:1007F0001D43F5600228059A11D11C200799084075
:100800000F228240FB089B00F3181D6A954309994B
:100810000A6982402A431A624A6803201040A040B5
:10082000336806990B40034333609003800F99D0DF
:1008300003203A46824321488018026E05231B0795
:100840009E420AD01F4B9E4205D01F4B9E420099EC
:1008500004D1022102E0029900E000211823089D42
:100860002B400F259D40AA43603099401143016001
:10087000124D2A6809984068C30202D501990A43BB
:1008800001E001998A432A606A68830201D50A431C
:1008900000E08A436A600A4D6A68830301D50A430F
:1008A00000E08A436A602A68C00300D558E78A439B
:1008B00057E70AB0F0BDC046000C005000180240D7
:1008C00080180240000400500008005000690840F1
:1008D000411E88417047002A02D01822815070477B
:1008E0002822815070470000064800687047C046C3
:1008F0000348007803490A68101808607047C0462A
:10090000090000209413002010B50124200208499A
:100910000A6802430A60032000F00CF8002801D0A6
:10092000204610BD00F054F80024204610BDC046FB
:1009300000200240F0B587B00190012778041F49DC
:100940000A6802430A60096801400391039803A8FA
:1009500002A900F061FA069C00F076FA184E1949D7
:10096000194A32600025B561B560F1603561611EDC
:100970008C41A040554904F0ABFC401E70603046ED
:1009800000F04CFD002801D007B0F0BD0C4800F08D
:10099000C9FD0028F8D1152000F036F80198032889
:1009A0003846F1D81520019C21462A4600F038F837
:1009B00006480460284607B0F0BDC046401002401B
:1009C00018010020E7030000004401400C00002053
:1009D00080B582B00B494A68012002434A604A68E8
:1009E00002400192019A02070B6813430B600968E9
:1009F000114000910099C0430321002200F010F83B
:100A000002B080BD3C100240002805D41F210840E0
:100A100001218140014801607047C04600E100E0CB
:100A2000002805D40322034693430A4A9A1803E098
:100A30000C220240064BD2188007C00E8901C9B2B1
:100A40008140FF238340106898430843106070473B
:100A500014ED00E000E400E0F0B581B00325690288
:100A6000194E3246143A13688B4303431360012432
:100A700061020022884224D1E548016830684005BF
:100A80001FD50092A70206204843104904F020FC1D
:100A9000201A022814D0316839420FD001280FD013
:100AA000316839420AD000280AD03168394205D06D
:100AB000001D032804D031683942EAD1009A00E0D1
:100AC0002A46104601B0F0BD1470004040420F00AD
:100AD000F0B587B0064680788007524C01D40020DC
:100AE0004EE0059601210F07203C20683840049015
:100AF00006D1206838432060206838400690069868
:100B0000039402910E02484C206830432060FFF7A6
:100B1000EBFE05462068304208D1FFF7E5FE401B9A
:100B20000228F7D90320059E3E4C22E003200190C5
:100B300001023C4800680840059E12D07169884255
:100B40000FD0384B1868029909041A680A431A60D2
:100B50001A688A431A600146344A11401960C00776
:100B600050D1304C206831490840716901432160FF
:100B700000200499002903D1039A1168B943116038
:100B80003768F90707D0214608390A6803239A43D2
:100B9000736813430B60B90608D503210903224685
:100BA000083A13688B43B1681943116001217A0434
:100BB00012D52246083A13681D4C234035692B4351
:100BC0001360621C174C954206D10A042346503B21
:100BD0001C6814431C60134C3A0511D58D03032285
:100BE00092032346083B1C689443F26814431C603C
:100BF0000C4BAA4204D10A04503B196811431960F6
:100C000007B0F0BDFFF770FE05467F4C0548006851
:100C10008007A6D4FFF768FE401BA042F6D90198D2
:100C2000004CA6E75C10024000700040FFFCFFFF94
:100C3000FFFFFF3FF0B583B00D460121002800D132
:100C4000CFE0019102907F48006807242040A8422D
:100C500013D27C490868A043284308606A4EFFF716
:100C600043FE0746774800682040A84205D0FFF7BA
:100C70003BFEC01BB042F5D9B2E0029E306881074E
:100C8000994B0CD5410703D521031A680A431A6012
:100C90000F2109021A688A43B16811431960C0071D
:100CA00018D1684800682040A84228D965490868DA
:100CB000A04328430860544FFFF716FE06466148DC
:100CC00000682040A8421AD0FFF70EFE801BB842F1
:100CD000F5D985E00298406803285AD8810001A21E
:100CE00051588F46F50C0008970D0008A10D00081B
:100CF000AB0D0008194608390968490557E0029A02
:100D000010784007784B05D5200319688143D068D7
:100D10000843186018688006400F22D01A683821EE
:100D20000A407248082A23D01A680A40102A5BD168
:100D3000596803220A40032A00D06D4859684906C1
:100D4000490F491C04F0C4FA674949684904490E2F
:100D5000484365494968490F491C04F0B9FA624B98
:100D600006E01846083800688004410F6048C84013
:100D7000196889093C220A40244989581F220A40DF
:100D8000D0403849086023480068FFF7D3FD01468A
:100D900027E0596D0AE0194608390968890306E019
:100DA000194608390968890101E0996D8907019997
:100DB00017D51968A14301431960134FFFF794FD3C
:100DC0000646494800683821014002984068C00042
:100DD000814200D165E7FFF787FD801BB842F0D95B
:100DE0000321084603B0F0BD18680840202802D14E
:100DF0000120C003BCE718680840182801D0002073
:100E0000B6E77D200002B3E788130000E85400082D
:100E1000000000200C000020B0B507220260324B19
:100E20001C68144044600F2424021D68254085601E
:100E300014031B682340C360024800681040086028
:100E4000B0BDC04600200240064800682649096837
:100E5000890A1C220A40044989581F220A40D040AE
:100E60007047C046000000202855000810B51E4CF1
:100E700020688006400F06D0226838210A401B48AF
:100E8000082A07D110BD083C20688004410F18488B
:100E9000C84010BD22680A40102A15D1616803229B
:100EA0000A40032A00D0124861684906490F491CCC
:100EB00004F00EFA61684904490E48436168490F1D
:100EC000491C04F005FA10BD20680840202802D112
:100ED0000120C00310BD20680840182801D0002060
:100EE00010BD7D20000210BD0810024000127A00E3
:100EF0000024F400F0B587B00125002800D1F0E10E
:100F0000049505900078C007F74F2AD0B868F968B3
:100F100003252A468A433821014010204840821880
:100F200050425041082914D0002812D10598426837
:100F3000012001048A4208D005231B049A4200D0F4
:100F4000DAE082043B6813433B603A680A433A6044
:100F5000DBE03868800304D505984068002800D19C
:100F600073E105980078800723D40598007800077E
:100F70000CD5B86838210140182971D1386E800726
:100F800004D505988069002800D15EE1059A1078A3
:100F9000400700D42EE1B86838210140202974D1DF
:100FA000F86D800700D425E19068002800D021E189
:100FB0004BE1B9683820084010214140FA68032508
:100FC0002A4002235340CA1851425141002820D0E0
:100FD00000291ED13868059AD168002900D1A2E005
:100FE0000721C902884311690143396001200102C8
:100FF0003A680A433A608402FFF776FC064638688E
:10100000204200D0A1E0FFF76FFC801B0228F6D938
:1010100067E139684905059B03D5D968002900D1E6
:1010200013E17F2109027A688A4359690902114351
:10103000796000280DD10720C00239688143186902
:101040000843386038688004400FA849C140A84868
:101050000160A8480068FFF76DFC002885D0F4E027
:10106000386E05998969002979D0012108433866CD
:10107000FFF73AFC0646386E800787D4FFF734FC4A
:10108000801B03250228F6D92BE1012003900107DC
:10109000F86B0840029006D1F86B0843F863F86BD0
:1010A000084006900698019193480068C00513D443
:1010B000039804029049086820430860FFF714FC75
:1010C00006468D480068204206D1FFF70DFC801BC4
:1010D00003250228F5D904E105988068874C01288A
:1010E00005D005285AD1F86D04210143F965F86D42
:1010F00003990843F8655BE03B688B433B608104E0
:101100003B688B433B60002A3AD04404FFF7ECFB7A
:1011100006463868204200D023E7FFF7E5FB801B36
:101120006428F6D9DDE001210A02904338608C0280
:10113000FFF7DAFB06463868204200D115E7FFF7D3
:10114000D3FB801B0228F6D9CBE07F200002796810
:1011500081430598406900020843786005E7012152
:1011600088433866FFF7C0FB0646386E800700D418
:101170000CE7FFF7B9FB801B03250228F5D9B0E087
:101180004404FFF7B1FB06463868204200D1E8E688
:10119000FFF7AAFB801B6428F6D9A2E0F96D039A39
:1011A0009143F965F96D04229143F96500280CD04B
:1011B000FFF79AFB0646F86D800713D4FFF794FB00
:1011C000801B0325A042F6D98BE0FFF78DFB064676
:1011D000F86D800706D5FFF787FB801B0325A0422B
:1011E000F6D97EE002980028059A03D1F86B0199A0
:1011F0008843F863D469002C72D0B8683821014064
:10120000102924D1012C20D0F86803210140059B2E
:101210001A6A914219D1702101405A6A914214D13F
:101220007F21090201409A6A120291420DD11F21C9
:1012300049040140DA6A9142049D52D107214907CD
:101240000840196B88424BD04BE0049D49E00125D2
:1012500029063868049188433860FFF745FB064645
:10126000022C0BD103956C063868204211D0FFF791
:101270003BFB801B03250228F6D932E06C06386858
:10128000204229D0FFF730FB801B03250228F6D926
:1012900027E0F8681B490140059E20366DCE0843C3
:1012A00010431902014329433143F9603868049916
:1012B0000843386003980007F9680143F960FFF7B5
:1012C00013FB0646386820420AD1FFF70DFB801B4E
:1012D00003250228F6D904E0F86809490140F960BD
:1012E0000025284607B0F0BD001002400024F4009D
:1012F000000000200C000020007000408813000057
:10130000FCFFFEEF8C80C11F7047704770470000E4
:10131000F0B53C22825C012A01D10220F0BD0246D8
:101320003C323F231B02CC689C430F239B028D68F9
:101330009D4325434B681B4C1C402C430B681A4DA6
:101340001D4025430B69194C1C402C434B6923431A
:10135000174C1C400B6B174D1D402543CB692B438D
:101360008C692404144D25401D4303688048834242
:1013700001D02C4612E0114805400E46203651CED1
:10138000C96A36050E4F37402F4311256D06A84315
:10139000384301256D07AC4304430C430020107013
:1013A0005C64F0BDFF87F0EFFF8FF0EFFF9FF0EF81
:1013B000FFBFF0EFFFFFF0EF0000FFEFFFFF0FDCDC
:1013C0000000F0DC70B53C22825C012A01D10220D1
:1013D00070BD02463C320223537000684568836842
:1013E000634CA04201D02E4604E00F263605B543DB
:1013F0004E682E437025AE430D6835434560A042CC
:1014000002D05C4CA04204D18024A34389681943D4
:101410008160002010700121517070BDB0B50028AE
:1014200019D0044605463C356878002804D10020D0
:101430002870204600F060F8022068702068036879
:101440004B49884202D04B4A904206D170229343C6
:10145000A2681A4302E00120B0BD1A46224B98420E
:1014600008DD88420CD0214B984209D0204B98428D
:1014700006D036E03F4B984202D01E4B984230D106
:1014800003231B029A432369134380229343A269D7
:101490001A430260E268C26262688262884205D0D2
:1014A0001249884202D01249884201D16169016320
:1014B00022463E324434012141610369DB0702D0F8
:1014C00003698B4303612171117051709170D17068
:1014D0001171517121706170A170E170697000200B
:1014E000B0BD1346D1E7C046FF2B01400048014084
:1014F000004401400020004081B000681C4988423F
:1015000001D001B070470120C00205490A680243BA
:101510000A60096801400091009801B07047C04618
:101520004010024010B53D21415C012918D101460F
:101530003D3102220A700168C86801221043C86068
:101540000B48814202D00B4881420BD188680A4B7C
:1015500003400020062B02D01404A34202D110BD88
:10156000012010BD086810430860002010BDC0466F
:10157000002C01400004004007000100F0B53C22AF
:10158000825C012A01D10220F0BD02463C320223D6
:1015900053700468A0684B4B0340A3600D680023A0
:1015A0004F2D1EDC1F2D37DD202D39D0302D37D0AB
:1015B000402D00D083E0206A256A0126B5432562CC
:1015C000A569F026B543CE6836012E43A6610A25EB
:1015D000A843496801432162A0683B490140473163
:1015E00067E06F2D24DD01204603B5423CD00003A7
:1015F000854218465FD0702D61D1FF200002A5689A
:10160000854348688E68C96806430802304328430A
:10161000A060A068772135E0002D01D0102D4ED1BB
:10162000A068294901400D4307202843A06041E0FC
:10163000502D29D0602D42D1206A256A1026B5434D
:1016400025620F252D03A669AE43CD682D033543D2
:10165000A561A025A8434968090101432162A0684A
:1016600019490140673124E0FF252D02A668AE43E9
:101670004D688F68C9682F43090239433143A1601F
:101680008003A168014314E0206A256A0126B5435E
:101690002562A569F026B543CE6836012E43A661C2
:1016A0000A25A843496801432162A0680649014010
:1016B0005731A1601846137001215170F0BD01200F
:1016C000F9E7C0468800CEFF88FFCFFF70470000D3
:1016D000F0B583B004460068C56802272946394042
:1016E0004A424A410169029139404B424B411343FE
:1016F00013D16C49FE310161012121778069800796
:1017000003D02046FFF7E2FF05E0204600F0CEF8C8
:10171000204600F0EAFA002020770126042229461C
:1017200011404842484102994907314600D50146D7
:10173000032000020190002916D100922068594927
:10174000FC310161277780690199084203D0204666
:10175000FFF7BCFF05E0204600F0A8F8204600F0A7
:10176000C4FA00202077009A0827294639404842C9
:10177000484102990907314600D50146002913D195
:1017800020684849F83101612277C069800703D099
:101790002046FFF79BFF05E0204600F087F8204633
:1017A00000F0A3FA00202077102129404842484148
:1017B0000299C906314600D50146002914D1206896
:1017C0003849F03101612777C0690199084203D097
:1017D0002046FFF77BFF05E0204600F067F8204633
:1017E00000F083FA00202077012129404842484137
:1017F0000299C907314600D00146002906D1206868
:101800002849FF310161204600F0EEFA80272F4081
:10181000784278414121C901029A0A42314600D0FA
:101820000146002905D120681F4901612046FFF7C4
:101830006CFD784278410299C905314600D50146D0
:10184000002905D12068174901612046FFF75CFD9A
:10185000402129404842484102994906314600D575
:101860000146002906D120680E49C0310161204699
:1018700000F0C6FA202005406842684102998906B6
:1018800003D4002E04D003B0F0BD0646002EFAD1DA
:1018900020680449E03101612046FFF737FD03B0BD
:1018A000F0BDC046FFFEFFFF7FDFFFFF7047000077
:1018B000F0B582B03C23C35C012B02D1022002B000
:1018C000F0BD03463C330224E241052A29D8C04634
:1018D0007A4412795200974402263C53708C026875
:1018E000106A156A0126B5431562A0438E68064347
:1018F00050680C6801949569F64FBA4206D0F74CCF
:10190000A24203D0F64CA24200D0C5E00C24A6436C
:10191000CC680427BC43EF4F3443BA4200D0BEE04A
:10192000C4E0012063E10268106A146A1025AC4328
:1019300014622024A0438C682701074350680C6878
:1019400001949469E34DAA4270D03E46AA4277D1F1
:101950007DE00268106A01242502166AAE43166211
:101960006402A0438C682702074350680C68019406
:10197000D569D84CA24273D03E46A2427CD182E0C7
:101980000268156A01242003166A864316625068AD
:101990008E6801960E680096D769CE4EB24206D088
:1019A000CE4EB24203D0CE4EB24200D086E0A60365
:1019B000B0434E69B601064381E00268146A8F485D
:1019C0007330156A0540156257688D6801950D687A
:1019D0000095566DBF4DAA4206D0C04DAA4203D015
:1019E000BF4DAA4200D084E00740486905023D434C
:1019F00080E00268156A01242005166A8643166293
:101A000050688E6801960E680096576DF44EB2428B
:101A100006D0F14EB24203D0F84EB24200D084E07C
:101A2000A604B0434E69B60206437FE0C026B74322
:101A3000CE6836014025AE43E94D3E43AA4206D06A
:101A4000E54DAA4203D0ED4DAA4200D088E003251F
:101A5000AD02A8434D698F692F43BD00054380E067
:101A60000326B602B743674CFF3CCE6836022640D9
:101A7000DB4C3E43A24206D0D74CA24203D0DF4CFF
:101A8000A24200D085E003242403A0434C698F695F
:101A900027433C0104437DE03446BA4206D0CE4E93
:101AA000B24203D0D54EB24200D087E003263602C0
:101AB000B0434E698F6906433E4380E006461046B8
:101AC0001C3056604E4E3740009E36023E43D66173
:101AD0004E6816646603B543019E36032E431662B4
:101AE000E502D6692E43D661A402D569A543D56126
:101AF0004CE03D46104654305560404DED1C2E40A4
:101B0000009D2E4356654D68956501256D04AC43D7
:101B1000019D2D0425431562546D08252543556507
:101B2000546D0425AC4354655CE0064610465430C1
:101B30005660314E3740009E36023E4356654E6831
:101B4000D6656605B543019E36052E431662E5024D
:101B5000566D2E435665A402556DA543556515E097
:101B60000546104618305560254D2C40019D2D022C
:101B7000254395614C68946316620124E5029669D9
:101B80002E439661A4029569A543956109690902EE
:101B900029E0044610461C305460184C2540019C36
:101BA0002543D5614C68D4631662D4690825254362
:101BB000D561D4690425AC43D46113E006461046D0
:101BC000183056600D4E3540019E354395614D6885
:101BD0005563146294690825254395619469042529
:101BE000AC439461096902680A4302600020002145
:101BF000197002B0F0BDC046FF8FFFFE8CFFFEFFE4
:101C0000FF8CFFFEFFFBFFFFB0B5002819D0044694
:101C100005463C356878002804D10020287020460D
:101C200000F062F802206870206803686C498842FE
:101C300002D06A4A904206D170229343A2681A43A6
:101C400002E00120B0BD1A46234B984208DD8842CD
:101C50000CD0614B984209D0684B984206D036E0D0
:101C60005E4B984202D01F4B984230D103231B0297
:101C70009A432369134380229343A2691A43026063
:101C8000E268C26262688262884205D05249884234
:101C900002D05A49884201D16169016322463E322D
:101CA0004434012141610369DB0702D003698B439E
:101CB00003612171117051709170D1701171517166
:101CC00021706170A170E17069700020B0BD134691
:101CD000D1E7C046002C0140FF2B014000480140E5
:101CE000004401400020004070477047B0B50246F4
:101CF0003E32002914D08B070C1FA4081B19032B9C
:101D00001AD89C0001A52C59A746C0461D1D0008E5
:101D10002D1D0008311D0008351D0008541C0CE065
:101D20001378012B17D10223137021E0941C04E0D7
:101D3000D41C02E0141D00E0541D2478012C0AD1AB
:101D4000032B0AD87B441B795B009F4401090C0FCD
:101D5000022353700CE00120B0BD0223537107E051
:101D60000223937004E00223D37001E00223137175
:101D70001F221140012213468B400168086A9843D4
:101D80000862086A184308621248814206DC134858
:101D9000814210D01248814206D015E00E4881429F
:101DA00002D0164881420FD1D0034B6C03434B64E1
:101DB0000B48814208D188680A4B03400020062B5B
:101DC00006D01404A34203D0086810430860002022
:101DD000B0BDC046FF430140004801400004004040
:101DE000002C01400700010080B5006803498842CB
:101DF00000D080BDFEF77CFD80BDC04600440140A0
:101E00007047B0B58421415C012901D10220B0BDE9
:101E1000024684322421516001680B680C68012558
:101E2000AC430C606C07A3430B600021416611704A
:101E3000202050600846B0BD70477047F0B581B0B3
:101E4000054668352A7F012A02D1022001B0F0BD83
:101E500024222A620668376832680124A24332606D
:101E600007225206B36893430B43B360406E0028C9
:101E7000204615D00097B768B068400F2B49095C21
:101E80002B4A105CC00003F023FA04463801009F7F
:101E9000400F2649095C264A105CC00003F018FA7E
:101EA00028806C803760002028772021296201B0CB
:101EB000F0BDC046F0B581B0054668352A7F012ADD
:101EC00002D1022001B0F0BD24222A6206683768E0
:101ED00032680124A243326007225207B368934359
:101EE0000B43B360406E0028204615D00097B768BA
:101EF000B068400F0D49095C0D4A105CC00003F04A
:101F0000E7F904463801009F400F0849095C084A78
:101F1000105CC00003F0DCF928806C803760002082
:101F200028772021296201B0F0BDC0462C67000847
:101F3000246700087047704770470000F0B589B00B
:101F400003460068C76920240126F20211462F319A
:101F50003940056808935C33079306908068202910
:101F60000494059010D12946214001231B0703400A
:101F7000C918384618D00898416F002900D1E4E10B
:101F80000898884709B0F0BD03920F3217423846CF
:101F90000AD0E84929403207541C034605980440FA
:101FA0001846611800D08BE01027294639404B4273
:101FB0004B41014639404C424C411C430899C96E83
:101FC000491E4B1E9941214339D001240126B105F8
:101FD000059F39404B424B41C1022146069A00D52C
:101FE0001946002900D1E7E0010606D580212940E5
:101FF000F2051740C91900D08DE140222946114051
:102000004B424B414106214600D51946002900D1DB
:1020100028E1B10729404A424A410102214600D540
:102020001146002900D180E1002D00DB84E100266B
:10203000C00100D583E1002C00D183E185E1069841
:1020400007628068400600D5BDE0079E7088318831
:102050007288002A00D178E1814200D175E1EFF366
:102060001083012282F3108809246401089D0690E0
:1020700028680668A643066083F31088EFF3108390
:1020800082F310882C68A068B14E0640A66083F3E6
:1020900010880498079B186300236B67EB66EFF3C7
:1020A000108382F310882A681468BC43146083F399
:1020B000108802222A670698081A81B22846CDE0C5
:1020C0000192014631404B424B4131020295294079
:1020D0004D424D411D43069A05D101211162079DD4
:1020E0006B6B0B436B630127059B3B405D425D417E
:1020F0008107314600D5294600290BD10221116202
:1021000007994D6B009504253A46009F3D431746BD
:10211000069A4D635D425D414107314600D529462F
:10212000002906D104211162079D696B02230B432C
:102130006B630107089D0AD50299049B19400C4363
:1021400005D008211162079C636B0B436363B906DA
:10215000029B19404B424B410399084200D01E4656
:10216000002E079E04D11162716B049B19437163A9
:10217000716B002900D1E8E0049908400CD0059B60
:102180000198034002980840184305D0696F002960
:1021900002D0284688472A68706B2821014092683F
:1021A00040200240511800D071E02846FFF7C4FEDD
:1021B0000020706309B0F0BD300510620898FFF789
:1021C000BAFE09B0F0BD079E706A006841688AB225
:1021D000002A00D1B9E033889A4200D3B5E071807B
:1021E0000068800633D4EFF31081012080F310885B
:1021F000594A2032089D2B681C6814401C6081F3EA
:102200001088EFF3108180F310882A689368834365
:10221000936081F31088EFF3108180F310882A68AF
:1022200093684024A343936081F310880499316339
:102230000021E966EFF3108180F3108828680268B6
:10224000BA43026081F31088706AFEF705FA022132
:102250000898016732887188511A89B2FFF7ECFD3E
:1022600009B0F0BDEFF3108086F31088089C216858
:102270000B6893430B6080F310880020A0670798D9
:102280000499C162204600F0E3F809B0F0BDEFF315
:10229000108187F31088092252012B681C6894432F
:1022A0001C6081F31088EFF3108187F310882A688F
:1022B0009368274C1C40946081F31088E96E0129D3
:1022C0000AD1EFF3108187F310882A68136810246D
:1022D000A343136081F31088049931630021E966F8
:1022E00069672968896849061AD5EFF3108187F371
:1022F00010882A6893688343936081F31088706A1A
:1023000000280DD013498163FEF7DCF900281CD0AA
:10231000706A816B35E60898816F002915D02FE629
:102320002846FFF709FE09B0F0BD0898FFF702FE46
:1023300009B0F0BD20010004C00100D47BE63446A2
:10234000002C02D10898FFF778FD09B0F0BDC04617
:10235000FEFFFFEFA52F0008DFFEFFFFB0B500284E
:102360001ED00446054684356868002804D1002044
:102370002870204600F02AF8242068602068016850
:102380000125A9430160A06A002802D0204600F080
:1023900042FD204600F012FE002803D02846B0BDC2
:1023A0000120B0BD0920C00221684A6882434A600A
:1023B00088682A22904388600868012202430A60E4
:1023C000204600F091FD05462846B0BD70B58CB0A2
:1023D0000024069405940494039400681B498842E1
:1023E00001D00CB070BD02940125019501A8FEF743
:1023F0006FFB002801D0FEF72BF9C448C1680B958C
:10240000AA031143C160C16811400091009901689D
:10241000294301600068284000900A940994022032
:10242000089003256802079000980520000707A977
:10243000FEF782F91B26304629462246FEF7F0FABF
:102440003046FEF7E1FA0CB070BDC04600380140DE
:102450007047FEE710B516490A88042A0AD8642195
:1024600002F036FF1349085C01210222002300F02C
:1024700023F810BD092A0BD80A24214602F028FFB0
:102480002146FDF71FFF0B48405C0122002108E0B8
:102490000E2A0AD80A21FDF715FF0648405C0021E4
:1024A0000A460B4600F008F810BD0020088010BD59
:1024B00092070020C6540008F0B581B00F460446CC
:1024C000964D022A06D1042101222846FEF703FA7E
:1024D000002208E01646042100222846FEF7FBF9F8
:1024E000012E40D1012202212846FEF7F4F90022F4
:1024F000012628463146FEF7EEF978012546854348
:10250000EA097102834F3846FEF7E5F96806C20F03
:1025100031023846FEF7DFF9A806C20F802138469F
:10252000FEF7D9F9E006C20F40213846FEF7D3F98D
:102530002007C20F20213846FEF7CDF96007C20FF1
:1025400010213846FEF7C7F9A007C20F0825384604
:102550002946FEF7C0F93440704829462246FEF766
:10256000BAF901B0F0BD022100222846FEF7B3F906
:10257000002EBCD10122BBE7B0B51A4800F0BEFF67
:102580001949086001250024184A2846214600F010
:10259000F6FF174908601748174B2946224601F0F5
:1025A00097F8164908600A2101F0D2F803200921A2
:1025B000134A00F061FF134908600220124A2946BD
:1025C00000F05AFF114908601148124A214601F0F3
:1025D00028F811490860114800F005FF104908600B
:1025E000B0BDC04668660008A80000204855000835
:1025F000780000203D3300083467000814020020F2
:10260000FC55000888000020085F000898000020A2
:10261000DD2900080C600008A400002028560008EE
:1026200090000020F0B589B0002408948448016827
:10263000042211430160016811400391039901686C
:102640002022114301600168114003910399016840
:10265000012529430160016829400391039901681C
:10266000022211430160016811400391039901683E
:102670000822114301600068104003900398D54878
:10268000234E31462246FEF726F905200007019029
:10269000FF2739462246FEF71EF9CD481E4922463D
:1026A000FEF719F91D480F2102912246FEF713F992
:1026B000079406940595049604AEC6483146FEF785
:1026C0003BF8079406940595049701983146FEF768
:1026D00033F80694059412480490BD4F38463146AD
:1026E000FEF72AF80794069405950B48049038469F
:1026F0003146FEF721F80794069405950298049058
:1027000006483146FEF718F809B0F0BD3410024013
:10271000C0E0000000040050F8E30000000C00508E
:1027200003100000F0B5A1B000241A941994189475
:1027300016941594149413941294119410940F9465
:102740000E940D9468463421FDF7BAFD3948802176
:10275000394A0723394E066043608460C2600461D1
:1027600044618161FEF75AFE002801D0FDF770FF39
:102770000127380317902F4817A9FEF7FFFE0028FE
:1027800001D0FDF765FF2B48FFF73EFA002801D086
:10279000FDF75EFF169415941494264814A9FEF7CD
:1027A00011FE002801D0FDF753FF0E9460200D901C
:1027B0000F9410941194129413941E480DA922465C
:1027C000FFF776F8002801D0FDF742FF0494039448
:1027D0000294019400940C940B940A940894079426
:1027E00006947806099078030590124D69462846AC
:1027F000FEF78EFD002801D0FDF72AFF2868B042C1
:1028000001D021B0F0BD0E48016839430160006875
:1028100038401B90022020901F941E941D90380277
:102820001C90052000071B991CA9FDF785FF21B00E
:10283000F0BDC046CC000020FFFF0000002C01408E
:102840003410024010B5174800210C22164B0162CB
:1028500041628162E124640218C0016041608160CC
:10286000C260016141610838FFF778FD002801D09E
:10287000FDF7EEFE0B480021FFF71CFB002801D0FE
:10288000FDF7E6FE07480021FFF7D8FA002801D03F
:10289000FDF7DEFE0348FFF7B4FA002801D0FDF78C
:1028A000D7FE10BD6401002000380140FEE70000A3
:1028B000EFF309800E4B1A6820381060F0C04446D0
:1028C0004D4656465F46F0C008B572B601F030FE80
:1028D00062B60CBC116808681030F0C8A046A94662
:1028E000B246BB4680F309882038F0C81847C04676
:1028F00014030020F0B583B00446012502462A40A7
:102900000520060730462946FDF7E5FFA007C20F60
:1029100002213046FDF7DFFF6007C20F0421304679
:10292000FDF7D9FF2007C20F08213046FDF7D3FF7E
:10293000E006C20F10213046FDF7CDFFA006C20F02
:1029400020213046FDF7C7FF6006C20F40210291EB
:102950003046FDF7C0FFE0B2C20980210191304648
:10296000FDF7B9FF69030091E005C20FF74F384644
:10297000FDF7B1FFAE03A005C20F38463146FDF7A3
:10298000AAFFED036005C20F38462946FDF7A3FFF5
:102990002005C20F0F4F38460299FDF79CFFE00457
:1029A000C20F38460199FDF796FFA004C20F3846C2
:1029B0000099FDF790FF6004C20F38463146FDF7DD
:1029C0008AFFE20B38462946FDF785FF03B0F0BDCC
:1029D00000040050000800507047000082B0F92049
:1029E00040000190D94CDB4DDD4F09E00020E54966
:1029F0000860F7490860F7490860012000F0E4FC2E
:102A0000DA4E28883E280ED300202880D24E306827
:102A1000D2490988C943814088B2FFF76BFF30680B
:102A2000401C3060D14E387864214143CD48007855
:102A30000818CD4908803178002950D0042101269A
:102A4000C34D28463246FDF746FF0221284632464E
:102A5000FDF741FF284631463246FDF73CFF082787
:102A6000002220463946FDF736FF710220463246E5
:102A7000FDF731FF310220463246FDF72CFF802161
:102A800020463246FDF727FF402120463246FDF71B
:102A900022FF202120463246FDF71DFF102120464F
:102AA0003246FDF718FF2846AA4D3946AC4F32464C
:102AB000AE4EFDF710FFAE480078032830D1AD4888
:102AC0000078042817D8C04678440079400087442D
:102AD00002161A1E2200A84800780A211EE0A74903
:102AE0000988FFF7B7FCA6480078002818D0032013
:102AF0009F49087014E0A048007808210EE09E4825
:102B0000007806210AE09C480078032106E09A48F4
:102B10000078072102E098480078042100F01EFCAC
:102B20009848006800280ED0974A107841424141E9
:102B300011703078002803D00520387000203070E4
:102B400000209049086091480068002807D0387834
:102B5000092801D0401C387000208C4908608C483E
:102B60000068002817D083480078052801D0401C51
:102B700000E000207F490870C1B2052903D840B2A7
:102B800084A1095C00E008217B48007800F0E6FBA6
:102B900000207F49086081480068002807D0387805
:102BA000002801D0401E387000207C4908607C4815
:102BB0000068002813D0724A1078414241411170D8
:102BC000002806D0774A1078414241411170012017
:102BD00000E003200021724A1160654908707249C3
:102BE0000888401C08802988491C29806F4A118860
:102BF000491C118080B26E49884217D300206A496F
:102C00000880554908606048007800280ED0554873
:102C10000078002801D0401E06E03878002800D156
:102C200091E0401E38703B204E49087030780028F3
:102C300003D060490888401C0880012631032046E3
:102C4000FDF744FE00280DD05B480068012804D140
:102C50000020594908604D48066000205749086027
:102C6000574916E0564A1068411C116006280EDBD1
:102C70000199884252D900204F4908604F4909689C
:102C80000029EDD145490E604C490E60E8E700206F
:102C90003E490860012620463146FDF717FE002810
:102CA0000DD048480068012804D10020454908603B
:102CB00037480660002044490860444916E0434A0A
:102CC0001068411C116006280EDB019988422CD93E
:102CD00000203C4908603C4909680029EDD1304991
:102CE0000E6039490E60E8E700202949086002219A
:102CF0002046FDF7EBFD002800D077E6344A106847
:102D0000411C1160062806DB324A1068002813D0E7
:102D100000202F4970E600201A496DE62748006818
:102D20000028B7D124480660B4E727480068002887
:102D3000DDD124480660DAE7002025490860114803
:102D40000660166059E60120307072E700040050FA
:102D5000000C00508E07002010020020060000200A
:102D6000080000208C07002018020020AC00002082
:102D70009D0000209E0000209C00002004000020F8
:102D80009F000020B80000208C000020B000002030
:102D9000B4000020070B030504060000BC0000205F
:102DA000C00000208D000020900700209207002026
:102DB000E903000010030020C400002004020020EA
:102DC000F8010020C800002008020020FC010020BB
:102DD000000200200C02002080B50448006802F0C8
:102DE0003FF8012801D001F04BFC80BD10E000E06D
:102DF0007047000080B50248FEF76AFC80BDC046FF
:102E00001801002080B501F0B3F8002802D0016855
:102E10004068884780BDB0B5816A0A070CD4CA07EC
:102E200014D18A071CD44A0724D4CA062CD48A0693
:102E300034D44A063CD44CE00122D20303685C68D7
:102E40009443826B22435A60CA07EAD0012252049B
:102E500003685C689443C26A22435A608A07E2D5D9
:102E60000122120403685C689443026B22435A6097
:102E70004A07DAD50122920403685C689443426BE6
:102E800022435A60CA06D2D50122120303689C6805
:102E90009443C26B22439A608A06CAD50122520328
:102EA00003689C689443026C22439A604A0610D5DA
:102EB00001221305026854689C43456C2C435460FE
:102EC0009D4206D103235B0554689C43836C2343D6
:102ED0005360090607D50121C904026853688B4372
:102EE000C06C18435060B0BDF0B583B004460646D0
:102EF00084360027F760FDF7F7FC03462068016879
:102F000009071DD5264800900120029041050022A6
:102F100020461D4600F006F900280FD0EFF3108080
:102F2000029981F3108821680A6880239A430A6015
:102F300080F310882020706003202EE020682B464C
:102F40000068400723D5164800900125A9050022F6
:102F5000204600F0E7F8002819D0EFF3108085F341
:102F6000108809214901226813688B43136080F39C
:102F70001088EFF3108085F3108821688A68AA43CF
:102F80008A6080F310882020B060032005E02020B4
:102F90007060B060E76627673846377003B0F0BDF1
:102FA000FFFFFF0180B5806A0146563100220A8189
:102FB00056214252FEF7C0FF80BD0000F0B581B03F
:102FC0000446006801684A4A0A40A16823690B4325
:102FD000616919431143E269114301600321090347
:102FE00043688B43E16819434160A169236A0B433D
:102FF0008168404D0D401D438560C36A0F218B439E
:10300000616A0B43C3623C4B984209D03B4B9842E8
:1030100008D13B4800688007000F3AA31F5802E020
:10302000002700E01027264668360125EB033948C3
:103030009A420FD1082F52D87F443F797F00BF4476
:10304000044E204E194E4E4E1F00FDF7FDFE002887
:1030500014D143E0082F42D87F443F797F00BF441A
:10306000043E2C3E253E3E3E2B00FDF7EDFE0028A3
:1030700020D133E0FDF7FAFE00282FD0616A00E08E
:1030800018464900244A515A02F022F9400061686A
:103090004A08101802F01CF90246103A1F498A42E9
:1030A0001DD201400007400F084315E0FDF7DEFE8A
:1030B000002813D0616A00E018464900164A515AA8
:1030C00002F006F961684A08101802F001F9014699
:1030D0001039124A914202D22168C8600025104876
:1030E000306000206067A067284601B0F0BDC04690
:1030F000F369FFCFFFF4FF110044004000380140A6
:103100005410024000000000040000000200000013
:10311000080000000024F4000C670008F0FF000025
:1031200001000100F0B585B0049315460F46036811
:10313000D9693940C91B4A424A410021AA425DD19E
:1031400002910146843101910A9C01210091C9023A
:10315000039106E0D9693940C91B4A424A41AA4253
:103160004FD1611CF6D00646FDF7BEFB0146032099
:10317000002C00D17FE0049A891AA14200D97AE09C
:103180003046336819684907E4D5402FE2D0802FD4
:10319000E0D0D969090737D4D969039A1142D9D047
:1031A00003991962EFF31085012282F31088092137
:1031B0004901064603681C688C431C6085F310882F
:1031C000EFF3108082F3108831688B682B4C1C4021
:1031D0008C6080F31088F36E03202021012B019F67
:1031E0003DD1EFF3108382F3108832681468102504
:1031F000AC43146083F31088334635E0084605B0CD
:10320000F0BD029805B0F0BD08211962EFF31080FF
:10321000009D85F310880922520133681C6894438D
:103220001C6080F31088EFF3108085F310883268FB
:103230009368124C1C40946080F31088F06E012853
:103240000FD1EFF31082012080F3108833681C68DF
:103250001025AC431C60334682F3108803E03346EC
:1032600002E033462846019F2022BA600022DA6637
:103270005A673A70F96005B0F0BDC046FEFFFFEF37
:1032800080B50248FEF75AFE80BDC04664010020AA
:1032900080B502480021FEF729FD80BDCC0000204A
:1032A00092B0FDF731FB00260B960A960996089618
:1032B000079601256802FDF7CFFB680711906804A7
:1032C000109010200F900E9603200D9002240C9465
:1032D00028040690059505A8FDF70CFE002803D0EC
:1032E000EFF3108072B6FEE7049603960720019074
:1032F000029401A82146FDF79DFC002803D0EFF3BE
:10330000108072B6FEE7FFF78DF9FFF79BFAFFF723
:1033100009FAFDF76FF907480570FFF7B9FF06488E
:10332000FFF7E8FA00F078F8FFF726F900F086F8E2
:10333000FEE7C0469C000020FFFF000080B5124859
:103340000078401E012802D8FDF7EEF880BD0F4836
:103350000178002000F018FA80BDC046491ECAB2AC
:103360000A2A0FD8084A01231370084A107048B27D
:103370004100074A515A074A1180800006A10858A7
:10338000104908607047C0469D000020A000002042
:10339000D05400088000002014560008205F000868
:1033A00078660008345F000830600008385600086E
:1033B000685F0008585500080E6800088A67000812
:1033C000805700087C00002010B5EFF3058100292C
:1033D00002D00520C04310BD0024002801D000F019
:1033E00099FF204610BD80B502460020EFF305810D
:1033F000002900D080BD002A0BD09168D268002936
:1034000005D0202AF6D3084601F0F3F880BD002A43
:10341000F0D101F0DFF880BD0520C043EFF3058156
:10342000002900D0704712490A68002A01D0401DC7
:1034300070470120086000207047C04680B5052015
:10344000C043EFF30581002900D080BD08490A6818
:10345000012A0BD1FF200006064A1368834313603C
:103460000220086001F008F8002080BD401D80BDEA
:10347000940000201CED00E0F0B581B01546EFF39C
:1034800005820024002931D000282FD0002A2DD118
:10349000002D16D0AB68EA68002B1FD0502A25D328
:1034A0002A69002A22D006464E436F69B7421DD3CF
:1034B0000024009401F0B3F90646002816D02C68C9
:1034C00006E00024224601F06DF9064600280DD0E2
:1034D0003046214600F07AFE344607E0002A05D146
:1034E0002A69002A02D16A69002A02D0204601B066
:1034F000F0BD0024224601F055F9DDE7F0B581B0BA
:1035000005460024EFF30580002802D0204601B0D4
:10351000F0BD002D14D068680107F7D401273840AA
:10352000A968EA68002907D0502AEFD300281CD1E7
:10353000012001F0F7F806E0002AE7D1002819D1B0
:10354000012001F0DAF806460027002EDED0002D1B
:1035500001D0296800E00021304600F037FE002F3E
:1035600001D0012006433446D0E7042001F0DAF808
:103570000646EAE7042001F0C0F80646E5E7F0B5A4
:1035800081B00E46EFF305810024864246D800281C
:1035900044D0002942D11546002A12D0AA68E96811
:1035A000002A0CD04F2939D9AB68012826D1032035
:1035B0000090012000210A4601F031F908E00029BD
:1035C0002CD1012816D101200021032201F0EAF8B4
:1035D0000746002E17D0002F15D00024384621466C
:1035E0002246234601F066F901280ED0384600F045
:1035F00025FE13E0314601F055F803E031461A4646
:1036000001F062F80746002F08D0002D01D029688C
:1036100000E00021384600F0D9FD3C46204601B0CC
:10362000F0BDF0B58BB00B4600240A94EFF3058192
:10363000002849D0002947D10026002A12D09769D6
:10364000002F00D118270024382F3DD81179C90741
:103650003AD151698D08089100290795049610D038
:10366000059510E04025182731460AAA00970192D7
:10367000AAB201F0A1FB012801D0344624E00A9C43
:1036800022E04021059111689568D6680996069553
:10369000002D11D0099D5C2D16D31269002A13D07C
:1036A000089D002D10D000970192069A0292079A69
:1036B00001F0AEFB044607E0099D002D04D112691C
:1036C000002A059D049ED0D020460BB0F0BD00001E
:1036D000F0B583B00546EFF305800026002D32D00B
:1036E000002830D11F4614460291082000F08AFBC2
:1036F000002828D0034605604460029A501E82418B
:10370000002F0ED0B968FC683868002915D02C2C21
:1037100015D301910D49009101211C4601F047FD8F
:1037200006E000200949009101211C4601F014FD2A
:1037300006460028234606D101E0002CF2D01846A8
:1037400000F0B6FC0026304603B0F0BD052E0008A0
:10375000B0B582B00A460521CD43EFF305810029BB
:1037600003D02C46204602B0B0BD002809D000246A
:1037700000940421234601F07DFD0128F2D0EC1CC9
:10378000F0E7AC1CEEE7000010B50C4601460C4813
:103790000818143880B20B4A904203D80B480068CE
:1037A000002109E0084801F093FD401E81B2074A5C
:1037B0001068C162D160E14041630021416210BDE7
:1037C000F3B1FFFFF2B1000049828B00CC00002072
:1037D000F0B581B0044600F053FC69480168491C0B
:1037E0000160284F396800290AD02748006800285E
:1037F00027D1E06A3968C96A814222D83C6020E05A
:103800003C60006801281CD138265E4D284600F037
:1038100000FC1435761EF9D11C4D284600F0F9FB4A
:103820001B4E304600F0F5FB1A4800F0F2FB5348FF
:1038300000F0EFFB184800F0ECFB18480560184852
:10384000066018480168491C61640160E06A164915
:103850000A68904200D90860142141434948401841
:10386000211D00F001FC00F015FC0748006800284D
:1038700006D0E06A3968C96A814201D200F09AFC38
:1038800001B0F0BD140300202C170020901600207A
:10389000A4160020D8160020381700201C03002092
:1038A00024030020A4130020A813002070B582B0C8
:1038B00000F0E6FB104E3068002819D10F4C20466E
:1038C00000F0A7FB0E4D284600F0A3FB0D48056055
:1038D0000D480460002000900A2010210B4A0C4B78
:1038E00000F09DFF3060002802D00AA100F06EFCBD
:1038F00000F0D0FB02B070BD6417002064160020F9
:103900007816002028030020180300201A02002047
:10391000BC020020546D725100000000164D174F7C
:10392000174E02E0204600F0C3FB286800281AD09A
:1039300000F0A6FBF868C468201D00F03DFB30686D
:10394000401E30602868401E286000F0A3FB59200C
:10395000205C0228E9D00128E4D000280AD1206B9D
:1039600000F0A6FBDEE7074800680228DDD300F080
:1039700021FCDAE772B6FEE79C1300204C1700200A
:10398000981300202C030020F0B585B004930F4657
:1039900003900C9C206B9600A5223146FCF769FC35
:1039A000206B3018031F0720214634310A9A0292F7
:1039B000002F4FD03A780A703A78002A47D07A78A8
:1039C0004A707A78002A42D0BA788A70BA78002A87
:1039D0003DD0FA78CA70FA78002A38D03A790A715C
:1039E0003A79002A33D07A794A717A79002A2ED02E
:1039F000BA798A71BA79002A29D0FA79CA71FA7922
:103A0000002A24D03A7A0A723A7A002A1FD07A7AA7
:103A10004A727A7A002A1AD0BA7A8A72BA7A002A54
:103A200015D0FA7ACA72FA7A002A10D03A7B0A7351
:103A30003A7B002A0BD07A7B4A737A7B002A06D025
:103A4000BA7B8A73BA7B002A01D0FA7BCA73002240
:103A5000CA7301E000220A70834300932646583659
:103A60000B98019000252565029F372F00D337273B
:103A7000E764E762201D00F0D6FA2046183000F017
:103A8000D2FA65653820C01BA0613570646224617C
:103A900000980399049A00F079FA206001980028B0
:103AA00000D0046005B0F0BDF0B587B0044601F069
:103AB000E5F9234A1168884233D201900294AE4C52
:103AC00005E0706036612068394600F0AFFA206882
:103AD0000168002927D0C0680568C668371D3846C8
:103AE00000F06AFA316A304688472820305C400787
:103AF000EDD5B0694019A842E3D8A14F3868002835
:103B00000DD0059604950026039601F0A9F93868B2
:103B100003A93246334600F0CDFE0028D7D172B655
:103B2000FEE7002107E095490A682260086001214C
:103B3000029C0198024A1060216007B0F0BDC046A7
:103B40000C03002081B0002000900A48006872B683
:103B5000401C09D0FEE70098002808D100980028F2
:103B600005D10098002802D100980028F3D001B0B8
:103B70007047C046100000208AB07F4F804E3868E2
:103B80000468002C02D0C068076800E0002700F03D
:103B9000C9FC02A8FFF788FF05460298002802D05A
:103BA00001F05AFA51E0002C15D0BD4213D301F0B8
:103BB00053FA71480068C068C468201D009000F086
:103BC000FBF92820205C410709D421462831FE2238
:103BD0001040087036E0002C11D0002214E0A069DB
:103BE000C11961602461A942634903D8E91B81427C
:103BF000624914D20868009900F018FA22E05F4880
:103C00000068006842424241791B306800F060FB66
:103C100001F022FA002818D100F0CCFA15E0306843
:103C2000002800D1A5E0089407970025069501F02B
:103C300017F9306806A92A462B4600F03BFE0028FB
:103C400000D196E0216A20468847306802A9002406
:103C5000224600F0C0FF0028474F07D18FE73068A9
:103C600002A9002200F0B7FF002888D0029800289F
:103C700006D505990498039A904702980028EED437
:103C8000049D6869002802D0281D00F095F901A85C
:103C9000FFF70AFF02990929E1D8C046794409795A
:103CA00049008F440A0A0A0440550A0A04402820A1
:103CB000295CFE220A402A54D1E728216A5C0123AC
:103CC00013436B54AB6903995A186A602D618242A1
:103CD00022D98842384623D28A42384620D32F46FA
:103CE0002837296A284688473878234F4007B6D5B1
:103CF0003068002839D0A8690399089540180790C2
:103D0000069401F0ADF8306806A92246234600F07B
:103D1000D1FD0028A3D128E0401A98421748DED2EE
:103D2000291D006811E028216A5C012313436B54AC
:103D30000399A96100291AD0091869602D6181428F
:103D4000384600D80D480068291D00F06FF986E755
:103D50002820285C810703D4284600F0A9F97EE7D3
:103D60002835FE210840287079E772B6FEE772B662
:103D7000FEE772B6FEE7C0461803002028030020C5
:103D800064170020F0B581B004460646443600F0C2
:103D900077F901203756012F12DB2546243504E040
:103DA000781E79B2012907460ADD2868002807D065
:103DB000284601F021F90028F2D000F0E7FAEFE7F9
:103DC000FF25757000F066F900F05AF900203756AB
:103DD000012F11DB103404E0781E79B20129074667
:103DE0000ADD2068002807D0204601F005F90028E8
:103DF000F2D000F0CBFAEFE7357000F04BF901B0EC
:103E0000F0BD0000F0B583B0054600F08BFB012249
:103E1000D007CD490B68002B06D0C84A1378002B79
:103E2000024622D11A4620E0029008460723DC43CE
:103E30004C4E7307334601D0F31D2340C14F03217D
:103E400089027118214008390160002418C70C60EC
:103E50004C600468C91A1C605960434B1960B84B28
:103E60001960B6490A70029802460024002D6FD0EE
:103E70002A406DD1690703D007218D43103500E03A
:103E80000835691EAE4A1268914261D20290AD4E69
:103E900033685F68AF4207D21A68002A04D01E4612
:103EA00013465768AF42F7D3A74801688B424FD0FB
:103EB0003468196831607A1B112A30D35E19710792
:103EC00001D072B6FEE772605D609E4D2A68B24214
:103ED00004D21568B5421746F8D301E02F461546BF
:103EE0007A68B9187068B14202D1801878603E468D
:103EF000024695480168691A484248410190B11844
:103F0000491B10464A1E9141019A114303D1696829
:103F1000091871602D683560B74200D03E6059685D
:103F200087480268521A02600F4D2E68B24200D2D2
:103F30002A60824A127800251D600C4D2E68761C7E
:103F40002E60002A029800D11046083401435960BF
:103F500001F082F8600701D072B6FEE7204603B098
:103F6000F0BDC04694070020C0160020CC160020EB
:103F700010B5002807D0044600F082F8E46900F08C
:103F800089F8204610BD72B6FEE700000346083BE4
:103F90001960011F01231B060B6001460C39034BFE
:103FA0000B60014620390A6040387047453B0008E5
:103FB000EFF3108072B67047416882688A60826849
:103FC000516001694B68834200D14A600A68521E01
:103FD0000A6000220261086870470000034B03601A
:103FE00040201060024808607047C046AC140020B2
:103FF000AC130020034B03604020106002480860AF
:104000007047C046081600200815002080F310886D
:1040100070470021016002460832C9434260816056
:10402000C26002617047002101617047B0B50B6842
:104030005A1C0BD004460834626815689D4208D8A3
:10404000546825689D422546F6D904E00269556802
:1040500001E015462246A96008614D608A60516002
:104060000168491C0160B0BD426893684A608B607A
:10407000086103685B1C0360906841609160704751
:1040800072B60A480168491C0160BFF34F8FBFF345
:104090006F8F704705480168002903D0491E0160F1
:1040A00002D0704772B6FEE762B67047100000207B
:1040B000B0B5002841D0044620480078411E884110
:1040C000C007251F2968084205D0083C2268002A3D
:1040D00003D072B6FEE772B6FEE78143296000F0B6
:1040E00021FA2968164802685218026015480368C8
:1040F000A34204D21868A0421A46F8D301E002464F
:1041000018465368D518A54202D1C9185160144603
:104110006318834207D10C4B1B68984203D0436855
:104120005918616000682060A24200D014600748FE
:104130000168491C016000F08FFFB0BD8C160020A3
:10414000B81600203017002020030020D0160020D1
:1041500010B5074C00202060A0607D20C1000548FC
:10416000006801F0B5F8401E60600720206010BDB7
:1041700010E000E00000002000000000000000004F
:104180000B4A13681868203080F30988022080F3F6
:104190001488BFF36F8F3FBCAE4608BC04BC62B648
:1041A0001847C046C046C046C046C046C046C04686
:1041B000140300200120000703490860BFF34F8F5C
:1041C000BFF36F8F7047C04604ED00E010B53F4A63
:1041D0001368002B18D03D4B9C68002C17D01C692D
:1041E000002C17D09C69002C17D01C6A002C17D00B
:1041F0009C6A002C17D01C6B002C17D09C6B002CD9
:104200001AD13833072413E00024134610E0083392
:1042100001240DE0103302240AE01833032407E0E0
:104220002033042404E02833052401E0303306243D
:104230001960E1005118486010BDC04610B5002853
:104240001DD022494B68002283421AD0CB6883429A
:104250001AD04B6983421BD0CB6983421CD04B6A76
:1042600083421DD0CB6A83421ED04B6B83421FD04A
:10427000CB6B834222D10B463C3307241BE072B642
:10428000FEE70B1D144616E00B460C33012412E02A
:104290000B46143302240EE00B461C3303240AE0C1
:1042A0000B462433042406E00B462C33052402E09D
:1042B0000B4634330624E4000A511A604621415C5F
:1042C000002900D010BDFFF7F3FE10BDEC16002052
:1042D00070B515460E460446FFF7D2FE4420215C19
:1042E00020464430FF2901D1002101704178FF2987
:1042F00001D100214170FFF7CDFEA06B002805D150
:104300002046243031462A4600F074F82046FFF754
:1043100039FD70BD70B500282BD00446A84801684F
:10432000002901D072B6FEE70168491C01607C4893
:104330000668A74D2868001DFFF73EFE341928685F
:10434000446006D34A4800682968091DFFF76EFEDD
:104350000AE0464800682968091DFFF767FE6E48B5
:1043600001688C4200D2046000F076FE002800D084
:1043700070BDFFF71FFF70BD034909680160684900
:10438000096841607047C046C81600208D48012169
:104390000160704770B5002818D00C468C4D296814
:1043A0001831FFF743FE5E4806682868001DFFF7D6
:1043B00003FE601C0CD03419286844600ED32C48CE
:1043C00000682968091DFFF731FE70BD72B6FEE76F
:1043D0002868011D2748FFF747FE70BD2348006885
:1043E0002968091DFFF722FE4B4801688C4200D264
:1043F000046070BDF0B581B000281BD015460C4696
:10440000734E31681831FFF72FFE45480768306852
:10441000001DFFF7D1FD002D01D00020C443002D69
:104420000AD0601C08D13068011D1248FFF71CFE3D
:1044300001B0F0BD72B6FEE73C193068446007D3A6
:104440000B4800683168091DFFF7F0FD01B0F0BDB1
:10445000064800683168091DFFF7E8FD2E4801682D
:104460008C4200D2046001B0F0BDC0461C030020A5
:104470002403002038170020B0B588B0002406942B
:10448000059406A805A904AAFFF7A8FD0598002829
:1044900031D0069D002D30D0049A5C2107910799F8
:1044A0005C292CD10799592102236B54286302956A
:1044B00007A801900094144814A12346FFF764FA5A
:1044C0002846FFF785F9134807990160002910D0A5
:1044D00000F0A0FE411C14D001280AD172B6E043BE
:1044E0000D4908600D48012101600D48046000F08D
:1044F00099F808B0B0BD72B6FEE772B6FEE772B6C4
:10450000FEE772B6FEE7C0461D39000849444C4537
:1045100000000000BC160020C41600202C1700204C
:104520006017002026480168491C01607047C0469A
:10453000B0B523480068002803D02248012101605B
:10454000B0BD2048002101601F48016814221446B4
:104550004C431E4B1D59002D10D04A439B185A68DE
:1045600052685A601C460834A24202D11B1D526890
:104570001A60D268164B1A600160B0BDE418503C56
:10458000002914D0E56B002D13D101290FD0A56AA5
:10459000002D10D102290AD06569002D0DD1032903
:1045A00005D0091F2568503C002DE9D0D5E772B62B
:1045B000FEE7491ED1E7891ECFE7C91ECDE7C046F9
:1045C000A01300206C170020A81300202C0300204B
:1045D00014030020B0B52020FFF714FC0446002887
:1045E00005D000252560201DFFF713FD2577204607
:1045F000B0BD10B582B000280FD004462020019035
:10460000019820280BD100202060201DFFF701FD1C
:1046100001202077204602B010BD72B6FEE772B6C8
:10462000FEE70000B0B582B0FF200104124A136813
:104630000B4313600006116801431160FFF788FD0A
:104640000E4C00252560FFF79BFDFFF771FF0195DC
:10465000206872B6401C09D0FEE70198002808D1F6
:104660000198002805D10198002802D1019800285E
:10467000F3D0002002B0B0BD20ED00E0100000201B
:1046800010B5FFF795FC044600F0FCFB002803D0B2
:1046900001200007024908602046FFF7B7FC10BD63
:1046A00004ED00E010B5002804D00C46814203D987
:1046B00072B6FEE772B6FEE70021022200F072F841
:1046C000002800D0846310BDB0B582B0002804D0AB
:1046D0000D46814203D972B6FEE772B6FEE7144674
:1046E0000221009100210A46234600F098F8002C90
:1046F00000D0A563204602B0B0BDB0B5024601208F
:104700000024214600F04EF80546002808D02C6011
:10471000AC60EC60284621462246234600F0CAF8E9
:104720002846B0BDF0B581B0002937D005465020ED
:1047300000900098502833D10C460F46443700981B
:1047400000260120C8630E64B8700960FFF798FC6A
:10475000A663FF20387021687870E06B226C431EDE
:10476000504308185343CA186160A060E2602046B5
:104770001030FFF74EFC20462430FFF74AFCFFF7CD
:1047800089FC3D72A660E6602660204631463246CE
:10479000334600F08FF8204601B0F0BD72B6FEE758
:1047A00072B6FEE7F0B581B0002836D014460E464A
:1047B000074648435030FFF725FB0546002829D01F
:1047C00000942C464434EF632E640027A770002E1B
:1047D000284601D0284650302860FFF751FCAF63CF
:1047E000FF20207029686070E86B2A6C431E5043DC
:1047F00008185343CA186960A860EA602846103058
:10480000FFF707FC28462430FFF703FCFFF742FCC4
:1048100000982072284601B0F0BD72B6FEE770B570
:1048200082B0002808D01C46002B07D0002907D1F1
:10483000002A05D072B6FEE772B6FEE772B6FEE752
:10484000002903D0002A01D172B6FEE7502301935C
:10485000019B502B2CD125464435069E019BE063DD
:1048600021640029204600D0104620600120A87055
:10487000FFF706FC0020A063FF2028702168687005
:10488000E06B226C431E504308185343CA18616002
:10489000A060E26020461030FFF7BBFB20462430CA
:1048A000FFF7B7FBFFF7F6FB2E72204602B070BD94
:1048B00072B6FEE7F0B587B00692002812D01D460A
:1048C00017460E46044600290ED0022D02D1E06B99
:1048D00001283ED100F0C4FA00280AD1002F08D0E8
:1048E00072B6FEE772B6FEE7206C0028EDD072B615
:1048F000FEE7FFF7C5FBE06BA16B022D52D08142B2
:1049000050D30698002800D1D7E02746443704A8A2
:10491000FFF732FDFFF7BEFBFFF704FEFFF7B0FB2A
:104920003878FF2801D10020387003957878FF2867
:1049300001D100207870FFF7ADFB04A806A900F0B4
:1049400007FA002807D02046FFF71CFA00F084FB86
:10495000B5E072B6FEE7204610300190FFF790FBFD
:10496000E56BA06B0090FFF795FB0098A842039DB4
:104970000DD106990198FFF70DFD2046FFF702FAC9
:1049800000F06AFB002807D1FFF714FC04E0204682
:10499000FFF7F8F900F060FBFFF772FBE06BA16B2B
:1049A000814248D2226CA76B002A19D0002D2DD04D
:1049B000E0683146FBF71CFC206CE168091AE160F5
:1049C0002268914203D24042A1680818E060781E34
:1049D00039468141A81E424242410A40BF1A02E0C4
:1049E0002068002821D00020791CA163616A002979
:1049F00003D02434204600F0FFFA002801D0FFF74E
:104A0000D9FBFFF747FB012007B0F0BD60683146D6
:104A1000FBF7EEFB206C616809186160A26800205A
:104A20009142E1D321686160DEE7A06800F0B6FA48
:104A30000021A160D8E702970CE02046FFF7A2F919
:104A400000F00AFB039DFFF71BFBE06BA16B8142AB
:104A5000029FA7D3069800282FD0FFF71BFBFFF774
:104A600061FDFFF70DFB3878FF2801D10020387079
:104A70007878FF2801D100207870FFF70BFB04A89D
:104A800006A900F065F9002800D05CE7FFF7F8FA06
:104A9000E76BA56BFFF7FEFABD42CED106990198F0
:104AA000FFF778FC2046FFF76DF900F0D5FA0028F3
:104AB000039DC8D1FFF77EFBC5E7FFF7EBFA0020A7
:104AC00007B0F0BDF0B583B0002815D01F461446DE
:104AD0000D460646002911D0022F02D1F06B0128A5
:104AE00038D1FFF765FA0346F06BB16B022F0AD09D
:104AF000814208D3002566E072B6FEE7306C0028DC
:104B0000EAD072B6FEE74520315CB06B326CB06B18
:104B10000290002A20D0002F01912AD00093F06843
:104B20002946FBF765FB306CF168091AF1603268C1
:104B3000914203D24042B1680818F060029D681E9D
:104B400029468141B81E424242410A40AD1A009BAB
:104B500001991FE072B6FEE73068002819D1B068ED
:104B60001D460F4600F01AFA39462B460020B06069
:104B70000FE01F4670682946FBF73AFB306C7168FE
:104B800008187060B168884201D3306870603B4695
:104B90000199029D681CB063FF2910D1706A01253C
:104BA000002810D01F462436304600F025FA002C8D
:104BB0000FD000283B4606D00125256003E045368E
:104BC000481C307001251846FFF720FA284603B02C
:104BD000F0BD3B46F7E7F0B585B0049200280CD055
:104BE00016460D46044600292DD000F039F900285C
:104BF00005D1002E03D072B6FEE772B6FEE7FFF7CE
:104C00003FFAA66B002E23D0226C002A0AD0E0685F
:104C10008118E160A068814201D32168E1602846E3
:104C2000FBF7E6FA701EA06320690126002800D178
:104C300089E01034204600F0DFF9002800D182E03E
:104C4000FFF7B8FA7FE0206C0028CED072B6FEE7FE
:104C500000260498002876D000962746443702A8FC
:104C6000FFF78AFBFFF716FAFFF75CFCFFF708FA7D
:104C70003878FF2801D1002038707878FF2801D1DA
:104C800000207870204624300190FFF703FA02A834
:104C900004A900F05DF800280DD02046FFF772F857
:104CA00000F0DAF9FFF7ECF9A66BFFF7F3F9002E45
:104CB0001BD1002649E0FFF7E3F9A66BFFF7EAF9FD
:104CC000002E05D02046FFF75DF800F0C5F90CE096
:104CD00004990198FFF75EFB2046FFF753F800F0B8
:104CE000BBF9002801D1FFF765FAFFF7C9F9A66BF8
:104CF000002E89D10498002824D0FFF7CBF9FFF7C4
:104D000011FCFFF7BDF93878FF2801D10020387079
:104D10007878FF2801D100207870FFF7BBF902A84E
:104D200004A900F015F80028C5D02046FFF72AF89E
:104D300000F092F9FFF7A4F9A66BFFF7ABF9002E8C
:104D4000D3D1B6E7009EFFF7A5F9304605B0F0BD18
:104D5000F0B583B0002823D00D46002922D00446A8
:104D6000FFF78EF962688A480768296800264B1C9D
:104D70001DD0019688480068236801260296984253
:104D800001D0974212D2BA1A91420DD9881A2860DE
:104D90008148006820607E4800686060019E06E0EF
:104DA00072B6FEE772B6FEE700202860029EFFF7AB
:104DB00071F9304603B0F0BDF0B587B01F4604ABC3
:104DC00007C39000FFF71EF80025EC4300281CD015
:104DD000064603975C20FFF715F8002812D0074617
:104DE0000D980C995922BD543E6300910190029791
:104DF00004AA07CA039BFEF7C7FD3846FEF7E8FC86
:104E0000012402E03046FFF753F9204607B0F0BD19
:104E1000F0B587B00D9D002D1BD00E9C002C1AD034
:104E20005C260596059E5C2E17D10C9E0496059F68
:104E300059270226E6552563029406AD0195049D87
:104E40000095FEF7A1FD2046FEF7C2FC069807B0CC
:104E5000F0BD72B6FEE772B6FEE772B6FEE700007E
:104E600005480068002805D0B1480068414241412A
:104E700048007047012070472C1700204448006804
:104E80007047C046F0B583B0A9480068002806D036
:104E9000B0480168491C0160002003B0F0BD3C48E7
:104EA00001684D1C05601CD3A848016809680029E9
:104EB00001D072B6FEE70168364A136803601160DC
:104EC00035490A68521C0A6001680968002904D043
:104ED0000068C068C068406801E00020C0439C4989
:104EE00008609B490868002285423DD3D343974F11
:104EF00038680068002836D001930020029003E053
:104F000038680068002827D03868C068C6687068AC
:104F1000854225D3341D2046FFF74EF8B06A00289D
:104F200003D030461830FFF747F8F06A8349096824
:104F3000884201D9814908601421414380484018C2
:104F40002146FFF791F8F06A7E490968C96A8842EC
:104F5000D6D301200290D3E7029A7D49019B02E05B
:104F60000346029A7A490B6076480068C06A1421A9
:104F700041437348405801210128084600D8104693
:104F8000714A1268002A88D0084603B0F0BDC046B6
:104F90006017002024030020C8160020B0B5044686
:104FA0000020002C25D067490968A14201D072B6C3
:104FB000FEE7216D00291DD0491E216519D1E16C44
:104FC000E26A8A4215D0251D2846FEF7F5FFE06CFF
:104FD000E0623821091AA16158490A68904200D953
:104FE000086014214143564840182946FFF73CF811
:104FF0000120B0BD72B6FEE7B0B5C068C568002D2F
:105000000AD02C4618342046FEF7D6FF48480068E0
:10501000002803D048480FE072B6FEE72C1D20465A
:10502000FEF7CAFFE86A45490A68904200D908605D
:1050300014214143424840182146FFF715F8E86A19
:1050400040490968C96A884203D93F49012008607C
:10505000B0BD0020B0BDC046F0B581B0344C206872
:1050600000280DD0FFF70CF82068401E2060206853
:105070000027002806D0FFF70DF8384601B0F0BD34
:1050800072B6FEE72B4800680028F4D02A4E30683C
:10509000002834D00097294F02E0306800281FD044
:1050A000F068C46820461830FEF786FF251D2846A4
:1050B000FEF782FFE06A3968884200D9386014211F
:1050C00041431F4840182946FEF7CEFFE06A1D49BC
:1050D0000968C96A8842E0D301201B490860DCE7FF
:1050E0001A4801680968002904D00068C068C068CF
:1050F000406801E00020C043009F15490860154C3E
:105100002568002D0CD0104E01E06D1E06D0FFF773
:10511000B9FE0028F9D001203060F6E700202060B9
:10512000094800680028A6D0FFF744F80127A2E745
:10513000A013002098130020D8160020A8130020E8
:105140002C030020140300206C1700201C030020F7
:10515000C4160020D4160020F0B583B01E4602927B
:105160000D4607462C20FEF74DFE0446002819D0B8
:10517000282000212154002D17D008980190FEF717
:1051800095FBA561E661019820622760201DFEF76E
:105190004AFF0298002805D02046283001780422D2
:1051A0000A430270204603B0F0BD72B6FEE7F0B5C8
:1051B00083B007462C20029002982C2823D1099C0A
:1051C0000298002C21D00D46282002212154002DC8
:1051D0001DD01E46089800900192FEF767FBA5615E
:1051E000E661009820622760201DFEF71CFF0198F1
:1051F000002805D020462830017804220A43027096
:10520000204603B0F0BD72B6FEE772B6FEE772B696
:10521000FEE7000010B586B0FEF748FB10480068B6
:1052200000281AD000240594049405A804A903AA10
:10523000FEF7E0FE039A049805990223009301907B
:105240000291084808A12346FFF7E2FD08490860DB
:10525000002802D0012006B010BD72B6FEE7C0469D
:1052600064170020793B0008546D72205376630068
:1052700068170020B0B584B0002812D00446134D42
:10528000286800280FD000AF16C705290EDCFFF7ED
:10529000E7FD01462868022910D1089A69460023D3
:1052A0000FE072B6FEE7002004B0B0BD69460024EE
:1052B0001A462346FFF706FC04B0B0BD694600223B
:1052C0001346FFF7F7FA04B0B0BDC04664170020DC
:1052D00043088B421AD3002203098B4279D3030A75
:1052E0008B425ED3030B8B4242D3030C8B4227D3FA
:1052F0000902FF2212BA030C8B4202D312120902D6
:1053000003D0030B8B4233D31AE0D3E0411A804120
:10531000401C704703460B4371D443088B42F5D3BE
:10532000002203098B4254D3030A8B4239D3030B67
:105330008B421DD3030C8B4202D394466EE0090AC4
:10534000C30B8B4201D3CB03C01A5241830B8B4258
:1053500001D38B03C01A5241430B8B4201D34B0341
:10536000C01A5241030B8B4201D30B03C01A5241A6
:10537000C30A8B4201D3CB02C01A5241830A8B422B
:1053800001D38B02C01A5241430A8B4201D34B0214
:10539000C01A5241030A8B4201D30B02C01A524178
:1053A000CDD2C3098B4201D3CB01C01A524183092C
:1053B0008B4201D38B01C01A524143098B4201D366
:1053C0004B01C01A524103098B4201D30B01C01A91
:1053D0005241C3088B4201D3CB00C01A524183080B
:1053E0008B4201D38B00C01A524143088B4201D338
:1053F0004B00C01A5241411A524110007047CA0F67
:1054000000D04942031000D34042534000229C4642
:1054100003098B422DD3030A8B4212D38901FC224C
:1054200012BA030A8B420CD3890192118B4208D322
:10543000890192118B4204D3890137D0921100E087
:105440008909C3098B4201D3CB01C01A5241830998
:105450008B4201D38B01C01A524143098B4201D3C5
:105460004B01C01A524103098B4201D30B01C01AF0
:105470005241C3088B4201D3CB00C01A524183086A
:105480008B4201D38B00C01A5241D9D243088B42C0
:1054900001D34B00C01A5241411A00D20146524179
:1054A000104663465B1000D34042704763465B1072
:1054B00000D3404201B50021004201D0C943084653
:1054C000C046C04602BD22EE34A4E8A121E620A0D9
:1054D0000400040025000D008C0152002800280063
:1054E0003F002100E101000000000000000000007A
:1054F00000000000000000000000000000000000AC
:105500000000000000000000010000000200000098
:105510000300000004000000060000000700000077
:10552000080000000900000000000000000000006A
:105530000000000000000000010000000200000068
:1055400003000000040000005F6700080000000086
:10555000000000000000000000002800E8036400D4
:1055600020036400E803640020036400E80364008F
:1055700020036400E803640020036400E80364007F
:1055800020036400E803640020036400E80364006F
:1055900020036400E803640020036400E80364005F
:1055A00020036400E803640020036400E80364004F
:1055B00020036400E803640020036400E80364003F
:1055C00020036400E803640020036400E80364002F
:1055D00020036400E803640020036400E80364001F
:1055E00020036400E803640020036400E80364000F
:1055F00020036400E803640020036400446700089B
:10560000000000000000000000000000000000009A
:10561000000000000000040017040F0097040F00B2
:1056200027050F0000001E0076670008000000003C
:1056300000000000000000000000520093023C0047
:1056400093021E004B021E000B023C000B021E00C8
:10565000B8011E004B021E0093021E004B021E00EA
:1056600093021E0088013C0088013C00B8013C0008
:10567000B8011E0088011E00B8013C000B023C006E
:1056800010031E0070031E0093021E0010031E0074
:105690004B023C004B023C0093023C0093021E0074
:1056A0004B021E0093023C0010033C0070031E00DE
:1056B00070031E0070031E0017041E0070033C00E0
:1056C00010031E0093021E004B023C004B021E0002
:1056D00093021E0010033C0088013C004B021E0098
:1056E00093021E004B021E0093021E000B023C00A0
:1056F0000B023C0093023C0093021E004B021E0072
:1057000093023C0010033C0070031E0017041E00AF
:1057100070031E0010031E0070033C0010031E00E7
:1057200093021E004B023C004B021E0093021E001F
:1057300010033C0088013C004B021E0093021E0037
:105740004B021E0093021E000B023C000B023C00A9
:105750004B021E004B021E004B021E0093021E0055
:1057600010033C0010031E0070031E0017043C00D1
:1057700070033C0017043C0017043C0000003C0090
:105780000000E101EE01140088011400EE01280080
:1057900088011400EE012800880114004B02280043
:1057A000880114000B0214000B021400880114007D
:1057B000EE0114000B021400EE0114008801140025
:1057C000EE01280088011400EE0128008801140071
:1057D0004B022800880114000B0214000B02140075
:1057E00088011400EE0114000B021400EE011400F5
:1057F00088011400EE01280088011400EE01280041
:10580000880114004B022800880114000B021400C8
:105810000B02140088011400EE0114000B021400A6
:10582000EE01140088011400EE0128008801140024
:10583000EE012800880114004B02280088011400A2
:105840000B0214000B02140088011400260128002A
:105850004A017800260128004A0128002601280074
:105860004A012800880150000B025000EE01500050
:105870004A015000260128004A017800260128002C
:105880004A012800260128004A0128000B02A00036
:10589000EE0128004B0250004A01C80026012800F2
:1058A0004A012800260128004A012800EE01500084
:1058B0000B025000EE0150004A0150002601280062
:1058C0004A017800260128004A0128002601280004
:1058D0004A012800EE0150000B0250004B02C800A4
:1058E000000050004A012800000004004A0128007E
:1058F000260114004A013C00260128004A01280024
:1059000088012800000028004A0128000000040047
:105910004A012800260114004A013C002601280003
:105920004A01280088015000060178000000280084
:105930004A012800000004004A0128002601140042
:105940004A013C0026012800060128002601280003
:10595000000028004A012800000004004A01280035
:10596000260114004A013C00260128004A012800B3
:1059700088012800000028004A01280000000400D7
:105980004A012800260114004A013C002601280093
:105990004A0128000B025000060178000000280090
:1059A0004A012800000004004A01280026011400D2
:1059B0004A013C0026012800F7002800DC00140002
:1059C000C400640000001400C400140000000400BF
:1059D000C400140000000400C4001400880150003A
:1059E0004A013C00260114000601280000000400C2
:1059F0000601500000001400060128000000040009
:105A000006012800260128004A012800DC00780051
:105A100000002800DC0028004A0128002601280098
:105A200006012800260178004A0150005D0150005F
:105A3000880178004A012800880128004A011400E2
:105A400088013C00EE0150000B027800060128009E
:105A5000260128004A01280088015000B8015000A2
:105A600088011400B8013C00880114000000020005
:105A700088013C0000000200880150002601A000BF
:105A80004A0150005D015000880178004A01280059
:105A9000880128004A01140088013C00EE015000F2
:105AA0000B02780006012800260128004A01280080
:105AB000EE015000B801780000000400B801280091
:105AC00088011400B8013C000B0250004B02780022
:105AD00000002800880128000B022800EE011400B5
