:020000040800F2
:10000000E0060020810100081D190008B117000852
:1000100000000000000000000000000000000000E0
:10002000000000000000000000000000211900088E
:1000300000000000000000001F1900083919000826
:1000400093010008000000009301000893010008DC
:100050009301000893010008930100089301000830
:1000600000000000930100089301000893010008BC
:1000700093010008930100089301000800000000AC
:10008000451900080000000000000000930100086E
:10009000000000009301000893010008930100088C
:1000A00093010008930100089301000893010008E0
:1000B00093010008000000000000000000000000A4
:1000C00000F002F800F04CF812A030C808382418EC
:1000D0002D18AC4201D100F043F80FCCA246AB463C
:1000E0000CA730CF2D1B083F3F197C427F1E544484
:1000F0002D090426F441641EAC4201D300F030F80F
:100100000126334200D0FB1A3343984754465D46DC
:10011000DFE70000001B0000201B0000103A02D3A4
:1001200078C878C1FAD8520701D330C830C101D598
:1001300004680C6070470000704700000023002432
:1001400000250026103A01D378C1FBD8520700D30E
:1001500030C100D50B6070471FB51FBD10B510BD75
:1001600000F04DF81146FFF7F7FF01F0F3FB00F048
:1001700065F803B4FFF7F2FF03BC00F06BF8000072
:100180000748804707480047FEE7FEE7FEE7FEE72F
:10019000FEE7FEE704480549054A064B70470000A4
:1001A00041190008C1000008E0000020E00600201E
:1001B000E0020020E002002001E004C0091F042941
:1001C000FBD28B0701D50280801CC90700D00270CA
:1001D000704700290BD0C30702D00270401C491E93
:1001E000022904D3830702D50280801C891EE3E71D
:1001F0000022EEE70022DFE7704770477047754640
:1002000000F024F8AE46050069465346C008C00019
:10021000854618B020B5FFF7BDFF60BCB646002686
:100220000027C0C5C0C5C0C5C0C5C0C5C0C5C0C504
:10023000C0C5403D490849008D46704710B5044689
:10024000C046C0462046FFF794FF10BD00487047E7
:100250001000002001491820ABBEFEE72600020076
:100260007047EFF3108072B6FEE7000070B50446E9
:1002700000F0F6F90619104D2868C00305D500F006
:10028000EFF9B042F8D3032070BD28680B494A1C2F
:100290002A60084003D068494860012070BD00F022
:1002A000DFF904192868400304D500F0D9F9A04209
:1002B000F8D3E8E7002070BD10200240FA83000068
:1002C00080B588B001A800F027F80798C10110D5C3
:1002D000012109068843079000F0E8F800F0D2F801
:1002E00001A800F03FF800F0B7F800F0BDF800F00A
:1002F000A9F808B080BD0000B0B5044600F0B0F920
:100300000546601C02D0F7480078041900F0A8F9EF
:10031000401BA042FAD3B0BD10B50721016041686F
:10032000012901D0102100E00C21444A8B581F24E0
:100330001C4084608958C902C90EC16040494161AE
:10034000136812680A408261D9B2AA2903D10A4609
:10035000CC2903D003E0BB22CC2900D10A4602619C
:1003600010BDC046F0B583B0334D2978012902D1C4
:10037000022003B0F0BD00266E60012102912970B9
:100380000168CA072D4F09D043688468C268120407
:100390002243012B01D1FA6000E03A6106220A40B3
:1003A000062A0BD1034610330ECB0B43FF208243AA
:1003B000C143514038680840184323E08A070DD4F0
:1003C000490720D54169FF229143D2434A403B6807
:1003D0003968DBB2AA2B0DD11C460CE03968184AEB
:1003E0000A40FF21C94351403B680B400069184354
:1003F000104307E0BB241140CC2B00D11C46806980
:100400002043084338607D20C4002046FFF72EFFBC
:1004100000280DD10196029846040C3F38683043FD
:1004200038602046FFF722FF3968B143019E3960EA
:100430002E7003B0F0BDC046C00000202020024056
:1004400000604F070120C0070D490A6802430A6097
:100450000868C043C00F70470120C106084A1368EE
:100460000B4313607047C0460120800704490A68A7
:1004700002430A6009680140484248417047C0464B
:100480001420024006488168490001D401207047C9
:10049000044901600449016080684000C00F704752
:1004A0000C2002403B2A19087F6E5D4C0648C1684B
:1004B000002901D40020704704490160044901600B
:1004C000C068C00F7047C04608200240230167453E
:1004D000AB89EFCDF0B589B006900B68002B00D149
:1004E000B1E05A48069A824201D0052000E003207C
:1004F0000090002608963446374603910EE01843D4
:10050000544A10607F1C0B681846F8400836089A59
:10051000121D0892A41C002800D194E00125019529
:10052000BD402B400493EDD0496803220B46134095
:10053000581E01280796059211D81046A040069E25
:10054000B26882430398C068A0401043B060C806F8
:10055000C00FB8407268AA4302437260059A032B29
:100560000399069D1CD01046A040EA688243886823
:10057000A0401043059AE860022B11D11C20089975
:1005800008400F218140FA089200AA18136A8B4391
:1005900003990D6985401D4303991562059A069DCF
:1005A0001046A0402B68834348688603029610409B
:1005B000A040184328600298800F079EA2D03846BA
:1005C0009043234A13181E6E05200007069A8242A4
:1005D0000AD02148824205D020488242009D04D1A1
:1005E000022502E0019D00E000251820079A104036
:1005F0000F22824096436033854035431D60144886
:1006000000684D68EA0202D5049B184301E0049B90
:100610009843079E0E4A10605068AA0201D51843FD
:1006200000E098430A4A50600A484068AA0301D58E
:10063000184300E09843074A50601068EA0300D569
:100640005DE798435CE709B0F0BDC046000C005080
:1006500000180240801802400004005000080050BA
:10066000054800687047C0461E48007802490A687D
:10067000101808607047C046DC000020B0B50124A7
:100680002002C1490A6802430A600025284600F09A
:1006900009F8002801D02046B0BD00F025F82C460E
:1006A0002046B0BDB0B505460E48017801240029AA
:1006B00016D07D20C00001F091F90146B8480068CD
:1006C00001F08CF900F07EFB032D09D8002807D13A
:1006D0000024E0432946224600F028F8B14805608E
:1006E0002046B0BD0400002082B0094841680122C4
:1006F000114341604168114001910199110702685D
:100700000A430260006808400090009802B07047F9
:100710003C100240002805D41F21084001218140DF
:10072000014801607047C04600E100E0002805D4A0
:100730000322034693430A4A9A1803E00C2202401C
:10074000064BD2188007C00E8901C9B28140FF2331
:1007500083401068984308431060704714ED00E030
:1007600000E400E0F0B581B0032569020F4E326865
:100770008A430243326001214A020024904212D18E
:1007800087480268706940050DD58F0206205043E6
:10079000074901F023F9801C401E03D071693942DA
:1007A000FAD100E02C46204601B0F0BD00700040B8
:1007B00040420F00F0B583B00D460121002800D162
:1007C000CFE0019102907048006807242040A842C1
:1007D00013D26D490868A043284308606B4EFFF7A9
:1007E0003FFF0746684800682040A84205D0FFF751
:1007F00037FFC01BB042F5D9B2E0029E30688107D6
:10080000634B0CD5410703D521031A680A431A60CC
:100810000F2109021A688A43B16811431960C007A1
:1008200018D1594800682040A84228D9564908687C
:10083000A04328430860554FFFF712FF0646524871
:1008400000682040A8421AD0FFF70AFF801BB84278
:10085000F5D985E00298406803285AD8810001A2A2
:1008600051588F467508000817090008210900082B
:100870002B090008194608390968490557E0029A0A
:1008800010784007424B05D5200319688143D06892
:100890000843186018688006400F22D01A68382173
:1008A0000A403C48082A23D01A680A40102A5BD123
:1008B000596803220A40032A00D03748596849067C
:1008C000490F491C01F08AF8314949684904490E29
:1008D00048432F494968490F491C01F07FF82C4BC8
:1008E00006E01846083800688004410F2A48C840CE
:1008F000196889093C220A40284989581F220A4060
:10090000D0402749086027480068FFF7CBFE014622
:1009100027E0596D0AE0194608390968890306E09D
:10092000194608390968890101E0996D890701991B
:1009300017D51968A14301431960144FFFF790FEC2
:100940000646134800683821014002984068C000FC
:10095000814200D165E7FFF783FE801BB842F0D9E2
:100960000321084603B0F0BD18680840202802D1D2
:100970000120C003BCE718680840182801D00020F7
:10098000B6E77D200002B3E7002002408813000094
:100990000810024000127A000024F400D41B000862
:1009A0000000002008000020F0B587B001270028D3
:1009B00000D1F4E1049705900078C007F94E2CD1DE
:1009C0000598007880074CD40598007800070DD56D
:1009D000B06838210140182900D0A4E0306E8007AB
:1009E00004D505988069002800D18CE1059800782D
:1009F000400700D45BE1B06838210140202900D0D5
:100A0000A8E0F06D800700D44EE1059880680028CA
:100A100000D049E10020012747E1B068F1680327D1
:100A20003A468A43382101401020484082185042FB
:100A30005041082945D0002843D105984268052037
:100A400000048242039200D1B6E0012001048A42F0
:100A500000D1B7E032688A4332608104306888434D
:100A6000B2E0B1683820084010214140F268032705
:100A70003A4002235340CA185142514100282AD01B
:100A8000002928D1306801218C02059BDA68002AF0
:100A900000D1B6E00722D20290431A6902433260C5
:100AA0000802316801433160FFF7DAFD054630681E
:100AB000204200D0B5E0FFF7D3FD401B0228F6D955
:100AC0006DE13068800300D47AE70598406800281B
:100AD00000D075E717E131684905059B03D5D96852
:100AE000002900D10FE17F21090272688A43596908
:100AF00009021143716000280DD10720C00231683E
:100B0000814318690843306030688004400FA6496B
:100B1000C140A6480160A6480068FFF7C3FD002851
:100B200000D0F0E050E7306E05998969002900D1C6
:100B300081E0012108433066FFF792FD0546306EE3
:100B4000800700D552E7FFF78BFD401B03270228E3
:100B5000F5D924E1012003900107F06B08400290D1
:100B600006D1F06B0843F063F06B084006900698DE
:100B70000191904C2068C00510D4039807022068AA
:100B800038432060FFF76CFD05462068384205D1E8
:100B9000FFF766FD401B0228F7D973E005988468CB
:100BA000052C59D0012C5BD0F06D03998843F0657A
:100BB000F06D0421884356E00120810432680A4325
:100BC0003260010430680843306001204404FFF7BC
:100BD00047FD0546039800280FD03068204200D01A
:100BE000EEE6FFF73DFD401B6428F6D9D7E0FFF79E
:100BF00037FD401B642800D9D1E030682042F6D18F
:100C0000DEE6090288433060FFF72AFD05463068BA
:100C1000204200D1D8E6FFF723FD401B0228F6D979
:100C2000BDE07F20000271688143059840690002A1
:100C300008437060C8E6012188433066FFF710FD65
:100C40000546306E800700D4D0E6FFF709FD401B53
:100C500003270228F5D9A2E0F06D04210143F165D4
:100C6000F06D03990843F065534FFFF7F9FC054613
:100C7000002C0FD0F06D80070FD4FFF7F1FC401B64
:100C8000B842F7D9002003270FE0FFF7E9FC401B2B
:100C9000B842F7D8F06D8007F7D40298002803D146
:100CA000F06B01998843F0630120002877D0059804
:100CB000C469002C72D0B06838210140102924D1B9
:100CC000012C20D0F06803210140059B1A6A914253
:100CD00019D1702101405A6A914214D17F21090231
:100CE00001409A6A120291420DD11F21490401402C
:100CF000DA6A9142049F52D1072149070840196BD3
:100D000088424BD04BE0049F49E001273906306808
:100D1000049188433060FFF7A3FC0546022C0BD1F9
:100D200003977C063068204211D0FFF799FC401BE6
:100D300003270228F6D932E07C063068204229D009
:100D4000FFF78EFC401B03270228F6D927E0F06846
:100D50001B490140059F2037ADCF084310431902BE
:100D6000014329433943F1603068049908433060F6
:100D700003980007F1680143F160FFF771FC054635
:100D8000306820420AD1FFF76BFC401B0327022882
:100D9000F6D904E0F06809490140F1600027F8B293
:100DA00007B0F0BD001002400024F4000000002055
:100DB000080000200070004088130000FCFFFEEFD8
:100DC0008C80C11F401E010E01D0012070470749D1
:100DD000074A5060074803680B40032189075918E8
:100DE000016000209060072111607047FFFFFF0045
:100DF00010E000E020ED00E0704770477047000011
:100E0000F0B53C22825C012A01D10220F0BD0246ED
:100E10003C320223537001231370006846688468D3
:100E2000644DA84201D0374604E00F273F05BE437A
:100E30004F6837437026B7430E683E434660A8426A
:100E400002D05D4DA84204D18025AC43896821437E
:100E50008160002010705370F0BDC046F0B581B0C5
:100E6000002819D0044605463C356878002804D18E
:100E700000202870204600F05DF80220687020688D
:100E800003684C49884202D04B4A904207D17022F5
:100E90009343A2681A4303E0012001B0F0BD1A4653
:100EA000204B984208DD88420CD01F4B984209D055
:100EB0001E4B984206D032E03F4B984202D01C4B6A
:100EC00098422CD103231B029A43266916432346DA
:100ED0003E33224644328027BE43A769374307602A
:100EE000E668C66266688662884205D00E49884216
:100EF00002D00E49884201D161690163012141613B
:100F00001171197059709970D970197159711170E6
:100F100051709170D1706970002001B0F0BD16461B
:100F2000D5E7C046FF2B0140004801400044014086
:100F30000020004010B582B000681F49884201D0EF
:100F400002B010BD09480168022211430160006827
:100F50001040019001981024012100222046FFF743
:100F6000E5FB2046FFF7D6FB02B010BD3C10024067
:100F70003D21415C012915D101463D3102220A7013
:100F800001680C48814202D00B4881420CD188682C
:100F90000A4A02400020062A03D001231B049A4279
:100FA00002D17047012070470868012202430A609D
:100FB00000207047002C01400004004007000100A1
:100FC000F0B53C22825C012A01D10220F0BD02462C
:100FD0003C3202235370012313700568A868494C02
:100FE0000440AC600E6800244F2E1EDC1F2E36DD40
:100FF000202E38D0302E36D0402E00D080E0286A07
:101000002E6A0127BE432E62AE69F027BE43CF6829
:101010003F013743AF610A26B04349680143296263
:10102000A86839490140473165E06F2E23DD580338
:1010300086423CD01803864220465ED0702E5FD197
:10104000FF200002AE68864348688F68C96807437E
:10105000080238433043A860A868772135E0002EA5
:1010600001D0102E4CD1A868274901400E4307201B
:101070003043A86040E0502E29D0602E40D1286A2D
:101080001026B04328620F200003AE698643C8686B
:10109000000330432E6AA861A020864348680001FF
:1010A00030432862A86818490140673123E0FF20D7
:1010B0000002AE68864348688F68C9680743080223
:1010C00038433043A8609803A968014313E0286AB5
:1010D0002E6A9E432E62AE69F027BE43CF683F0161
:1010E0003743AF610A26B043496801432962A868C3
:1010F000054901405731A960204614705370F0BD76
:101100001846FAE78800CEFF88FFCFFF704700003F
:10111000B0B50446006801698907554D16D5C16808
:10112000890713D52946FE310161012121778069A4
:10113000800703D02046FFF7E9FF05E0204600F0D6
:1011400099F8204600F0B3FA002020772068016962
:10115000490717D5C168490714D52946FC310161F3
:101160000221217780698005800F03D02046FFF798
:10117000CDFF05E0204600F07DF8204600F097FA0C
:101180000020207720680169090716D5C168090782
:1011900013D52946F831016104212177C069800700
:1011A00003D02046FFF7B2FF05E0204600F062F8CA
:1011B000204600F07CFA0020207720680169C906EB
:1011C00017D5C168C90614D52946F0310161082137
:1011D0002177C0698005800F03D02046FFF796FF76
:1011E00005E0204600F046F8204600F060FA0020B6
:1011F000207720680169C90708D0C168C90705D0F0
:101200002946FF310161204600F0D0FA20680169CB
:10121000090608D5C168090605D52946803101614E
:101220002046FFF7EAFD20680169C90506D5C168B7
:10123000090603D505612046FFF7DEFD2068016938
:10124000490608D5C168490605D52946C03101615E
:10125000204600F0ACFA20680169890607D5C1680C
:10126000890604D5E03505612046FFF7C7FDB0BD0E
:10127000FFFEFFFF70470000F0B582B03C23C35C67
:10128000012B01D1022398E104463C340123237051
:101290000225EA41052A00D98DE1C0467A44127937
:1012A0005200974402243A516E8A0268106A012360
:1012B00098431062106AA8438E68064350680B6812
:1012C00001939569F44FBA4206D0F54B9A4203D088
:1012D000F44B9A4200D0C3E00C239E43CB68042712
:1012E000BB43ED4F3343BA4200D0BCE0C2E00268DA
:1012F000106A102398431062106A202398438B6869
:101300001F01074350680B6801939369E24DAA429D
:1013100070D03E46AA4277D17DE001231D020268CB
:10132000106AA84310625802136A83438868070250
:101330001F4350680B680193D569D74B9A4273D00D
:101340003E469A427CD182E001231D030268106A66
:10135000A8431062156A50688E6801960E68009660
:10136000D769CD4EB24206D0CD4EB24203D0CD4E5B
:10137000B24200D086E09E03B0434E69B6010643F8
:1013800081E0904D73350268106A28401062136A3C
:1013900050688E6801960E680096566DBE4FBA4230
:1013A00006D0BF4FBA4203D0BE4FBA4200D084E04D
:1013B00028404D692D02054380E001231D05026888
:1013C000106AA8431062156A50688E6801960E680C
:1013D0000096576DF34EB24206D0F04EB24203D0A3
:1013E000EF4EB24200D084E09E04B0434E69B60294
:1013F00006437FE0C026B743CE6836014025AE43A2
:10140000E84D3E43AA4206D0E44DAA4203D0E44D43
:10141000AA4200D088E00325AD02A8434D698F6938
:101420002F43BD00054380E00326B602B743674B58
:10143000FF3BCE6836021E40DA4B3E439A4206D04E
:10144000D64B9A4203D0D64B9A4200D085E0032374
:101450001B0398434B698F691F433B0103437DE0A6
:101460003346BA4206D0CD4EB24203D0CC4EB24241
:1014700000D087E003263602B0434E698F690643E9
:101480003E4380E0064610461C3056604E4E3740C4
:10149000009E36023E43D6614E6816645E03B54335
:1014A000019E36032E431662DD02D6692E43D661B5
:1014B0009B02D5699D43D5614CE0054610465430EA
:1014C0005560404DED1C2E40009D2E4356654D68E5
:1014D000956501256D04AB43019D2D041D431562E7
:1014E000536D08251D435565536D0425AB43536566
:1014F0005CE00646104654305660314E3740009E40
:1015000036023E4356654E68D6655E05B543019E7C
:1015100036052E431662DD02566D2E4356659B023C
:10152000556D9D43556515E00546104618305560CC
:10153000254D2B40019D2D021D4395614B68936302
:1015400016620123DD0296692E4396619B0295691E
:101550009D4395610969090229E0034610461C3044
:101560005360184B1D40019B1D43D5614B68D363ED
:101570001662D36908251D43D561D3690425AB43A1
:10158000D36113E006461046183056600D4E3540C4
:10159000019E354395614D68556313629369082533
:1015A0001D43956193690425AB4393610969026802
:1015B0000A430260002300202070184602B0F0BDEC
:1015C000FF8FFFFE8CFFFEFFFF8CFFFEFFFBFFFF88
:1015D000F0B581B0002819D0044605463C3568783E
:1015E000002804D100202870204600F05FF8022077
:1015F0006870206803686B49884202D0C44A9042F0
:1016000007D170229343A2681A4303E0012001B07E
:10161000F0BD1A46214B984208DD88420CD05F4B42
:10162000984209D05E4B984206D032E0B84B9842BF
:1016300002D01D4B98422CD103231B029A432669EA
:10164000164323463E33224644328027BE43A769D1
:1016500037430760E668C66266688662884205D0DE
:101660004E49884202D04E49884201D161690163E6
:10167000012141611171197059709970D9701971F6
:101680005971117051709170D1706970002001B062
:10169000F0BD1646D5E7C046002C0140FF2B0140A7
:1016A000004801400044014000200040704770475E
:1016B00010B502463E320029134614D08B070C1F8A
:1016C000A4081B19032B0DD87B441B795B009F4496
:1016D00001030507531C06E0931C04E0D31C02E041
:1016E000131D00E0531D1B78012B10D1002910D0D1
:1016F0008B070C1FA4081B19032B0DD87B441B79E7
:101700005B009F44010C0F12022353700FE0012075
:1017100010BD022313700AE00223537107E0022375
:10172000937004E00223D37001E0022313711F229F
:101730001140012213468B400168086A98430862F1
:10174000086A184308621448814206DC70488142E6
:1017500013D01448814206D018E01048814202D0CC
:101760000F48814212D1D0034B6C03434B640D48A8
:10177000814202D06648814208D188680A4B034002
:101780000020062B06D01404A34203D0086810439F
:101790000860002010BDC046FF43014000480140E2
:1017A00000440140002C01400700010070477047D1
:1017B000FEE7000070B50F4C00202080534E644DB2
:1017C000296880B248630320FEF796FD2088401CFC
:1017D000208081B2B142F3D326802868B1B2416340
:1017E0000320FEF789FD2088461E26803004F4D1B0
:1017F00070BDC046BC00002083B04648016820226E
:1018000011430160016811400291029901680422AC
:1018100011430160016811400191019901680122A1
:1018200011430160006810400090009803B07047B9
:10183000F0B595B000240E940D940C940B940A947A
:101840000994089442488021816130493F22304EFA
:10185000066042608460C160046107940694059448
:101860000494039402940194FFF7F8FA002801D03D
:10187000FEF7F7FC012738030B9035480BA9FFF75B
:101880009FFB002801D0FEF7ECFC3148FFF7A0FEDB
:10189000002801D0FEF7E5FC0A9408942C4808A91A
:1018A000FFF7AEFA002801D0FEF7DBFC05940394A5
:1018B0000A20029060200190254D01A92846224669
:1018C000FFF7DAFC002801D0FEF7CBFC1494139448
:1018D0001294119410942868B04201D015B0F0BD54
:1018E0000C480168042211430160006810400F9009
:1018F00014971394129402201190402010900F9886
:10190000054810A9FEF7E6FD15B0F0BDE70300009D
:10191000000400403410024000080050FEE7704709
:101920007047000010B50A4C2046FFF721FB00214C
:101930002046FFF7BDFE10BD80B5FEF795FE80BDC9
:101940007047000080B50248FFF7E2FB80BDC0464B
:101950007000002092B0FEF791FE05AC34212046C5
:10196000FEF748FC0026049603960296019601278E
:101970007802FEF7F7FE780711907804109008209F
:101980000F900E9602250D950C9540200A90099611
:101990003802089005952046FFF706F8002803D086
:1019A000EFF3108072B6FEE70496039607200190CD
:1019B000029501A82946FEF7FDFE002803D0EFF3AB
:1019C000108072B6FEE7FEF77BFCFFF715FFFFF70E
:1019D0002FFFFFF7A7FFFFF7EDFEFCE743088B4261
:1019E0001AD3002203098B4279D3030A8B425ED3B8
:1019F000030B8B4242D3030C8B4227D30902FF22F5
:101A000012BA030C8B4202D31212090203D0030B49
:101A10008B4233D31AE0D3E0411A8041401C704717
:101A200003460B4371D443088B42F5D300220309CC
:101A30008B4254D3030A8B4239D3030B8B421DD301
:101A4000030C8B4202D394466EE0090AC30B8B420F
:101A500001D3CB03C01A5241830B8B4201D38B03BA
:101A6000C01A5241430B8B4201D34B03C01A52415F
:101A7000030B8B4201D30B03C01A5241C30A8B42A2
:101A800001D3CB02C01A5241830A8B4201D38B028D
:101A9000C01A5241430A8B4201D34B02C01A524131
:101AA000030A8B4201D30B02C01A5241CDD2C309A3
:101AB0008B4201D3CB01C01A524183098B4201D31F
:101AC0008B01C01A524143098B4201D34B01C01A0A
:101AD000524103098B4201D30B01C01A5241C30882
:101AE0008B4201D3CB00C01A524183088B4201D3F1
:101AF0008B00C01A524143088B4201D34B00C01ADD
:101B00005241411A524110007047CA0F00D0494259
:101B1000031000D34042534000229C4603098B42ED
:101B20002DD3030A8B4212D38901FC2212BA030A75
:101B30008B420CD3890192118B4208D389019211F7
:101B40008B4204D3890137D0921100E08909C3097F
:101B50008B4201D3CB01C01A524183098B4201D37E
:101B60008B01C01A524143098B4201D34B01C01A69
:101B7000524103098B4201D30B01C01A5241C308E1
:101B80008B4201D3CB00C01A524183088B4201D350
:101B90008B00C01A5241D9D243088B4201D34B006B
:101BA000C01A5241411A00D20146524110466346C2
:101BB0005B1000D34042704763465B1000D3404245
:101BC00001B50021004201D0C9430846C046C046C5
:101BD00002BD000000000000000000000000000046
:101BE00000000000000000000000000000000000F5
:101BF00000000000010000000200000003000000DF
:101C000004000000060000000700000008000000BB
:101C100009000000381C000800000020100000002F
:101C20001C010008481C000810000020D00600001D
:101C30003C010008000000000024F4000100000046
:081C4000040000000000000098
:04000005080000C12E
:00000001FF
