:020000040800F2
:1000000080050020D500000841220008B91F000823
:1000100000000000000000000000000000000000E0
:100020000000000000000000000000004522000861
:1000300000000000000000004322000871220008B8
:10004000E700000800000000E7000008E7000008E3
:10005000E7000008E7000008E7000008E7000008E4
:100060000000000049090008E7000008E700000858
:10007000E7000008E7000008E700000800000000B3
:10008000E70000080000000000000000E700000892
:1000900000000000E7000008E7000008E700000893
:1000A000E7000008E7000008E7000008E700000894
:1000B000E700000800000000000000000000000051
:1000C0000348854600F01AFB0048004789270008CE
:1000D000800500200448804704480047FEE7FEE70B
:1000E000FEE7FEE7FEE7FEE705230008C100000883
:1000F000D2B201E00270401C491EFBD270470022C0
:10010000F6E710B513460A4604461946FFF7F0FF16
:10011000204610BDF0B51FB488B00B990998002493
:1001200048400999C00F490049080991C0070B9937
:100130000090490049080B9109990898A646084380
:100140001CD00B990A98084318D009980124400044
:10015000420D4800410D099824050003000B20437F
:1001600009900B980003000B20430B9050181C497A
:100170004018002201901446104605E00020014678
:100180000DB0F0BD032801DA034600E003239C46CE
:10019000C11A0AAE0AE05F0008ADED5B4F00F75BE5
:1001A0007D430027AA187C41491C5B1E6145F2DD96
:1001B000410004AB5A522104120C0A43240C401C87
:1001C0000828DFDB019802900099704601910090A9
:1001D000059B049A0799069800F0DFF8D0E7000025
:1001E0000DFCFFFF0EB505490291002100910A4662
:1001F0000B46019100F0D1F803B000BD33040000BC
:10020000C20FD207400040080BD0C10D0723DB010D
:10021000C91840020905400A1143C20840071143AA
:100220007047002001467047CB0FDB07490010B52F
:10023000490802460A4307D00A0D07240903E401CE
:10024000090B121B002A01DC002010BDC900440F5D
:100250000C43C100E018D205801800F050F810BD22
:1002600070B50446002903D000202022012310E0AD
:10027000002801D00020C043C046C0460DE02546FE
:10028000D5408D4205D30D469540641B1D469540D3
:1002900040191546521E002DF1DC214670BDF0B507
:1002A0001FB40646002082B005464024019100900C
:1002B0001BE0019922460F46304600F041FA049AAD
:1002C000059B801A994110D310461946224600F02A
:1002D00027FA361A8F410197224601200021009FFC
:1002E00000F01EFA38184D4100902046641E002888
:1002F000DFDC019B00982946324607B0F0BD00299B
:1003000004DA401C490001D140084000704770B435
:100310000024050C05D11024000402D1002921D0AD
:100320001124050E01D100020834050F01D100018E
:10033000241D850F01D18000A41C002801DB400092
:10034000641C002908D020252E1B0D46F540A14035
:1003500000D001212943084301061B1B000ADB1DB5
:1003600002D5002070BC7047DB05181880180029E2
:10037000F8DA401C4900F5D170BC400840007047D5
:1003800010B5002B08DA0024401C614192185B4133
:100390001A4301D14008400010BDF0B51FB482B02F
:1003A00005460C0003D0084602F058FA02E002F0BD
:1003B00055FA2030024600902146284600F0B0F958
:1003C000049B059A04460F4618431143084314D072
:1003D000184610431BD0009840210A1A1846059968
:1003E00000F0AEF905460E46009A0599049800F013
:1003F00097F9084305D0012004E02046394607B0AC
:10040000F0BD0020C11705430E432C43374300992C
:100410000E986305401A7905E40A00220C43FD0A90
:100420000A3002D500200146E9E7010510196941AB
:100430000C9C0D9D00196941FFF7A2FFDFE700004A
:10044000F0B507460846584087B0C00F04904800F2
:100450000E46590040084908BC1A884105D2384662
:1004600031461E4617460B460246580040081043C8
:100470004CD0300D039040055900400D490D0590BA
:10048000401A0290402872DA18030121000B090576
:100490000843019004980092002805D00199524227
:1004A0000020884100920190029840210A1A019987
:1004B000009800F035F905460C466B4607CB00F076
:1004C00050F9C0197141039A0E0D0023D7175640F9
:1004D0001A467A40164344D0049A002A2DD0029A34
:1004E000012A039A15DC1205C01A9141012636052E
:1004F000001C7141D20F059ED20700930192029613
:100500002A462346FFF749FF07B0F0BD384631467B
:10051000FAE71605224A0F46B218C01AB741012160
:100520000905001C4F4100187F41114618187941F8
:10053000E20F10436D19644113E0E2076D081543A3
:100540006408C2071443039A01261205C01A914198
:100550003605001C7141CE07400830434908C018D9
:1005600051412A462346FFF70BFFCDE7FFE70498EA
:1005700001224000C117121A00238B410498314612
:10058000C417381AA141EEE730B40124E4076340F0
:1005900030BC55E730B40124E407614030BC4FE77C
:1005A0000000E0FFF0B50C465C4085B0E40FE407C6
:1005B00003944C00002664085900944649080246FA
:1005C0000296224321D062460A431ED06200570D94
:1005D0004A000E032303550D012402462C4924052D
:1005E000781B1B0B360B40182343264361460090B3
:1005F0001C46501AB44103D30098401C009002E0FE
:10060000921800985B41002803DA0020014605B0EB
:10061000F0BD0020012109050746864611E0644629
:100620001D46141BB54106D36546521BB3417446A3
:1006300007430C43A646CD074008490828439218B3
:100640005B4105460D43EAD11046184313D060467E
:10065000194650407140084306D06046101AB34115
:1006600006D20122002306E000220123DB0702E07C
:100670000122D2435310009874460105381C614191
:10068000029C039D00196941FFF77AFEBFE7000055
:10069000FD0300004A0009030123090B1B05194350
:1006A0000A4B10B5520D9A4202DA0020014610BDE5
:1006B000064B34339A4203DC9A1A00F041F810BD1D
:1006C000034BD21800F02CF810BD0000FF0300000F
:1006D000CDFBFFFF10B5002904DB0124E4074042F5
:1006E0008C412146002B04DB1C460123DB075242D0
:1006F000A341994200D1904210BD0000064C012553
:10070000064E05E0E36807CC2B430C3C98471034B9
:10071000B442F7D3FFF7D8FCFC3100081C320008C4
:1007200010B5202A04DB0146203A9140002010BD7C
:10073000914020239C1A0346E3401943904010BD8A
:1007400010B5202A04DB0846203AD040002110BD15
:100750000B46D340D0402024A21A914008431946AA
:1007600010BD10B5202A06DBCB170846203A1041F1
:10077000C1170B4306E00B461341D0402024A21AB8
:1007800091400843194610BDB0B5846AA26DA16DB1
:1007900050231A4205D0C9061FD4216D496B8847E2
:1007A000B0BD012568020143A165206801F039FC54
:1007B000002821D0A07E00281ED1206801680907EA
:1007C0001AD501F02AFC00280BD0A06D202101438E
:1007D000A165E06D2843E0650EE0204600F07CFA5C
:1007E000B0BD206841680C2291434160FF20023077
:1007F000A16D8143481CA065204600F06BFAB0BD96
:1008000080B5806A816D40220A438265C16D0422F1
:100810000A43C26500F060FA80BD80B5806A00F0CE
:100820005AFA80BD70B50446006801F0E6FB064642
:10083000206801F0E6FB0025002E24D1002822D0FC
:100840002068816805220A40012A1ED101F0B6FB0A
:1008500020680321016000F0EDFD064620688068F5
:10086000C00710D000F0E6FD801B0328F6D32068F7
:100870008068C007F2D0A06D10210143A165E06D32
:1008800001252843E065284670BDA06D1021014375
:10089000A165E06D01252843E065284670BD000094
:1008A00070B582B0054600240194006801F0A9FBF0
:1008B000002816D128688168224A114208D0A86D04
:1008C00010210143A965E86D01242043E86508E093
:1008D00001F07AFB01F088FB000205D4687E012854
:1008E0000FD1204602B070BDF8480068F849FFF704
:1008F000B7FC401C019001980028EFD00198401EE1
:10090000F8E700F097FD064628680168C907E8D1B6
:1009100001F077FB002802D1286801F055FB00F0B8
:1009200089FD801B0328EFD328680068C007EBD13E
:10093000A86D10210143A965E86D01242043E865F5
:10094000CFE7C0461700008080B5024800F09CFB4E
:1009500080BDC0467C00002010B504460948216CCB
:1009600009188030032291436164A064207808381C
:100970001421FFF775FC1F21014001208840E0642D
:1009800010BDC0460008024010B5084942683F2328
:1009900013405A1E0323134001249C409200521816
:1009A000403102654165846510BDC04600090240C2
:1009B00070B5846CC56C6560046D002C02D0446D0C
:1009C000856D6560046C1C2525400124AC40084DF4
:1009D0002E6826432E6004686360806810281346E2
:1009E00000D00B46A360102800D01146E16070BD16
:1009F00004000240EFF3108072B6FEE7F0B585B058
:100A00000446002704975420205C012801D10225C8
:100A100044E0204654300125039005702046FFF73E
:100A200001FF0646206801F0F0FAA16D002803D00E
:100A30001020014335462EE00196029781204000A8
:100A40008143881CA0652068C668C1680322914361
:100A5000C160E90783680B4383601640114F20682B
:100A600001F0C8FA00280BD00498401C04900498A8
:100A7000B842F4D3A06D102101430220814309E064
:100A80002068C1683143C160A06D0121014302208B
:100A90008143019D029F03980770A165284605B018
:100AA000F0BDC04600F20200F0B587B00C46054626
:100AB000002106915420285C012801D102260FE074
:100AC00005912F46543701263E70286801F0A5FA9B
:100AD000002808D0A86D20210143A9650599397027
:100AE000304607B0F0BD2869616802291DD1042194
:100AF00008437249884203D12168286801F0A0FAAE
:100B0000206800260028E9D501F06EFA21686D4AB8
:100B1000914200D190E06C4A914200D18FE0684A46
:100B20009142DBD10121C9058BE004263043634AA1
:100B300090422ED12168286801F07AFAA2682168D3
:100B4000286801F09BFA206800260028C6D50125F8
:100B500001F04AFA21685A4A91425FD1EA050346F8
:100B600013405BD1104301F095FAED480068ED4960
:100B7000FFF776FB0C2141430C31069106980028C3
:100B8000ACD005990698401E069006980028F9D129
:100B9000A5E71F2008400F23029383402A6E9A4343
:100BA000049222685303039243D00193D307059B19
:100BB0005DD1039A930755D4530755D4130755D4E1
:100BC000D306334653D4039A93065ED453065ED4B9
:100BD00013065ED4039AD3055DD4039A93055CD4BF
:100BE000039A53055BD4039A13055AD4039AD3048A
:100BF00059D4039A930458D4039A530457D4039AAC
:100C00001304029B33D4039AD30352D4039A93035D
:100C100051D4019AD6171223334028E0294A914231
:100C200013D12A06034613400FD1104301F032FAC4
:100C300054E75300DB0E1AE00121090601E001210F
:100C40008905884301F026FA48E71F4A914200D0FF
:100C500044E7A90502460A4000D03FE7084301F0F7
:100C600019FA3BE7012302E0022300E0032383405B
:100C7000049803432B668808EA69824200D85DE73E
:100C80002868039A01F0E6F958E70523EFE7062301
:100C9000EDE70723EBE70823E9E70923E7E70A2362
:100CA000E5E70B23E3E70C23E1E70D23DFE70E2362
:100CB000DDE71023DBE71123D9E7C04604000080FD
:100CC000001000B0004000B8002000B40400002074
:100CD000400D03007047704770470000F0B589B0C1
:100CE0000024089400282BD00546806D002807D1E9
:100CF0002E465436284600F023F900203070E8656F
:100D0000286801F086F900281CD0286801F081F9D4
:100D1000002807D1A86D10210143A965E86D0124C1
:100D20002043E8652E465836286801F076F9A96D0B
:100D3000102211400143A86D15D010430124EBE0AF
:100D40000124EAE0286801F045F975480068754912
:100D5000FFF786FA4000801C089008980028D4D03D
:100D60000898401EF8E7039204962E4620360F217D
:100D70000291C9430591F3390840801CA865286891
:100D800001F03FF900282BD000200690286B421E6E
:100D900090410703287E80036A7ED2030243A87E27
:100DA00041031143EA682B690A433A430121002BAE
:100DB000079102DAC9078B4300E04B051A43317BE8
:100DC0004F0017433178012944D100283FD0A86D46
:100DD00020210143A965E86D01210143E96539E05E
:100DE0002A68D06818218843A9680143D16003208C
:100DF00083076868014607931940EF6C337F3943D6
:100E0000012B0BD12B6C6F6C0197AF6C06970B43CA
:100E100001990B4306990B43012119431369424F72
:100E20001F400F4317610122D30798420691ADD0AE
:100E3000079B9842AAD092079042A7D002998A04B1
:100E400010403A4B1F689743381818609EE70120FE
:100E500000040743686A002805D00721890108407B
:100E60003843AF6A07432868C168314A0A403A43A9
:100E7000C26001692F4A0A4006990A4302616A6BFF
:100E80000026314601F010F9AA6B28682A4901F0C2
:100E90000BF9286900281FD007994905884221D1FC
:100EA000286E3146029B0246F2401A400F2A04D0B7
:100EB000361D491C0829F6D10821059B2868826A3D
:100EC0002830012906D0E96989001C311C220A401A
:100ED00093402A6E1A4304E02868826A05990A43FF
:100EE000283002602868C06814490140B94208D11E
:100EF0000020E865A96D0120084302218843049E73
:100F00000AE0A86D0399084302218843A865E86DAB
:100F1000079C20435C352E463060204609B0F0BD6A
:100F200004000020400D030002FCFF1F08270140C1
:100F30001902FEFF02FCFFDF04FFFF07E7FF3F830C
:100F4000F0B587B0044600260696059604960396EB
:100F5000029600681D49884201D007B0F0BD012704
:100F600038051B49CA680243CA60CA680240019238
:100F70000198086838430860086838400190049672
:100F8000032003900F200290019805200090000795
:100F900002A900F083F90F4D2E622020B9023A0217
:100FA00080230D4F2F60009F6F60AE60EE602B615D
:100FB0006A61A961E861284600F0C2F8002801D002
:100FC000FFF718FDAC62256507B0F0BD00240140B5
:100FD000341002407C00002008000240F0B583B0CD
:100FE00015460E460446006801F017F8022700284F
:100FF0003FD102955420205C01283AD02546543533
:1010000001272F702068C168C9070AD100F0F9FFD5
:10101000002802D0206800F0D1FF2068C168394361
:10102000C16001972046FFF73BFC0746002820D10E
:10103000A06D11490140019800020818A065002028
:10104000E06521681C220A602870206D0B4A0C4B59
:101050000C4DC562036342634A68102313434B601F
:1010600040313246029B00F0C5F80746206800F088
:10107000FDFF384603B0F0BDFEF0FFFF0108000899
:101080001B08000889070008F0B581B0016C1C241A
:101090000C402A490A1F156802681668730714D5A0
:1010A00004210F46A7403B462B400ED013689B06F9
:1010B00002D413688B431360204A116839431160CE
:1010C000016B00291CD101B0F0BD03462433B107E8
:1010D00019D50227A7403946294014D0116889063E
:1010E00005D411680A24A14311600121597000211F
:1010F0001970124A116839431160C16A0029E2D09F
:10110000884701B0F0BD3107DDD50821A140294055
:10111000D9D011680E25A943116001210A46A240C9
:10112000064D2C6814432C60C16300221A7059705C
:10113000416B0029C7D0884701B0F0BD04000240D0
:10114000F0B583B0002843D0044601462431022084
:101150000291487026683068244901403160244873
:1011600030181421FFF77CF880002064A16827461E
:101170000C378DCFE5690095256A0195084310432A
:1011800018433843009908430199084331680143E3
:1011900031602046FFF7E0FB0126B003A1688142E1
:1011A00001D10020606060683F210140626C1160E5
:1011B000A16CE26C4A60401E03280CD82046FFF761
:1011C000E3FB206D00210160606DA16D416006E0D0
:1011D000012003B0F0BD002020656065A0650020FF
:1011E000E063029908704E7003B0F0BD0F80FFFFFE
:1011F000F8FFFDBFF0B581B005462420285C01282A
:1012000001D1022437E028462430012404704678B6
:10121000012E12D1022444700024EC632868076870
:101220000126B74307602846FFF7C2FB286801681C
:101230002A6B002A06D00E2209E0002101708020CE
:10124000E86318E004229143016002680A21114317
:1012500001603002696C0A68D20302D50A68024351
:101260000A60296D002902D00A6802430A602868D2
:10127000016831430160204601B0F0BDB0B50446BD
:1012800000F0D8F80546601C02D08B48007804199D
:1012900000F0D0F8401BA042FAD3B0BDF0B588B042
:1012A0000B460968002900D1B7E002465C4882423B
:1012B00001D0052000E00320009001240020054615
:1012C00006900746019407920FE03843039F554963
:1012D000486019680846E040069E361D0696AD1C1B
:1012E0000837641C002800D197E0661E0198059617
:1012F000B04001400291ECD0039719465B68032689
:101300001F46049637407E1E012E13D8049EAE4021
:10131000079A9268B243CE68AE401643079A966029
:10132000DA06D20F059B9A40079B5B688343134301
:10133000079A5360032F0B46049E1ED03046A840E8
:10134000079AD26882439868A8401043079AD060F1
:10135000022F12D11C20069A10400F268640059AB3
:10136000D2089200079B9A18136AB3430E6986400D
:101370001E430B461662049E079A3046A840116829
:101380008143586882033040A840084307990860A9
:10139000900F079A039F9CD0182139400F20884056
:1013A000059FB7431F4EF619376E874360360520F9
:1013B000000782420AD01D48824205D01C48824262
:1013C000009804D1022002E0012000E000208840C3
:1013D00038433060144800685E68F10302D5029F0C
:1013E000384301E0029FB8430F4908604868B103E1
:1013F00001D5384300E0B8430B494860094800680C
:10140000F10201D5384300E0B84306490860486856
:10141000B10200D559E7B84358E708B0F0BDC0465F
:10142000000C0050001802408018024000040050D8
:1014300000080050054800687047C0461E48007804
:1014400002490A68101808607047C0466801002009
:1014500010B501242002F2490A6802430A60032001
:1014600000F00AF8002801D0204610BD00F026F850
:101470000024204610BDC046B0B505460E48017890
:101480000124002916D07D20C000FEF7E9FE0146A8
:10149000E9480068FEF7E4FE00F044FC032D09D89B
:1014A000002807D10024E0432946224600F020F816
:1014B000DE4805602046B0BD0800002082B0094823
:1014C0004168012211434160416811400191019935
:1014D000110702680A430260006808400090009803
:1014E00002B070473C10024080B501F011F980BD98
:1014F00080B501F019F980BDF0B581B0032569020E
:101500006C4E32688A430243326001214A02002451
:10151000904212D1C8480268706940050DD58F020B
:10152000062050430649FEF79BFE801C401E03D058
:1015300071693942FAD100E02C46204601B0F0BD75
:1015400040420F00F0B587B0064680788007584FBC
:1015500001D4002569E0059601221107203F386873
:101560000840049006D1386808433860386808405D
:101570000690069802970391019216024D4C20683E
:1015800030432060FFF756FF05462768374006D1F5
:10159000FFF750FF401B0328F7D3032500E0002589
:1015A000059E002F0DD003242102414F38680840CA
:1015B00009D0726990420AD1C00715D1002D2CD1F3
:1015C00023E03B4F29E00020C007F7D00CE038684B
:1015D000019A12043B6813433B603B6893433B60B2
:1015E00088433860C007E9D00194FFF723FF06461F
:1015F000314C3868800705D4FFF71CFF801BA042E0
:10160000F7D3019D059E002D07D103200002396804
:10161000814370690843386000250498002804D18C
:10162000029A10680399884310603068C10707D098
:10163000394608390A6803239A43736813430B60D9
:101640000595810608D5032109033A46083A13682F
:101650008B43B168194311600121420412D53A4607
:10166000083A1368154C23403546366933431360F6
:10167000621C96422E4605D10A043B46503B1C682C
:1016800014431C60000510D58803032292033B46D7
:10169000083B1C689443F26814431C60824204D1E6
:1016A0000804503F396801433960059807B0F0BD20
:1016B0005C1002400070004089130000FFFFFF3FF4
:1016C000F0B583B00D460121002800D1A5E00191BD
:1016D00002905348006807242040A84214D2504981
:1016E0000868A043284308604E4EFFF7A3FE074654
:1016F0004B4800682040A84206D0FFF79BFEC01B65
:10170000B042F5D9032188E0029B18688107734E27
:101710000CD5410703D5210332680A4332600F21FB
:10172000090232688A43996811433160C00719D1B0
:101730003B4800682040A84229D939490868A0439D
:1017400028430860374FFFF775FE064634480068A7
:101750002040A8421BD0FFF76DFE801BB842F5D990
:1017600003215AE0586803282FD8810001A251585C
:101770005A4A8F4685170008D1170008DB17000862
:10178000E517000811460839096849052CE0029A56
:1017900010784007514D05D5200329688143D06852
:1017A0000843286000F05CF8296889093C220A4057
:1017B0001D4989581F220A40D0401F4908601B4814
:1017C0000068FFF759FE014627E0444A516D0AE0E0
:1017D000114608390968890306E011460839096885
:1017E000890101E0916D8907019916D51168A1431E
:1017F000014311600B4FFFF71DFE06463748006896
:101800003821014002984068C000814290D0FFF723
:1018100011FE801BB842F1D90321084603B0F0BD88
:101820000020024088130000743100080C000020E2
:10183000014800687047C0460400002010B5FFF75B
:10184000F7FF044600F03AFC000B800003490858FB
:101850001F210140CC40204610BDC046B4310008D5
:1018600010B51E4C20688006400F06D02268382133
:101870000A401B48082A07D110BD083C2068800494
:10188000410F1848C84010BD22680A40102A15D1DF
:10189000616803220A40032A00D0124861684906A1
:1018A000490F491CFEF7DCFC61684904490E4843B6
:1018B0006168490F491CFEF7D3FC10BD2068084041
:1018C000202802D10120C00310BD2068084018283C
:1018D00001D0002010BD7D20000210BD0810024084
:1018E00000127A000024F400F0B587B00127002828
:1018F00000D1C4E1049705900078C007FD4E2CD1BB
:101900000598007880074CD40598007800070DD51D
:10191000B06838210140182900D0A6E0306E800759
:1019200004D505988069002800D1E7E10598007882
:10193000400700D45EE1B06838210140202900D082
:10194000A9E0F06D800700D451E105988068002877
:1019500000D04CE1002001274AE1B068F16803277C
:101960003A468A43382101401020484082185042AC
:101970005041082945D0002843D1059842680520E8
:1019800000048242039200D1A6E0012001048A42B1
:1019900000D1A7E032688A4332608104306888430E
:1019A000A2E0B1683820084010214140F2680327C6
:1019B0003A4002235340CA185142514100282BD0CB
:1019C000002929D1306801218C02059BDA68002AA0
:1019D00000D1A6E00722D20290431A690243326086
:1019E0000802316801433160FFF724FD0546306885
:1019F000204200D0A5E0FFF71DFD401B0228F6D9CC
:101A00003DE13068800300D47AE7059840680028FB
:101A100000D075E7049F32E131684905059B03D585
:101A2000D968002900D1A7E07F21090272688A43A2
:101A3000596909021143716000280DD10720C002C5
:101A40003168814318690843306030688004400F72
:101A5000AD49C140AD480160AD480068FFF70CFDDD
:101A6000002800D150E7049F09E1306E059989698B
:101A7000002970D0012108433066FFF7DBFC0546E2
:101A8000306E800700D551E7FFF7D4FC401B0327D9
:101A90000228F5D9F3E0012003900107F06B08401C
:101AA000029006D1F06B0843F063F06B084006909B
:101AB00006980191974F3868C0055FD505988768EB
:101AC000052F6CD0012F6ED0F06D03998843F0651F
:101AD000F06D0421884369E00120810432680A43E3
:101AE0003260010430680843306001204404FFF78D
:101AF000A1FC0546039800280FD03068204200D092
:101B0000FEE6FFF797FC401B6428F6D9B7E0FFF725
:101B100091FC401B642800D9B1E030682042F6D126
:101B2000EEE6090288433060FFF784FC0546306822
:101B3000204200D1E8E6FFF77DFC401B0228F6D9E1
:101B40009DE07F2000027168814305984069000292
:101B500008437060D8E6012188433066FFF76AFCCD
:101B60000546306E800700D4E0E6FFF763FC401BBB
:101B700003270228F5D982E0049F80E0039804023D
:101B8000386820433860FFF755FC05463868204226
:101B900094D1FFF74FFC401B0228F7D915E0F06DF8
:101BA00004210143F165F06D03990843F0655A4C37
:101BB000FFF740FC0546002F0FD0F06D80070FD4D3
:101BC000FFF738FC401BA042F7D9002003270FE0A5
:101BD000FFF730FC401BA042F7D8F06D8007F7D428
:101BE0000298002803D1F06B01998843F06301202B
:101BF000002844D00598C06900283FD0B168382239
:101C00000A40102A03D1012818D1049F37E001228D
:101C10001306316899433160022833D1039304924B
:101C20005406FFF707FC0546306820423FD0FFF717
:101C300001FC401B03270228F6D920E0F0680321AD
:101C40000140059B1A6A914256D1702101405A6A9F
:101C5000914255D17F21090201409A6A12029142B4
:101C600050D11F2149040140DA6A9142049F06D1F4
:101C7000072149070840196B884200D10027F8B2B4
:101C800007B0F0BDF0680327B843F060F06823495F
:101C90000140F1605506FFF7CDFB0446306828424D
:101CA000ECD0FFF7C7FB001B0228F7D9E7E7F06885
:101CB0001B490140059F2037ADCF0843104319024F
:101CC000014329433943F160306803990843306088
:101CD00004980007F1680143F160FFF7ABFB05468C
:101CE00030682042CAD1FFF7A5FB401B032702281A
:101CF000F6D9C4E700100240049FC0E7049FBEE786
:101D0000049FBCE7049FBAE70024F400040000200D
:101D10000C0000200070004088130000FFFFFEEF61
:101D20008C80C11F80B500F08FFA80BDB0B58021D6
:101D3000415C012901D10220B0BD0246803224213C
:101D4000516001680B680C680125AC430C606C079E
:101D5000A3430B60002141661170202050600846AB
:101D6000B0BD70B504468020205C012801D102205E
:101D700070BD2546803524206860206806680268AA
:101D800001239A4302602B70072252068368934313
:101D90000B438360204600F0B7FA206806600020FD
:101DA00028702021696070BD70B504468020205CD9
:101DB000012801D1022070BD2546803524206860AD
:101DC00020680668026801239A4302602B7007228C
:101DD0005207836893430B438360204600F094FAD4
:101DE00020680660002028702021696070BDB0B5B1
:101DF000002830D00446054680356868002804D1A4
:101E000000202870204600F029F82420686020680F
:101E100001680125A9430160204600F03BFB012831
:101E200017D0A06A002802D0204600F091FA0920BD
:101E3000C00221684A6882434A6088682A22904327
:101E400088600868012202430A60204600F0EAFA2E
:101E500005462846B0BD0120B0BD000010B586B0D3
:101E60000021059104910391029101910068F34AC8
:101E7000904201D006B010BDD648C3680122059239
:101E800094032343C360C36823400093009B03680B
:101E900013430360006810400090049103910220F6
:101EA000029003204002019005200007009901A93B
:101EB000FFF7F4F906B010BDF0B587B00E4607463F
:101EC000842039580220202935D10125002E33D015
:101ED0000492002A30D001210C03BA68A24204D136
:101EE0003A69002A01D1F20761D103943C4680345B
:101EF0002278012A05461FD0059322463C465434D9
:101F00000025D5601170212002925060FFF792FAEF
:101F10000690049860802080B868039988420ED1AA
:101F2000386900280496059901D0002204920028FF
:101F300007D1064605E00546284607B0F0BD0495E2
:101F400005990298057007E0307839688862761C38
:101F500005996088401E60806088002815D0009137
:101F60008021002538462A46069B00F059FB0028B0
:101F700017D1002EE8D1049A10880E49084039681C
:101F80008862921C04922E46E2E7009140210025CF
:101F900038462A46069B00F043FB002803D0032561
:101FA000CAE70325C8E7202002994860C4E70D4628
:101FB000C2E7C046FF010000FEE7000081682E4A2C
:101FC0000A40911C8160704781682B4A0A40511C6D
:101FD000816070478168034A0A400121090751184E
:101FE00081607047E8FFFF6F072081052D4800687A
:101FF000084070478068C00F704780688007C00F36
:1020000070478168012008407047816801200840BE
:1020100070478068C000C00F704780684007C00FDD
:10202000704703218902C2680A40504250417047FC
:10203000024A0A40816A114381627047FFFF07002C
:10204000C943034A0A43816A114081627047C0460E
:102050000000F8FF1F230B409100090F99400F2249
:102060009A40836A93430B43836270478168024AB4
:102070000A40111D81607047E8FFFF7F0902436934
:102080008B430A4002491140194341617047C046E1
:1020900000FFFF0707218905024A13688B430343AA
:1020A000136070470827014004230B409A40072122
:1020B000994043698B4313434361704707200103F1
:1020C00001480068084070470810024070B584B0AD
:1020D0002C2129480025455420214554C5644562DA
:1020E00085620424C461012686760583234972052E
:1020F000F3072AC00560426084600395029501954C
:102100003C210C384554056345638563FEF7E6FDC5
:10211000002801D0FEF76EFC039502950196164843
:1021200001A9FEF7C1FC002801D0FEF763FC029470
:1021300013480190104801A9FEF7B6FC002801D011
:10214000FEF758FC082002900E4801900A4801A9A9
:10215000FEF7AAFC002801D0FEF74CFC0C200290F0
:1021600009480190044801A9FEF79EFC002801D00F
:10217000FEF740FC04B070BD1800002000240140B0
:1021800002000004040000080800000C10B582B032
:102190000948016801221143016000681040019064
:1021A00001980924002120460A46FFF7A1F920469C
:1021B000FFF79AF902B010BD3810024081B005480F
:1021C00001680122114301600068104000900098EE
:1021D00001B070473410024010B5174800210C229E
:1021E000164B016241628162E124640218C0016001
:1021F00041608160C260016141610838FFF7F7FD0D
:10220000002801D0FEF7F6FB0B480021FFF7CCFDBC
:10221000002801D0FEF7EEFB07480021FFF7A1FDE3
:10222000002801D0FEF7E6FB0348FFF77FFD0028FA
:1022300001D0FEF7DFFB10BDD800002000380140C0
:10224000FEE7704770470000B0B5401E010E01D098
:102250000120B0BD054D68600024E043032100F07B
:1022600063FAAC60072028602046B0BD10E000E0B3
:1022700080B5FFF7E3F880BDF0B597B00AAC342124
:102280002046FDF73CFF002609960896079606961D
:102290000596049603960296019600960127780209
:1022A000FFF72AF978071690780415900820149003
:1022B000139602251295119540200F900E96380224
:1022C0000D900A952046FFF70FFB002815D10996BF
:1022D000089607200690079506A82946FFF7F0F90B
:1022E00000280AD104960196054800906846FFF739
:1022F00029F9002801D117B0F0BDFEF77BFBC046DD
:102300000140000070470000F0B581B00446683419
:10231000416E002913D0006885688068400F0A4E1E
:10232000315C0A4F385CC000FDF79AFF60802801DD
:10233000400F315C385CC000FDF792FF01E00120E6
:102340006080208001B0F0BDF4310008EC3100085D
:10235000B0B5816ACA070CD18A0714D44A071CD4C5
:102360000A0724D4CA062CD48A0634D44A063CD49C
:102370004CE00122520403685C689443C26A224321
:102380005A608A07EAD50122120403685C68944304
:10239000026B22435A604A07E2D501229204036885
:1023A0005C689443426B22435A600A07DAD50122E3
:1023B000D20303685C689443826B22435A60CA0666
:1023C000D2D50122120303689C689443C26B224356
:1023D0009A608A06CAD50122520303689C68944316
:1023E000026C22439A604A0610D501221305026846
:1023F00054689C43456C2C4354609D4206D1032392
:102400005B0554689C43836C23435360090607D5DE
:102410000121C904026853688B43C06C18435060A3
:10242000B0BD000070B582B005468C2000242C5051
:10243000FFF700F806462868006800070CD5144826
:1024400000900120410500222846334600F0E8F8BC
:10245000002801D0032417E02868006840070CD545
:102460000B4800900120810500222846334600F0E9
:10247000D7F8002801D0032406E028468030202128
:10248000416081600470EC66204602B070BDC046B9
:10249000FFFFFF01F0B581B0044600680168534AB0
:1024A0000A40A16823690B4365691D43E1690D4337
:1024B000154305600322120343689343E2681A43FD
:1024C0004260A269236A13438268494D15401D4347
:1024D0008560C26A0F239A43636A1343C362454A05
:1024E000904209D0444A904208D14448006880078D
:1024F000000F43A2135802E0002300E010232646F9
:1025000068360125EA034248914211D1082B21D8AF
:102510000027C0467B441B795B009F44041B221BA1
:10252000201B1B1B3A00FFF789F900281BD133E061
:10253000082B33D80027C0467B441B795B009F449F
:10254000042D342D322D2D2D4800FFF777F900286A
:102550002DD141E000200127002804D11CE0FFF725
:102560007FF9002818D0616A49002A4A515AFDF7BC
:1025700077FE400061684A081018FDF771FE264991
:1025800001402AD00007400F08432168C8603D463B
:1025900023E010460028E6D13D461EE0002001273A
:1025A000002804D118E0FFF75BF9002814D0616A15
:1025B0004900184A515AFDF753FE61684A0810183D
:1025C000FDF74EFE80B2102807D32168C8603D4653
:1025D00003E010460028EAD13D4610483060002054
:1025E00020676067284601B0F0BDC046F369FFCFA1
:1025F000FFF4FF1100440040003801405410024035
:1026000000000000040000000200000008000000BC
:102610000024F400D4310008F0FF000001000100A4
:10262000F0B585B004930D4604460068C0690840C3
:10263000401A414241410020914246D11746029042
:102640002046803001900A9E01200090C002039035
:1026500007E02068C0692840401B41424141B9421F
:1026600032D1701CF5D0FEF7E5FE002E2FD0049974
:10267000401AB0422BD8206801684907E9D5C169E2
:10268000039A1142E5D003990162EFF31080009D97
:1026900085F310880D214901226813688B4313606C
:1026A00080F31088EFF3108085F3108821688A6822
:1026B000AA438A6080F310882020019A50609060BD
:1026C00000211170D0601FE0029805B0F0BDEFF35B
:1026D0001080009D85F310880D2149012268136840
:1026E0008B43136080F31088EFF3108085F310881C
:1026F00021688A68AA438A6080F310882020019AA2
:102700005060002111709060032005B0F0BD000002
:10271000002805D41F2108400121814001480160A3
:102720007047C04600E100E0002805D403220346BC
:1027300093430C4A9A1806E00F220240083A0323FA
:102740009A43074BD2188007C00E8901C9B2814055
:10275000FF23834010689843084310607047C046C9
:102760001CED00E000E400E080B582B001907D2027
:10277000C300044801A90122FFF79EFB019802B0A3
:1027800080BDC046D800002082B0FEF761FEFFF792
:1027900073FDFFF713FDFFF7F9FCFFF797FCFFF759
:1027A0001BFD1A4C2046FEF729F9194D042220463C
:1027B0002946FEF713FC0026184F19A40196700055
:1027C000285AFDF70FFD134A134BFDF7A3FCFDF745
:1027D0002BFDB10078507858FDF712FD02460B46EC
:1027E0002046314600F02AF8761C042EE7D112A0CC
:1027F00000F0B0FC042205482946FEF7EFFB7D20DF
:102800008000FEF73BFD019ED9E7C046180000207E
:10281000100000206666666666664A3F6C0100200E
:10282000766F6C74616765205041253164203A20D1
:10283000252E3266760D0A000D0000000FB410B58B
:1028400003A9044B044A029800F0E8F810BC08BC45
:1028500004B0184769270008000000202021020C5E
:1028600001D010211046020A01D010460839020991
:1028700001D01046091F820801D01046891E420867
:1028800001D0881E7047081A704702E008C8121F5E
:1028900008C1002AFAD170477047002001E001C149
:1028A000121F002AFBD17047F0B51FB486B00998FB
:1028B000089A030D0021024314D05148514A1818B8
:1028C000504305141198012810981AD0281A401C5A
:1028D00000264D4F4D49009601910490002812DAD0
:1028E000444211E01198012449A3012801D1109814
:1028F000C1430698119A84600360C26041600BB0C6
:10290000F0BD4042E4E70446210500203F4A001C98
:1029100051410391029012E0E00707D032463B4656
:1029200001990098FDF7F6FB0191009032463B4675
:1029300010461946FDF7EEFB06460F466410002CC4
:10294000EAD10498039B0028029A0999089806DAAC
:10295000FDF7E0FB019B009AFDF7DCFB05E0FDF7CE
:1029600021FE019B009AFDF71DFE04460E46002243
:10297000284BFDF7AFFE03D80020C043014607E017
:102980000022254B20463146FDF75AFDFDF782FE19
:10299000102409E0002C0ADB0A220023FDF77FFC4B
:1029A000079B30321A55641E02460A43F2D11122A7
:1029B000641C079B121B1C19119B012B03D00123C4
:1029C00008430ED10AE0084304D0112010900020E3
:1029D000119077E71098151A6D1E0BE0109882423F
:1029E00002DD00236D1C03E0824201DA00236D1E2C
:1029F000002BEED0069811998260C16030C07EE74E
:102A000001FCFFFF104D0000000014400000F03FEB
:102A1000300000000000F0430000E03FFFB597B039
:102A20000646002518E2252877D100242746FD49CF
:102A3000049400E00443761C32780120203A904050
:102A40000842F7D130782A280ED002223078014689
:102A50003039092916D804990A23594330394018C6
:102A60001443761C0490F1E7189802C8049118905A
:102A7000002904DA01204003044348420490022064
:102A80000443761C30782E2814D104200443707837
:102A9000761C2A2809D11898761C80C8189009E05D
:102AA0000A214F43303FC719761C30780146303930
:102AB0000929F5D930786C2810D006DC4C281AD0BA
:102AC00068280ED06A2817D104E0742813D07A2819
:102AD00012D110E00120400504430CE0012109055A
:102AE00001E0032109050C437178814203D10120E3
:102AF00000052418761C761C3078119066280BD0BF
:102B000013DC58287DD009DC00287BD04528F6D07E
:102B10004628F4D047281AD1A5E118E0632835D01B
:102B2000642870D0652812D19DE170286CD008DC33
:102B30006728F1D069287BD06E280DD06F2806D188
:102B4000BAE073282ED0752871D0782859D01A9AF7
:102B5000199990476D1C7EE16002400F022809D050
:102B600003280DD00428189801680DD00D60001DB1
:102B7000189070E11898EA1701680D604A60F6E74E
:102B8000189801680D80F2E70D70F0E718986A4612
:102B900001781172001D18900020507202A8009058
:102BA000012005E0189802C8189000200091C04349
:102BB00061070DD5002101E00199491C0191B9423D
:102BC00012DA8142F8DB009A515C0029F4D10BE063
:102BD000002101E00199491C01918142FADB019A2F
:102BE0000099895C0029F5D1019904981A9B471A2C
:102BF00021463846199A00F097FA0199401945186C
:102C00000BE04FE02CE113E04EE0009800990078D3
:102C1000491C00911A9A199990470198401E0190F9
:102C2000401CF2D1214638461A9B199A10E137E030
:102C30000A200021009001916002410F022907D073
:102C4000189A01CA1892C2179446032908D00AE0BC
:102C50001898C01DC108C90005C91891944607E01D
:102C600000B2C2179446042902D140B2C1178C4663
:102C700000226146944506DA0A460021404291410D
:102C80008C462D2102E0210504D52B216A461173C3
:102C9000012103E0E10701D02021F7E7029155E08F
:102CA0000A200AE0102008E01020009000210420F3
:102CB00004430191082703E00820002101910090BE
:102CC0006002410F022907D0189A01CA1892002207
:102CD0009446032908D008E01898C01DC108C9000F
:102CE00005C91891944603E080B2042900D1C0B20E
:102CF00000210291210729D51199702906D0009A47
:102D00001021019B4A401A4305D00EE040216A463B
:102D10001173012108E06146014306D030216A4663
:102D200011731199517302210291009A0821019B9C
:102D30004A401A430AD16146014301D1610705D5D2
:102D400030216A46117301217F1E02911199582981
:102D500004D035A10E910DA90D910DE037A1F9E731
:102D60006146019B009AFDF79AFA0E9B8C469B5C8C
:102D70000D9A521E0D92137061460143F0D10D98C9
:102D800005A9081A20300190600703D5012000042E
:102D9000844300E001270198874201DD381A00E0F2
:102DA0000020019900904118029809180498401ACF
:102DB0000490E00306D421461A9B199A049800F067
:102DC000B3F94519002706E003A81A9AC05D1999BE
:102DD00090476D1C7F1C02988742F5DBE0030CD501
:102DE00021461A9B199A049800F09EF9451904E0AF
:102DF0001A9A3020199990476D1C0099481E00902E
:102E00000029F5DC08E00D980D990078491C0D911A
:102E10001A9A199990476D1C0199481E0190002932
:102E2000F1DC63E1092801003031323334353637C3
:102E30003839616263646566000000003031323306
:102E400034353637383941424344454600000000A6
:102E500000F05AF94519761C3078002800D0E2E5D8
:102E600028461BB0F0BD600700D406271898C01D87
:102E7000C108C90048680A680831C30FDB07189108
:102E8000190001D09CA108E0210501D59BA104E017
:102E9000E10701D09AA100E09AA1430011985B08D4
:102EA000109165280CD006DC452809D046281DD095
:102EB000472841D141E0662818D067283CD13CE042
:102EC0000021112F01DB112000E0781C01910090FE
:102ED00008A911A8FFF7E8FC139905910021119AA0
:102EE00015927F1C12980197009150E00120C007B5
:102EF00003900120019008A9009711A8FFF7D4FCC6
:102F0000139A149905920022119B0092129815931E
:102F1000059A0192002901D0104602E0791C401860
:102F20000190381A01D5019804E04042401E0090FB
:102F3000781C0190C01B029043E0012F00DA0127AA
:102F40000021112F01DD112000E038460191009091
:102F500008A911A8FFF7A8FC13990591119A00215F
:102F6000129815920091019721070CD40599B94246
:102F700001DB019900E00191012904DD159A491E48
:102F8000515C302906D0B84201DA011D05DA012171
:102F9000029115E00199491EEDE7002805DC009932
:102FA000411800910199091A03E0019A411C9142CC
:102FB00000DD01910099401A401C02900120C007D9
:102FC0000390200706D402990198814202DB002079
:102FD000C043029000206946C87707AF01210398DB
:102FE0000337C907884224D0022011902B20129069
:102FF000039800280CDA404203902D20129007E03D
:103000000A210398FDF72CF930317F1E03903970A7
:103010001199481E11900029F2DC03980028EFD185
:10302000791E129808703078202108404530BF1E64
:10303000387006A8C01BC01D0390109800780028A7
:1030400000D00120019941180298C017091803986F
:1030500009180498401A401E0490E00306D4214643
:103060001A9B199A049800F05FF845191098007897
:10307000002803D01A9A199990476D1CE00324D5B3
:1030800021461A9B199A049800F04EF845191CE045
:103090000098002807DB00990598884203DD159801
:1030A000405C199901E0199930201A9A90470098CC
:1030B0006D1C401C00900298401E0290002804D114
:1030C0001A9A2E20199990476D1C0199481E01905B
:1030D0000029DDDC05E038781A9A7F1C19999047A1
:1030E0006D1C0399481E03900029F4DC21461A9BAD
:1030F000199A0498ACE600002D0000002B00000097
:103100002000000000000000F8B5044600251E461F
:103110001746880404D405E039462020B0476D1CCA
:10312000641EF9D52846F8BDFFB50446002581B0D8
:103130001E46C80301D5302700E02027880404D5A7
:1031400005E038460399B0476D1C641EF9D5284642
:1031500005B0F0BD10B5044601E0FFF705FB20788F
:10316000641C03490028F8D10A20FFF7FDFA10BDBE
:10317000000000200000000000000000000000002F
:10318000000000000000000000000000000000003F
:103190000000000001000000020000000300000029
:1031A0000400000006000000070000000800000006
:1031B0000900000000000000000000000000000006
:1031C00000000000010000000200000003000000F9
:1031D00004000000010002000400060008000A00CC
:1031E0000C001000200040008000000101010103DC
:1031F0000701000008040204080101012032000850
:1032000000000020100000008A280008303200086A
:1032100010000020700500009A280008000000003F
:10322000000000000024F400010000000400000081
:04000005080000C12E
:00000001FF
