:020000040800F2
:1000000018040020D50000086D0B0008FD0A000848
:1000100000000000000000000000000000000000E0
:10002000000000000000000000000000710B00084C
:1000300000000000000000006F0B0008730B0008B8
:10004000E700000800000000E7000008E7000008E3
:10005000E7000008E7000008E7000008E7000008E4
:1000600000000000E7000008E7000008E7000008C3
:10007000E7000008E7000008E700000800000000B3
:10008000E70000080000000000000000E700000892
:1000900000000000E7000008E7000008E700000893
:1000A000E7000008E7000008E7000008E700000894
:1000B000E700000800000000000000000000000051
:1000C0000348854600F046F8004800477D0B0008CD
:1000D000180400200448804704480047FEE7FEE774
:1000E000FEE7FEE7FEE7FEE77B0B0008C100000825
:1000F000D2B201E00270401C491EFBD270470022C0
:10010000F6E710B513460A4604461946FFF7F0FF16
:10011000204610BD70B50446002903D000202022DF
:10012000012310E0002801D00020C043C046C04693
:100130000DE02546D5408D4205D30D469540641B04
:100140001D46954040191546521E002DF1DC2146F2
:1001500070BD0000064C0125064E05E0E36807CCA3
:100160002B430C3C98471034B442F7D3FFF7ACFF55
:10017000740C0008940C0008B0B5044600F0E6F8D2
:100180000546601C02D092480078041900F0DEF8A1
:10019000401BA042FAD3B0BDF0B58AB05F4A0890C8
:1001A000904201D0052000E00320009009910E68E4
:1001B000002E00D1B0E0012000210C460A4602903A
:1001C00005460FE03043049D554A5060059A099852
:1001D00006683046E840091DA41C08326D1C002842
:1001E00000D199E023466F1E02980797B840064059
:1001F000EDD004950592039109994A6803231746A7
:1002000006931F407D1E012D019612D8069DA54024
:10021000089B9E68AE430999CD68A540354309996E
:100220009D60D206D20F079DAA405D6885431543A5
:100230005D60032F089B069D19D02846A040DA6810
:1002400082438868A0401043D860022F0FD11C2041
:10025000039A10400F268640079AD20892009A18F7
:10026000156AB5430E6986402E43069D16622846E0
:10027000A0402F461D688543486882033840A0404F
:1002800028431860900F0399059A049D9FD0182366
:1002900013400F209840079DBD43214A55192E6EEB
:1002A0008643603505200007089A82420AD01E481E
:1002B000089A824208D01D48089A8242009804D1C8
:1002C000022002E0002000E0012098403043286036
:1002D00014480068099A5568EA0302D5019E304324
:1002E00001E0019EB0430F4A10605068AA0301D597
:1002F000304300E0B0430B4A506009480068EA020E
:1003000001D5304300E0B043054A10605068AA02AE
:1003100000D557E7B04356E70AB0F0BD000C0050D7
:1003200000180240801802400004005000080050ED
:1003300000690840411E88417047002A02D01822F7
:10034000815070472822815070470000054800689E
:100350007047C0461E48007802490A6810180860B5
:100360007047C0461000002010B501242002BE498D
:100370000A6802430A60032000F00AF8002801D04E
:10038000204610BD00F026F80024204610BDC046CF
:10039000B0B505460E4801780124002916D07D200D
:1003A000C000FFF7B7FE0146B5480068FFF7B2FE90
:1003B00000F08AFB032D09D8002807D10024E04370
:1003C0002946224600F01CF8AE4805602046B0BD24
:1003D0000400002082B009484168012211434160B5
:1003E0004168114001910199110702680A430260B6
:1003F000006808400090009802B070473C1002402E
:10040000002805D40322034693430C4A9A1806E0B9
:100410000F220240083A03239A43074BD218800761
:10042000C00E8901C9B28140FF2383401068984300
:10043000084310607047C0461CED00E000E400E097
:10044000F0B581B0032569020F4E32688A4302433A
:10045000326001214A020024904212D18848026889
:10046000706940050DD58F02062050430749FFF7FC
:1004700051FE801C401E03D071693942FAD100E060
:100480002C46204601B0F0BD0070004040420F00F5
:10049000F0B583B00D460121002800D1D1E00191D3
:1004A00002907148006807242040A84214D26E4987
:1004B0000868A043284308606C4EFFF747FF0746D3
:1004C000694800682040A84206D0FFF73FFFC01BE4
:1004D000B042F5D90321B4E0029E30688107644B35
:1004E0000CD5410703D521031A680A431A600F216E
:1004F00009021A688A43B16811431960C00719D10B
:10050000594800682040A84229D957490868A043A3
:1005100028430860554FFFF719FF06465248006808
:100520002040A8421BD0FFF711FF801BB842F5D92D
:10053000032186E00298406803285AD8810001A26E
:1005400051588F4655050008F705000801060008B8
:100550000B060008194608390968490557E0029A50
:1005600010784007424B05D5200319688143D068B5
:100570000843186018688006400F22D01A68382196
:100580000A403C48082A23D01A680A40102A5BD146
:10059000596803220A40032A00D03748596849069F
:1005A000490F491CFFF7B6FD314949684904490E16
:1005B00048432F494968490F491CFFF7ABFD2C4BB5
:1005C00006E01846083800688004410F2A48C840F1
:1005D000196889093C220A40284989581F220A4083
:1005E000D0402749086027480068FFF7D1FE014640
:1005F00027E0596D0AE0194608390968890306E0C1
:10060000194608390968890101E0996D890701993E
:1006100017D51968A14301431960144FFFF796FEDF
:100620000646134800683821014002984068C0001F
:10063000814200D164E7FFF789FE801BB842F0D900
:100640000321084603B0F0BD18680840202802D1F5
:100650000120C003BCE718680840182801D000201A
:10066000B6E77D200002B3E70020024088130000B7
:100670000810024000127A000024F400340C000834
:100680000000002008000020F0B587B001270028F6
:1006900000D1C5E1049705900078C007FE4E2CD12B
:1006A0000598007880074CD40598007800070DD590
:1006B000B06838210140182900D0A6E0306E8007CC
:1006C00004D505988069002800D1E9E105980078F3
:1006D000400700D45FE1B06838210140202900D0F4
:1006E000AAE0F06D800700D452E1059880680028E8
:1006F00000D04DE1002001274BE1B068F1680327ED
:100700003A468A433821014010204840821850421E
:100710005041082945D0002843D10598426805205A
:1007200000048242039200D1B8E0012001048A4211
:1007300000D1B9E032688A4332608104306888436E
:10074000B4E0B1683820084010214140F268032726
:100750003A4002235340CA185142514100282BD03D
:10076000002929D1306801218C02059BDA68002A12
:1007700000D1B8E00722D20290431A6902433260E6
:100780000802316801433160FFF7E0FD054630683B
:10079000204200D0B7E0FFF7D9FD401B0228F6D970
:1007A0003EE13068800300D47AE70598406800286D
:1007B00000D075E7049F33E131684905059B03D5F7
:1007C000D968002900D1B9E07F21090272688A4303
:1007D000596909021143716000280DD10720C00238
:1007E0003168814318690843306030688004400FE5
:1007F000AE49C140AE480160AE480068FFF7C8FD91
:10080000002800D150E7049F0AE1306E05998969FC
:10081000002900D181E0012108433066FFF796FDF1
:100820000546306E800700D550E7FFF78FFD401B6F
:1008300003270228F5D9F3E0012003900107F06BAC
:100840000840029006D1F06B0843F063F06B08405B
:10085000069006980191984F3868C00510D4039807
:100860000402386820433860FFF770FD0546386899
:10087000204205D1FFF76AFD401B0228F7D975E039
:1008800005988768052F5BD0012F5DD0F06D039927
:100890008843F065F06D0421884358E0012081040D
:1008A00032680A4332600104306808433060012036
:1008B0004404FFF74BFD0546039800280FD030682D
:1008C000204200D0ECE6FFF741FD401B6428F6D93A
:1008D000A6E0FFF73BFD401B642800D9A0E030688C
:1008E0002042F6D1DCE6090288433060FFF72EFD96
:1008F00005463068204200D1D6E6FFF727FD401BB1
:100900000228F6D98CE07F200002716881430598A7
:100910004069000208437060C6E6012188433066E2
:10092000FFF714FD0546306E800700D4CEE6FFF7D2
:100930000DFD401B03270228F5D971E0049F6FE0ED
:10094000F06D04210143F165F06D03990843F065F2
:100950005A4CFFF7FBFC0546002F0FD0F06D8007C7
:100960000FD4FFF7F3FC401BA042F7D90020032768
:100970000FE0FFF7EBFC401BA042F7D8F06D8007BB
:10098000F7D40298002803D1F06B01998843F063F3
:100990000120002844D00598C06900283FD0B168E4
:1009A00038220A40102A03D1012818D1049F37E0C9
:1009B00001221306316899433160022833D1039331
:1009C00004925406FFF7C2FC0546306820423FD02F
:1009D000FFF7BCFC401B03270228F6D920E0F06893
:1009E00003210140059B1A6A914257D170210140B1
:1009F0005A6A914256D17F21090201409A6A120235
:100A0000914251D11F2149040140DA6A9142049F69
:100A100006D1072149070840196B884200D10027F9
:100A2000F8B207B0F0BDF0680327B843F060F06893
:100A300023490140F1605506FFF788FC0446306801
:100A40002842ECD0FFF782FC001B0228F7D9E7E729
:100A5000F0681C490140059F2037ADCF0843104383
:100A60001902014329433943F1603068039908436F
:100A7000306004980007F1680143F160FFF766FCFD
:100A8000054630682042CAD1FFF760FC401B0327AF
:100A90000228F6D9C4E7C04600100240049FBFE711
:100AA000049FBDE7049FBBE7049FB9E70024F4005F
:100AB00000000020080000200070004088130000A3
:100AC000FFFFFEEF8C80C11F401E010E01D00120F0
:100AD00070470749074A5060074803680B400321E5
:100AE0008907591801600020906007211160704744
:100AF000FFFFFF0010E000E020ED00E0FEE7000057
:100B0000F0B587B0002406940594049403940294ED
:100B100015480168042211430160016811400191E8
:100B2000019901680127394301600068384001904C
:100B300001987D03364E304629462246FFF7FDFBDD
:100B4000059404940397029502AD30462946FFF7B9
:100B500023FB0497039438020290052000072946DE
:100B6000FFF71AFB07B0F0BD34100240FEE77047F4
:100B7000704780B5FFF7EEFB80BD704792B0FFF77E
:100B8000F3FB05A800903421FFF7B9FA002504957E
:100B900003950295019501277802FFF751FC78072C
:100BA00011907804109008200F900E9502260D9653
:100BB0000C9640200A9009953C02089405960098EE
:100BC000FFF762FD002803D0EFF3108072B6FEE756
:100BD0000495039507200190029601A83146FFF77E
:100BE00057FC002803D0EFF3108072B6FEE7FFF742
:100BF00087FF074D052000072146FFF799FB0246B6
:100C000079032846FFF799FB0A20FFF7B5FAF1E7C9
:100C10000008005002E008C8121F08C1002AFAD1DB
:100C200070477047002001E001C1121F002AFBD16C
:100C300070470000000000000000000000000000FD
:100C400000000000000000000000000000000000A4
:100C5000000000000100000002000000030000008E
:100C6000040000000600000007000000080000006B
:100C700009000000980C000800000020100000008F
:100C8000140C0008A80C0008100000200804000044
:100C9000240C0008000000000024F4000100000003
:080CA000040000000000000048
:04000005080000C12E
:00000001FF
