:020000040800F2
:1000000060040020D5000008F50E00082F0E00083F
:1000100000000000000000000000000000000000E0
:10002000000000000000000000000000F90E0008C1
:100030000000000000000000F70E0008250F000877
:10004000E700000800000000E7000008E7000008E3
:10005000E7000008E7000008E7000008E7000008E4
:1000600000000000E7000008E7000008E7000008C3
:10007000E7000008990F0008E700000800000000F2
:10008000E70000080000000000000000E700000892
:1000900000000000E7000008E7000008E700000893
:1000A000E7000008E7000008E7000008E700000894
:1000B000E700000800000000000000000000000051
:1000C0000348854600F046F800480047051100083F
:1000D000600400200448804704480047FEE7FEE72C
:1000E000FEE7FEE7FEE7FEE7950F0008C100000807
:1000F000D2B201E00270401C491EFBD270470022C0
:10010000F6E710B513460A4604461946FFF7F0FF16
:10011000204610BD70B50446002903D000202022DF
:10012000012310E0002801D00020C043C046C04693
:100130000DE02546D5408D4205D30D469540641B04
:100140001D46954040191546521E002DF1DC2146F2
:1001500070BD0000064C0125064E05E0E36807CCA3
:100160002B430C3C98471034B442F7D3FFF7ACFF55
:1001700080110008A0110008EFF3108072B6FEE7AE
:10018000F0B588B00B460968002900D1B7E00246F7
:100190005C48824201D0052000E003200090012449
:1001A0000020054606900746019407920FE0384369
:1001B000039F5549486019680846E040069E361D71
:1001C0000696AD1C0837641C002800D197E0661E17
:1001D00001980596B04001400291ECD00397194672
:1001E0005B6803261F46049637407E1E012E13D8F7
:1001F000049EAE40079A9268B243CE68AE40164362
:10020000079A9660DA06D20F059B9A40079B5B68B7
:1002100083431343079A5360032F0B46049E1ED05B
:100220003046A840079AD26882439868A840104395
:10023000079AD060022F12D11C20069A10400F2678
:100240008640059AD2089200079B9A18136AB34316
:100250000E6986401E430B461662049E079A30467E
:10026000A84011688143586882033040A840084381
:1002700007990860900F079A039F9CD01821394076
:100280000F208840059FB7431F4EF619376E8743EE
:1002900060360520000782420AD01D48824205D000
:1002A0001C488242009804D1022002E0012000E0B4
:1002B0000020884038433060144800685E68F103CD
:1002C00002D5029F384301E0029FB8430F490860FE
:1002D0004868B10301D5384300E0B8430B49486092
:1002E00009480068F10201D5384300E0B8430649E7
:1002F00008604868B10200D559E7B84358E708B02C
:10030000F0BDC046000C00500018024080180240AA
:10031000000400500008005042690B4693430A4015
:100320001104C91881617047002A02D01822815037
:100330007047282281507047054800687047C046C2
:100340001E48007802490A68101808607047C046C5
:100350005C00002010B50124200294490A68024381
:100360000A60032000F00AF8002801D0204610BDE2
:1003700000F026F80024204610BDC046B0B5054662
:100380000E4801780124002916D07D20C000FFF717
:10039000C1FE014688480068FFF7BCFE00F072FB12
:1003A000032D09D8002807D10024E043294622461E
:1003B00000F020F8814805602046B0BD0400002010
:1003C00082B00948416801221143416041681140EF
:1003D00001910199110702680A4302600068084010
:1003E0000090009802B070473C10024080B500F0C9
:1003F0005DFE80BD80B500F065FE80BDF0B581B0CA
:10040000032569020F4E32688A430243326001219C
:100410004A020024904212D1674802687069400580
:100420000DD58F02062050430749FFF773FE801C4D
:10043000401E03D071693942FAD100E02C462046B3
:1004400001B0F0BD0070004040420F00F0B583B035
:100450000D460121002800D1A5E0019102905348EA
:10046000006807242040A84214D250490868A043DD
:10047000284308604E4EFFF75FFF07464B48006871
:100480002040A84206D0FFF757FFC01BB042F5D965
:10049000032188E0029B18688107684E0CD541074C
:1004A00003D5210332680A4332600F210902326802
:1004B0008A43996811433160C00719D13B480068ED
:1004C0002040A84229D939490868A0432843086038
:1004D000374FFFF731FF0646344800682040A842F6
:1004E0001BD0FFF729FF801BB842F5D903215AE042
:1004F000586803282FD8810001A251584F4A8F46CF
:10050000110500085D050008670500087105000871
:1005100011460839096849052CE0029A107840070D
:10052000464D05D5200329688143D06808432860DB
:1005300000F046F8296889093C220A401D4989587B
:100540001F220A40D0401C4908601C480068FFF781
:1005500015FF014627E0394A516D0AE01146083976
:100560000968890306E0114608390968890101E034
:10057000916D8907019916D51168A1430143116056
:100580000B4FFFF7D9FE06462C4800683821014082
:1005900002984068C000814290D0FFF7CDFE801BDA
:1005A000B842F1D90321084603B0F0BD0020024053
:1005B00088130000401100080000002008000020FF
:1005C00010B51E4C20688006400F06D022683821E6
:1005D0000A401B48082A07D110BD083C2068800447
:1005E000410F1848C84010BD22680A40102A15D192
:1005F000616803220A40032A00D012486168490654
:10060000490F491CFFF786FD61684904490E4843BC
:100610006168490F491CFFF77DFD10BD2068084047
:10062000202802D10120C00310BD206808401828EE
:1006300001D0002010BD7D20000210BD0810024036
:1006400000127A000024F400F0B587B001270028DA
:1006500000D1C4E1049705900078C007FD4E2CD16D
:100660000598007880074CD40598007800070DD5D0
:10067000B06838210140182900D0A6E0306E80070C
:1006800004D505988069002800D1E7E10598007835
:10069000400700D45EE1B06838210140202900D035
:1006A000A9E0F06D800700D451E10598806800282A
:1006B00000D04CE1002001274AE1B068F16803272F
:1006C0003A468A433821014010204840821850425F
:1006D0005041082945D0002843D10598426805209B
:1006E00000048242039200D1A6E0012001048A4264
:1006F00000D1A7E032688A433260810430688843C1
:10070000A2E0B1683820084010214140F268032778
:100710003A4002235340CA185142514100282BD07D
:10072000002929D1306801218C02059BDA68002A52
:1007300000D1A6E00722D20290431A690243326038
:100740000802316801433160FFF7F6FD0546306865
:10075000204200D0A5E0FFF7EFFD401B0228F6D9AC
:100760003DE13068800300D47AE7059840680028AE
:1007700000D075E7049F32E131684905059B03D538
:10078000D968002900D1A7E07F21090272688A4355
:10079000596909021143716000280DD10720C00278
:1007A0003168814318690843306030688004400F25
:1007B000AD49C140AD480160AD480068FFF7DEFDBE
:1007C000002800D150E7049F09E1306E059989693E
:1007D000002970D0012108433066FFF7ADFD0546C2
:1007E000306E800700D551E7FFF7A6FD401B0327B9
:1007F0000228F5D9F3E0012003900107F06B0840CF
:10080000029006D1F06B0843F063F06B084006904D
:1008100006980191974F3868C0055FD5059887689D
:10082000052F6CD0012F6ED0F06D03998843F065D1
:10083000F06D0421884369E00120810432680A4395
:100840003260010430680843306001204404FFF73F
:1008500073FD0546039800280FD03068204200D071
:10086000FEE6FFF769FD401B6428F6D9B7E0FFF705
:1008700063FD401B642800D9B1E030682042F6D106
:10088000EEE6090288433060FFF756FD0546306802
:10089000204200D1E8E6FFF74FFD401B0228F6D9C1
:1008A0009DE07F2000027168814305984069000245
:1008B00008437060D8E6012188433066FFF73CFDAD
:1008C0000546306E800700D4E0E6FFF735FD401B9B
:1008D00003270228F5D982E0049F80E003980402F0
:1008E000386820433860FFF727FD05463868204206
:1008F00094D1FFF721FD401B0228F7D915E0F06DD8
:1009000004210143F165F06D03990843F0655A4CE9
:10091000FFF712FD0546002F0FD0F06D80070FD4B2
:10092000FFF70AFD401BA042F7D9002003270FE084
:10093000FFF702FD401BA042F7D8F06D8007F7D407
:100940000298002803D1F06B01998843F0630120DD
:10095000002844D00598C06900283FD0B1683822EB
:100960000A40102A03D1012818D1049F37E0012240
:100970001306316899433160022833D103930492FE
:100980005406FFF7D9FC0546306820423FD0FFF7F8
:10099000D3FC401B03270228F6D920E0F06803218E
:1009A0000140059B1A6A914256D1702101405A6A52
:1009B000914255D17F21090201409A6A1202914267
:1009C00050D11F2149040140DA6A9142049F06D1A7
:1009D000072149070840196B884200D10027F8B267
:1009E00007B0F0BDF0680327B843F060F068234912
:1009F0000140F1605506FFF79FFC0446306828422D
:100A0000ECD0FFF799FC001B0228F7D9E7E7F06864
:100A10001B490140059F2037ADCF08431043190201
:100A2000014329433943F16030680399084330603A
:100A300004980007F1680143F160FFF77DFC05466B
:100A400030682042CAD1FFF777FC401B03270228F9
:100A5000F6D9C4E700100240049FC0E7049FBEE738
:100A6000049FBCE7049FBAE70024F40000000020C4
:100A7000080000200070004088130000FFFFFEEF18
:100A80008C80C11F80B500F039FA80BD7047704777
:100A900070470000F0B53C22825C012A01D102209F
:100AA000F0BD02463C3202235370012313700068EC
:100AB00046688468DC4DA84201D0374604E00F2721
:100AC0003F05BE434F6837437026B7430E683E4329
:100AD0004660A84202D03D4DA84204D18025AC43D7
:100AE000896821438160002010705370F0BDC046BA
:100AF000B0B500281FD0044605463C35687800286C
:100B000004D100202870204600F018F802206870F8
:100B100001CC214600F046FA01202873A870E87045
:100B200028716871A871E87128726872A872E872F9
:100B300068700020B0BD0120B0BD000010B582B0CB
:100B40000068EB49884201D002B010BD0120C0020C
:100B500009490A6802430A60096801400191019845
:100B60000D24002120460A46FFF744FC2046FFF7EB
:100B70003DFC02B010BDC0464010024010B53D2102
:100B8000415C01291BD101463D3102220A700168F6
:100B9000C86801221043C860D548814202D00B4882
:100BA00081420ED188680A4B03400020062B0CD0EE
:100BB0001404A34209D00B6813430B6010BD01203D
:100BC00010BD086810430860002010BD00040040FC
:100BD00007000100F0B581B004463C20205C0128EC
:100BE00002D1022001B0F0BD26463C3602207070D2
:100BF0000127377020688268294B134083600A6898
:100C00003F2A14DD5F2A19DD602A28D07B039A422F
:100C10002CD0702A3ED14A688D68CB68294600F0F6
:100C20000BFA2068816877220A43826032E01F2A2B
:100C30000FDC002A11D0102A0FD02BE0402A21D03F
:100C4000502A27D1CA68496800F00CFA2068502160
:100C50001EE0202A01D0302A1CD1114618E0CA68B3
:100C6000496800F010FA2068602111E04A688D6838
:100C7000CB68294600F0E0F9B80321688A6802438E
:100C80008A6007E0CA68496800F0ECF920684021F2
:100C900000F0DEF900203070777001B0F0BDC04682
:100CA0008800CEFF70470000B0B5044600680169B7
:100CB0008907554D16D5C168890713D52946FE31D8
:100CC0000161012121778069800703D02046FFF769
:100CD000E9FF05E0204600F099F8204600F097F87B
:100CE0000020207720680169490717D5C1684907A6
:100CF00014D52946FC3101610221217780698005E4
:100D0000800F03D02046FFF7CDFF05E0204600F01E
:100D10007DF8204600F07BF80020207720680169EC
:100D2000090716D5C168090713D52946F8310161AD
:100D300004212177C069800703D02046FFF7B2FF66
:100D400005E0204600F062F8204600F060F8002040
:100D5000207720680169C90617D5C168C90614D56E
:100D60002946F031016108212177C0698005800F93
:100D700003D02046FFF796FF05E0204600F046F836
:100D8000204600F044F80020207720680169C90758
:100D900008D0C168C90705D02946FF310161204646
:100DA00000F036F820680169090608D5C16809060F
:100DB00005D52946803101612046FFF768FE20688D
:100DC0000169C90506D5C168090603D50561204634
:100DD000FFF75CFE20680169490608D5C16849062D
:100DE00005D52946C0310161204600F01FF8206872
:100DF0000169890607D5C168890604D5E035056112
:100E00002046FFF745FEB0BDFFFEFFFF704770476D
:100E100080B500688249884200D080BD012041032E
:100E20001648FFF779FA80BD002C01407047FEE7B5
:100E3000F0B587B0002406940594049403940294BA
:100E40000D480168042211430160006810400190C0
:100E5000019801277D03094E304629462246FFF7B7
:100E600063FA059404940397029502A93046FFF7AC
:100E700087F907B0F0BDC0463410024000080050AA
:100E800010B588B0A54800241749184A644B036080
:100E900042608460C1600461446184610794069487
:100EA00005940494039402940194FFF721FE002812
:100EB00001D0FFF761F9012000030490974804A9CD
:100EC000FFF788FE002801D0FFF756F9039402943B
:100ED0000194924801A9FFF7DDFD002801D0FFF73A
:100EE0004BF908B010BDC04650C300007F0200009F
:100EF000002C0140FEE7704770470000B0B5401E6F
:100F0000010E01D00120B0BD054D68600024E04312
:100F1000032100F0D7F8AC60072028602046B0BD60
:100F200010E000E080B5FFF70BFA80BDF0B591B09E
:100F300004AC34212046FFF7E2F80026039602961F
:100F40000196009601277802FFF758FA780710906B
:100F500078040F9008200E900D9602250C950B95A5
:100F60004020099008963802079004952046FFF724
:100F70006BFB00280CD10396029607200090019588
:100F800068462946FFF762FA002801D111B0F0BD8A
:100F9000FFF7F2F87047000080B56048FFF784FE65
:100FA00080BDC04610B504681D4A904202D01D4B5A
:100FB000984204D170239C434B68234300E02346AE
:100FC000194CA04208DD90420CD0184CA04209D028
:100FD000174CA04206D020E0124CA04202D0154C83
:100FE000A0421AD103242402A343CC681C438023CB
:100FF0009C434B69234303608B68C3620B68836225
:10100000904205D0094A904202D0094A904201D14B
:10101000096901630121416110BD1C46E7E7C04633
:10102000002C014000040040FF2B0140004801401B
:101030000044014000200040B0B5FF242402856830
:10104000A54311431A020A432A438260B0BD00003F
:101050008268034B13400B4307211943816070479B
:1010600088FFCFFFB0B5036A046A0125AC43046270
:101070008469F025AC431201224382610A22934322
:101080000B430362B0BD10B5036A1024A34303628F
:101090000F231B0384699C4312032243036A82616A
:1010A000A022934309011943016210BD002805D411
:1010B0001F21084001218140014801607047C0465E
:1010C00000E100E0002805D40322034693430C4AC4
:1010D0009A1806E00F220240083A03239A43074B6E
:1010E000D2188007C00E8901C9B28140FF23834016
:1010F00010689843084310607047C0461CED00E03C
:1011000000E400E0FFF726F9FFF710FFFFF790FE7D
:10111000FFF7B6FE0148FFF731FDFEE710000020A3
:1011200002E008C8121F08C1002AFAD170477047B0
:10113000002001E001C1121F002AFBD1704700000E
:10114000000000000000000000000000000000009F
:10115000000000000000000000000000000000008F
:101160000100000002000000030000000400000075
:101170000600000007000000080000000900000051
:10118000A01100080000002010000000201100083D
:10119000B0110008100000205004000030110008B9
:1011A0000024F40001000000040000000000000022
:04000005080000C12E
:00000001FF
