:020000040800F2
:10000000A8040020D5000008AD0F0008D50E000898
:1000100000000000000000000000000000000000E0
:10002000000000000000000000000000B10F000808
:100030000000000000000000AF0F0008DD0F000806
:10004000E700000800000000E7000008E7000008E3
:10005000E7000008E7000008E7000008E7000008E4
:1000600000000000E7000008E7000008E7000008C3
:10007000E7000008E7000008E700000800000000B3
:10008000E70000080000000000000000E700000892
:1000900000000000E7000008E7000008E700000893
:1000A000E7000008E7000008E7000008E700000894
:1000B000E700000800000000000000000000000051
:1000C0000348854600F046F800480047D114000870
:1000D000A80400200448804704480047FEE7FEE7E4
:1000E000FEE7FEE7FEE7FEE767100008C100000834
:1000F000D2B201E00270401C491EFBD270470022C0
:10010000F6E710B513460A4604461946FFF7F0FF16
:10011000204610BD70B50446002903D000202022DF
:10012000012310E0002801D00020C043C046C04693
:100130000DE02546D5408D4205D30D469540641B04
:100140001D46954040191546521E002DF1DC2146F2
:1001500070BD0000064C0125064E05E0E36807CCA3
:100160002B430C3C98471034B442F7D3FFF7ACFF55
:10017000FC1500081C160008EFF3108072B6FEE7AD
:10018000B0B5044600F0E8F80546601C02D093487C
:100190000078041900F0E0F8401BA042FAD3B0BD8B
:1001A000F0B588B00B460968002900D1B7E00246D7
:1001B0005C48824201D0052000E003200090012429
:1001C0000020054606900746019407920FE0384349
:1001D000039F5549486019680846E040069E361D51
:1001E0000696AD1C0837641C002800D197E0661EF7
:1001F00001980596B04001400291ECD00397194652
:100200005B6803261F46049637407E1E012E13D8D6
:10021000049EAE40079A9268B243CE68AE40164341
:10022000079A9660DA06D20F059B9A40079B5B6897
:1002300083431343079A5360032F0B46049E1ED03B
:100240003046A840079AD26882439868A840104375
:10025000079AD060022F12D11C20069A10400F2658
:100260008640059AD2089200079B9A18136AB343F6
:100270000E6986401E430B461662049E079A30465E
:10028000A84011688143586882033040A840084361
:1002900007990860900F079A039F9CD01821394056
:1002A0000F208840059FB7431F4EF619376E8743CE
:1002B00060360520000782420AD01D48824205D0E0
:1002C0001C488242009804D1022002E0012000E094
:1002D0000020884038433060144800685E68F103AD
:1002E00002D5029F384301E0029FB8430F490860DE
:1002F0004868B10301D5384300E0B8430B49486072
:1003000009480068F10201D5384300E0B8430649C6
:1003100008604868B10200D559E7B84358E708B00B
:10032000F0BDC046000C005000180240801802408A
:10033000000400500008005042690B4693430A40F5
:100340001104C91881617047002A02D01822815017
:100350007047282281507047054800687047C046A2
:100360001E48007802490A68101808607047C046A5
:10037000A000002010B501242002F0490A680243C1
:100380000A60032000F00AF8002801D0204610BDC2
:1003900000F026F80024204610BDC046B0B5054642
:1003A0000E4801780124002916D07D20C000FFF7F7
:1003B000B1FE0146E7480068FFF7ACFE00F040FCE4
:1003C000032D09D8002807D10024E04329462246FE
:1003D00000F01CF8DC4805602046B0BD0800002095
:1003E00082B00948416801221143416041681140CF
:1003F00001910199110702680A43026000680840F0
:100400000090009802B070473C10024080B501F0A7
:100410002FF880BDF0B581B0032569026C4E3268BB
:100420008A430243326001214A020024904212D1E1
:10043000C8480268706940050DD58F0206205043F8
:100440000649FFF767FE801C401E03D071693942E0
:10045000FAD100E02C46204601B0F0BD40420F002A
:10046000F0B587B0064680788007584F01D4002544
:1004700069E0059601221107203F38680840049082
:1004800006D13868084338603868084006900698F6
:1004900002970391019216024D4C20683043206070
:1004A000FFF75AFF05462768374006D1FFF754FF8C
:1004B000401B0328F7D3032500E00025059E002FED
:1004C0000DD003242102414F3868084009D07269D9
:1004D00090420AD1C00715D1002D2CD123E03B4F0B
:1004E00029E00020C007F7D00CE03868019A120418
:1004F0003B6813433B603B6893433B6088433860F1
:10050000C007E9D00194FFF727FF0646314C386851
:10051000800705D4FFF720FF801BA042F7D3019D81
:10052000059E002D07D103200002396881437069C0
:100530000843386000250498002804D1029A106806
:100540000399884310603068C10707D039460839DD
:100550000A6803239A43736813430B600595810669
:1005600008D5032109033A46083A13688B43B1685A
:10057000194311600121420412D53A46083A136822
:10058000154C23403546366933431360621C96424E
:100590002E4605D10A043B46503B1C6814431C60A0
:1005A000000510D58803032292033B46083B1C68D4
:1005B0009443F26814431C60824204D10804503F03
:1005C000396801433960059807B0F0BD5C100240FE
:1005D0000070004089130000FFFFFF3FF0B583B0BB
:1005E0000D460121002800D1A5E001910290534859
:1005F000006807242040A84214D250490868A0434C
:10060000284308604E4EFFF7A7FE07464B48006898
:100610002040A84206D0FFF79FFEC01BB042F5D98C
:10062000032188E0029B18688107734E0CD54107AF
:1006300003D5210332680A4332600F210902326870
:100640008A43996811433160C00719D13B4800685B
:100650002040A84229D939490868A04328430860A6
:10066000374FFFF779FE0646344800682040A8421D
:100670001BD0FFF771FE801BB842F5D903215AE069
:10068000586803282FD8810001A251585A4A8F4632
:10069000A1060008ED060008F7060008010700089B
:1006A00011460839096849052CE0029A107840077C
:1006B000514D05D5200329688143D068084328603F
:1006C00000F05CF8296889093C220A401D498958D4
:1006D0001F220A40D0401F4908601B480068FFF7EE
:1006E0005DFE014627E0444A516D0AE01146083993
:1006F0000968890306E0114608390968890101E0A3
:10070000916D8907019916D51168A14301431160C4
:100710000B4FFFF721FE064637480068382101409D
:1007200002984068C000814290D0FFF715FE801B00
:10073000B842F1D90321084603B0F0BD00200240C1
:1007400088130000741500080C00002001480068A0
:100750007047C0460400002010B5FFF7F7FF0446BD
:1007600000F0BAFB000B8000034908581F2101402C
:10077000CC40204610BDC046B415000810B51E4C34
:1007800020688006400F06D0226838210A401B48A6
:10079000082A07D110BD083C20688004410F184882
:1007A000C84010BD22680A40102A15D16168032292
:1007B0000A40032A00D0124861684906490F491CC3
:1007C000FFF7A8FC61684904490E48436168490F76
:1007D000491CFFF79FFC10BD20680840202802D16B
:1007E0000120C00310BD20680840182801D0002057
:1007F00010BD7D20000210BD0810024000127A00DA
:100800000024F400F0B587B00127002800D1C4E12E
:10081000049705900078C007FD4E2CD1059800780C
:1008200080074CD40598007800070DD5B0683821B2
:100830000140182900D0A6E0306E800704D5059845
:100840008069002800D1E7E105980078400700D4CE
:100850005EE1B06838210140202900D0A9E0F06DA8
:10086000800700D451E105988068002800D04CE151
:10087000002001274AE1B068F16803273A468A431D
:100880003821014010204840821850425041082928
:1008900045D0002843D105984268052000048242D3
:1008A000039200D1A6E0012001048A4200D1A7E012
:1008B00032688A433260810430688843A2E0B168BC
:1008C0003820084010214140F26803273A400223B3
:1008D0005340CA185142514100282BD0002929D138
:1008E000306801218C02059BDA68002A00D1A6E05D
:1008F0000722D20290431A6902433260080231682B
:1009000001433160FFF728FD05463068204200D0E2
:10091000A5E0FFF721FD401B0228F6D93DE1306834
:10092000800300D47AE705984068002800D075E776
:10093000049F32E131684905059B03D5D968002938
:1009400000D1A7E07F21090272688A435969090230
:100950001143716000280DD10720C0023168814326
:1009600018690843306030688004400FAD49C140C9
:10097000AD480160AD480068FFF710FD002800D1C8
:1009800050E7049F09E1306E05998969002970D00C
:10099000012108433066FFF7DFFC0546306E800713
:1009A00000D551E7FFF7D8FC401B03270228F5D9F3
:1009B000F3E0012003900107F06B0840029006D19C
:1009C000F06B0843F063F06B0840069006980191C5
:1009D000974F3868C0055FD505988768052F6CD09C
:1009E000012F6ED0F06D03998843F065F06D0421FE
:1009F000884369E00120810432680A4332600104BF
:100A000030680843306001204404FFF7A5FC054628
:100A1000039800280FD03068204200D0FEE6FFF790
:100A20009BFC401B6428F6D9B7E0FFF795FC401B00
:100A3000642800D9B1E030682042F6D1EEE6090220
:100A400088433060FFF788FC05463068204200D1BB
:100A5000E8E6FFF781FC401B0228F6D99DE07F20E5
:100A60000002716881430598406900020843706084
:100A7000D8E6012188433066FFF76EFC0546306EEC
:100A8000800700D4E0E6FFF767FC401B032702283D
:100A9000F5D982E0049F80E003980402386820437F
:100AA0003860FFF759FC05463868204294D1FFF7BB
:100AB00053FC401B0228F7D915E0F06D04210143D7
:100AC000F165F06D03990843F0655A4CFFF744FC5B
:100AD0000546002F0FD0F06D80070FD4FFF73CFCC8
:100AE000401BA042F7D9002003270FE0FFF734FC9A
:100AF000401BA042F7D8F06D8007F7D40298002879
:100B000003D1F06B01998843F0630120002844D0A1
:100B10000598C06900283FD0B16838220A40102AE1
:100B200003D1012818D1049F37E001221306316850
:100B300099433160022833D1039304925406FFF79E
:100B40000BFC0546306820423FD0FFF705FC401BF8
:100B500003270228F6D920E0F06803210140059B15
:100B60001A6A914256D1702101405A6A914255D178
:100B70007F21090201409A6A1202914250D11F213D
:100B800049040140DA6A9142049F06D107214907CE
:100B90000840196B884200D10027F8B207B0F0BDB9
:100BA000F0680327B843F060F06823490140F16022
:100BB0005506FFF7D1FB044630682842ECD0FFF71A
:100BC000CBFB001B0228F7D9E7E7F0681B4901407F
:100BD000059F2037ADCF0843104319020143294335
:100BE0003943F16030680399084330600498000786
:100BF000F1680143F160FFF7AFFB05463068204222
:100C0000CAD1FFF7A9FB401B03270228F6D9C4E786
:100C100000100240049FC0E7049FBEE7049FBCE7AA
:100C2000049FBAE70024F400040000200C00002018
:100C30000070004088130000FFFFFEEF8C80C11F92
:100C400080B500F0B7F980BDB0B58021415C0129C5
:100C500001D10220B0BD02468032242151600168DA
:100C60000B680C680125AC430C606C07A3430B6058
:100C7000002141661170202050600846B0BD70B55B
:100C800004468020205C012801D1022070BD254649
:100C900080352420686020680668026801239A4332
:100CA00002602B7007225206836893430B438360D4
:100CB000204600F0D9F92068066000202870202125
:100CC000696070BD70B504468020205C012801D1A8
:100CD000022070BD254680352420686020680668A3
:100CE000026801239A4302602B700722520783682F
:100CF00093430B438360204600F0B6F920680660FA
:100D0000002028702021696070BDB0B5002830D067
:100D10000446054680356868002804D10020287004
:100D2000204600F029F82420686020680168012529
:100D3000A9430160204600F05DFA012817D0A06A9F
:100D4000002802D0204600F0B3F90920C002216833
:100D50004A6882434A6088682A229043886008680B
:100D6000012202430A60204600F00CFA054628469C
:100D7000B0BD0120B0BD000010B586B000210591C6
:100D800004910391029101910068874A904201D039
:100D900006B010BD6948C36801220592940323433D
:100DA000C360C36823400093009B03681343036040
:100DB00000681040009004910391022002900320EB
:100DC0004002019005200007009901A9FFF7E8F90A
:100DD00006B010BDF0B587B00E46074684203958DE
:100DE0000220202935D10125002E33D00492002A7B
:100DF00030D001210C03BA68A24204D13A69002A1A
:100E000001D1F20761D103943C4680342278012A53
:100E100005461FD0059322463C4654340025D56034
:100E20001170212002925060FFF796FA0690049804
:100E300060802080B868039988420ED13869002804
:100E40000496059901D000220492002807D1064695
:100E500005E00546284607B0F0BD049505990298BF
:100E6000057007E0307839688862761C05996088DB
:100E7000401E60806088002815D0009180210025E8
:100E800038462A46069B00F07BFA002817D1002E30
:100E9000E8D1049A10880E49084039688862921C8B
:100EA00004922E46E2E700914021002538462A466A
:100EB000069B00F065FA002803D00325CAE7032546
:100EC000C8E7202002994860C4E70D46C2E7C04643
:100ED000FF010000FEE70000072001030148006851
:100EE0000840704708100240F0B587B0002406940F
:100EF0000594049403940294104801680422114359
:100F0000016001681140019101990168012739438D
:100F1000016000683840019001987D03084E30461A
:100F200029462246FFF710FA059404940397029588
:100F300002A93046FFF734F907B0F0BD3410024083
:100F40000008005010B5174800210C22164B016212
:100F500041628162E124640218C0016041608160E5
:100F6000C260016141610838FFF7CFFE002801D05F
:100F7000FFF702F90B480021FFF7A4FE002801D07B
:100F8000FFF7FAF807480021FFF779FE002801D0A3
:100F9000FFF7F2F80348FFF757FE002801D0FFF7EC
:100FA000EBF810BD1000002000380140FEE770474C
:100FB00070470000B0B5401E010E01D00120B0BD49
:100FC000054D68600024E043032100F051FAAC6055
:100FD000072028602046B0BD10E000E080B5FFF794
:100FE000BFF980BDF0B597B00AAC34212046FFF7B9
:100FF00086F80026099608960796069605960496A2
:10100000039602960196009601277802FFF702FAEE
:1010100078071690780415900820149013960225EE
:101020001295119540200F900E9638020D900A955A
:101030002046FFF7E7FB002813D109960896072002
:101040000690079506A82946FFF7C8FA002808D198
:10105000019600976846FFF703FA002801D117B000
:10106000F0BDFFF789F87047F0B581B004466834E9
:10107000416E002913D0006885688068400F0A4ED1
:10108000315C0A4F385CC000FFF744F860802801EB
:10109000400F315C385CC000FFF73CF801E00120F4
:1010A0006080208001B0F0BDF4150008EC15000848
:1010B000B0B5816ACA070CD18A0714D44A071CD478
:1010C0000A0724D4CA062CD48A0634D44A063CD44F
:1010D0004CE00122520403685C689443C26A2243D4
:1010E0005A608A07EAD50122120403685C689443B7
:1010F000026B22435A604A07E2D501229204036838
:101100005C689443426B22435A600A07DAD5012295
:10111000D20303685C689443826B22435A60CA0618
:10112000D2D50122120303689C689443C26B224308
:101130009A608A06CAD50122520303689C689443C8
:10114000026C22439A604A0610D5012213050268F8
:1011500054689C43456C2C4354609D4206D1032344
:101160005B0554689C43836C23435360090607D591
:101170000121C904026853688B43C06C1843506056
:10118000B0BD000070B582B005468C2000242C5004
:10119000FFF7E2F806462868006800070CD51448F7
:1011A00000900120410500222846334600F0E8F86F
:1011B000002801D0032417E02868006840070CD5F8
:1011C0000B4800900120810500222846334600F09C
:1011D000D7F8002801D0032406E0284680302021DB
:1011E000416081600470EC66204602B070BDC0466C
:1011F000FFFFFF01F0B581B0044600680168534A63
:101200000A40A16823690B4365691D43E1690D43E9
:10121000154305600322120343689343E2681A43AF
:101220004260A269236A13438268494D15401D43F9
:101230008560C26A0F239A43636A1343C362454AB7
:10124000904209D0444A904208D14448006880073F
:10125000000F43A2135802E0002300E010232646AB
:1012600068360125EA034248914211D1082B21D862
:101270000027C0467B441B795B009F44041B221B54
:10128000201B1B1B3A00FFF767FA00281BD133E035
:10129000082B33D80027C0467B441B795B009F4452
:1012A000042D342D322D2D2D4800FFF755FA00283E
:1012B0002DD141E000200127002804D11CE0FFF7D8
:1012C0005DFA002818D0616A49002A4A515AFEF78F
:1012D00021FF400061684A081018FEF71BFF2649ED
:1012E00001402AD00007400F08432168C8603D46EE
:1012F00023E010460028E6D13D461EE000200127ED
:10130000002804D118E0FFF739FA002814D0616AE8
:101310004900184A515AFEF7FDFE61684A08101844
:10132000FEF7F8FE80B2102807D32168C8603D465A
:1013300003E010460028EAD13D4610483060002006
:1013400020676067284601B0F0BDC046F369FFCF53
:10135000FFF4FF11004400400038014054100240E7
:10136000000000000400000002000000080000006F
:101370000024F400D4150008F0FF00000100010073
:10138000F0B585B004930D4604460068C069084076
:10139000401A414241410020914246D117460290F5
:1013A0002046803001900A9E01200090C0020390E8
:1013B00007E02068C0692840401B41424141B942D2
:1013C00032D1701CF5D0FEF7C7FF002E2FD0049944
:1013D000401AB0422BD8206801684907E9D5C16995
:1013E000039A1142E5D003990162EFF31080009D4A
:1013F00085F310880D214901226813688B4313601F
:1014000080F31088EFF3108085F3108821688A68D4
:10141000AA438A6080F310882020019A506090606F
:1014200000211170D0601FE0029805B0F0BDEFF30D
:101430001080009D85F310880D21490122681368F2
:101440008B43136080F31088EFF3108085F31088CE
:1014500021688A68AA438A6080F310882020019A54
:101460005060002111709060032005B0F0BD0000B5
:10147000002805D40322034693430C4A9A1806E039
:101480000F220240083A03239A43074BD2188007E1
:10149000C00E8901C9B28140FF2383401068984380
:1014A000084310607047C0461CED00E000E400E017
:1014B00080B582B001907D20C300044801A90122BB
:1014C000FFF788FC019802B080BDC04610000020E4
:1014D000FEF750FFFFF786FDFFF706FDFFF732FD31
:1014E00007A4134D204600F035F87D20C000FEF71C
:1014F00047FE012041032846FEF71EFFF2E7C046E3
:10150000494F20496D70756C73652053544D3332CB
:1015100047303330433854782075736172742070CB
:1015200072696E746620746573742E2E2E0D000021
:101530000008005002E008C8121F08C1002AFAD1B2
:1015400070477047002001E001C1121F002AFBD143
:101550007047000010B5044601E0FFF7A9FF2078AE
:10156000641C03490028F8D10A20FFF7A1FF10BD31
:10157000000000200000000000000000000000004B
:10158000000000000000000000000000000000005B
:101590000000000001000000020000000300000045
:1015A0000400000006000000070000000800000022
:1015B0000900000000000000000000000000000022
:1015C0000000000001000000020000000300000015
:1015D00004000000010002000400060008000A00E8
:1015E0000C001000200040008000000101010103F8
:1015F0000701000008040204080101012016000888
:10160000000000201000000034150008301600080B
:10161000100000209804000044150008000000009D
:10162000000000000024F40001000000040000009D
:04000005080000C12E
:00000001FF
