:020000040800F2
:1000000048120020D5000008C1140008BD130008E4
:1000100000000000000000000000000000000000E0
:10002000000000000000000000000000151500089E
:100030000000000000000000D1140008191500089D
:10004000E700000800000000E7000008E7000008E3
:10005000E7000008E7000008E7000008E7000008E4
:1000600000000000E7000008E7000008E7000008C3
:10007000E7000008D1150008E700000800000000B4
:10008000E70000080000000000000000E700000892
:1000900000000000E7000008E7000008E700000893
:1000A000E7000008E7000008E7000008E700000894
:1000B000E700000800000000000000000000000051
:1000C0000348854600F046F8004800476D190008CF
:1000D000481200200448804704480047FEE7FEE736
:1000E000FEE7FEE7FEE7FEE7CD150008C1000008C9
:1000F000D2B201E00270401C491EFBD270470022C0
:10010000F6E710B513460A4604461946FFF7F0FF16
:10011000204610BD70B50446002903D000202022DF
:10012000012310E0002801D00020C043C046C04693
:100130000DE02546D5408D4205D30D469540641B04
:100140001D46954040191546521E002DF1DC2146F2
:1001500070BD0000064C0125064E05E0E36807CCA3
:100160002B430C3C98471034B442F7D3FFF7ACFF55
:10017000C8240008E8240008EFF3108072B6FEE7F8
:10018000F0B58CB00B916A4A904201D0052200E094
:10019000032200920B990F68002F00D1C6E00123C3
:1001A000002635460293099608960A9013E03A43D2
:1001B000604842600A980B9A17683A46DA40361D42
:1001C00008355B1C0999891C09910899491C0891FB
:1001D000002A00D1AAE0591E029C07918C402740BA
:1001E000E9D0069505960B9A516803260D463540D1
:1001F0006A1E012A04911BD8032209998A400A9891
:10020000806890430B9EF6688E4006430A9886608D
:100210000498C006C00F079988400A9E7668A643D6
:1002200006430A984660D4430A98089949000BE0AF
:10023000324609998A40D443032D05D10999039187
:100240003546059E049923E0C268019422400B9C28
:10025000A4688C401443C460022D039115D11C2066
:10026000059E30400F2282400799CC08A4000A9DC9
:100270002C19256A95430B990A6982402A43226208
:100280000A98496803250D4001E0059E0499019CE8
:10029000039A9540026822402A4302608A03920F23
:1002A000069D88D0182028400F25854003220799F5
:1002B00091430A9A1F4C6618346EAC43603605258C
:1002C0002D07AA4208D01D4DAA4207D01C4DAA42B4
:1002D000009D04D1022502E0002500E001258540B3
:1002E00025433560144802680B984068C40301D563
:1002F0003A4300E0BA43059E069D0F4C22606268B7
:10030000840301D53A4300E0BA430B4C6260094ACA
:100310001268C40201D53A4300E0BA43054C22609A
:100320006268800200D542E7BA4341E70CB0F0BDF5
:10033000000C0050001802408018024000040050D9
:100340000008005042690B4693430A401104C91843
:1003500081617047002A02D01822815070472822FC
:1003600081507047064800687047C04603480078CF
:1003700003490A68101808607047C0460000002052
:10038000400E002010B50124200208490A680243EB
:100390000A60032000F00CF8002801D0204610BDB0
:1003A00000F046F80024204610BDC0460020024060
:1003B00070B586B001460D24002520462A4600F07F
:1003C0005FF8204600F050F80124E00214490A6862
:1003D00002430A60096801400291029802A801A93B
:1003E00000F066FA00F07CFA0E4E0F490F4A3260B8
:1003F000B560F16035615049FFF78CFE401E7060BA
:10040000304600F0DBFC002802D0204606B070BD6C
:10041000044800F03BFD0446204606B070BDC046CF
:1004200040100240D8000020E7030000002C0140EB
:1004300080B582B00B494A68012002434A604A688D
:1004400002400192019A02070B6813430B6009688E
:10045000114000910099C0430321002200F010F8E0
:1004600002B080BD3C100240002805D41F21084086
:1004700001218140014801607047C04600E100E071
:10048000002805D40322034693430C4A9A1806E039
:100490000F220240083A03239A43074BD2188007E1
:1004A000C00E8901C9B28140FF2383401068984380
:1004B000084310607047C0461CED00E000E400E017
:1004C000F0B581B0032569021A4E3246143A13681A
:1004D0008B4303431360012461020022884226D12A
:1004E000F14801683068400521D50092A702062036
:1004F00048431149FFF70EFE201A022816D0316832
:1005000039420FD0012811D0316839420AD0002871
:100510000CD03168394205D0001D032806D031685F
:100520003942EAD1009A104601B0F0BD2A46104681
:1005300001B0F0BD1470004040420F00F0B587B02C
:1005400081788907584F01D4002650E00590012397
:1005500019073A46203A10680840049006D11068FE
:1005600008431060106808400690069802920391B4
:1005700001931E024D4C206830432060FFF7F2FECD
:100580000546206830420AD1FFF7ECFE401B0228E6
:10059000F7D9032605980499002923D027E00320E2
:1005A000054601023868084011D00599496988421A
:1005B0000BD03868019909043A680A433A603A68EE
:1005C0008A433A603A4908403860C0075AD13A68CD
:1005D0003748024005984169114339600026049963
:1005E000002904D1029B1968039A91431960056898
:1005F000E90705D1A9060DD401216A0416D42BE020
:10060000394608390A6803239A43436813430B6049
:10061000A906F1D5032109033A46083A13688B432A
:1006200081681943116001216A0415D53A46083AD8
:100630001368204C23400C4631460669334313604F
:100640001C4A521C96420E46214605D10A043B46DE
:10065000503B1C6814431C602A0510D58D030322EF
:1006600092033B46083B1C689443C26814431C60D9
:10067000AA4204D10804503F39680143396030462A
:1006800007B0F0BDFFF76EFE0646854C3868800760
:100690009DD4FFF767FE801BA042F7D905982E4630
:1006A000049900299ED0A2E75C100240007000402F
:1006B000FFFCFFFFFFFFFF3FF0B583B00D460121B8
:1006C00000281BD001910290844800680724204034
:1006D000A84216D281490868A04328430860704E9A
:1006E000FFF740FE07467D4800682040A84208D03A
:1006F000FFF738FEC01BB042F5D90321084603B00E
:10070000F0BD029E306881079D4B0CD5410703D593
:1007100021031A680A431A600F2109021A688A43E2
:10072000B16811431960C0071BD16C4800682040B4
:10073000A8422CD969490868A04328430860584F4B
:10074000FFF710FE0646654800682040A8421ED00C
:10075000FFF708FE801BB842F5D90321084603B015
:10076000F0BD0298406803285DD8810001A251586D
:100770008F46C046850700082B080008350800088A
:100780003F080008194608390968490559E0029AE6
:10079000107840077A4B05D5200319688143D0684B
:1007A0000843186018688006400F22D01A68382164
:1007B0000A407448082A23D01A680A40102A5ED1D9
:1007C000596803220A40032A00D06F485968490635
:1007D000490F491CFFF79EFC694949684904490EC5
:1007E000484367494968490F491CFFF793FC644B2C
:1007F00006E01846083800688004410F6248C84087
:10080000196889093C220A40264989581F220A4052
:10081000D0403A49086025480068FFF7C9FD014605
:10082000084603B0F0BD596D0AE019460839096859
:10083000890306E0194608390968890101E0996DC4
:100840008907019900D459E71968A1430143196048
:10085000134FFFF787FD06464948006838210140DD
:1008600002984068C000814200D15EE7FFF77AFD40
:10087000801BB842F0D90321084603B0F0BD1868C8
:100880000840202802D10120C003B9E718680840B9
:10089000182801D00020B3E77D200002B0E7C04651
:1008A0008813000030240008080000200400002005
:1008B000B0B507220260324B1C68144044600F241C
:1008C00024021D682540856014031B682340C36013
:1008D0000248006810400860B0BDC04600200240D9
:1008E0000648006826490968890A1C220A4004490A
:1008F00089581F220A40D0407047C0460800002097
:100900007024000810B51E4C20688006400F06D0E9
:10091000226838210A401B48082A07D110BD083C2C
:1009200020688004410F1848C84010BD22680A4062
:10093000102A15D1616803220A40032A00D0124808
:1009400061684906490F491CFFF7E4FB61684904E7
:10095000490E48436168490F491CFFF7DBFB10BD96
:1009600020680840202802D10120C00310BD206863
:100970000840182801D0002010BD7D20000210BDC5
:100980000810024000127A000024F400F0B587B08D
:100990000125002800D1F9E1049505900078C007F1
:1009A000FC4F2AD0B868F96803252A468A433821C3
:1009B000014010204840821850425041082914D06C
:1009C000002812D105984268012001048A4208D00B
:1009D00005231B049A4200D0DAE082043B681343EB
:1009E0003B603A680A433A60DBE03868800304D52C
:1009F00005984068002800D176E1059800788007C6
:100A000023D40598007800070CD5B8683821014038
:100A1000182971D1386E800704D50598806900289F
:100A200000D161E1059A1078400700D42EE1B86842
:100A300038210140202974D1F86D800700D425E1C8
:100A40009068002800D021E14EE1B96838200840C4
:100A500010214140FA6803252A4002235340CA1856
:100A600051425141002820D000291ED13868059AF2
:100A7000D168002900D1A2E00721C9028843116989
:100A800001433960012001023A680A433A60840256
:100A9000FFF768FC06463868204200D0A1E0FFF767
:100AA00061FC801B0228F6D970E139684905059B75
:100AB00003D5D968002900D116E17F2109027A689F
:100AC0008A43596909021143796000280DD1072032
:100AD000C002396881431869084338603868800467
:100AE000400FAD49C140AD480160AD480068FFF717
:100AF0005FFC002885D0F7E0386E059989690029E8
:100B000079D0012108433866FFF72CFC0646386E81
:100B1000800787D4FFF726FC801B03250228F6D91F
:100B200034E1012003900107F86B0840029006D1E0
:100B3000F86B0843F863F86B08400690069801913B
:100B400098480068C00513D40398040295490868C2
:100B500020430860FFF706FC0646924800682042E2
:100B600006D1FFF7FFFB801B03250228F5D90DE115
:100B7000059880688C4C012805D005285AD1F86D5D
:100B800004210143F965F86D03990843F8655BE0BA
:100B90003B688B433B6081043B688B433B60002A8E
:100BA0003AD04404FFF7DEFB06463868204200D006
:100BB00023E7FFF7D7FB801B6428F6D9E6E0012185
:100BC0000A02904338608C02FFF7CCFB0646386877
:100BD000204200D115E7FFF7C5FB801B0228F6D99C
:100BE000D4E07F20000279688143059840690002C3
:100BF0000843786005E7012188433866FFF7B2FBB8
:100C00000646386E800700D40CE7FFF7ABFB801B6D
:100C100003250228F5D9B9E04404FFF7A3FB0646F3
:100C20003868204200D1E8E6FFF79CFB801B64286F
:100C3000F6D9ABE0F96D039A9143F965F96D042299
:100C40009143F96500280CD0FFF78CFB0646F86D40
:100C5000800713D4FFF786FB801B0325A042F6D93B
:100C600094E0FFF77FFB0646F86D800706D5FFF797
:100C700079FB801B0325A042F6D987E00298002863
:100C8000059A03D1F86B01998843F863D06900286D
:100C900026D0B96838220A40102A29D1012823D049
:100CA000F86803210140059B1A6A91421CD170210A
:100CB00001405A6A914217D17F21090201409A6A84
:100CC0001202914210D11F2149040140DA6A914277
:100CD000049D5BD1072149070840196B884255D113
:100CE0000025284607B0F0BD049D284607B0F0BD9A
:100CF0000122130639689943396002280FD1039302
:100D000004925406FFF72EFB0646386820421BD09B
:100D1000FFF728FB801B03250228F6D936E0F86888
:100D20000325A843F860F86820490140F960560699
:100D3000FFF718FB044638683042D1D0FFF712FBAA
:100D4000001B0228F7D921E0F86819490140059EE7
:100D500020366DCE08431043190201432943314325
:100D6000F960386803990843386004980007F96807
:100D70000143F960FFF7F6FA064638682042AFD122
:100D8000FFF7F0FA801B03250228F6D9284607B0A2
:100D9000F0BDC046001002400024F400080000200E
:100DA000040000200070004088130000FFFFFEEFE9
:100DB0008C80C11F7047704770470000B0B5002895
:100DC00024D0044605463C356878002804D100202C
:100DD0002870204600F058F80220687020680368E8
:100DE0009F49884202D03C4A904211D170229343DD
:100DF000A2681A43204B98420EDD884212D01F4B46
:100E000098420FD01E4B98420CD033E00120B0BD69
:100E10001A46194B9842F0DC2F4B984202D0194BDE
:100E2000984227D103231B029A432369134380224C
:100E30009343A2691A430260E268C26262688262F6
:100E4000884205D00D49884202D00D49884201D11F
:100E500061690163012141612973A970E9702971F8
:100E60006971A971E97129726972A972E97269706F
:100E70000020B0BD1346DAE7FF2B014000480140D7
:100E800000440140002000407047000010B53D21A3
:100E9000415C012918D101463D3102220A700168E6
:100EA000C86801221043C8606D48814202D00A48D8
:100EB00081420BD18868094B03400020062B02D0E9
:100EC0001404A34202D110BD012010BD08681043D4
:100ED0000860002010BDC04600040040070001006B
:100EE00070470000B0B50446006801698907554D98
:100EF00017D5C168890714D52946FE310161012142
:100F000021778069800703D02046FFF7E9FF05E0DD
:100F1000204600F099F8204600F097F8002020774E
:100F200020680169490718D5C168490715D52946C0
:100F3000FC3101610221217780698005800F03D097
:100F40002046FFF7CDFF05E0204600F07DF8204663
:100F500000F07BF80020207720680169090717D589
:100F6000C168090714D52946F831016104212177A8
:100F7000C069800703D02046FFF7B2FF05E0204696
:100F800000F062F8204600F060F80020207720682A
:100F90000169C90618D5C168C90615D52946F031B9
:100FA000016108212177C0698005800F03D02046A8
:100FB000FFF796FF05E0204600F046F8204600F0D7
:100FC00044F80020207720680169C90709D0C1686A
:100FD000C90706D02946FF310161204600F036F8E6
:100FE00020680169090609D5C168090606D52946A0
:100FF000803101612046FFF7DEFE20680169C905E6
:1010000007D5C168090604D505612046FFF7D2FE61
:1010100020680169490609D5C168490606D52946EF
:10102000C0310161204600F01DF820680169890681
:1010300007D5C168890604D5E03505612046FFF76C
:10104000BBFEB0BDFFFEFFFF7047704780B5006874
:101050000349884200D080BDFFF788F980BDC046B3
:10106000002C01407047B0B58021415C012901D1BD
:101070000220B0BD024680322421516001680B6815
:101080000C680125AC430C606C07A3430B60002186
:1010900041661170202050600846B0BDF0B581B0A7
:1010A0008022825C012A02D1022001B0F0BD0546F7
:1010B00068352422EA610668376832680124A24351
:1010C000326007225206B36893430B43B360406E0D
:1010D0000028204615D00097B768B068400F2B490C
:1010E000095C2B4A105CC000FFF714F80446380175
:1010F000009F400F2549095C254A105CC000FFF79E
:1011000009F828806C803760002028762021E9616A
:1011100001B0F0BDF0B581B08022825C012A02D11D
:10112000022001B0F0BD054668352422EA61066858
:10113000376832680124A243326007225207B3683D
:1011400093430B43B360406E0028204615D00097B0
:10115000B768B068400F0D49095C0D4A105CC000CB
:10116000FEF7D8FF04463801009F400F0749095C8D
:10117000074A105CC000FEF7CDFF28806C80376006
:10118000002028762021E96101B0F0BDB0240008DC
:10119000A8240008F0B583B0002841D004460746D3
:1011A00080377868002804D100203870204600F08D
:1011B00057F824207860206801680125A943016060
:1011C000204600F077FA012827D0A06A002802D034
:1011D000204600F005FA0920C00221684A688243CF
:1011E0004A6088682A229043886008680126304354
:1011F00008600025FD60FFF7B5F803462068016828
:10120000090713D515480090710500222046029366
:1012100000F002FB002807D00325284603B0F0BDEC
:101220000125284603B0F0BD2068029B00684007F6
:101230000CD50A480090B1050022204600F0ECFAD7
:10124000002803D00325284603B0F0BD2020786095
:10125000B8603D70E566284603B0F0BDFFFFFF01B2
:1012600080B586B000689549884201D006B080BD3F
:101270007748C268012105918B031A43C260C26896
:101280001A400092009A02680A430260006808400F
:10129000009000200490039002200290032040025E
:1012A000019005200007009901A9FEF769FF06B02B
:1012B00080BDC046F0B587B00E4604468420215854
:1012C0000220202911D10125002E19D00492002AD4
:1012D00016D001210D03A268AA420AD1F20708D054
:1012E0002269002A05D10D460AE00546284607B0C6
:1012F000F0BD0395274680373A78012A054602D18A
:10130000284607B0F0BD05933A46274654370025D6
:10131000D5601170212002925060FFF723F80690EB
:10132000049878803880A068039988420AD120699F
:101330000028049601D0002104910028059903D1CA
:10134000064601E004950599029805700CE0049AA0
:1013500010881949084021688862921C04922E4620
:1013600005997888401E78807888002810D00091F0
:101370008021002520462A46069B00F04DFA0028D1
:1013800010D1002EE3D0307821688862761CE7E720
:1013900000914021002520462A46069B00F03CFA99
:1013A000002803D00325284607B0F0BD202002996D
:1013B0004860284607B0F0BDFF010000FEE70000CE
:1013C000F0B58BB00C4906A8024618C918C238C936
:1013D00038C20024214600F0E3FA084D286008498D
:1013E00001A8024648C948C2C8C9C8C2214600F07F
:1013F000D7FA68600BB0F0BD1C2400081000002074
:1014000008240008F0B587B000240694104801684D
:1014100004221143016001681140019101990168A2
:1014200001273943016000683840019001987D032D
:10143000084E304629462246FEF78CFF0594049458
:101440000397029502A93046FEF79AFE07B0F0BD59
:10145000341002400008005010B5174800210C223B
:10146000E34B016241628162E124640218C00160C1
:1014700041608160C260016141610838FFF78AFE06
:10148000002801D0FEF778FE0B480021FFF742FE4E
:10149000002801D0FEF770FE07480021FFF7FEFD8F
:1014A000002801D0FEF768FE0348FFF7DCFD0028A6
:1014B00001D0FEF761FE10BD24010020003801407C
:1014C000FEE7000000000000000000000000000037
:1014D000EFF309800E4B1A6820381060F0C04446C4
:1014E0004D4656465F46F0C008B572B600F008FD9E
:1014F00062B60CBC116808681030F0C8A046A94656
:10150000B246BB4680F309882038F0C81847C04669
:10151000180000207047000010B500F075FB04466D
:1015200000F082FE002803D0012000070249086075
:10153000204600F0A6FB10BD04ED00E070B598B0A9
:101540000025119510950F950E950D950C95069506
:101550000595049503950295019501267002FEF705
:10156000AFFF70071790700416900820159014951F
:10157000022413941294402010900F9530020E9084
:101580000B940BA8FFF702FA002803D0EFF31080AA
:1015900072B6FEE70A95099507200790089407A8F8
:1015A0002146FFF789F8002803D0EFF3108072B6C8
:1015B000FEE70295019601A8FEF7C0FF002803D0C0
:1015C000EFF3108072B6FEE718B070BD70470000F0
:1015D00080B50248FFF786FC80BDC046D8000020D9
:1015E000B0B5816ACA070CD18A0714D44A071CD443
:1015F0000A0724D4CA062CD48A0634D44A063CD41A
:101600004CE00122520403685C689443C26A22439E
:101610005A608A07EAD50122120403685C68944381
:10162000026B22435A604A07E2D501229204036802
:101630005C689443426B22435A600A07DAD5012260
:10164000D20303685C689443826B22435A60CA06E3
:10165000D2D50122120303689C689443C26B2243D3
:101660009A608A06CAD50122520303689C68944393
:10167000026C22439A604A0610D5012213050268C3
:1016800054689C43456C2C4354609D4206D103230F
:101690005B0554689C43836C23435360090607D55C
:1016A0000121C904026853688B43C06C1843506021
:1016B000B0BD0000F0B581B0044600680168494B38
:1016C0000B40A16822690A4361691143E269114331
:1016D000194301600321090343688B43E1681943FF
:1016E0004160A169236A0B4381683F4D0D401D4352
:1016F0008560C36A0F218B43616A0B43C3623B4B16
:10170000984209D03A4B984208D13A48006880077D
:10171000000F39A31F5802E0002700E010272646DB
:1017200068360125EB0338489A4210D1082F50D86B
:101730007F443F797F00BF44044C234C1C4C4C4CED
:101740002200FFF7CDF8002817D0616A18E0082FB3
:101750003FD8C0467F443F797F00BF44043A2A3ACD
:10176000233A3A3A2900FFF7BBF800281ED0616AF5
:101770001FE0FFF7C7F80028E7D1002529E0184649
:101780004900224A515AFEF7C5FC400061684A08E8
:101790001018FEF7BFFC1E4901401AD00007400F89
:1017A000084313E0FFF7AEF80028E0D1002510E071
:1017B00018464900154A515AFEF7ACFC61684A08C0
:1017C0001018FEF7A7FC80B2102802D32168C86069
:1017D000002510483060002020676067284601B06F
:1017E000F0BDC046F369FFCFFFF4FF110044004095
:1017F00000380140541002400000000004000000C6
:1018000002000000080000000024F40090240008FA
:10181000F0FF000001000100F0B587B015460E464C
:1018200004460768F9693140891B4A424A41002051
:10183000AA4224D106930494224680320C9C002CA8
:101840001FD0611C44D1F9693140891B4A424A4189
:10185000AA4214D1F9693140891B4A424A41AA423D
:101860000DD1F9693140891B4A424A41AA4206D149
:10187000F9693140891B4A424A41AA42E3D007B084
:10188000F0BD0392FEF76EFD049FEFF3108101207F
:1018900080F310880D2252013B681C6894431C6041
:1018A00081F31088EFF3108180F310883A68936811
:1018B0008343936081F310882020039A5060104680
:1018C00008300021117020210160032007B0F0BD15
:1018D0000392029001200190C0020590049F06E04F
:1018E000C0693040801B41424141A9422DD1FEF7E1
:1018F00039FD0699401AA042C7D8386801684907DF
:10190000EED5C169059A1142EAD005990162EFF35B
:101910001080019C84F310880D2149013A681368F6
:101920008B43136080F31088EFF3108084F31088EA
:1019300039688A68A2438A6080F310882020039A5D
:101940005060906010460C30BBE7029807B0F0BDC5
:10195000054C012041032046FEF7F4FC4B2080009B
:1019600000F011F8F5E7C04600080050FEF70AFD48
:10197000FFF7E4FDFFF746FDFFF76EFDFFF720FDE3
:1019800000F009F8FEE780B5002800D1012000F042
:1019900055FA002080BD80B500F086FA002080BD99
:1019A00070B584B00B460446028A016840682589F8
:1019B00003AC01940024842D264607D1009600F044
:1019C00015FB012809D0204604B070BD2DB2EE1CD5
:1019D000009600F00BFB0128F5D1039C204604B0D3
:1019E00070BD0000104D114E14E000F085F9A86C98
:1019F000C468201D00F034F9E868401EE860A8685B
:101A0000401EA86000F082F9206B00F08DF920469E
:101A100000F08AF9A8680028E7D130680228F9D3D5
:101A200000F000FAF6E7C04618000020B4010020DC
:101A300081B000200090BB48006872B6401C09D0FD
:101A4000FEE70098002808D10098002805D10098EA
:101A5000002802D100980028F3D001B07047C0469A
:101A6000F0B583B0054600F045FA01200290C307A7
:101A7000D34A5068002808D010780028194600D1B1
:101A800001460024002D2AD194E001930023D36164
:101A90000720534F39460140C6431046FA1D3240D5
:101AA0000029144600D13C468461032080020029AD
:101AB00001D0B91A0818C24A2018083830405060BE
:101AC00003604360001B606051682160D0609060DB
:101AD00001201070019B19460024002D6AD0294076
:101AE00068D1680703D010350720854300E008352A
:101AF00069426941906800248542029800D82046D6
:101B0000014357D101931646183691694F68AF4289
:101B100007D20B68002B04D00E4619465F68AF420F
:101B2000F7D35068814245D0346808683060781B2C
:101B3000112829D34E19720701D072B6FEE77060E2
:101B40004D609F4D18352868B04204D20568B542F3
:101B50000746F8D301E02F46054678683A187368BF
:101B6000B24202D11B187B603E46954840682A1A53
:101B700050425041F218AA4225D00298002826D09F
:101B80003560B74200D03E604A688D4DA868801A23
:101B9000A860EB68984200D2E86028780028019B92
:101BA00000D1034608341A43002005C1844908695E
:101BB000401C086100F0AEFB600701D072B6FEE782
:101BC000204603B0F0BD029002980028D8D1686882
:101BD000C01870602D683560B742D4D1D4E7C046D4
:101BE000400200200346083B1960011F01231B0629
:101BF0000B6001460C39034B0B60014620390A602B
:101C000040387047311A0008EFF3108072B6704701
:101C100088B009A069463CC83CC13CC83CC10E4CD8
:101C20000E4D6946202220462B46FFF743FB7D20C0
:101C3000C000FFF7A8FEF4E74672656552544F53A3
:101C40002075736172745F74687265616420746575
:101C500073742E2E2E0D0A0024010020FFFF0000B9
:101C6000416882688A608268516001694B6883427A
:101C700000D14A600A68521E0A60002202610868A8
:101C8000704780F3108870470021016002460832D7
:101C9000C94342608160C2600261704700210161F6
:101CA0007047B0B50B685A1C0BD004460834626804
:101CB00015689D4208D8546825689D422546F6D986
:101CC00004E00269556801E015462246A9600861F2
:101CD0004D608A6051600168491C0160B0BD426876
:101CE00093684A608B60086103685B1C03609068BE
:101CF000416091607047000072B6BB480168491CA2
:101D00000160BFF34F8FBFF36F8F7047B648016814
:101D1000002903D0491E016002D0704772B6FEE769
:101D200062B670470C00002070B5002846D004460B
:101D3000234D2878411E8841C007261F316808427C
:101D400005D0083C2268002A03D072B6FEE772B6BE
:101D5000FEE78143316000F0CDF83168A868401893
:101D6000A860284618300368A3420BD21868A04226
:101D70001A46F8D35368D618A64209D0631883428E
:101D80000CD012E0024618465368D618A642F5D188
:101D9000C918516014466318834206D16B68984293
:101DA00003D043685918616000682060A24200D0E7
:101DB00014606869401C686100F0ACFA70BDC046F0
:101DC0009000002010B5074C00202060A0607D200E
:101DD000C10005480068FEF79DF9401E60600720BD
:101DE000206010BD10E000E00800002000000000AE
:101DF0000B4A13681868203080F30988022080F3AA
:101E00001488BFF36F8F3FBCAE4608BC04BC62B6FB
:101E10001847C046C046C046C046C046C046C04639
:101E2000180000200120000703490860BFF34F8F0E
:101E3000BFF36F8F7047C04604ED00E070B5002817
:101E40002ED00446F54D6869002801D072B6FEE731
:101E50006869401C6861AE692868001DFFF700FFD3
:101E600034192868446009D3286A2968091DFFF7D6
:101E700018FF00F04FFA00280CD111E0E86929683A
:101E8000091DFFF70EFFE86A844204D300F042FA0E
:101E9000002805D070BDEC6200F03CFA0028F9D1B2
:101EA000FFF7C0FF70BDC046B0B582B000240094FB
:101EB0000C4D2846283001900B480CA18022234667
:101EC00000F094F8411C0BD0012807D172B6E04312
:101ED000E86201202861AC6100F05AF802B0B0BDA0
:101EE00072B6FEE718000020E519000849444C4589
:101EF00000000000C9484169491C41617047C04663
:101F0000B0B5C6484169002902D001210163B0BDC6
:101F100000210163416A142214464C43C04B1D59F1
:101F2000002D0CD04A439B185A6852685A601C46D0
:101F30000834A2421CD0D26802604162B0BDE418ED
:101F4000503C00291BD0E56B002D1AD1012916D079
:101F5000A56A002D17D1022911D06569002D14D171
:101F600003290CD0091F2568503C002DE9D0D9E782
:101F70001B1D52681A60D26802604162B0BD72B621
:101F8000FEE7491ECEE7891ECCE7C91ECAE7C04658
:101F9000B0B582B0FF200104124A13680B431360EE
:101FA0000006116801431160FFF70CFF0E4C00257D
:101FB0002560FFF71DFFFFF7A3FF0195206872B6AC
:101FC000401C09D0FEE70198002808D1019800289C
:101FD00005D10198002802D101980028F3D00020F3
:101FE00002B0B0BD20ED00E00C000020F0B589B0DB
:101FF0001E460691079095002846FFF731FD0746DB
:102000000020C443002F6DD008905C20FFF728FD0E
:10201000002864D005960E99039104463434049048
:1020200006460763A52238462946FEF761F837467B
:10203000306B2818031F0725069A002A55D0107800
:1020400020701078002847D05078607050780028B1
:1020500042D09078A070907800283DD0D078E07081
:10206000D078002838D0107920711079002833D02A
:1020700050796071507900282ED09079A0719079B4
:10208000002829D0D079E071D079002824D0107AA6
:102090002072107A00281FD0507A6072507A00287F
:1020A0001AD0907AA072907A002815D0D07AE07277
:1020B000D07A002810D0107B2073107B00280BD022
:1020C000507B6073507B002806D0907BA073907B80
:1020D000002801D0D07BE0730898E07307E0384611
:1020E000FFF722FE204609B0F0BD08982070049A40
:1020F0000F9C0194164658360295AB4304933865FD
:10210000039C062C00D30624FC64FC62101D069080
:102110001546FFF7C3FD18352846FFF7BFFD0898A1
:10212000786502996140B96130707F623F610498BF
:102130000799059AFFF756FD38600198002800D0EE
:102140000760FFF7D9FDA64EF068401CF0603068CC
:10215000002809D0306900283DD1F86A3168C96A81
:10216000814238D8376036E03760F068012832D1D4
:102170009C4C2046FFF788FD20461430FFF784FD75
:1021800020462830FFF780FD20463C30FFF77CFDDD
:1021900020465030FFF778FD20466430FFF774FD8D
:1021A00078342046FFF770FD1E4C2046FFF76CFD8B
:1021B000254614352846FFF767FD30466430FFF7A3
:1021C00063FD30463C30FFF75FFD30465030FFF78F
:1021D0005BFDF46135627068401C78647060F86A79
:1021E000716A884200D97062142141437D484018C9
:1021F0000699FFF774FDFFF789FD30690124002877
:1022000000D16FE7F86A3168C96A814200D369E793
:10221000FFF708FE204609B0F0BDC04618000020B8
:10222000B4010020B0000020F0B583B06C4D6869A7
:10223000002805D0686B401C6863002003B0F0BD27
:10224000A869461CAE6118D3E8690068002801D06F
:1022500072B6FEE7E869296AE9612862A86B401C4A
:10226000A863E8690068002804D0E869C068C0680D
:10227000406801E00020C043E862E86A002286422C
:1022800037D3D143E8690068002831D0019100209C
:10229000029003E0E8690068002824D0E869C0687B
:1022A000C7687868864221D33C1D2046FFF7D8FCDA
:1022B000B86A002803D038461830FFF7D1FCF86A16
:1022C000696A884200D96862142141434548401830
:1022D0002146FFF704FDF86A2968C96A8842D9D304
:1022E00001200290D6E7029A019901E00146029A84
:1022F000E9622868C06A142141433A4840580121E4
:102300000128084600D810462A6B002A96D00846B5
:1023100003B0F0BDF0B581B0314E706900280DD02A
:10232000FFF7EAFC7069401E7061706900250028A3
:1023300006D0FFF7EBFC284601B0F0BD72B6FEE711
:10234000F0680028F5D0706E00282FD00095254F3A
:1023500002E0706E00281CD0306FC4682046183030
:10236000FFF77EFC251D2846FFF77AFCE06A716ABC
:10237000884200D970621421414378182946FFF73A
:10238000AEFCE06A3168C96A8842E2D3012030635A
:10239000DFE7F0690068002804D0F069C068C06811
:1023A000406801E00020C043009DF062746B002C87
:1023B00002D10AE0641E06D0FFF736FF0028F9D0EC
:1023C00001203063F6E700207063306B0028B0D046
:1023D000FFF728FD0125FFF799FC284601B0F0BD65
:1023E00018000020B401002002E008C8121F08C134
:1023F000002AFAD170477047002001E001C1121F86
:10240000002AFBD170470000B824000851190008C9
:10241000000000000000000080000000C024000850
:10242000111C0008000000000000000080000000F7
:10243000000000000000000000000000000000009C
:10244000000000000000000000000000000000008C
:102450000100000002000000030000000400000072
:10246000060000000700000008000000090000004E
:10247000000000000000000000000000000000005C
:102480000100000002000000030000000400000042
:10249000010002000400060008000A000C00100001
:1024A000200040008000000101010103070100003D
:1024B0000804020408010101746872656164310056
:1024C0007468726561643200E8240008000000202E
:1024D00010000000E8230008F82400081000002085
:1024E00038120000F823000801000000040000007A
:0824F0000024F400AAAAAAAA24
:04000005080000C12E
:00000001FF
