:020000040800F2
:10000000B811002051010008E10D00083F0D000863
:1000100000000000000000000000000000000000E0
:10002000000000000000000000000000E30D0008D8
:1000300000000000000000000F010008E50D0008AE
:10004000630100080000000063010008630100086C
:1000500063010008630100086301000863010008F0
:10006000000000006301000863010008630100084C
:1000700063010008750E000863010008000000001D
:100080006301000800000000000000006301000898
:10009000000000006301000863010008630100081C
:1000A00063010008630100086301000863010008A0
:1000B00063010008000000000000000000000000D4
:1000C0000448854600F08CF8004800476B0F000894
:1000D000C046C046B8110020084B19680868203097
:1000E00080F30988022080F31488BFF36F8F3FBC30
:1000F000AE4608BC04BC62B6184700001C000020D5
:10010000EFF3108072B6704780F310887047EFF3FA
:1001100009800E4B1A6820381060F0C044464D46E6
:1001200056465F46F0C008B572B601F03DFC62B6B7
:100130000CBC116808681030F0C8A046A946B24649
:10014000BB4680F309882038F0C818471C000020FF
:100150000448804704480047FEE7FEE7FEE7FEE765
:10016000FEE7FEE7710E0008C100000830B50B463F
:10017000014600202022012409E00D46D5409D4281
:1001800005D31D469540491B254695404019154607
:10019000521E002DF1DC30BD03460B439B0703D0FC
:1001A00009E008C9121F08C0042AFAD203E00B783C
:1001B0000370401C491C521EF9D27047D2B201E0B4
:1001C0000270401C491EFBD270470022F6E710B5B2
:1001D00013460A4604461946FFF7F0FF204610BDB5
:1001E000064C0125064E05E0E36807CC2B430C3C8A
:1001F00098471034B442F7D3FFF766FFBC220008DB
:10020000DC220008F0B50023032498E001259D407E
:100210002A407DD00E79B607B60F012E01D0022EEE
:1002200016D186682746B4465E00B646B740664695
:10023000BE43B446CF687646B740664637438760CC
:100240004668AE430D79ED06ED0F9D4035434560A0
:100250000D79ED43AD0708D0C5685F002646BE4066
:10026000B5438E68BE402E43C6600D79AD07AD0F15
:10027000022D0ED1DD08AD002D18AC462D6A5E07AB
:10028000F60E0F27B740BD430F69B7402F436546B1
:100290002F6205685F002646BE40B5430E79B6075B
:1002A000B60FBE402E4306604D68AD03AD0F45D07E
:1002B0009E08264DB6007519AC462D6E9E07F60EAB
:1002C0000F27B740BD4305273F07B84201D100279C
:1002D0000FE01F4FB84201D101270AE01D4FB8427D
:1002E00001D1022705E01C4FB84201D1032700E0ED
:1002F0000527B7402F4365462F66144E8036356874
:100300004F689543FF0300D515433560756800E0DD
:1003100014E04F689543BF0300D5154375600B4E3D
:1003200035684F689543FF0200D515433560756801
:100330004F689543BF0200D5154375605B1C0A6882
:100340001546DD4000D061E7F0BD00000018024016
:100350000004005000080050000C00504269134691
:100360000B401B0491430B4383617047002A01D06B
:100370008161704781627047014880687047000062
:100380000C0000200248816802788918816070475B
:100390000C00002010B508480024016882151143A4
:1003A0000160032000F00AF8002801D0012401E0D8
:1003B00000F040F8204610BD0020024000B5014684
:1003C00087B000220D2000F05BF80D2000F04CF803
:1003D00013480268C1140A4302600068084005908F
:1003E00004A9684600F022F900F03CF90D49FFF736
:1003F000BDFE0E490C4A0A600D4A401ECA604860A4
:10040000002008618860084600F079FB002802D0CF
:10041000012007B000BD054800F098FBF9E7000097
:100420004010024040420F00002C01407C000020A0
:10043000E703000008B50B48016801221143016081
:1004400000681040009007484038C26B01040A431E
:10045000C263C06B0022084003210090481F00F0D7
:100460000FF808BD40100240002805DBC106C90E88
:1004700001208840014908607047000000E100E069
:1004800010B500F03BFD10BD10B50F4C21680322E4
:100490005202914301432160C11FFF39FA390ED145
:1004A0000A480621006848430949FFF75FFE401CDF
:1004B00002E0002805D0401E61694905F9D40020FA
:1004C00010BD032010BD0000007000401800002087
:1004D00040420F00F8B50F46060043D04D4D286846
:1004E0004007400FB84213D22868C008C000384304
:1004F0002860FFF741FF044605E0FFF73DFF011BC1
:100500004548814261D828684007400FB842F4D17D
:100510003068424C81070DD5400704D5A0680721FB
:1005200009030843A060A0680F2109028843B1684D
:100530000843A0603078C00732D0706801280AD024
:1005400002280BD000280FD03449403103280ED0A8
:10055000C969890704E02168890301E021688901EC
:10056000002906DB0120F8BD21684905F8E7096A82
:10057000EFE7A168C908C9000143A160FFF7FCFECD
:10058000009006E0FFF7F8FE0099411A22488142E8
:100590001BD8A068382108407168C9008842F1D191
:1005A00028684007400FB84217D91A480168C9089F
:1005B000C90039430160FFF7DFFE054607E0FFF79A
:1005C000DBFE411B1448814201D90320F8BD1148CC
:1005D00000684007400FB842F1D13078400706D597
:1005E000A068072109038843F1680843A06000F070
:1005F0004DF8A1683C2289091140094A515CC9069D
:10060000C90EC8400749086007480068FFF7D6FED2
:10061000F8BD0000002002408813000000100240D6
:100620004C220008180000201000002010B50722FE
:1006300002600A4A93685B075B0F436093680F246C
:10064000240223408360926807231B031A40C26080
:10065000034800684007400F086010BD00100240CA
:10066000002002400648074900688968064A490494
:10067000490F8900515CC906C90EC8407047000087
:1006800018000020001002408C22000810B5204CF9
:10069000A068204A8006400F16D0A0688006410F4F
:1006A000501001290FD0A1688906490F022912D0E4
:1006B000A0688006400F042823D0A0688006400F61
:1006C000032821D0002010BD206801218004400FA4
:1006D0008140104612E0E1688B07E1689B0F4906F4
:1006E000490F491C032B00D01046FFF73FFDE1687E
:1006F0004904490E4843E168490F491CFFF736FD9C
:1007000010BD0120C00310BD7D20000210BD0000FF
:10071000001002400024F400F8B504007ED02078D8
:100720003827C007EB4D002846D0A868E968384054
:100730008907890F102802D008280BD001E003296F
:1007400008D001206268000482420AD1296801436E
:10075000296015E0286880032ED560680028DDD068
:100760002AE0052301211B0489049A422A6802D148
:100770000A432A60EAE782432A602868884328609F
:10078000606800280CD0FFF7F7FD064604E0FFF78D
:10079000F3FD801B642873D828688003F7D50BE02D
:1007A000FFF7EAFD064604E0FFF7E6FD801B64283C
:1007B000F1D828688003F7D42078800769D5A86825
:1007C000E96838408A070721920FC902102802D031
:1007D000002813D001E0022A10D0E068002846D09B
:1007E000286888432169084328602868FF2101316F
:1007F00008432860FFF7C0FD06462CE02A68520532
:1008000002D5E268002A89D06A687F231B029A43D6
:1008100063691B021A436A60002800E08DE00ED174
:1008200028688843216908432860286801218004DA
:10083000400F8140A848FFF799FCA8490860A848E4
:100840000068FFF7BBFD002877D122E0FFF794FD99
:10085000801B02289FD828684005F7D568687F214B
:1008600009028843616909020843686011E0296848
:10087000FF20013081432960FFF77EFD064605E039
:1008800098E0FFF779FD801B022884D8286840058E
:10089000F7D42078934E00072ED5A8688006400F25
:1008A00003280AD0A0690028306A16D00121084325
:1008B0003062FFF761FD07460BE0306A80071BD509
:1008C000A06900289FD017E0FFF756FDC01B022843
:1008D00070D8306A8007F7D50EE0400840003062DB
:1008E000FFF74AFD074604E0FFF746FDC01B02285C
:1008F00060D8306A8007F7D4207840076CD5A868A4
:1009000000278006400F042818D0E86BC00008D4E8
:10091000E96B012000070143E963E96B014001270E
:10092000009171480168C90519D401688215114305
:100930000160FFF721FD00900DE083E0F069800782
:100940004AD5A06800287DD046E0FFF715FD009944
:10095000401A02282ED864480068C005F5D5A16861
:10096000012910D004200529F16911D04908490056
:10097000F161F1698143F161A068002816D0FFF7A9
:10098000FBFC00900EE0F06901210843F061F3E701
:100990000143F161F7E7FFF7EFFC0099411A534873
:1009A00081426DD8F0698007F5D50EE0FFF7E4FCD1
:1009B000009007E064E0FFF7DFFC0099411A4B4824
:1009C00081425DD8F0698007F5D4002F04D0E96B2F
:1009D000012000078143E963E069002877D0A96816
:1009E0008906490F022951D00126360602282868B7
:1009F0000DD0B0432860E86880088000E860E868AF
:100A00003B490840E860FFF7B7FC04463AE0B043D2
:100A10002860FFF7B1FC074604E0FFF7ADFCC01B00
:100A200002282DD828688001F7D4616A206AA26A5A
:100A30000843E16A120211430843216B0843E96845
:100A40002C4A00E041E011400843E8602868304348
:100A50002860E868012109070843E860FFF78CFC7B
:100A6000044604E0FFF788FC001B022808D8286829
:100A70008001F7D52BE0FFF77FFC001B022801D98E
:100A80000320F8BD28688001F5D420E00128F8D0C3
:100A9000E868226A8107890F914216D17021626A43
:100AA0000140914211D17F21A26A09020140120244
:100AB00091420AD11F214904E26A0140914204D1C6
:100AC000400F216B4007884201D00120F8BD002073
:100AD000F8BD0000001002400024F40018000020BF
:100AE00010000020401002400070004088130000F9
:100AF000FFFFFEEF8C80C11F70477047704770B5D5
:100B0000040005D025462035687F002802D006E085
:100B1000012070BD00202877204600F016F8022042
:100B20006877211D206800F0ADF90122403422725F
:100B3000AA77EA7722706270A270E2702271627105
:100B4000A271E2716A77002070BD704701462031C2
:100B50004A7F012A01D00120704702224A770168AA
:100B6000CB6801221343CB6000680949884202D058
:100B70000849884207D18168074B1940062905D0EA
:100B8000DB1F994202D001681143016000207047C9
:100B9000002C0140000400400700010070470000E5
:100BA00070B50446006801690025C943890700291A
:100BB00015DBC168C943890711D4E91E0161012011
:100BC0002077206880698007204602D0FFF7E6FF83
:100BD00004E000F0A7F8204600F0A5F8257720688B
:100BE0000169C943490717D4C168C943490713D4E8
:100BF0000421C943016102202077206880698005B3
:100C0000800F204602D0FFF7C9FF04E000F08AF809
:100C1000204600F088F8257720680169C943090754
:100C200016D4C168C943090712D40821C943016118
:100C3000042020772068C0698007204602D0FFF793
:100C4000ADFF04E000F06EF8204600F06CF8257768
:100C500020680169C943C90617D4C168C943C906D8
:100C600013D41021C9430161082020772068C0698E
:100C70008005800F204602D0FFF790FF04E000F0CF
:100C800051F8204600F04FF8257720680169C943E4
:100C9000C90708D1C168C943C90704D1891E0161C8
:100CA000204600F041F820680169C943090609D4CB
:100CB000C168C943090605D48021C94301612046A2
:100CC000FFF71BFF20680169C943C90508D4C16843
:100CD000C943090604D4124901612046FFF70CFFFD
:100CE00020680169C943490609D4C168C943490656
:100CF00005D44021C9430161204600F01FF8206857
:100D00000169C943890609D4C168C943890605D464
:100D10002021C94301612046FFF7F0FE70BD0000AD
:100D2000FFFEFFFF7047704710B500680249884218
:100D300001D1FFF727FB10BD002C01407047FEE7F3
:100D400010B58CB000200A900AA800F066F90C4C8F
:100D50001422A0600B496846FFF71EFA002168467E
:100D600000F0B8F9074920601422143105A8FFF7F4
:100D700013FA002105A800F0ADF960600CB010BDB9
:100D8000000000202422000870B586B014216846B7
:100D9000FFF71BFA1048426B04210A434263426B7F
:100DA0000A400592416B012421434163406B0B4E85
:100DB000204065030590002229463046FFF7D6FA09
:100DC0000021029103910095019469463046FFF796
:100DD00019FA06B070BD0000001002400008005073
:100DE000FEE7704710B5FFF78BF9044601F08EF867
:100DF000002803D001200349000748602046FFF780
:100E000083F910BD00ED00E030B591B034216846A3
:100E1000FFF7DBF9002501200D950E950F95400297
:100E20001095FFF731FB0224E0010390009440206D
:100E3000059008200A9080030B9007940003049506
:100E40000C90099508946846FFF766FC002801D0CD
:100E500072B6FEE707200DA931C102210DA8109539
:100E6000FFF738FB002801D072B6FEE711B030BDA5
:100E70007047000010B50248FFF792FE10BD000059
:100E80007C00002070B50268174B184E984201D0C4
:100E9000B04203D17024A2434C682243144C154D38
:100EA000984208D0B04206D0134EB04203D0A042C0
:100EB00001D0A84204D103263602B243CE683243A1
:100EC0008026B2434E69324302608A68C2620A6871
:100ED0008262984203D0A04201D0A84201D10969A0
:100EE00001630121416170BD002C014000040040FC
:100EF0000044014000480140002000408307FF22D9
:100F0000DB0E9A408907090E9940002808DB830808
:100F100009489B001B1818689043084318607047E5
:100F20000007000F0838830804489B001B18D86985
:100F300090430843D861704700E400E000ED00E012
:100F400002E008C8121F08C1002AFAD17047704792
:100F5000002001E001C1121F002AFBD17047EFF30E
:100F60000580002800D001207047FFF713FAFFF733
:100F70004BFFFFF709FFFFF7E3FE00F049F8FEE73C
:100F800001460020842900D0C81C70470025ED438D
:100F90000A4C01260A4F76032946A06800F068F83B
:100FA000642000F02DF8A06800F03CF83146384687
:100FB000FFF7D4F9002000F0BBF8EDE700000020B7
:100FC000000800500025FF26ED430B4C2D3601276D
:100FD0007F032946A06800F04BF8206800F092F8E3
:100FE000304600F00DF839460448FFF7B7F9A0681D
:100FF00000F018F8EDE700000000002000080050A5
:1010000010B5002800D1012000F0BEFB002010BD6B
:1010100010B500F057FC002010BD10B5012000F005
:1010200007FD10BD38B5002405460094FFF797FF73
:1010300000280FD06946284600F0ECFD012801D0B9
:10104000FF2038BD009800280DD001200749000777
:10105000486008E000231A461946284600F04EFD75
:10106000012800D0FF24204638BD000000ED00E03C
:1010700038B5054600200090002D11D00024481CF2
:1010800010D0002900D00C46FFF769FF002814D0CB
:101090006A460021284600F0F7FD012813D104E03C
:1010A000802038BD0024E443EEE7009800280CD0EF
:1010B000012007490007486007E02146284600F064
:1010C0001FFE012801D0FF2038BD002038BD0000E0
:1010D00000ED00E03EB5044608200D46205EFFF717
:1010E0004FFF02A901910090208A2B4682B221680D
:1010F000606800F0D3FE012801D000203EBD0298B8
:101100003EBD000010B50446FFF729FF0028204629
:1011100007D001F051F8012805D1044900074860C3
:1011200001E000F0A1FB002010BD000000ED00E098
:1011300010B500F0EDFB002010BD0000F8B5134C19
:101140000F46E66805462068001D00F079FA681C25
:1011500007D1002F05D021680D48091D00F0A9FA1C
:10116000F8BD2068751945602168B54204D2A06BAE
:10117000091D00F086FAF8BD606B091D00F081FAC8
:10118000A06A8542F7D2A562F8BD00001C000020CD
:10119000A4010020F8B5054600F098FA2A4CA06892
:1011A000401CA0602068294F002803D060690028F7
:1011B00027D02CE02560A068012828D10026142023
:1011C0007043C01900F04FFA761C072EF7D31F4862
:1011D0008C3000F048FA1D48A03000F044FA1B485B
:1011E000B43000F040FA1948C83000F03CFA174813
:1011F000DC3000F038FA15488C3060631430A0639E
:1012000005E02068E96AC06A884200D82560606A03
:10121000401C60626864E86A2169884200D92061E4
:1012200014214843C019291D00F043FA00F05AFA6E
:101230006069002806D02068E96AC06A884201D245
:1012400000F096FAF8BD00001C000020C800002045
:1012500010B5026C0C46002A0CD0C1688B18C36014
:1012600081688B4201D2194601E00168C1602046C5
:10127000FEF792FF10BDF8B5856B174604460026B1
:10128000026C002A11D0002F19D0E068FEF784FF0D
:10129000E168206C091AE1602268914202D2A168DB
:1012A000081AE060022F17D019E02068002816D134
:1012B000A06800F089FE06460020A0600FE060688C
:1012C000FEF76AFF216C606840186060A168884280
:1012D00005D32068606002E0002D00D06D1E6D1CFB
:1012E000A5633046F8BD10B50446006B00F008FA5F
:1012F000204600F005FA10BD03210E48890242077E
:1013000005D0C01DC0080B4AC000821A891A0A4ABB
:101310000023411809C20839C908C900203A1160E0
:101320004B600B600B1A0AC093600120C00753602A
:1013300050617047B8010020700000200F4E104C23
:101340003746C83F11E000F0C1F9F068C568281DB4
:1013500000F076F9A068401EA0606068401E6060E2
:1013600000F0C0F92846FFF7BEFF60680028EAD108
:1013700038680128F9D900F0FBF9F6E79001002060
:101380001C000020FFB581B097000C9C0D460A9E02
:10139000A5223946206BFEF711FF206B3F1FC019B5
:1013A000C008C0000090400701D072B6FEE7274693
:1013B00040370021002D0CD0002023182A5C203358
:1013C0001A752A5C002A02D0401C1028F5D3F97047
:1013D00001E034200155072E00D30626E662E664BC
:1013E0000D46201D216500F049F92046183000F017
:1013F00045F924610720801B6462A06165653D7624
:10140000049A0199009800F00BF920600B980028CD
:1014100000D0046005B0F0BD30B5114900E01146C0
:101420000A688242FBD34B685C18844203D140684F
:1014300018184860084643681C18944209D1084CA3
:10144000183C2468A24209D052689A1842600A687F
:1014500012680260814200D0086030BD0460F9E784
:101460007000002010B5044600F030F9A06B002891
:1014700004D0002400F036F9204610BD0124F9E71D
:101480000648416B0968002905D0416BC968C968E5
:101490004968816270470021C943FAE71C000020B7
:1014A00003480068401C72B600D0FEE7FEE700006B
:1014B00078000020002100280BD0084B42699A4296
:1014C0000AD1806A1A46283A904205D0002802D0F4
:1014D00002E072B6FEE7012108467047A401002031
:1014E000F8B5044600F0F2F8254640350526AE571B
:1014F000274624370BE0606A00280AD0384600F0FF
:10150000D3FD002801D000F05FF9761E76B2002EE0
:10151000F1DC0027FF436F7100F0E4F800F0D6F82B
:101520000426AE572046103000900BE020690028BA
:101530000AD0009800F0B8FD002801D000F044F96E
:10154000761E76B2002EF1DC2F7100F0CBF8F8BDDC
:10155000F8B50546002700F01FFA2A4E306800282B
:1015600001D1FFF7C9FE7069054242D1002D40D07C
:101570000835680708D06807400F0821081A451980
:10158000680701D072B6FEE7002D32D07068854240
:101590002FD81C48183001460C6801E020460C4644
:1015A0006168A94202D221680029F7D131688C42D2
:1015B0001FD007682168016060680837411B102947
:1015C00008D96019420701D072B6FEE74160656034
:1015D000FFF722FF61687068401A7060B26890423D
:1015E00000D2B06070690143002003C4F068401C61
:1015F000F06000F08BFD780701D072B6FEE7384648
:10160000F8BD00005800002004490868002803D0F5
:101610000868026D521C0265086870471C000020B3
:1016200010B50124031F24061C601B1F1960191F1D
:10163000024B0B60143940380A6010BDA114000839
:101640004368826801699A60836842685A604A68A0
:10165000824201D182684A60002202610868401E0D
:101660000860086870470146083100224160D24393
:10167000C160826001610021016070470021016149
:10168000704730B50B685A1C02D00246083202E09F
:10169000026904E02246546825689D42FAD95368DD
:1016A0004B6099608A60516008610168491C016063
:1016B00030BD42684A6093688B609368596091605E
:1016C00008610168491C01607047000072B6044857
:1016D0000168491C0160BFF34F8FBFF36F8F7047E4
:1016E0007800002005490868002804D0401E0860E2
:1016F00000D162B6704772B6FEE7000078000020A5
:1017000070B500281DD004460E4D083C606869691C
:10171000084201D172B6FEE72268002A01D072B6F3
:10172000FEE78843606000F037F960686968401838
:1017300068602046FFF770FE2869401C286100F0B1
:10174000E5FC70BD5800002010B5074C002020615A
:10175000A06106487D21C9000068FEF707FD401E14
:1017600060610720206110BD00E000E0180000204B
:101770000120044900074860BFF34F8FBFF36F8F0C
:101780007047000000ED00E010B502000FD00948DE
:10179000006B002801D072B6FEE700F0FDF80021D2
:1017A0001046FFF7CBFC00F0B1FC002801D1FFF799
:1017B000DFFF10BD1C00002002490A6A0260C968F0
:1017C000416070471C00002001490120C86170473A
:1017D0001C00002010B50C46002809D005490968F6
:1017E0001831FFF74EFF01212046FFF7A7FC10BD7F
:1017F00072B6FEE71C00002070B504002FD0226DE9
:10180000002A0ED0E06C884200D30146E06A88428C
:1018100025D0012A23D1124D2A68944203D172B6F1
:10182000FEE772B6FEE7E162A269002A02DB072248
:10183000511AA16114220B4E5043616980198142F3
:101840000DD1201DFFF7FCFEE06A2969884200D90E
:101850002861142148438019211DFFF72AFF70BD1C
:101860001C000020C800002070B5040023D0134DD8
:10187000286884421ED0FFF729FF2046FFF71AFE92
:10188000002815D0201DFFF7DBFEE06A2969884299
:1018900000D928611421484309494018211DFFF748
:1018A00008FFE06A2968C96A884201D3FFF760FF30
:1018B000FFF718FF70BD72B6FEE700001C000020A5
:1018C000C80000201CB50E48002401902346802249
:1018D0000CA100940D4800F0E1FA012803D0401C4F
:1018E0000CD172B6FEE772B600210548C9432C3808
:1018F000816201214161C46000F082F81CBD0000DA
:101900004800002049444C45000000003D130008F9
:1019100070B50446FFF7DAFE1D4D002C00D12C688F
:10192000201DFFF78DFEA06A002803D02046183046
:10193000FFF786FE211D1748FFF7BBFE204640300B
:10194000017E0026012900D10676FFF7CBFE6869EB
:10195000002805D0FFF7BAFEFFF792FDFFF7C2FEA1
:101960002868844209D16869002807D0286B0028BC
:1019700001D072B6FEE7FFF7FBFE70BD05480068B8
:10198000A968884201D12E6070BD00F00DF870BDCD
:101990001C000020A40100200248016B491C0163C7
:1019A000704700001C00002010B51348016B00298F
:1019B00002D00121C16110BD0021C16101690F4A3E
:1019C00002E0002915D0491E14234B43D358002BA5
:1019D000F7D014234B439A18536814465B680834B5
:1019E0005360A34201D15B685360DA680260016111
:1019F00010BD72B6FEE700001C000020C8000020E9
:101A000010B50948016AFF22120411430162016AFC
:101A1000120211430162FFF797FE0449002008609B
:101A2000FEF75AFB002010BD00ED00E0780000201A
:101A300010B502460021012000F00CF8041E07D06A
:101A40000021816001600B460A46C16000F056F833
:101A5000204610BDF8B517460E46050014D0704359
:101A60005030FFF775FD04000CD020465030002E9A
:101A70000CD02060266420460121E56300F008F8C0
:101A80004C2007552046F8BD72B6FEE72460F1E70A
:101A900070B50D46040025D0FFF718FE216CE06BF1
:101AA000484321684118A1600021A1632168616059
:101AB000E06B216C401E484321684118E160002121
:101AC000C94320464030017141713038002D0BD0A0
:101AD000FFF7C9FD20462430FFF7C5FDFFF702FEE2
:101AE000012070BD72B6FEE721690029F6D000F032
:101AF000DBFA0028F2D0FFF73BFEEFE7FFB5002648
:101B000083B01D46040003D00498002802D006E0EC
:101B100072B6FEE7206C002801D072B6FEE7022DF7
:101B200004D1E06B012801D072B6FEE700F0DEF9C7
:101B30000027002804D10598002801D072B6FEE7DE
:101B4000FFF7C4FDA06BE16B884207D3022D05D0DF
:101B50000598002817D0002E18D01BE02A462046F2
:101B60000499FFF788FB616A002903D020462430DE
:101B700000F09AFA002801D0FFF7FAFDFFF7B2FD56
:101B8000012007B0F0BDFFF7ADFD22E06846FFF78A
:101B900013FE0126FFF7A6FDFFF7FEFEFFF796FDF9
:101BA0002046403004214156491C00D107710521CF
:101BB0004156491C00D14771FFF794FD05A96846BD
:101BC00000F03EF9002806D02046FFF789FC00F01F
:101BD0009DFA0020D5E7FFF779FDA06BE16B884205
:101BE00010D1FFF77FFD204610300599FFF7F2FD79
:101BF0002046FFF775FC00F089FA0028A0D1FFF716
:101C0000B7FD9DE7FFF76EFD2046FFF769FC00F08A
:101C10007DFA95E770B50D46040004D0206C0028CD
:101C200003D072B6FEE772B6FEE72068002804D142
:101C3000A068002801D072B6FEE7FEF761FAA26B39
:101C40000646E06B904219D92146403105200856DE
:101C5000521CA263421C03D0401C487101240EE0B8
:101C6000606A0028FAD02046243000F01DFA0028CF
:101C7000F4D0002DF2D001202860EFE70024304698
:101C8000FEF742FA204670BDF7B582B0040003D0DB
:101C90000398002802D006E072B6FEE7206C002808
:101CA00001D072B6FEE7FEF72BFA0090A66B002E6D
:101CB0001FD020464030042545570746204603994B
:101CC000FFF7C6FA761EA663681C03D06D1C3D7133
:101CD00001240FE020690028FAD02046103000F0DF
:101CE000E3F90028F4D004980028F1D00121016024
:101CF000EEE700240098FEF707FA204605B0F0BD95
:101D0000F3B5002683B0041E354604D0206C0028AD
:101D100003D072B6FEE772B6FEE700F0E7F80027E0
:101D2000002804D10498002801D072B6FEE7FFF71E
:101D3000CDFCA06B002817D0401EA06320680028AF
:101D400002D1FFF761FCA0602069002807D020467F
:101D5000103000F0A9F9002801D0FFF709FDFFF7C6
:101D6000C1FC012005B0F0BD0498002802D0002E6F
:101D700007D00AE0002D01D072B6FEE7FFF7B2FCF3
:101D80005CE06846FFF718FD0126FFF7ABFCFFF7A4
:101D900003FEFFF79BFC2046403004214156491CBE
:101DA00000D1077105214156491C00D14771FFF749
:101DB00099FC04A9684600F043F80028204614D096
:101DC000FFF78EFB00F0A2F92046FFF74BFB00283F
:101DD000ADD0002D32D0FFF779FC606A002828D002
:101DE000206B07210068091A24E0FFF73BFB00285D
:101DF00019D02068002807D1FFF768FCA06800F020
:101E000017F90546FFF76EFC204624300499FFF7CA
:101E1000E1FC2046FFF764FB00F078F9002886D14A
:101E2000FFF7A6FC83E72046FFF75AFB00F06EF9A8
:101E30007DE70021A068FFF7DFFC9FE7002091E726
:101E4000F8B50C46050012D0002C12D0FFF73EFC6E
:101E5000114BDA686E682068911B471C0BD02F6805
:101E60001B6A9F420CD096420AD8012404E072B645
:101E7000FEE772B6FEE70024FFF734FC2046F8BD0B
:101E8000884205D9401A20602846FFF795FCF2E702
:101E900000202060E9E700001C000020FFB585B0AD
:101EA000164690000F9FFFF753FB05001AD05C20E9
:101EB000FFF74EFB040012D0256300210E9803911A
:101EC0000197009002943246089B06990598FFF707
:101ED00059FA2046FFF75EF9012009B0F0BD284607
:101EE000FFF70EFC0020C043F7E7000006484169F9
:101EF000002904D0006B002803D000207047012087
:101F000070470220704700001C000020F8B52C4CE0
:101F10000027206B002804D0A069401CA06138462F
:101F2000F8BDE668761CE6600ED1606B006800289C
:101F300001D072B6FEE7606BA16B6163A063206A9B
:101F4000401C2062FFF79CFAA06A86420AD3606BAD
:101F50000068002814D0606BC068C5686868864255
:101F600011D2A06220681421C06A4843154908585C
:101F7000012800D90127E0690028D0D00127CEE749
:101F80000020C043EDE7281DFFF75AFBA86A002890
:101F900003D028461830FFF753FBE86A21698842CE
:101FA00000D920611421484306494018291DFFF734
:101FB00080FBE86A2168C96A8842C8D30127C6E75E
:101FC0001C000020C800002070B500210446002835
:101FD00028D0154D2868844201D072B6FEE7206DE6
:101FE000002808D0401E2065E36CE26A9A4219D0AE
:101FF000002802D016E072B6FEE7201DFFF720FB96
:10200000E06C0721E062081AA061E06A2969884251
:1020100000D928611421484304494018211DFFF7C5
:1020200048FB0121084670BD1C000020C8000020AC
:1020300070B504460020002C2AD0194DE16A2A68A8
:10204000D26A914225D2A069002804DB28680721C2
:10205000C06A081AA061E06A1422124E50436169F6
:102060008019814210D1201DFFF7EAFA2868C06A62
:10207000E0622969884200D9286114214843801907
:10208000211DFFF716FB02E02868C06AE06201200C
:1020900070BDE16C2A68D26A9142F8D370BD00002D
:1020A0001C000020C800002070B5C068C468002C67
:1020B0000BD0204618300646FFF7C2FA114D286BA8
:1020C000002804D0314610480FE072B6FEE7201D0C
:1020D000FFF7B6FAE06A2969884200D9286114211D
:1020E00048430949B4394018211DFFF7E2FAE06A74
:1020F0002968C96A884202D90120E86170BD0020C0
:1021000070BD00001C0000207C010020F8B5284CA8
:102110000025206B2E46002808D0FFF7D7FA206B49
:10212000401E2063206B002802D03DE072B6FEE71F
:10213000A168204F00291DD136E0F868C5682846FF
:102140001830FFF77DFA281DFFF77AFAE86A21694F
:10215000884200D92061142148431649B4394018F7
:10216000291DFFF7A6FAE86A2168C96A884201D3E7
:102170000120E06138680028DFD1002D01D0FFF791
:102180007FF9A569002D09D00127FFF7BFFE0028C0
:1021900000D0E7616D1EF8D10020A061E069002841
:1021A00002D00126FFF7E4FAFFF79CFA3046F8BDAB
:1021B0001C0000207C010020F8B5002604000FD090
:1021C000FDF79EFF07462046FFF774F900281FD051
:1021D000124D286B002805D021461831104815E013
:1021E00072B6FEE7E06A2968C96A884200D3012610
:1021F000201DFFF725FAE06A2969884200D9286185
:10220000142148430649B4394018211DFFF751FAFB
:102210003846FDF779FF3046F8BD00001C0000206D
:102220007C010020AC2200088D0F00080200000095
:102230000000000080000000B4220008C50F000864
:10224000FEFF000000000000800000000000000011
:10225000000000000000000000000000000000007E
:10226000000000000000000000000000010000006D
:10227000020000000300000004000000060000004F
:102280000700000008000000090000000000000036
:10229000000000000000000000000000010000003D
:1022A0000200000003000000040000007468726572
:1022B000616431007468726561643200DC22000878
:1022C000000000207C000000400F00085823000898
:1022D0007C0000203C110000500F000800000000AE
:1022E00000000000000000000100000004000000E9
:1022F000000000000024F4000000000000000000C6
:1023000000000000000000000000000000000000CD
:1023100000000000000000000000000000000000BD
:1023200000000000000000000000000000000000AD
:10233000000000000000000000000000000000009D
:10234000000000000000000000000000000000008D
:0823500000000000AAAAAAAADD
:04000005080000C12E
:00000001FF
